S02B00002F686F6D652F646A623234332F4357342F576172702D6669726D776172652F6275696C642F6B736404
S113000000060020310500005905000059050000D4
S113001000000000000000000000000000000000DC
S1130020000000000000000000000000590500006E
S11300300000000000000000590500005905000000
S11300405905000059050000590500005905000034
S11300505905000059050000590500005905000024
S1130060A533000059050000AF3300005905000016
S11300705905000059050000590500005905000004
S113008059050000590500005905000059050000F4
S1130090811500009915000059050000590500005C
S11300A059050000590500005905000059050000D4
S11300B059050000590500005905000059050000C4
S1130400FFFFFFFFFFFFFFFFFFFFFFFFFE3DFFFFBB
S113041008B5054B054803331B1A062B03D9044BB7
S1130420002B00D0984708BDB4FFFF1FB4FFFF1F87
S1130430000000000648074908B5091A8910CB0FC7
S11304405918491003D0044B002B00D0984708BD1D
S1130450B4FFFF1FB4FFFF1F0000000010B5074CDE
S11304602378002B09D1FFF7D3FF054B002B02D0D3
S1130470044800E000BF0123237010BDB4FFFF1F38
S1130480000000007462000008B5094B002B03D083
S11304900848094900E000BF08480368002B02D15E
S11304A0FFF7C8FF08BD064B002BF9D09847F7E7C4
S11304B00000000074620000B8FFFF1FB0FFFF1FC0
S11304C000000000144B002B00D1124B9D4640222B
S11304D092029A1A924600218B460F461148124AFC
S11304E0121A04F010FF0D4B002B00D098470C4B50
S11304F0002B00D098470020002104000D000B4879
S113050004F085FE04F0BCFE2000290001F054F93B
S113051004F08CFE0000080000060020000000002B
S113052000000000B4FFFF1FC00200205952000069
S113053072B606480649074A02600A6002F03CFFA8
S113054002F07CFF62B6FFF7BDFF000080E100E02F
S113055080E200E0FFFFFFFF00480047590500006C
S113056002B4714649084900095649008E4402BC48
S11305707047C04602B4714649084900095C490005
S11305808E4402BC7047C046002243088B4274D399
S113059003098B425FD3030A8B4244D3030B8B4280
S11305A028D3030C8B420DD3FF22090212BA030C89
S11305B08B4202D31212090265D0030B8B4219D36A
S11305C000E0090AC30B8B4201D3CB03C01A52418A
S11305D0830B8B4201D38B03C01A5241430B8B42D2
S11305E001D34B03C01A5241030B8B4201D30B03BB
S11305F0C01A5241C30A8B4201D3CB02C01A5241E2
S1130600830A8B4201D38B02C01A5241430A8B42A4
S113061001D34B02C01A5241030A8B4201D30B028D
S1130620C01A5241CDD2C3098B4201D3CB01C01AA7
S1130630524183098B4201D38B01C01A52414309B1
S11306408B4201D34B01C01A524103098B4201D39F
S11306500B01C01A5241C3088B4201D3CB00C01A0C
S1130660524183088B4201D38B00C01A5241430884
S11306708B4201D34B00C01A5241411A00D20146A9
S1130680524110467047FFE701B5002000F0FCF826
S113069002BDC0460029F7D003B5FFF775FF0EBCB5
S11306A04243891A1847C04603460B437FD40022AD
S11306B043088B4274D303098B425FD3030A8B42F2
S11306C044D3030B8B4228D3030C8B420DD3FF225C
S11306D0090212BA030C8B4202D31212090265D02A
S11306E0030B8B4219D300E0090AC30B8B4201D3DD
S11306F0CB03C01A5241830B8B4201D38B03C01A24
S11307005241430B8B4201D34B03C01A5241030B9A
S11307108B4201D30B03C01A5241C30A8B4201D34B
S1130720CB02C01A5241830A8B4201D38B02C01AF6
S11307305241430A8B4201D34B02C01A5241030A6D
S11307408B4201D30B02C01A5241CDD2C3098B4252
S113075001D3CB01C01A524183098B4201D38B01CF
S1130760C01A524143098B4201D34B01C01A524172
S113077003098B4201D30B01C01A5241C3088B42B7
S113078001D3CB00C01A524183088B4201D38B00A2
S1130790C01A524143088B4201D34B00C01A524144
S11307A0411A00D201465241104670475DE0CA0F1B
S11307B000D04942031000D34042534000229C46DB
S11307C003098B422DD3030A8B4212D3FC228901E5
S11307D012BA030A8B420CD3890192118B4208D3BB
S11307E0890192118B4204D389013AD0921100E01D
S11307F08909C3098B4201D3CB01C01A5241830931
S11308008B4201D38B01C01A524143098B4201D35D
S11308104B01C01A524103098B4201D30B01C01A88
S11308205241C3088B4201D3CB00C01A5241830802
S11308308B4201D38B00C01A5241D9D243088B4258
S113084001D34B00C01A5241411A00D201466346FB
S113085052415B10104601D34042002B00D549425F
S1130860704763465B1000D3404201B5002000F09E
S11308700BF802BD0029F8D003B5FFF715FF0EBC35
S11308804243891A1847C0467047C046F0B55F46D0
S113089056464D464446F0B40F0387B098464D0083
S11308A03B0BCC0F061C924681469B466D0D019472
S11308B06BD0664B9D4235D080275B467F031F4338
S11308C0F3009946624BFF00400F9C460743002308
S11308D0BB46002665440093424617035000D20FDE
S11308E053463F0B400D904600D172E0574A904268
S11308F067D080235B031F435346554A5B0FFF00B9
S11309001F43944653460021DB0060444246624044
S113091092462D1A0E430F2E00D9A1E04D48B60081
S1130920805987465B461E4300D076E000239B46F1
S11309309946023308260093CEE799464346BB46C0
S113094001930091009B022B6BD1019B9A460021DD
S113095053460122002789461A403C4B00213F039D
S11309600C0D24053F0B27433B4C1B0527401F431D
S11309707F00D2077F0817434846391C07B03CBCA8
S113098090469946A246AB46F0BD03433ED05B4633
S1130990002B00D19CE1584600F0A8FD2823311C0F
S11309A01B1A021C5F46D940083A97400B1C96401C
S11309B03B439B46B1460023284D00262D1A009345
S11309C08AE7524603213A43A0D10027002302219B
S11309D09CE752463A4315D0002F00D185E1381CDC
S11309E000F084FD021C28215046891A131CC840BB
S11309F05146083B99409F400B1C07431748002170
S1130A00801A83E70027002301217FE700239B4608
S1130A1099460133042600935EE703230C260093D2
S1130A205AE7032B00D13CE2012B00D0BFE11A1C92
S1130A30019B1A4000210023002789468EE70023EA
S1130A408027994600223F03004B87E7FF070000F9
S1130A5001FCFFFF68560000FFFF0F800DFCFFFF45
S1130A60BB4500D951E100D14CE14A460392002232
S1130A705C469046013D180E3F0238431B02019329
S1130A80030C994603041B0C4946061C201C1F1C1E
S1130A900093FFF779FD021C7A4302904946201C1B
S1130AA0171CFFF7F7FD039B09041B0C19438F4226
S1130AB00CD9029B8919013B8E4200D952E18F4225
S1130AC000D84FE1029B8919023B0293CC1B201CE6
S1130AD04946FFF759FD009F834647434946201C7A
S1130AE0FFF7D8FD039A0B041404240C23439F42FC
S1130AF00DD95A469B19013A9E4200D930E19F42D2
S1130B0000D82DE10222524294469B19E344029AF2
S1130B10DB1B17045A463A439346019C170C220CDC
S1130B20101C04925A4611042204120C141C090CC1
S1130B307C4305924A43414347436118100C09180A
S1130B408C4203D980204002844667440C0C120472
S1130B500804120C3C198118A34200D2E5E000D12C
S1130B60DFE01F1B43465C1AA04592415242BF1A64
S1130B70B74200D10EE1381C4946FFF705FD009B42
S1130B80029043434946381C9846FFF783FD230CE3
S1130B900F041F43B8450CD9029BBF19013BBE4249
S1130BA000D9FBE0B84500D8F8E0029BBF19023B2E
S1130BB002934346FF1A4946381CFFF7E5FC009BA5
S1130BC0039043434946381C9846FFF763FD2404C9
S1130BD00904240C214388450CD9039B8919013B42
S1130BE08E4200D9DCE0884500D8D9E0039B8919FE
S1130BF0023B03934346C91A029B039A1B04059CB8
S1130C001A43100C13049146221C049F1B0C5A43D4
S1130C1044437B437843E318170CDB199C4203D904
S1130C2080246402A44660441C0C12041B04120CAD
S1130C3000199B18814200D296E000D1FCE04A469C
S1130C4001231A4391469B4BEB18002B00DC99E0DF
S1130C504A4652070AD00F2249460A40042A05D0C0
S1130C600431494592418946524293445A46D2013D
S1130C7006D55A46904B1A4080239346DB00EB1866
S1130C808E4A934200DD62E64A465946D208490735
S1130C9011435A4689465702514601225B053F0BD0
S1130CA05B0D0A405AE680205A460003024208D0EF
S1130CB0074206D107433F0399463F0B4246804B08
S1130CC04CE65F4607433F033F0B221C7C4B45E643
S1130CD000F00CFC031C2030272800DC5EE6083BF7
S1130CE09E400023B346994665E6504600F0FEFB5D
S1130CF0021C2032272A00DC75E657460838874054
S1130D0000237BE6994500D2AFE65A46594654087B
S1130D104A46C8075208024303924A46D2079046FD
S1130D20A9E60027884500D31CE7019F5A46BC4624
S1130D30E044B845BF417F42BF19FF18013ABE42A3
S1130D4006D2BC425FD800D19FE03F1B934609E71F
S1130D50B742FAD1019B4345F3D9371B934601E7C8
S1130D609346D4E60293B1E64A468919013A8E4283
S1130D7018D99146814200D061E7019A9A4200D085
S1130D805DE760E74F4F7F1B382F13DD0122534689
S1130D901A404FE601235B42994654E7029308E761
S1130DA0039327E788423CD874D0914647E7019BD8
S1130DB09A4648E71F2F44DC434B4A469C465B4611
S1130DC06544FA40AB4013434A46AA40151C6A1EC8
S1130DD095415A46FA402B43171C5A0709D00F2253
S1130DE01A40042A05D01A1D9A429B415B42FF18FF
S1130DF0131C3A023ED55346012200211A40002713
S1130E0001238946AAE502235B429C46019AE344F6
S1130E109446E04490459B415B429B19DF193F1B7C
S1130E20A0E6019F4A467C00BC42BF417F42BF19F5
S1130E30023AC91901949CE7002B95D10022019232
S1130E409BE75A46214B5B1BDA40202F27D0204BCF
S1130E509C465B466544AB4049460B43591E8B4157
S1130E601343072200271A4007D00F2200271A40F5
S1130E70042AB8D17A077F023F0BDB081343994653
S1130E80012253461A40002368E54145BBD89346E6
S1130E90002767E6019C9C42C3D391466DE700237B
S1130EA0DAE780275B463F031F433F033F0B019A6A
S1130EB0034B53E5FF030000FFFFFFFEFE070000A6
S1130EC0FF07000002FCFFFF1E040000E2FBFFFF1F
S1130ED03E040000F0B55F4656464D464446F0B425
S1130EE0051C061C080387B099464F00030BCC0F62
S1130EF092469B467F0D019467D06C4B9F4236D03F
S1130F0080205B4640031843C0006B0F1843684BB6
S1130F1083469C4600239846EE00674400934B4664
S1130F2049461D03C90F5B0052462D0B5B0D8946D4
S1130F3000D16EE05D498B4264D080205C4940035F
S1130F408C4600210543ED00500F0543D200634455
S1130F504846FF187B1C9A46009B604002900B4356
S1130F600F2B00D9ACE053489B00C3589F465B4607
S1130F701D4300D082E00823009300239B460233E4
S1130F8000269846CBE7029B01934346022B59D196
S1130F90012400250026019B1C40444B00212D0305
S1130FA00A0D12052D0B1543434A1B0515401D431D
S1130FB06D00E4076D082543301C291C07B03CBCB8
S1130FC090469946A246AB46F0BD2B434ED05B46B5
S1130FD0002B00D185E1584600F088FA021C282332
S1130FE0291C9B1A161C5846D940083EB0400B1CBD
S1130FF0B54003439B462E1C0023304F0093BF1A79
S113100098468CE7514629432ED10025002202211F
S11310109EE75146294323D0002D00D154E1281CDA
S113102000F064FA031C28215046C91A1A1CC8404F
S11310305146083A914095400A1C05431F48002137
S1131040C31A85E7032B00D1C2E1012B00D06DE167
S11310504446019B00251C40E4B2002300269DE782
S113106000250022012173E7032171E70423009383
S113107000239B4601330026984650E70C23009337
S1131080093B98464BE7802500242D030026074B97
S113109084E74B46AB46161C0193884675E7029BD2
S11310A0AB46161C019388466FE7C046FF07000055
S11310B001FCFFFFA8560000FFFF0F800DFCFFFF9F
S11310C0330C3604360C9C46331C140C1204120CDC
S11310D05343984663465343994663466343019397
S11310E0331C41466343090C4B445B18994505D9AD
S11310F0802040028146019949440191190C0391D1
S113110041460904090C1B045B1804932B0C9846F4
S1131110331C2D04290C4B4360460093434665461B
S113112058435E43009B4D431B0C9946AE194E44F5
S11311308446B54203D980235B029946CC44350CDE
S11311402B1C0398634484460593009B36041B04BC
S11311501B0CF3189C446046039058460504060C87
S1131160280C84465043351C8146604665434443FD
S11311704846000C8346724314195C44A24203D9C6
S11311808022520293465D44220CAD184A46120452
S1131190120C24044046A41862464A437143464351
S11311A060460096464670438046100C8446884448
S11311B0E044414505D9802149028C4600996144A7
S11311C00091019803998446614499429B415B4292
S11311D099460598434684461204120C1B049B1836
S11311E063449C46AB4683429B4140460A19CC4427
S11311F0A2428941E344CC45B6415C46000C80469A
S1131200494276425B426418334398448C42894194
S1131210AB459B4149425B4219430D1C009B45442D
S1131220EE187602E50D2E43B346049B56021E4388
S1131230731E9E415B46D20D324366021643DB01A8
S11312400AD50123334076081E435B46DB071E4361
S11312505B465B089B465746634BFB18002B5ADDE5
S1131260720709D00F223240042A05D0321DB2423F
S1131270B6417642B344161C5A46D20106D55A46A4
S11312805A4B1A4080239346DB00FB18584A93427A
S113129034DD0124029B00251C400026554B7DE6CD
S11312A080205B460003034208D0054206D1054373
S11312B02D032D0B4C46161C4E4B6FE65D46054325
S11312C02D032D0B4B4B69E6504600F00FF9031C20
S11312D02033272B00DCA6E655460838854000223B
S11312E0ACE6281C00F002F9021C2032272A00DC9C
S11312F075E6083885400026AB467DE65A46F60872
S1131300520716435A4601245502029A5B052D0BD7
S11313105B0D144042E6384DED1B382D0ADD0124E7
S1131320029B00251C400026002337E6019B5746FC
S1131330029391E71F2D25DC304B321C9C466744F9
S1131340BE405B46BB40371CEA407E1EB741134398
S11313503B431E1C5B46EB401D1C730709D00F2347
S11313603340042B05D0331DB342B6417642AD1948
S11313701E1C2B0220D50124029B00251C400026A4
S113138001230BE65A461E4BDB1BDA40131C202DAF
S11313901CD01C4A94465A466744BA40171C3E4324
S11313A0721E96411E4307230025334007D00F23A6
S11313B000253340042BD6D16B076D022D0B01247D
S11313C0F6081E43029B1C400023E7E50027E6E7DE
S11313D080255B4601242D031D43019B2D032340DF
S11313E01C1C2D0B034BD9E5FF030000FFFFFFFE80
S11313F0FE070000FF07000002FCFFFF1E040000C0
S1131400E2FBFFFF3E0400000B0330B5134C1A0B44
S11314104B00051C5B0DC90F0020A34210DD1048D2
S113142083420EDC80200F4C40030243E41A1F2C3D
S11314300ADD0D48C31ADA40131C484243405818C9
S113144030BD0A4BC818FBE7281CE040084CA446F2
S113145063449A40131C0343EFE7C046FE030000B5
S11314601D0400003304000013040000FFFFFF7F8D
S1131470EDFBFFFF38B5041E16D0C50F00D0444263
S1131480201C00F033F8174B1B1A0A2821DC021C1D
S1131490211C153291400A1C0B21081AC4405B051B
S11314A02403240B5B0D03E0002500230024002209
S11314B00021101C24030A0D1205240B14430A4AAC
S11314C01B0514401C436400ED0764082C43211CD5
S11314D038BD0B3884405B052403240B5B0D0022CC
S11314E0E6E7C0461E040000FFFF0F801C21012315
S11314F01B04984201D3000C10391B0A984201D3F3
S1131500000A08391B09984201D30009043902A2D0
S1131510105C40187047C046040302020101010137
S1131520000000000000000008B50A4B1A68002AF9
S113153001D1094A1A601A6808491018884206D964
S113154003F06EFE0C2303600120404201E01860AA
S1131550101C08BDD0FFFF1FC0020020C0020020E5
S1131560022380788342804140427047437A0020BE
S1131570013B012B03D901200B7801330B70704719
S113158008B5002003F0ACFA002803D00020011CA9
S113159003F09AFA08BD0000024A1368013313608D
S11315A07047C0461000002037B5002002F0CEF985
S11315B0C02300250D4A9B0013600D4A0D4C136097
S11315C00D4A281C13600D4B25716571A5711A68AD
S11315D0FA239B0053430A49236003F0CFFA281CE3
S11315E0211C01AA03F00EFB37BDC0461890145409
S11315F01C9014540800002000A0145414FEFF1F73
S11316001400002008B5002002F0A5F98023054A43
S11316109B001360044A00201360044902F006FD95
S113162008BDC0460CA0145410A01454D4FFFF1FCE
S113163008B50023354A36491360364A1360364AE2
S11316400133FF331360354A1360354A1360354A5A
S11316501360354A1360354A1360354A136001221A
S113166008780240081C3349002A01D00B6000E0CE
S11316700A60314A3149136000220A6030490A6025
S1131680304A1360304A1360304A1360304A1360A2
S1131690304A1360304A13600378DB0703D5022015
S11316A0FF3002F0D5FB092002F0E0FB0C2002F031
S11316B0DDFB052002F0DAFB082002F0D7FB062050
S11316C0FF3002F0D3FB0E20FF3002F0CFFB83206B
S11316D0400002F0CBFB0820FF3002F0C7FB0C20D7
S11316E0FF3002F0B5FB8220400002F0BFFB042073
S11316F0FF3002F0BBFB072002F0B8FB062002F02B
S1131700B5FB8020400002F0B1FB08BD0C901454DE
S11317100CFEFF1F10901454149014541890145479
S11317201C90145420901454249014543090145445
S113173000A0145404A0145408A014540CA014546D
S113174010A0145414A0145418A014541CA014541D
S113175028A014542CA0145434A0145408B50920FF
S113176002F084FB08BD08B50C2002F07FFB08BD25
S113177008B5FFF7F3FFFFF7F6FF8320400002F000
S113178067FB024B186801F01BFF08BD08FEFF1F32
S1131790031C303B021C181E09280CD9131C613B86
S11317A0052B01D8573A05E0131C413B0020052BBB
S11317B001D8373A101C704720224C23F0B5B1B041
S11317C002AFBA18D61800210722301C03F09BFD83
S11317D020227423BA18D4182022683BBA18D318CC
S11317E09422BA18136020221423BA18D318202282
S11317F063601C23BA18D3182022E3602423BA1888
S1131800D318202223612C23BA18D3182022636111
S11318103423BA18D3182022A3613C23BA18D3184E
S11318202022E3614423BA18D318202223626823B8
S11318308821BA18D318EE4A79180A6003221A715B
S113184024220125BA1800209A60BB623570A66074
S113185002F074F8281C02F071F88022E54B1202A1
S11318601A6001F0CBFE00200095021C031C011C31
S113187001F09EFBE049002001F078FBC82001F054
S11318809FFEDE49002001F071FBC82001F098FEA4
S1131890DB49002001F06AFBC82001F091FED94A1F
S11318A02B1C0221D84801F0CDFE291C281C01F074
S11318B0D5FE002003F050F820225C23BA18D1187A
S11318C0FC23DB000B800023CB8000230B8100234F
S11318D000208B724D808D8003F06CF8242300214E
S11318E0F8182A1C03F00FFD4021FB6E7918FB63E6
S11318F0B28820200A802221B279381841180A704F
S11319003C21032279180A7048217B64B288791833
S113191020200A802A21B2793818411820200A7020
S113192024210522381841180A703221FB62B2883A
S113193079183A86B27920200A702C21022279186B
S11319400A703A217B63B28879183A87B2793818D9
S11319500A703421042279180A705021FB64B28879
S113196079180A803221B279411820200A702C217A
S11319700822381841180A7058217B65B2887918F2
S113198020200A803A21B2793818411820200A70A0
S11319903422092138188218202011704022FB6556
S11319A0B38838188218202013804222B37938185B
S11319B08218202013703C220A23381882181370CE
S11319C000223A33C3181A7020220823BA18D218F6
S11319D0201C2B1C02F008F80021022000F0D4FB8C
S11319E08A498B4802F018FAFFF722FE0820FF30DC
S11319F002F02EFAC82001F0E3FD0820FF3002F0C7
S1131A0035FAC82001F0DCFD0820FF3002F020FA8E
S1131A10C82001F0D5FD0820FF3002F027FAC820C5
S1131A2001F0CEFD0820FF3002F012FAC82001F0C8
S1131A30C7FD0820FF3002F019FA1D20754900F097
S1131A403BFCFFF795FE01F09DF87349002001F07F
S1131A508DFA724C8025206801F0B2FD7049002097
S1131A6001F084FA206801F0ABFD00206D49021CEE
S1131A70031C01F08BFC206801F0A2FD6A4B6B494A
S1131A801A686B4B2D021B680968002000910195B0
S1131A90684901F07BFC206801F092FD664E674BBB
S1131AA0674A0020D258736931680091654901F092
S1131AB06DFC206801F084FD634B63491A785B7800
S1131AC08979D2B2DBB200910020604901F05EFC5A
S1131AD0206801F075FD5C4B5D491A7A1B7E09781C
S1131AE0D2B2DBB2009100205A4901F04FFC2068C9
S1131AF001F066FD584B59491A785B780969D2B2EE
S1131B00DBB200910020564901F040FC206801F04E
S1131B1057FD544B4A499A78534BD2B2CB5871680B
S1131B2000200091514901F031FC206801F048FD8A
S1131B304F4B50491A682423FB181B78002001F0EE
S1131B4025FC206801F03CFD4B49002001F00EFA11
S1131B50206801F035FD4949002001F007FA2068AA
S1131B6001F02EFD4649002001F000FA206801F042
S1131B7027FD4449002001F0F9F9206801F020FD17
S1131B804149002001F0F2F9206801F019FD3F49B4
S1131B90002001F0EBF9206801F012FD3C4900201F
S1131BA001F0E4F9206801F00BFD3A49002001F04E
S1131BB0DDF9206801F004FD3749002001F0D6F971
S1131BC0206801F0FDFC01F0ECF9C2B2332A00D127
S1131BD0A3E165DC312A00D180E000DD2CE10A2A92
S1131BE000D09CE22D49002001F0C0F92DE7C04649
S1131BF06D15000018020020BE5B0000D95B0000D8
S1131C00DF5B000028FEFF1F34FFFF1F44FEFF1FA1
S1131C1034FEFF1FF8FFFF1FE65B000000FEFF1FFE
S1131C200A5C00003C5C000010FEFF1F04FEFF1F66
S1131C3014FEFF1F705C000000D003403C10000045
S1131C4000700440A85C000000400640DE5C000018
S1131C50005006400D5D000000E0074000ED00E08C
S1131C603D5D000000D0074034100000775D0000A7
S1131C7010000020AF5D0000DD5D0000E75D0000A6
S1131C80125E0000325E0000525E00006F5E0000D3
S1131C90AB5E0000C25E0000E15E00000860000070
S1131CA0352A00D193E100DA7CE1362A00D1A7E19C
S1131CB0392A00D033E2FA26DD49002001F056F932
S1131CC0281CFFF79FFC01212A1C2A2000F0F9FAA6
S1131CD00020D84901F05AFBB600CFE1D6490020D4
S1131CE001F054FB281CFFF78DFC2A1C2A2001213B
S1131CF000F0E7FA33240025013C002C10D0012029
S1131D00022100F001FBCD4B1A7A5B7A92019B0809
S1131D101343802292015340C94A9B18ED18EBE704
S1131D20281C3221FEF7C0FC261C7860FC61BC60D4
S1131D307C61BC610221012000F0E6FABF4A052162
S1131D40137A507A9B018008184380239B015840E2
S1131D50BB4BC0187B68C01A1822BB5E00B23B6143
S1131D609B001818FEF7A0FC1C217A5E85B22BB2EA
S1131D70934206DC21B22A1C8B4200DD221C94B261
S1131D8000E0FD6132B2FA60002819DD3A69002AE8
S1131D9016DD14217A5E002A12DA0820395E002941
S1131DA00EDA91420CDA3A69934209DD1C23FA5E99
S1131DB0FA235B009A4203DDA24B22B29A4203DB70
S1131DC0A14BFA689A422CDDF868FFF753FB9F4A4F
S1131DD09F4BFFF77FF8021C0B1C00209D49FEF768
S1131DE055FDFFF711FB80B2041C00B2632800DD2F
S1131DF0632424B2201C00F076FF7867201C00F0D6
S1131E0069FF202254230024BA18B867D01800F0C0
S1131E108FFE00209049FA6801F0B8FA261CFC6194
S1131E2001E0731C9EB2032001F0CAFBBB8ABB60B5
S1131E303B8BBD617B617DE78849002001F0A6FAF8
S1131E40281CFFF7DFFB2A1C2A20012100F039FAA5
S1131E5033240025013C002C10D00120022100F085
S1131E6053FA764B1A7A5B7A92019B0813438022C9
S1131E7092015340724A9B18ED18EBE73221281C5B
S1131E80FEF712FC38613A69201C754901F07EFAAC
S1131E90B4B002AB1A1CFB61C83200251D800233AA
S1131EA09342FAD12C1C0221012000F02DFA634B3D
S1131EB06C491A7A5B7A92019B081343802292013F
S1131EC053405F4A00209B183A692E1C9B1A9BB210
S1131ED0BB611822BB5E221C7B6101F057FAFA69D0
S1131EE0398B63009952002363220134A4B2A242C5
S1131EF05B415B421C407B692DB29D4200DA0E1CA3
S1131F000A2001F05DFB7B69B5B2002BCBDAFA2322
S1131F1036B25B009E42C6DDFEE7281CFFF772FB6B
S1131F202A1C01212A2000F0CCF900204E4901F09E
S1131F302DFA4E4D80260221012000F0E5F93F4C98
S1131F40B601237A627A9B0192081A433C4B724091
S1131F50D21893B202210320FB6100F0D5F9227A52
S1131F60637A92019B081343354A73409B189BB2D2
S1131F7002210520BB6100F0C7F9227A637A92013D
S1131F809B0813435E401C23FA5E18217B5E2C4998
S1131F900020761800963649013D01F0F7F9002D2E
S1131FA0C8D152E53349002000F0E0FF00F0F9FF0A
S1131FB0FFF7EEFB786700F0F4FFFFF7E9FB202260
S1131FC05423BA18B867D01800F0B2FD3DE5281CB8
S1131FD0FFF718FB03212A1C2A2000F072F9FA24C7
S1131FE00020144901F0D2F9A4000120022100F0DC
S1131FF08BF9124B013C1A7A5B7A002CF5D124E55B
S113200000201D4901F0C2F90024201C00F06BFEE1
S11320107867201C00F05EFE20225423BA18B867AB
S11320200134D01800F084FD642CEED10DE5C046D7
S1132030A05F0000715F0000F45E0000F8FFFF1F66
S113204000E0FFFFD4FEFFFF10270000FA7E6ABC09
S11320507493783F00004E40085F00000E5F00005C
S1132060285F0000305F00003A5F00008813000022
S1132070495F0000575F0000875F000002210120D4
S113208000F042F9284C294D227A637A92019B0888
S11320901343802292015340254A00209B18291C97
S11320A01A1C013E01F072F9002EE7D1301C2149BF
S11320B0FA2601F06BF9B6000221032000F024F99E
S11320C0227A637A92019B0813438022920153403F
S11320D0174A00209B18291C1A1C013E01F056F9CE
S11320E0002EE9D1301C1449FA2601F04FF9B6004C
S11320F00221052000F008F9227A637A92019B08F4
S11321001343802292015340094A00209B18291C42
S11321101A1C013E01F03AF9002EE9D195E4074971
S1132120002001F033F990E4F8FFFF1FCB5F0000BB
S113213000E0FFFFDC5F0000F25F00003A60000097
S11321401FB5041C01A9002002F05CFC01A869462B
S113215002F096FB009B68461C1901A9009402F04A
S113216017FB01A90122002002F078FC1FBD00002A
S11321700022034B1A608022024B1206DA67704772
S113218000A01C5804E100E010B50A2308286FD809
S11321900C1CFEF7EFF9051B283C486264665700E7
S11321A001F0B8FD0523012862D0FFF7E1FF201CF0
S11321B0FFF7C6FF0020011C01F03AFC041C0020BC
S11321C0012101F04BFA002C4FD150E001F0A2FDA7
S11321D0062301284CD0FFF7CBFF201CFFF7B0FFEC
S11321E001200021E8E701F095FD082301283FD0F4
S11321F001F0BCFA002803D00020012101F02EFADE
S11322000220002101F014FC00282ED12FE001F05F
S113221081FD072300282BD0FFF7AAFF201CFFF71E
S11322208FFF032005E0FFF7A3FF201CFFF788FFC3
S11322300420002101F0FCFB041C01F06BFD0028CC
S1132240C1D1BDE70820002101F0F2FB00280CD128
S11322500120011C01F002FA09E0052002E0062039
S113226000E00720002101F0E3FB092300E0002344
S1132270181C10BD10B50C1C0C4B88B01B7806A99B
S11322800B800B4B05AA1B6810700A484B6004AB0B
S11322901C7000680093012302900193002001F058
S11322A0FFFF431E9841400008B010BDF8FFFF1F18
S11322B010FEFF1F18FEFF1FC223FF3308704B6080
S11322C0704708B518280FD8172818D20F2806D831
S11322D00E2814D2031C093B012B13D80FE0031C56
S11322E0113B042B0ED80AE0212804D81F2806D25B
S11322F01D2807D103E0031C233B0E2B02D8FFF754
S1132300B9FF00E0032008BDFF2310B588B005AA7B
S11323101370182804D8092806D206281BD803E00D
S1132320031C1D3B142B16D80C4B10701C7806ABE9
S11323301C800B4C0B482468006807940A4C0191DC
S11323400290191C00940123002001F0B6FF431EE3
S11323509841400000E0032008B010BDF8FFFF1FC3
S113236010FEFF1F18FEFF1F0000002037B50E24CB
S1132370FF34051C201C01F06BFD0A2001F020F93C
S1132380201C01F073FD0C2001F070FD0123084AAC
S1132390002015700093FA239B000193011C054B48
S11323A002F08CFC051C201C01F052FD281C3EBDD3
S11323B0450000204400002073B5041C0E20FF30AB
S11323C00D1C01F045FD0A2001F0FAF80E20FF3043
S11323D001F04CFD0C2001F049FD6519AC420DD013
S11323E001230093FA2300209B000193221C011C6B
S11323F0054B02F063FC0134061CEFE70E20FF30AE
S113240001F026FD301C76BD440000201FB50B24CE
S113241001A8221C074902F06DFF211C01A8FFF747
S1132420CBFF0549C2B2002000F0B0FF002004B089
S113243010BDC0463C5600001561000013B52123B1
S11324406A46002413703F231530C0B291703831AE
S11324505070D07011716846082154719371D47111
S1132460FFF7AAFF201C16BDF0B58BB021266B46E2
S11324701E7058709970031C00246A463F252A3345
S1132480DBB2D370117154719571D4711672537299
S11324909172D3720A1C6F461C32D2B23A73BA7468
S11324A03A75BA766A463831C9B201327B74F87427
S11324B07876F87639777C73BD73FC733E747C75DB
S11324C0BD75FC753E767C77BD77FC77D6776A461A
S11324D00232D0776A460332D17701AAD3776B46AA
S11324E00533D9776B460633DC776B460733DD77E4
S11324F0684602AB2821DC77FFF75EFF201C0BB097
S1132500F0BDF0B589B021266B461E7058709970E5
S1132510031C6A4600243F252A33DBB2D3701171B1
S113252054719571D471167253729172D3720A1CDC
S11325306F461C31C9B23832D2B2F8747876B976A3
S11325403977684620213A737C73BD73FC733E74FB
S11325507B74BA743A757C75BD75FC753E76FB76F2
S11325607C77BD77FC77FFF727FF201C09B0F0BD0F
S1132570F0B587B06B46212558701D709970D870DE
S11325800B1C00246A462A33DBB26F466E46137175
S113259054713F22F471B27135727072B3723B732D
S11325A0061C0B1C1530C0B2383178741C33F87417
S11325B039752A3668461821FE727C73BA73FC7327
S11325C03D74BB747C75BA75FC75FFF7F5FE201C71
S11325D007B0F0BDF0B58BB021266B461E70031C0E
S11325E06A4600243F252A33DBB253709170D070C1
S11325F0117154719571D471167250729172D072B6
S11326000A1C6F461C32D2B23A73BA743A75BA765F
S11326106A463831C9B201327874FB747B76FB7632
S113262039777C73BD73FC733E747C75BD75FC7522
S11326303E767C77BD77FC77D6776A460232D377CD
S11326406B460333D97701ABD8776B460533D9771B
S11326506B460633DC776B460733DD77684602AB9F
S11326602821DC77FFF7A8FE201C0BB0F0BDF0B5E5
S11326708BB021266B461E70031C6A4600243F253E
S11326802A33DBB253709170D0701171547195710B
S1132690D471167250729172D0720A1C6F4638321D
S11326A0D2B23A73BA743A75BA766A461C31C9B270
S11326B001327874FB747B76FB7639777C73BD7357
S11326C0FC733E747C75BD75FC753E767C77BD7776
S11326D0FC77D6776A460232D3776B460333D977D1
S11326E001ABD8776B460533D9776B460633DC7775
S11326F06B460733DD77684602AB2821DC77FFF7AA
S11327005BFE201C0BB0F0BD30B585B06B460024D9
S113271021226D4658702A30C0B21A709970D87050
S113272019715C713F23A97238316872E872297398
S113273068461021AB71EC712A726C73AB73EC7345
S1132740FFF73AFE201C05B030BDF0B58BB0212652
S11327506B461E7058709970031C00246A463F250E
S11327602A33DBB2D370117154719571D47116721E
S113277053729172D3720A1C6F463832D2B23A73D2
S1132780BA743A75BA766A4601327B74F87478760C
S1132790F87639777C73BD73FC733E747C75BD75B4
S11327A0FC753E767C77BD77FC77D6776A46023235
S11327B0D0776A461C31C9B20332D17701AAD377E4
S11327C06B460533D9776B460633DC776B460733A4
S11327D0DD77684602AB2821DC77FFF7EDFD201C8E
S11327E00BB0F0BDF0B589B021266B461E70031CFA
S11327F06A4600243F252A33DBB26F46537091703A
S1132800D070117154719571D471167250729172A5
S1132810D0720A1CB9761C323831D2B27874397746
S1132820684620213A737C73BD73FC733E74BA749A
S1132830FB743A757C75BD75FC753E767B76FB76CC
S11328407C77BD77FC77FFF7B7FD201C09B0F0BD9E
S1132850F0B5021C8BB06B46002421263F252A329A
S1132860D2B21E705A709970D87019715C719D71D2
S1132870DC711E7258729972D8720B1C6F46383311
S1132880DBB23B733E747874BB74FA743B753E766A
S11328907A76BB76FA7639777C73BD73FC737C7574
S11328A0BD75FC757C77BD77FC770137FE776E4686
S11328B00236F2776A460332D17701AAD0776A46A4
S11328C00532D3776B460633DC776B460733DD7707
S11328D0684602AB2821DC77FFF76EFD201C0BB0A5
S11328E0F0BD000013B505240549221C68460B31D0
S11328F002F000FD6846211CFFF75EFD002016BDB6
S11329003C56000013B505240549221C68461031C5
S113291002F0F0FC6846211CFFF74EFD002016BDB6
S11329203C56000013B505240549221C68461531A0
S113293002F0E0FC6846211CFFF73EFD002016BDB6
S11329403C56000010B5041CFFF7DCFF002C04D13A
S11329500320011CFFF77CFF3DE0012C04D1032080
S1132960011CFFF76BFD36E0022C04D10320011C8F
S1132970FFF77AFD2FE0032C04D1201C211CFFF764
S1132980C0FD28E0042C04D10320011CFFF7F0FD56
S113299021E0052C04D10320011CFFF71BFE1AE0E3
S11329A0062C04D10320011CFFF761FE13E0072C61
S11329B004D10320011CFFF7A7FE0CE0082C04D16E
S11329C00320011CFFF7C1FE05E0092C03D10320FD
S11329D0011CFFF707FF002010BD10B5041CFFF712
S11329E0A1FF002C04D103213220FFF731FF3DE089
S11329F0012C04D103213220FFF720FD36E0022C04
S1132A0004D103213220FFF72FFD2FE0032C04D142
S1132A10211C3220FFF775FD28E0042C04D103218A
S1132A203220FFF7A5FD21E0052C04D1032132203B
S1132A30FFF7D0FD1AE0062C04D103213220FFF762
S1132A4016FE13E0072C04D103213220FFF75CFEAD
S1132A500CE0082C04D103213220FFF776FE05E0B8
S1132A60092C03D132200321FFF7BCFE002010BD46
S1132A70F0B585B0071CFFF735FF2C4B69461A1CCF
S1132A801C3211CA11C10A1C6D46002424330E1CC9
S1132A9003CB03C23B59002B04D1285D315DFFF702
S1132AA0D7FE3DE0012B04D1285D315DFFF7C6FC64
S1132AB036E0022B04D1285D315DFFF7D5FC2FE011
S1132AC0032B04D1285D315DFFF71BFD28E0042BA7
S1132AD004D1285D315DFFF74BFD21E0052B04D1C6
S1132AE0285D315DFFF776FD1AE0062B04D1285DE1
S1132AF0315DFFF7BCFD13E0072B04D1285D315D88
S1132B00FFF702FE0CE0082B04D1285D315DFFF7CE
S1132B101CFE05E0092B03D1285D315DFFF762FE41
S1132B200434082CB6D1002005B0F0BD3C5600009A
S1132B3038B5134C03682268051C934206D06268BA
S1132B404168914202D0FFF793FF13E02268934259
S1132B5006D168686268904202D0FFF73EFF09E040
S1132B602268934206D062686968914202D1181CB7
S1132B70FFF7E8FE2B68002023606B68636038BDB4
S1132B802CFEFF1FC02310B580244D4A9B00136008
S1132B904C4A64001360FEF707FD4B4B201C1C607D
S1132BA04A4B1C604A4B1C6001F052F9642000F04F
S1132BB007FD201C01F05AF9642000F001FD201CDF
S1132BC001F046F9642000F0FBFCAE20FFF7CEFBD9
S1132BD0A020FFF7CBFB7220FFF7C8FBA120FFF773
S1132BE0C5FB0020FFF7C2FBA220FFF7BFFB0020BC
S1132BF0FFF7BCFBA420FFF7B9FBA820FFF7B6FB47
S1132C003F20FFF7B3FBAD20FFF7B0FB8E20FFF7AB
S1132C10ADFBB020FFF7AAFB0B20FFF7A7FBB12009
S1132C20FFF7A4FB3120FFF7A1FBB320FFF79EFBC6
S1132C30F020FFF79BFB8A20FFF798FB6420FFF747
S1132C4095FB8B20FFF792FB7820FFF78FFB8A2000
S1132C50FFF78CFB6420FFF789FBBB20FFF786FBA3
S1132C603A20FFF783FBBE20FFF780FB3E20FFF7EF
S1132C707DFB8720FFF77AFB0E20FFF777FB81208F
S1132C80FFF774FB9120FFF771FB8220FFF76EFBC7
S1132C90FF20FFF76BFB8320FFF768FB7D20FFF726
S1132CA065FBAF20FFF762FB2620FFF75FFB0120E7
S1132CB0FFF75CFBFFF716FEFFF7A8FB002010BD33
S1132CC0209014542490145434A014543090145468
S1132CD000A0145408B5632800DD63200A21FDF721
S1132CE0C9FD081C08BD10B5041E632C03DC0020BC
S1132CF0092C09DD00E06324201C0A21FDF7BAFD3C
S1132D00601A0A21FDF7D0FC10BD0269C3689A421B
S1132D1003D880681018013800E0501EC01A7047AC
S1132D20F7B58368C668051C40680191141C9F1B95
S1132D308019974203D902F0DDFAA4190AE0019937
S1132D403A1C02F0D7FA019BE41BD9196868221CCB
S1132D5002F0D0FAEC60F7BD0023F7B5061C171C8F
S1132D60C568019100933369B468AB4200D81B195C
S1132D70013B5B1B641BBC4200D93C1C9C4200D938
S1132D801C1C7368221C5819019902F0B3FA009BA9
S1132D902D191B190093019B3F1B1B190193B36849
S1132DA0EB1A5A1E93415B421D40F560002FDAD1A5
S1132DB00098FEBD022310B50F4C104A23616361D5
S1132DC00F4BA261E361C823A2640E4A2362E2644A
S1132DD000230422A3626362E362A3656365E3657F
S1132DE02265E01D084902F047FB201C074902F058
S1132DF043FB2023A37110BD140100201E610000B9
S1132E004A00002046000020276100002B610000DA
S1132E10F0B5294B171C1A7885B0009001910293E4
S1132E20002A01D1FFF7C6FF1823009A0025534357
S1132E30029AD3181A1C503252689C6D0392944221
S1132E401BD91B6D3D1C1B1B9F4200D91D1C182642
S1132E50009B2A1C5E43029B01989E19F36C7F1B06
S1132E60191902F047FA019B64195B190193336D38
S1132E70E31A5A1E93415B421C40039B1E1BBE4235
S1132E8000D93E1C002E0CD01823009A01985343FD
S1132E90029AAD19D318D96C321C091902F02AFA16
S1132EA0A419002D05D01823009A5343024AD318BD
S1132EB09C65281C05B0F0BD1401002010B50B1C46
S1132EC0EFF31084012181F31088191CFFF7A0FF90
S1132ED084F3108810BD0000F8B51823451C5D4329
S1132EE04343141C134A0E1CD018C76A5519012FEA
S1132EF00FD0002F07D0022F17D1221C281CFFF758
S1132F002BFF041C14E0281CFFF7FFFEA0420ED385
S1132F1005E0281CFFF7F9FE844200D9041C281C94
S1132F20311C221CFFF7FCFE02E0002400E03C1CE4
S1132F30201CF8BD14010020F8B50B4B071C1B78AE
S1132F400E1C151C002B01D1FFF734FFEFF3108486
S1132F50012181F31088381C311C2A1CFFF7BCFFA7
S1132F6084F31088F8BDC0461401002038B5051C50
S1132F70081C0C1C02F088FA211C021C281CFFF7F8
S1132F80DBFF38BD13B56B46DC1D0020211C01227C
S1132F90FFF794FF012801D1207801E0012040428D
S1132FA016BD08B5FFF7EEFF0028FBDB08BD0000E7
S1132FB0F7B5164C01932378051C0F1C161C002B27
S1132FC001D1FFF7F7FE23699D421CD2EFF3108273
S1132FD0012181F31088002D0CD01823691C59435A
S1132FE06B43675061184E600199E3181962002120
S1132FF09962596218235D43089B6419E36282F362
S11330001088002001E001204042FEBD1401002090
S1133010826810B5041C4068531C834205D820689C
S11330208154A360E3680133E360A26863689A4251
S11330300CD120692168FFF77FFFA368984203D071
S113304001235B42E36001E00023A36010BD0000A4
S1133050F0B5051C1F1C081C012685B00A9C0091B4
S11330600192019B984204D30199FDF78DFA013630
S1133070F7E70296BE4200D2029701230B9A1A4048
S1133080039218D1002C01D1002414E00B9B2026BC
S11330909B070DD5002F0BD1103609E0281C311CDD
S11330A0FFF7B6FFEB68013C002B04DB002CEBD0F0
S11330B0029BA342F2D3EB68002B35DB0126012FE0
S11330C001D9013F06E00098311CFDF75DFA019B30
S11330D0984208D3019B5E43F1E7301C0199FDF748
S11330E053FA061E10D00098311CFDF74DFA331C1C
S11330F04343009AD31A00930C4B195C281CFFF726
S113310087FFEB68002BE8DA039B002B0CD0002C24
S11331100AD0029BA34207D2281C2021FFF778FF84
S1133120EB68013C002BF2DA05B0F0BD326100001F
S1133130F0B59FB00EAB099340230A930023161CED
S113314006900B930D900C930B784C1C002B04D120
S11331500C9B0393002B22DC15E1252B16D10025B3
S113316002314F1E3B782B2B0CD003D8232B27D1B5
S1133170082308E02D2B03D0302B21D1022302E0B9
S1133180012300E004231D430131EAE7191C09A8C7
S1133190FFF73EFF211C0C9B002BD5DAD8E70B9AD6
S11331A0002A03D006980EA9FFF7C6FE0C9B0393D2
S11331B00B9B0493049A039B944663440C93E2E0B0
S11331C000243A78131C303B092B05D80A235C43AE
S11331D0303C0137A418F4E7002303932E2A0DD1C1
S11331E001373A78131C303B092B07D80A2303997B
S11331F001374B43303B9B180393F2E739780423A0
S11332000A1C9A43682A01D10137F7E7642926D0BA
S113321008D8582900D195E063291AD0252900D06F
S1133220AFE0ABE0732900D195E00DD8702900D050
S1133230A7E032680021131D336008230191009335
S1133240116809A8102296E0752971D0782979D0DF
S113325097E0336819681A1D3260C9B28EE033688A
S11332601A1D1B683260DA17981804930123504022
S11332700593092805DD0A21FDF716FA059B01339C
S1133280F6E7059B039A934200D20592002C05D0E1
S1133290049B002B01DB6B0700D5013CAB0702D577
S11332A0039B002B10D0EB070ED4002C01D100247B
S11332B00AE0059BA34207D209A82021FFF7A8FE34
S11332C00C9B013C002BF0DA0C9B0793002B58DB82
S11332D0049B002B04DA5B42049309A82D2103E02C
S11332E06B0703D52B2109A8FFF792FE0C9B002B3B
S11332F047DB03232B40022B11D1039B002B0ED160
S1133300002C01D100240AE0059BA34207D209A89E
S11333103021FFF77DFE0C9B013C002BF0DA0C9B67
S11333200593002B2DDB0094019509A8049906E070
S11333303368009401951A1D1968326009A80A229D
S1133340039B18E0336800941A1D0195326009A8A4
S113335019681022F4E733681A1D32601C6821785A
S1133360013400290DD009A8FFF752FE0C9B0393EA
S1133370002BF4DA05E0FFF76BFE02E009A8FFF783
S113338047FE791C07E70C981FB0F0BD0EB403B5D7
S113339003AB02CB01AA0193FFF7CAFE02B008BC3B
S11333A003B0184708B5002000F06EFD08BD08B54D
S11333B0002001F0B1FB08BD082110B5164B9A7826
S11333C00A4202D09A780A439A7088220021222065
S11333D0124B52019950124A10708020114A400237
S11333E098501868104A024010481A601C58104A35
S11333F02240C024A40422431A5080220D4B197287
S11334001A767F3A19705A700B4A11700C22997906
S11334101142FBD110BDC04600D0074000700440EB
S113342000E0074044100000FFFFF3FF0410000019
S1133430FFFFFFF00040064000500640154B1648C1
S113344010B5191E81420CD00022144B9B089B001E
S11334509A4203D084588C500432F9E7104B996097
S113346001E00F4A936000230E4A0F49891A8B42E8
S113347004D0D45C0D48C4540133F8E700230C4A4B
S11334800C49891A8B4204D00024D01804700133EB
S1133490F8E710BD0000000000000000000000007C
S11334A000ED00E09C6200005064000000FEFF1F7D
S11334B0B4FFFF1FC002002000234170436003706B
S11334C08360181C704710B54378041C0120FF2B3F
S11334D008D000F051FA63780133DBB2637000F076
S11334E03FFA002010BD38B5041C0D1C00F044FA4E
S11334F0E1682943E16000F033FA002038BD0000A0
S113350000220A4B9A641A1C40329A631A1C303205
S11335109A621A1C20329A611A1C10329A60044A68
S11335201360044B9B60DB607047C046A001002021
S11335309C0100208C0100200022024B1A601868B4
S113354080B270470C007C5038B54378041C0D1CC5
S1133550002B0BD0002500F00FFA6378013BDBB29F
S11335606370257000F0FCF9281C28E00220002973
S113357025D02378002B15D0FFF7DEFF6368A268FF
S1133580984201D3C01A03E0C01A80235B02C0181A
S1133590824213D200F0F0F90023237000F0E0F926
S11335A002200CE04B1C09D000F0E6F90123237043
S11335B000F0D6F9FFF7C0FFA5606060032038BDB6
S11335C038B5051CFFF7B8FF041CFFF7B5FFA04290
S11335D001D3001B03E08023001B5B02C01885425B
S11335E0F3D238BD08B5012801D100F0C5F908BDF2
S11335F008B5012801D100F0B3F908BD10B5FFF7F3
S11336007FFF01230020084A08491360084A094C37
S11336101060086004212160074C216007490B6099
S113362007490860136010BD3880045000008450BE
S113363000000450000004510400045104000C5024
S11336400000045310B5044C206021710020A260D6
S11336502373637310BDC046F0010020F0B587B03A
S11336606B4602901B7A05AC23706B4603911B7B5F
S11336703D4D63702B79029A0420934271D92B7BC0
S11336806B730123A37000230193374E0093337BA4
S1133690009A371C93421AD9009BB2689B009B582E
S11336A0002B10D01A79D2070DD51A68201C9968FE
S11336B09047002807D06B461B787373039B002B3D
S11336C03AD005230193009B0133DBB2DDE7019E71
S11336D0002E02D0039B012B2FD10120FFF782FF84
S11336E00C20029B58432B68181800F097F86B467F
S11336F01B7A01206B71FFF77BFF02230025A37067
S11337003B7BAB4216D9BA68AB009B58002B0ED05A
S11337101A7992070BD51A68201C996890470028DB
S113372005D0039B7D73002B1AD00623019301352A
S1133730EDB2E5E7019814E005260023009FA3708D
S1133740013FFFB2FF2F09D0AA68BB009B58002B92
S1133750F6D01A68201C99689047F1E7301C00E005
S1133760062007B0F0BDC046F0010020014B587997
S11337707047C046F001002013B500210378041CF3
S11337800191022B07D0032B0BD0012B0ED1027910
S1133790191C134801E00279114801AB00F08CFFB9
S11337A008E001A90E4800F0C9FF03E00C4801A994
S11337B000F066FF002812D1A3790A4ADB01DBB2CC
S11337C013706378084A5B00DBB21370A278074B6E
S11337D01A70E278064B1A706279064B1A7016BD9D
S11337E00040064018408653004086500040065072
S11337F001400650184016501F2280210240D30574
S113380049051943430904489B001B181943012324
S1133810081C93400360704728800440002207235B
S113382073B5041C104D0093281C131C012101F0D6
S113383065F9201CFFF7A0FF0022637A217A009328
S1133840281C131C01F05AF9E379084A9B041360FD
S1133850074BA17A1D68281C00F08CFF281CE17A14
S113386000F08FFF002076BD0070044000700C59FA
S11338709061000008B5054800F0C4FE044B1968C7
S1133880C9B20131FCF780FE08BDC04600400640C5
S113389044801C5E08B5054800F0B4FE044B19686A
S11338A0C9B20131FCF770FE08BDC04600400640B5
S11338B044801C5E08B5054800F0A4FE044B19685A
S11338C0C9B20131FCF760FE08BDC04600400640A5
S11338D04480145808B5054800F094FE044B196858
S11338E0C9B20131FCF750FE08BDC0460040064095
S11338F0448014580C4B1B68DBB2022B0DD0032BF5
S11339000ED0002B01D000200CE08021074A0902D0
S11339101268101E8842F6D104E0054B186801E0D5
S1133920FA2080007047C04600700C59180200202D
S11339301C02002008B5FFF7DDFF08BD08B5024BE7
S1133940185CFFF759FF08BD4261000008B57620F6
S1133950FFF752FF08BD08B56620FFF74DFF08BD0D
S1133960044A1368002B04D0013B1360002B00D1E0
S113397062B670470002002072B6024A136801332F
S1133980136070470002002010B50B4B0B4A1278ED
S1133990002A04D1013B002BF8D103200AE0064C95
S11339A0074801F01FFB012803D0013C002CF7D18C
S11339B0F3E7002010BDC046EA03000002D007511F
S11339C000E0074010B5064C064801F00BFB042844
S11339D004D0013C002CF7D1032000E0002010BDEE
S11339E0EA03000000E00740F7B5071C0E1C151C95
S11339F001930120002F18D0002916D0FFF7F2FD03
S1133A000A4C0021201C102201F07DFC2760267145
S1133A10002D06D06B461B79A56023736B461B797A
S1133A2063730120FFF7E4FD0020FEBD04020020C3
S1133A30F0B5B24C8BB002900191237B01206373EB
S1133A40FFF7D0FD2379029A934204D80120FFF7AF
S1133A50CFFD022050E1029A23689200D6586B46AB
S1133A601B7907AC357823726B461B7A2A1C2370AA
S1133A7002239A4366600392012A01D0052D0AD1DC
S1133A8001219F4801F000FA002809D10120FFF725
S1133A90AFFD012030E1072D02D999480321F1E758
S1133AA00123637200240094944F009A3B7B934259
S1133AB01AD9009BBA689B009B58002B0FD01A7927
S1133AC0D2070CD51A6807A899689047002806D031
S1133AD06B461B7804247B73019B012B04D1009B50
S1133AE00133DBB20093DFE70120FFF781FD854856
S1133AF000F0ACFD039B012B1DD10138C0B202289C
S1133B0011D8FFF7E7FE804B98420CD8FFF7B2FEBE
S1133B107E4FB84207D8FFF7CDFEB84203D8FFF76F
S1133B20B9FEB84207D9019B012B01D1062407E055
S1133B30002C05D1FAE7019B012B52D0002C50D068
S1133B400120FFF74FFD002307AE009D7372013D76
S1133B50EDB2FF2D40D0694BAA009B68D358002BCF
S1133B60F5D01A79D207F2D51A68301C99689047B3
S1133B70EDE7072205AB1A7000225A70F2789A70AA
S1133B803279DA702B1C083B05A9022B03D8737910
S1133B908B71B379CB717378002B00D084E05848D3
S1133BA001F0A6F9002800D00324002D00D08AE0FB
S1133BB0FFF7EAFE0024002800D09DE00120FFF773
S1133BC011FD6B464D4E1B7A0025B373022307AFDC
S1133BD07B72337BAB427CD80120FFF709FD201CAC
S1133BE08AE003200A2D00D986E0281CFCF7B8FCE3
S1133BF006080A1940583339C1282D00002250E024
S1133C0003224EE03E4801F0EDF9012807D03C487C
S1133C10002101F049F9FFF7B7FE041E6CD101221F
S1133C203FE0374801F0DEF9042807D03448022188
S1133C3001F03AF9FFF7C6FE041E5DD1042230E01C
S1133C40072205AB1A70063A03E0072205AB1A7087
S1133C50043A5A7096E7022205AB1A70013A1A71B7
S1133C6004E00222012105AB1A7019715A7189E727
S1133C700222002705AB1A702148013A1A715F71BC
S1133C8001F0B0F9012800D17CE71D48391C01F08E
S1133C900BF9FFF779FE041EBC4200D172E72BE05A
S1133CA0052205AB1A706DE7012D00D877E7B278CD
S1133CB00220174B002A02D01A69024301E01A6954
S1133CC082431A616BE7012D00D077E7FFF77AFE94
S1133CD070E7B268AB009B58002B0AD01A799207A0
S1133CE007D51A68381C99689047002801D0052424
S1133CF075730135EDB26CE70BB0F0BD0402002022
S1133D0000E007400040064040420F0080841E004F
S1133D1000ED00E008B5064801F064F9002301282D
S1133D2003D00133042800D00A33181C08BDC04650
S1133D3000E00740F7B5FF2403681C4A1D0A25402C
S1133D401C40AB009F581A4A061C9B58281C019320
S1133D50FFF7F4FD211C0022381C01F04BF9019BF4
S1133D60A4001C19842332795B05234352001A6092
S1133D70802372795B0523431A609023B2795B0533
S1133D80234312011A60F3790A4A14431A04226085
S1133D90002B0AD0084B5A5D002A06D01F2313407B
S1133DA001229A40131C054A1360F7BD9C61000070
S1133DB09461000000001818A461000000E100E014
S1133DC0F8B5FF24051C0368114A180A20401C405A
S1133DD083009F580F4A9E58FFF7B0FD381C211CE2
S1133DE0012201F007F96A68381C211C01F012F95C
S1133DF088232A7AA40034195B05234392001A60AD
S1133E0098235B051C436B7A9B012360F8BDC04675
S1133E109C6100009461000038B50C1C002802D19C
S1133E20002C09D112E003680133F9D0051C0835D0
S1133E30FFF780FF281CF6E72368013306D0251C12
S1133E40201C0C35FFF7BCFF2C1CF5E738BD000027
S1133E50FF22030A134002400120904002499B00C4
S1133E605B5858607047C0469C610000FF22030AFB
S1133E70134002400120904002499B005B58986027
S1133E807047C0469C61000008B5084B8200D358B7
S1133E9094220233520513431B78002B02D000F006
S1133EA019FA01E000F06EFA08BDC046486100004E
S1133EB0031C80220C33520513431B78002BF7D0CC
S1133EC00171704738B50D1C084B8000C458201C84
S1133ED0291C1830FFF738FB0328F8D0002801D03C
S1133EE004232374207CC0B238BDC04614020020D1
S1133EF0F0B589B00290161C82003748059310581B
S1133F000EAB019035481B781458002007AA108086
S1133F10A27C8F0A04920122E274A2745A42534191
S1133F201E3FDBB203937B425F41FFB2CDB28742B7
S1133F3002D0CBB29C460D0A00216D00EDB28F4237
S1133F4004D1391C002E01D16B46197B0D4307ABFC
S1133F501D700122002F02D062465A700222A36013
S1133F60E2600198291CFFF7A3FF02980F99FFF75D
S1133F70A9FF237C002B0CD1002E0AD0059BA66040
S1133F80E36031780198FFF793FF02980F99FFF7E8
S1133F9099FF237C002B16D1039B002B13D0002FF9
S1133FA001D1002E0FD000230127A3600198E76000
S1133FB001F088F8391C01982943FFF779FF02982A
S1133FC00F99FFF77FFF0023E3746B46207C1B7C73
S1133FD0C0B2A37409B0F0BD48610000140200200F
S1133FE0104A830010B598580F4A9C58E37C002B64
S1133FF005D0237C052B02D0237C042B09D19822E5
S1134000831C5205134300221A7001F06DF801233A
S11340106374A37C002B03D0201C1830FFF753FAE1
S113402010BDC0464861000014020020F7B5194BCA
S11340308700FB5801250093174BFE58002E26D10C
S11340400C1C24220190081C311C01F05CF9201C7A
S1134050311C1830FFF730FA0198FFF77CFC009808
S113406000F0E0FF0C4B019AFC500C4B9A5C1F23B0
S113407013402A1C9A40131C094A13609C22009B7B
S113408052050233134380226574351C1A70281CB0
S1134090FEBDC046486100001402002044610000D7
S11340A000E100E00A4B800070B5C558094BC658C2
S11340B04B68726993420AD00C1CFFF7FBFB002388
S11340C0011C6268281C00F0BBFF6368736170BD4B
S11340D04861000014020020F0B587B00FAC334FE4
S11340E0334D267884006559E459677C002F02D14A
S11340F00320207458E0002E01D11E270E9705934B
S11341000023A674E360A360237423606374071C14
S113411004920391FFF7C6FF90231021AA1C5B05AC
S1134120134319708421EB1C49050B4302211970B8
S113413098235B05134302934023029A281C1370AF
S113414000F0C0FF039B381C1988012300930E9BC9
S1134150049A0193059BFFF7CBFE0D9B002B15D012
S1134160237C002B0FD10C9B281CA3600D9BE360C8
S11341700C9B1978FFF79CFE002E13D0381C0E9967
S1134180FFF7A0FE0EE0237C042B0BD100230126B5
S1134190029A1370EB785B09334202D0281C00F0BA
S11341A0A3FF6674207CC0B207B0F0BD14020020E7
S11341B048610000F0B58BB013AC2478364E374D0F
S11341C0039484006559A459667C002E02D103200F
S11341D020745FE0039E002E01D11E3612960993CF
S11341E0109B00262360119BA66063606B461B7BBB
S11341F0E660A37426746674079108920490FFF72E
S113420051FF9023AF1C5B053B4305931023059A94
S1134210281C13708422EB1C5205134302221A70CB
S113422098235B053B4306934023069A137000F0E2
S113423049FF079B089A1988129B009601930498DA
S1134240099BFFF755FE227CD2B2B24212D1059BE4
S113425011991A708C235B053B43012900D1082274
S11342601A702B79039B002B12D004981299FFF734
S113427029FE0DE0237C042B0AD1069B1E70012627
S1134280EB785B09334202D0281C00F02DFF6674E2
S1134290207CC0B20BB0F0BD1402002048610000C5
S11342A01FB5069C0094079C0194089C0294012469
S11342B00394FFF711FF04B010BD1FB5069C0094D2
S11342C0079C0194089C029401240394FFF772FF55
S11342D004B010BD842138B5244B8200D55849055B
S11342E0EB1C0B4302211970214BD45890226B18FC
S11342F052051A431278E978D2B2890634D594214A
S113430049051943097800292ED0012A15D1EB78E3
S1134310134202D0052323740CE0E368013BE360FD
S1134320002B07D0A368281C5A1CA2605978FFF7F9
S1134330BFFD19E0FFF754FE16E06268013A6260BF
S1134340002A06D08C214905012A05D10B430822F5
S113435004E0FFF745FE02E000220B431A702368D5
S11343605A1C22602A791A7038BDC0464861000080
S113437014020020842303305B05184302230370D6
S113438070470000902149050A1CF0B58F4B071CAB
S11343908000C55889B0EB1C0493EB78EE78DBB24F
S11343A00593F3B20693AB1D1A43944612789826EC
S11343B0D2B20792942252051A4314787605621EEB
S11343C09441E2B2824C33430459A81C0090084340
S11343D001921A780178D2B2C9B20391019902907C
S11343E000292FD0079900290CD010236246281CDD
S11343F01370FFF7BFFF236BF8B20121002B00D02D
S1134400DCE0E0E0002A1DD04022281C1A70FFF7EF
S1134410B1FF231C2C331B78002B02D1009A1643C6
S11344203370236B002B03D0F8B28021626B984762
S1134430E37D002B04D0201C80211830FFF753F8B3
S11344400A23BFE0069B281C9E1101231E40FFF790
S113445091FF0122059B1B11134219D09023049A4A
S11344605B05134310221A70002E04D0EB785B070F
S1134470DB0F10D11AE0082323702C342278002A91
S113448000D0A0E0982300995B050B431A709AE0D2
S1134490002E16D0EAE71023029A1370236B002B28
S11344A06ED0F8B20221626B984769E0029A1370E9
S11344B0236B002B03D0F8B20421626B98472B794D
S11344C081E0039B012B29D1EB78039A134257D047
S11344D0029B1E702B79231C2C331B78002B09D1D3
S11344E0019B002B06D19823009A5B0513436A466F
S11344F012791A70236B002B03D0F8B20821626B77
S11345009847A37D002B04D0201C08211830FEF707
S1134510EAFF00236360E360237554E02B79A2680B
S1134520DBB2002A2AD02269137023690133236184
S1134530A368013BA360A368002B44D1019B002B1B
S113454013D1231C2C331B78002B06D19823009AFB
S11345505B0513436A4612791A70E37D002B04D07D
S1134560201C20211830FEF7BEFF00236375236151
S1134570236BF8B22021002B20D124E0072321E073
S11345806368002B1DD0E3681A782B1C80210C3340
S113459049050B431B78002BF7D02A71E3680133DC
S11345A0E3606368013B63606368002B0BD1E360E5
S11345B02375236B002B06D01021F8B2626B984749
S11345C001E00623237009B0F0BDC0464861000035
S11345D01402002084235B0503431A7800239A42C3
S11345E009D0802301305B0518430378012B01D0E7
S11345F0024B00E0024B181C7047C04680841E002A
S113460000127A0010B50D4A831D13431B78DBB2E8
S1134610002B10D0012B08D1041CFFF7DBFF084B43
S113462008341C432378D84006E00020022B03D131
S1134630044B186800E0044810BDC046000008118F
S11346400000901018020020006CDC020B4A831D4D
S113465013431B78DBB2012B06D0181E0CD00320A9
S1134660022B09D0052007E0802301305B051843A5
S113467000784342584101307047C0460000081199
S1134680021C031C9C20183340050343802018702F
S11346900020064B134318700548931D03431B78F1
S11346A0D8B20028F8D1034B0B6070470000081300
S11346B000000811006CDC02F8B5041C0D1C171C6A
S11346C01E1CFFF7C3FF012802D1002D04D007E010
S11346D0022805D1012D03D1201C311CFFF7D0FF86
S11346E08022631C520513431D70842302225B0540
S11346F023431A70231C0C4A083313437A00D2B2A2
S11347001A704022094B23431A70094AA31D13430C
S11347101B78012BF9D1002D01D1064A00E0064A8D
S11347203A4100203260F8BD0000901000000813E8
S11347300000081180841E0000127A000A4B10B594
S11347401C681A1C0123002C0CD08024074B034343
S11347501C70074C831D23431B78022BF9D113686B
S11347600B600023181C10BD180200200000081361
S1134770000008119C23C9015B051843C9B20170EC
S11347807047942349015B051843C9B2017070470F
S113479070B506680C1C301C2049FBF7F5FE1F4958
S11347A0051C301CFBF776FF0E1C081CE1210901D7
S11347B0FBF7EAFEE121E0800901301CFBF76AFF08
S11347C00E1C081C3C21FBF7DFFE3C212081301C21
S11347D0FBF760FF6E22124BA1722380FF32238805
S11347E095420BD9AD1A032201339BB22380B72122
S11347F013405A1E93414900CA1AF0E709499B071E
S113480000D109490123CA5C954201D8638003E0C1
S11348100133AD1A0D2BF6D1A58070BD8051010076
S1134820B2070000736100006661000030B5114AF0
S11348300188031C8A180020812A19D85A88541E1A
S11348400B2C15D89C88651E1E2D11D8DD88172DBC
S11348500ED81D893B2D0BD89B7A3B2B08D88B0790
S113486001D0054B00E0054B9B5CA3424041C0B224
S113487030BDC0464EF8FFFF736100006661000062
S113488070B5124A838804889A186E23FF336343F1
S11348904588D318A2089B180D4A6E00B25A9B187B
S11348A0A20702D1022D00D8013B0B60E1233C2278
S11348B0C4881B015C4303895343827AE3189A1822
S11348C00868044B4343D3180B6070BD4A05F5FFD9
S11348D04C61000080510100084B1A6880231B02C0
S11348E09A4209D1A02310305B0518430368002BBA
S11348F002D10133FF3303607047C0461802002021
S1134900021C802110B500230124490510320A43FA
S11349101460136090224360520504601C3002430B
S11349201360882252050243136084225205024315
S113493008431360036010BD031C90221433520516
S1134940134300221A604260103201601A607047FB
S113495003680B6070470000114B820070B5D55896
S11349608022104B92051A60041C281CFFF7C8FF14
S1134970281CFFF7B1FF01201F22011C0A4B0B4E1C
S11349801B5D345D134099402240C0250B1C9040B0
S113499007496D004B5148510B60086070BDC0461B
S11349A0846100003C80845E8161000080610000BD
S11349B000E100E0F7B50027114B8000C658081C41
S11349C00D1C0197FFF732FF041EBC4216D001A94B
S11349D0281CFFF755FF381CFEF7ACFF011C802094
S11349E00002814206D0FBF7CFFD011C0198FBF7C2
S11349F0CBFD0190301C0199FFF79EFF201CFEBDEA
S1134A0084610000F7B50025124B8000C4580E1CC9
S1134A10201C01A90195FFF79BFF281CFEF78AFFC4
S1134A20051C8020000285420ED00B4B291C043447
S1134A301C43FBF7A9FD2768019C291C4443B8B219
S1134A40FBF7A2FD20180190311C01A8FFF7A0FE7E
S1134A50F7BDC0468461000000007810F0B5002660
S1134A60184B800085B0C458081C0F1C0192039693
S1134A70FFF7DCFE051EB54201D100251EE0381CFF
S1134A8003A9FFF7FDFE301C2768FEF753FF011C46
S1134A9080200002814206D0FBF776FD011C0398BA
S1134AA0FBF772FD0390039BBB42E6D3A36088230C
S1134AB01C345B051C43019B9B002360281C05B030
S1134AC0F0BDC046846100008822044B8000C358B6
S1134AD052051C3313438900196070478461000038
S1134AE08822054B8000C3585205143313431868B9
S1134AF0431E9841C0B27047846100006B46E022B7
S1134B001B78D2021B04134009071943014BC01838
S1134B10016070474410000008B5084B8200D35868
S1134B2090220333520513431B78002B02D000F06C
S1134B30F3F801E000F058F908BDC0468C610000AC
S1134B4008B50C4B8000C2580B4B0021C3589C2065
S1134B500333400518431171017094204005034349
S1134B601970137F8B4203D02032101CFEF7ABFC6C
S1134B7008BDC046200200208C610000F7B5061C69
S1134B801C4B30220C1C8700081C0021FD5800F02F
S1134B90BAFB301CFEF7DAFEFEF78CFE2060281C00
S1134BA000F0BFFA201C00212030FEF785FCEB1C2E
S1134BB001939023019A5B0513431022281C1A7059
S1134BC0032100F0EEFA281C002100F010FB0A4B30
S1134BD0FC500A4B9A5D1F23134001229A40131C78
S1134BE0074A13609823019A5B05134340221A7005
S1134BF0F7BDC0468C6100002002002088610000DF
S1134C0000E100E00A4B800070B5C658094B0C1C4B
S1134C10C358151C301C1A68096800F089FA28600A
S1134C202179301C6279A37900F0CEFA70BDC046B8
S1134C308C61000020020020F7B51E4A83009C58B6
S1134C401D4A9E5822790423002A31D1071C0029C9
S1134C5002D001AAFFF7D6FF982300214020F21CBE
S1134C605B0513431970187025698D4203D1381CF4
S1134C70FFF766FF1BE00123237194235B05334395
S1134C80A16119780723002912D0A368191E02D044
S1134C9019780133A360B1712369013B2361A369CE
S1134CA00133A3619C235B051A4380231370002303
S1134CB0181CFEBD200200208C610000F8B5144FC2
S1134CC0144C85002C59ED590127069E2777A260C4
S1134CD02661E3606661FFF7AFFF002801D0002082
S1134CE014E0201C07992030FEF72EFC0328F8D08E
S1134CF00028F4D09C210022EB1C490519432271A1
S1134D000A709421032049050B431A70F8BDC0466C
S1134D108C6100002002002010B51E4B8200D35885
S1134D201D4951581A79002A32D05A69002A11D0E3
S1134D309C2252050A431278002A0BD08A79DC6837
S1134D40D2B2002C03D02270DA680132DA605A69D8
S1134D50013A5A611A69002A12D0942252050A4370
S1134D601278002A0CD09A68141E02D014780132EA
S1134D709A608C711A69013A1A619A6901329A61CE
S1134D801A69002A04D15B69002B01D1FFF7D8FE10
S1134D9010BDC046200200208C610000104A800033
S1134DA08158002208B50F4B0331C358581CC277F1
S1134DB09C2040050843DA621A701A835A629A6288
S1134DC01A6302709420400501430A701A1C383299
S1134DD01278002A03D0181D0121FEF784FB08BDB8
S1134DE08C6100002002002038B5254B8200D35886
S1134DF024495258591CC97F00293FD0D96A002937
S1134E0016DB9421490511430978002910D0596A09
S1134E101C7F002905D0DD6A002D02DD0C780131EC
S1134E2059629471D96A0139D962596B0131596354
S1134E30D96A002905DA9424D11C6405214300248D
S1134E400C70196B002911DD9C2149051143097867
S1134E5000290BD09279996AD2B2002903D00A7042
S1134E609A6A01329A621A6B013A1A63DA6A002A60
S1134E7004DC1B6B002B01DCFFF790FF38BDC04640
S1134E80200200208C610000012903D0032909D1EC
S1134E90842300E094235B0518430078431E984163
S1134EA0C0B200E000207047034B013049011843B1
S1134EB0C9B201707047C0460000881294230230C2
S1134EC05B0549011843C9B201707047034B0230B6
S1134ED089011843C9B201707047C0460000081325
S1134EE08C2302305B05C9001843C9B201707047B6
S1134EF0F7B5384EC21C164337780B78FFB201223F
S1134F00072B65D8041C181C0D1CFBF733FB041974
S1134F102A0D192A2A3A00232F4801340443237006
S1134F203378012BFCD152E00322012F50D14023CE
S1134F3029480134044323703378042BFCD146E020
S1134F400021012B01D0042302213078032298424E
S1134F503ED1201CFFF7A8FF0421204A13698B438C
S1134F6033E00227BB4207D100270B79BB4203D0B1
S1134F704979201CFFF7AAFF19480134044327701C
S1134F8019E004231649621C0A4313706A78A31CAF
S1134F900B431A706B78002B06D1AB78002B03D02F
S1134FA0E978201CFFF78AFFAB79002B03D0E9795D
S1134FB0201CFFF795FF04213378084ADBB20193E4
S1134FC0019B0133019313690B43136130BF00222A
S1134FD0101CFEBD000030100000881200ED00E03F
S1134FE000001010024B033018430078C0B2704721
S1134FF00000301014308023012A04D18A401B059C
S11350001843026005E0DB04184301238B40D943B5
S11350100160704701238B40002A01D0436000E007
S1135020836070470023C222037043708370C3708F
S113503043718371C371037242728372C372704786
S1135040F0B5002789B00393FA2301253C1C9B008B
S113505053430690079102936D4201970123A340A5
S11350600493174B9E1CCA330593049B31880798FD
S11350705943FBF789FA029B029AC31A824200D968
S1135080131AAB4204D2B21E177801941D1E03D02A
S1135090059B04369E42E8D10134032C01D0002D37
S11350A0DCD1039B002B00D01D603F231F40019BDC
S11350B09B011F43069BFFB25F7009B0F0BDC04661
S11350C0A6610000942302305B0503431B78002B88
S11350D004D088235B051843042303E080231B05C5
S11350E018433023037070479422831C52051A43DB
S11350F01278011C0220012A12D18022D204134307
S1135100CF221A708022D2002023C878034004D012
S1135110013A002A03D0C046F6E7181C00E0092033
S113512070470423C3700023837043700371704776
S1135130F0B5130B89B001250493082300266D42B2
S113514003935B19079005910692029302270024AA
S1135150731C191C069879430193FBF715FA059BF8
S1135160834206D31B1A9D4203D91D1C0490039449
S1135170029601347F00092C02D0002DE8D104E00E
S1135180072E02D0019E002DE0D17022029B0498CC
S11351901B011340039A1343079ADBB2537009B0FF
S11351A0F0BD8422C31C52051A4301230B405B004B
S11351B0DBB2137090238907C90F5B050230090124
S11351C01843C9B20170704710B58C2403306405CC
S11351D0C9000443C9B221708821920049050143E2
S11351E0D2B20A70802252051043037010BD80238E
S11351F0012202305B0503430A401A708C2389079D
S1135200C90F5B05C9001843C9B201707047011C7E
S1135210002008B5021C031C00F03EF908BD000084
S1135220014B18687047C046ACFFFF1F084B10B510
S1135230041C002B02D0002100F08AF9054B1868E9
S1135240836A002B00D09847201C00F0F5F9C04673
S1135250515500007062000038B5074B074C1D1C07
S1135260E41AA410002C04D0013CA300EB58984786
S1135270F8E701F005F838BD986200009C62000070
S11352800E4B70B500251E1C0D4CE41AA410A5424B
S113529004D0AB00F35898470135F8E700F0EAFF73
S11352A0084B00251E1C084CE41AA410A54204D087
S11352B0AB00F35898470135F8E770BD94620000DD
S11352C094620000946200009862000008B5034BE9
S11352D0011C186800F066F808BDC046ACFFFF1F4B
S11352E008B5034B011C186800F016F808BDC04649
S11352F0ACFFFF1F002310B5934203D0CC5CC45411
S11353000133F9E710BD031C8218934202D01970CF
S11353100133FAE77047000030B500293ED0043964
S11353200B68002B00DAC9181D4A1368141C002BE3
S113533002D14B60116031E099420DD208680A181D
S11353409A4203D11368C3180B6053684B60216001
S113535024E08A4203D8131C5A68002AF9D11D6834
S11353605C198C420BD1096869185818196090426D
S113537014D110685268091819605A600EE08C4202
S113538002D90C23036009E008680C18944203D185
S113539014685268001908604A60596030BDC046FC
S11353A028020020032370B5CC1C9C430834051C40
S11353B00C2C01D20C2405E0002C03DA0C23002071
S11353C02B6042E08C42F9D3204A1368101C191C4C
S11353D0002913D00A68121B0DD40B2A02D90A60C3
S11353E08B181FE08B4202D15A6802601BE04A68A6
S11353F05A600B1C17E00B1C4968E9E7144E33682C
S1135400002B03D1281C00F025F83060281C211C37
S113541000F020F8031C421CD0D00322C61C964383
S113542086420AD11C60181C07210B301A1D8843C0
S1135430821A0AD05142995007E0311A281C00F010
S113544009F8431CBAD0331CECE770BD28020020D5
S11354502402002038B50023064C051C081C2360D8
S1135460FCF762F8431C03D12368002B00D02B60A7
S113547038BDC046BC020020031C0A7801311A70F2
S11354800133002AF9D170470023C25C0133002A9A
S1135490FBD1581E70470000F7B52A4D061C2C6836
S11354A00091171C0193002C01D1274C2C606368D8
S11354B01F2B15DD254B002B02D10120404240E07B
S11354C08C20FFF703FF041EF7D02A680023026034
S11354D0021C88324360286013609E420AD128E08F
S11354E0002E26D0231C88331868002810D1174BAF
S11354F0002BE2D084204000FFF7E8FE0028DCD037
S1135500031C0022FC335A609A60231C8833186001
S1135510012261688A408B00C31880C3FC30416853
S1135520114341600199D967022E02D183681A435D
S11355308260002063685A1C62600233009A9B00F8
S11355401A51FEBDB80200202C020020CD520000EA
S1135550F0B587B005900391344D2C68002C63D0CE
S1135560231C88331E6863685A1E0192304A9B18B4
S11355709B00F7180433E3180293019B002B3DDBD7
S1135580039B002B07D0002E31D03B1C80331B68BB
S1135590039A93422BD16268029B0199013A5B689A
S11355A0914201D1616002E0002202994A60002B1D
S11355B01DD062680492002E07D0012201998A400E
S11355C0311CFC314868104201D1984708E08968D1
S11355D0114203D105983968984701E03868984723
S11355E0049B62689342B7D12B68A342B4D1019B58
S11355F0043F013B0193029B043BBDE70D4B002B91
S113560012D062682368002A0BD1002B09D02B60CA
S1135610002E02D0301CFFF763FE201CFFF760FE53
S11356209BE7251C1C1C99E707B0F0BDB8020020BD
S1135630FFFFFF3FE1520000FEE7C0462200005F8B
S11356403F003F00003F002500005F3F2500002F82
S11356503F2530005F3F00000300000032000000DF
S11356600300000003000000600A00004E0900006F
S1135670340A00003A090000340A00003E0A00001F
S1135680340A00003A0900004E0900004E090000E7
S11356903E0A00003A0900004409000044090000E1
S11356A044090000A60C0000C01000009E10000079
S11356B09E10000092100000860F0000860F00006C
S11356C08610000092100000860F00008610000073
S11356D0860F0000921000008A0F00008A0F00005D
S11356E08A0F0000A01200001B5B306D1B5B343B73
S11356F034336D1B5B313B33376D0D53616E69740D
S11357007920636865636B206661696C6564211B3D
S11357105B306D0A001B5B306D1B5B343B34316DB9
S11357201B5B313B33376D0D496E76616C696420C8
S1135730737570706C7920766F6C74616765205B2B
S113574025645D206D56211B5B306D0A004D65613B
S1135750737572656D656E74206E756D6265722CFD
S1135760205254432D3E5453522C205254432D3E28
S11357705450522C00204D4D413834353120782C72
S1135780204D4D413834353120792C204D4D413850
S1135790343531207A2C00205254432D3E54535238
S11357A02C205254432D3E5450522C202320436F1E
S11357B06E666967204572726F72730025752C20BE
S11357C025642C2025642C002025642C2025642CA1
S11357D02025640A000D09307825303278202D2DDB
S11357E03E205B307825303278203078253032788E
S11357F0203078253032785D0A000D093078253064
S11358003278202D2D3E203078253032780A000D54
S113581009307825303278202D2D3E202D2D2D2D48
S11358200A000D0A0925642F2564207375636365D6
S1135830737320726174652E0A000D0925642F2587
S11358406420737563636573736573206D6174633A
S1135850686564207265662E2076616C7565206FBC
S113586066203078253032782E0A000D0925642010
S113587062616420636F6D6D616E64732E0A0A0049
S11358800D0A094144584C33363220526561642074
S113589041626F727465642E204465766963652085
S11358A044697361626C6564203A28000D0A4D4DA9
S11358B04138343531513A0A0D000D0A494E41320E
S11358C031393A0A0D000D0A0A424D453638302066
S11358D0526561642041626F727465642E20446570
S11358E0766963652044697361626C6564203A2853
S11358F0000D0A09424D58303535616363656C20EB
S1135900526561642041626F727465642E2044653F
S1135910766963652044697361626C6564203A2822
S113592020000D0A09424D583035356779726F20D1
S1135930526561642041626F727465642E2044650F
S1135940766963652044697361626C6564203A28F2
S113595020000D0A0920424D583035356D6167200D
S1135960526561642041626F727465642E204465DF
S1135970766963652044697361626C6564203A28C2
S113598020000D0A094D4147333131302052656101
S1135990642041626F727465642E20446576696385
S11359A0652044697361626C6564203A2820000DA7
S11359B00A094C334744323048205265616420411F
S11359C0626F727465642E20446576696365204451
S11359D0697361626C6564203A2820000D0A094CE1
S11359E0505332354820526561642041626F7274AD
S11359F065642E2044657669636520446973616239
S1135A006C6564203A2820000D0A0954435333344A
S1135A1037323520526561642041626F7274656467
S1135A202E204465766963652044697361626C6500
S1135A3064203A2820000D0A0953493437303520B0
S1135A40526561642041626F727465642E204465FE
S1135A50766963652044697361626C6564203A28E1
S1135A6020000D0A0948444331303030205265612A
S1135A70642041626F727465642E204465766963A4
S1135A80652044697361626C6564203A2820000DC6
S1135A900A0953493730323120526561642041622A
S1135AA06F727465642E2044657669636520446969
S1135AB07361626C6564203A2820000D0A0943432F
S1135AC05338313120526561642041626F727465CC
S1135AD0642E204465766963652044697361626C51
S1135AE06564203A2820000D0A09414D47383833AF
S1135AF03420526561642041626F727465642E20A3
S1135B004465766963652044697361626C656420E9
S1135B103A2820000D0A09415337323632205265A3
S1135B2061642041626F727465642E2044657669F5
S1135B3063652044697361626C6564203A282000BF
S1135B400D0A0941533732363320526561642041CE
S1135B50626F727465642E204465766963652044BF
S1135B60697361626C6564203A2820000D09496EEE
S1135B7076616C6964207761727053656E736F72BD
S1135B80446576696365205B25645D207061737389
S1135B90656420746F20726570656174526567690D
S1135BA07374657252656164466F724465766963A5
S1135BB065416E64416464726573732E0A000A0A57
S1135BC00A0D426F6F74696E6720576172702C20E2
S1135BD0696E20332E2E2E2000322E2E2E200031E0
S1135BE02E2E2E0A0D000D0A0A0A0A5B202A090924
S1135BF009095709610972097009287265762E200E
S1135C0062290909092A205D0A000D5B202009097F
S1135C10090920202020202043616D627269646795
S1135C2065202F2050687973636F6D706C616220FA
S1135C3020200909090920205D0A0A000D0953756D
S1135C4070706C793D25646D562C094465666175E8
S1135C506C742054617267657420526561642052CB
S1135C60656769737465723D3078253032780A004F
S1135C700D094932433D25646B622F732C0953503F
S1135C80493D25646B622F732C09554152543D25BF
S1135C90646B622F732C094932432050756C6C2D50
S1135CA055703D25640A0A000D0953494D2D3E5394
S1135CB0434743363D3078253032780909525443FE
S1135CC02D3E53523D3078253032780909525443E1
S1135CD02D3E5453523D3078253032780A000D0958
S1135CE04D43475F43313D30782530327809090907
S1135CF04D43475F43323D30782530327809094DB2
S1135D0043475F533D3078253032780A000D094D02
S1135D1043475F53433D3078253032780909094DB4
S1135D2043475F4D433D30782530327809094F535E
S1135D30435F43523D3078253032780A000D0953D1
S1135D404D435F504D50524F543D3078253032789A
S1135D50090909534D435F504D4354524C3D30782B
S1135D602530327809095343422D3E5343523D3086
S1135D7078253032780A000D09504D435F5245476B
S1135D8053433D30782530327809090953494D5F32
S1135D9053434743343D30782530327809525443D5
S1135DA02D3E5450523D3078253032780A0A000D89
S1135DB00925647320696E205254432048616E643F
S1135DC06C657220746F2D646174652C09256420E0
S1135DD0506D6772204572726F72730A000D5365BD
S1135DE06C6563743A0A000D2D202778273A2064E5
S1135DF0697361626C652053574420616E6420733B
S1135E0070696E20666F7220313020736563732E63
S1135E100A000D2D20277A273A2064756D702061C1
S1135E206C6C2073656E736F727320646174612E81
S1135E300A000D2D202731273A207265616420491C
S1135E404E41323139207265676973746572732EFD
S1135E500A000D2D202732273A20506C61636520FB
S1135E60706F696E74206F6E204F4C45440A000DAC
S1135E702D202733273A205265616420616C6C2001
S1135E80616363656C65726174696F6E7320285811
S1135E902C592C5A2920666F722064617461206326
S1135EA06F6C6C656374696F6E0A000D2D20273565
S1135EB0273A20526F77696E672053797374656D42
S1135EC00A000D2D202739273A2052656164206E7F
S1135ED020616363656C65726174696F6E73200A17
S1135EE0000D456E7465722073656C656374696F2B
S1135EF06E3E20000D09200A200A5374726F6B65F0
S1135F0020436F756E740A000D0925640A000D099B
S1135F10200A200A50756C6C696E6720666F726384
S1135F206520646174610A000D090A2025640A0071
S1135F300D0925642C2025640A000D09200A200A75
S1135F40582C20592C205A0A000D0925642C202590
S1135F50642C2025640A000D2D20506C6561736546
S1135F6020656E7465722032206E756D6265720AEA
S1135F70000D09200A200A5820416363656C65728C
S1135F806174696F6E0A0057726974696E672030B4
S1135F903020746F20393920746F204F4C454400F1
S1135FA00D0A095072696E74696E67204D4D41384F
S1135FB034353151207265676973746572203130EC
S1135FC030302074696D6573200A000D093078251E
S1135FD0303478202D2D3E2025640A000D09200A36
S1135FE0200A5920416363656C65726174696F6E40
S1135FF00A000D09200A200A5A20416363656C6572
S1136000726174696F6E0A000D095061796C6F6179
S11360106473206D616B6520726F636B65747320AC
