:1000000000060020310500005905000059050000D8
:1000100000000000000000000000000000000000E0
:100020000000000000000000000000005905000072
:100030000000000000000000590500005905000004
:100040005905000059050000590500005905000038
:100050005905000059050000590500005905000028
:10006000DD37000059050000E737000059050000A2
:100070005905000059050000590500005905000008
:1000800059050000590500005905000059050000F8
:10009000E5080000FD0800005905000059050000B2
:1000A00059050000590500005905000059050000D8
:1000B00059050000590500005905000059050000C8
:10040000FFFFFFFFFFFFFFFFFFFFFFFFFE3DFFFFBF
:1004100008B5054B054803331B1A062B03D9044BBB
:10042000002B00D0984708BDB4FFFF1FB4FFFF1F8B
:10043000000000000648074908B5091A8910CB0FCB
:100440005918491003D0044B002B00D0984708BD21
:10045000B4FFFF1FB4FFFF1F0000000010B5074CE2
:100460002378002B09D1FFF7D3FF054B002B02D0D7
:10047000044800E000BF0123237010BDB4FFFF1F3C
:10048000000000009474000008B5094B002B03D055
:100490000848094900E000BF08480368002B02D162
:1004A000FFF7C8FF08BD064B002BF9D09847F7E7C8
:1004B0000000000094740000B8FFFF1FB0FFFF1F92
:1004C00000000000144B002B00D1124B9D4640222F
:1004D00092029A1A924600218B460F461148124A00
:1004E000121A05F092F90D4B002B00D098470C4BD7
:1004F000002B00D098470020002104000D000B487D
:1005000005F007F905F03EF92000290000F0BCFED7
:1005100005F00EF9000008000006002000000000B1
:1005200000000000B4FFFF1FD00200205D57000054
:1005300072B606480649074A02600A6003F058F995
:1005400003F098F962B6FFF7BDFF000080E100E01C
:1005500080E200E0FFFFFFFF004800475905000070
:1005600002B4714649084900095649008E4402BC4C
:100570007047C04602B4714649084900095C490009
:100580008E4402BC7047C046002243088B4274D39D
:1005900003098B425FD3030A8B4244D3030B8B4284
:1005A00028D3030C8B420DD3FF22090212BA030C8D
:1005B0008B4202D31212090265D0030B8B4219D36E
:1005C00000E0090AC30B8B4201D3CB03C01A52418E
:1005D000830B8B4201D38B03C01A5241430B8B42D6
:1005E00001D34B03C01A5241030B8B4201D30B03BF
:1005F000C01A5241C30A8B4201D3CB02C01A5241E6
:10060000830A8B4201D38B02C01A5241430A8B42A8
:1006100001D34B02C01A5241030A8B4201D30B0291
:10062000C01A5241CDD2C3098B4201D3CB01C01AAB
:10063000524183098B4201D38B01C01A52414309B5
:100640008B4201D34B01C01A524103098B4201D3A3
:100650000B01C01A5241C3088B4201D3CB00C01A10
:10066000524183088B4201D38B00C01A5241430888
:100670008B4201D34B00C01A5241411A00D20146AD
:10068000524110467047FFE701B5002000F0FCF82A
:1006900002BDC0460029F7D003B5FFF775FF0EBCB9
:1006A0004243891A1847C04603460B437FD40022B1
:1006B00043088B4274D303098B425FD3030A8B42F6
:1006C00044D3030B8B4228D3030C8B420DD3FF2260
:1006D000090212BA030C8B4202D31212090265D02E
:1006E000030B8B4219D300E0090AC30B8B4201D3E1
:1006F000CB03C01A5241830B8B4201D38B03C01A28
:100700005241430B8B4201D34B03C01A5241030B9E
:100710008B4201D30B03C01A5241C30A8B4201D34F
:10072000CB02C01A5241830A8B4201D38B02C01AFA
:100730005241430A8B4201D34B02C01A5241030A71
:100740008B4201D30B02C01A5241CDD2C3098B4256
:1007500001D3CB01C01A524183098B4201D38B01D3
:10076000C01A524143098B4201D34B01C01A524176
:1007700003098B4201D30B01C01A5241C3088B42BB
:1007800001D3CB00C01A524183088B4201D38B00A6
:10079000C01A524143088B4201D34B00C01A524148
:1007A000411A00D201465241104670475DE0CA0F1F
:1007B00000D04942031000D34042534000229C46DF
:1007C00003098B422DD3030A8B4212D3FC228901E9
:1007D00012BA030A8B420CD3890192118B4208D3BF
:1007E000890192118B4204D389013AD0921100E021
:1007F0008909C3098B4201D3CB01C01A5241830935
:100800008B4201D38B01C01A524143098B4201D361
:100810004B01C01A524103098B4201D30B01C01A8C
:100820005241C3088B4201D3CB00C01A5241830806
:100830008B4201D38B00C01A5241D9D243088B425C
:1008400001D34B00C01A5241411A00D201466346FF
:1008500052415B10104601D34042002B00D5494263
:10086000704763465B1000D3404201B5002000F0A2
:100870000BF802BD0029F8D003B5FFF715FF0EBC39
:100880004243891A1847C0467047C04608B50A4B0C
:100890001A68002A01D1094A1A601A680849101812
:1008A000884206D904F03EFF0C2303600120404239
:1008B00001E01860101C08BDD0FFFF1FD00200200F
:1008C000D00200200223807883428041404270475A
:1008D000437A0020013B012B03D901200B7801331F
:1008E0000B70704708B5002004F05AFB002803D0B5
:1008F0000020011C04F048FB08BD0000024A1368F8
:10090000013313607047C0462000002037B5002037
:1009100003F04AFAC02300250D4A9B0013600D4ADC
:100920000D4C13600D4A281C13600D4B2571657129
:10093000A5711A68FA239B0053430A49236004F007
:100940007DFB281C211C01AA04F0E0FB37BDC0463A
:10095000189014541C9014541800002000A0145433
:1009600014FEFF1F2400002010B58024002004F096
:10097000A9FB0A4B64001C60094B07201C60094B53
:100980001C6003F0ABFC062003F0A8FC201C03F065
:10099000A5FC002003F00DFA10BDC04618901454B9
:1009A0001C90145400A0145408B5002003F006FA5B
:1009B0008023054A9B001360044A00201360044909
:1009C00003F06CFD08BDC0460CA0145410A01454D4
:1009D000D4FFFF1F08B5002003F09CFD8023822078
:1009E000074A5B001360074A4000136003F076FC7F
:1009F0000420FF3003F072FC002003F0E4F908BD8E
:100A00000CA0145410A0145408B50023354A3649DC
:100A10001360364A1360364A0133FF331360354A98
:100A20001360354A1360354A1360354A1360354AFE
:100A30001360354A1360012208780240081C3349CC
:100A4000002A01D00B6000E00A60314A314913608E
:100A500000220A6030490A60304A1360304A13604D
:100A6000304A1360304A1360304A1360304A1360D2
:100A70000378DB0703D50220FF3003F021FC0920B7
:100A800003F02CFC0C2003F029FC052003F026FCCD
:100A9000082003F023FC0620FF3003F01FFC0E208B
:100AA000FF3003F01BFC8320400003F017FC0820FC
:100AB000FF3003F013FC0C20FF3003F001FC822018
:100AC000400003F00BFC0420FF3003F007FC07207C
:100AD00003F004FC062003F001FC8020400003F03A
:100AE000FDFB08BD0C9014540CFEFF1F1090145415
:100AF00014901454189014541C90145420901454AE
:100B0000249014543090145400A0145404A014548D
:100B100008A014540CA0145410A0145414A014547D
:100B200018A014541CA0145428A014542CA014541D
:100B300034A0145408B5092003F0D0FB08BD08B553
:100B40000C2003F0CBFB08BD08B5384B984259D0B8
:100B500013D8374B984243D007D8364B984230D001
:100B60006433984238D0C83B12E0334B98423ED0B1
:100B70006433984242D0314B15E0314B98422FD02C
:100B80000CD8304B98421CD06433984224D02E4B62
:100B9000984242D1052003F0A1FB15E02B4B98426F
:100BA00025D006D82A4B984237D1052003F096FB72
:100BB00020E0C8231B01984220D0264B984221D028
:100BC0002BE0052003F07CFB082003F087FB0620C8
:100BD000FF3003F083FB24E0052003F07FFB02E0FD
:100BE000052003F06DFB082003F06AFBEFE705200A
:100BF00003F066FB082003F071FB09E0052003F019
:100C00006DFB02E0052003F05BFB082003F058FBBE
:100C10000620FF3003F054FB03E000200E4902F0F1
:100C2000D1FD0E4B186802F0E9FE08BDC4090000B2
:100C3000340800006C070000FC0800009808000061
:100C4000540B00008C0A0000280A00001C0C000055
:100C5000B80B0000E40C0000505B000008FEFF1F12
:100C600008B5FFF771FF092003F02AFB0C2003F001
:100C700035FB8320400003F031FB08BD08B5FFF7CA
:100C800063FF092003F02AFB0C2003F019FB8320EB
:100C9000400003F015FB08BDAF2108B50B4B021C4B
:100CA000C3189BB289008B4202D8FFF7D9FF0BE033
:100CB000074BC3189BB28B4202D8FFF7DFFF03E05C
:100CC0000020044902F07EFD08BDC046F8F8FFFF91
:100CD000D8F5FFFF7D5B000008B5FFF72BFFFFF79E
:100CE0002EFF8320400003F0EBFA024B186802F05D
:100CF00085FE08BD08FEFF1F10B5041C002901D0A9
:100D0000FFF782FE0021022001F0DEFA211C042000
:100D100001F0DAFA10BD08B501200021FFF7ECFF61
:100D20003C200121FFF7E8FFF6E70000F0B585B0B1
:100D30000391041C161C00209AB2012101F084FBCF
:100D4000071C002C1CD01C49002002F02BFB1B4C64
:100D5000206802F053FE1A49002002F023FB2068AD
:100D600002F04CFE1749002002F01CFB206802F044
:100D700045FE0020144902F015FB206802F03EFEFB
:100D80000025124C124923686268002000922A1C38
:100D900002F018FD039801F099FB226800206368B7
:100DA0000C49009702F00EFD002E02DD301C02F00F
:100DB00025FE0135E5E7C046B55B000000FEFF1FDC
:100DC000DD5B0000FF5B0000606C000000D00340B2
:100DD000245C0000305C0000F0B591B01D1C16AB27
:100DE0000C91197817AB05921A7818AB1B78041C74
:100DF0000D931CAB1B780EA80E931DAB1B8808939C
:100E000021231B18DB7F09931FAB1B880F9320AB9B
:100E10001B780A930B1C914200D9131CDFB2059B6F
:100E2000002D02D1002B06D101E0002B03D00020C1
:100E3000544902F0C7FC0898FFF72EFF211C002040
:100E400002F0B0FA0023089C0293039307930493E3
:100E500000230693069A199B93426BDB00261A9B8C
:100E60009E4264DABB190B932C226B469B181878B0
:100E700001210C9B9847002838D1049B013304932F
:100E8000089B9C4204D9643CA4B2201CFFF704FFD9
:100E9000002D16D0099A6B7BD31A5A425341039AFC
:100EA000D31803930A9B002B39D0EB7A287B697BFC
:100EB00000900191DBB2F2193349002002F082FC6C
:100EC0002DE0059B099A1B7AD31A5A425341039A83
:100ED000D31803930A9B002B21D0059BF2191B7A90
:100EE000281CDBB2294902F06DFC18E0022810D161
:100EF000002027490B9A02F065FC079B01330793FA
:100F00000F9B9C420BD26434A4B2201CFFF7C4FE9A
:100F100005E0033843425841029B1B1802931B9B78
:100F2000002B02DD181C02F069FD013697E7069BD5
:100F300001338EE70E9B002B04D07B1CDFB20D9B90
:100F40009F4285D9049A079B944612496344002026
:100F500002F038FC322002F051FD099B039A009305
:100F60000D49049B002002F02DFC322002F046FDCA
:100F70000A49029A002002F025FC322002F03EFDD0
:100F800011B0F0BD505B00003D5C0000625C0000F1
:100F9000775C00008A5C0000A25C0000D35C00006B
:100FA000F0B591B00D9316AB0F1C02CB041C1B784F
:100FB0000E931AAB1B880F931BAB1D881CAB1E78BE
:100FC000002811D0101CFFF7EFFC601E132877D803
:100FD000FFF7D0FA0E45484B4E765154575A5D6094
:100FE000636966766C6F7625394902F0DBF96DE04E
:100FF000312200230292199A00970392169A0193C4
:101000000492189A089605920D9A099506920F9ADD
:10101000304807920E9A30490A92304A1CE0A021CB
:101020008022C9011202052002F006F805220023E1
:101030000292199A2A480392169A2A490492189AF7
:10104000009705920D9A019306920F9A08960792BF
:101050000E9A09950A92244AFFF7BEFE2DE0002061
:10106000224928E00020224925E00020214922E0F1
:10107000002021491FE0002020491CE000202049D9
:1010800019E000201F4916E000201F4913E000204E
:101090001E4910E000201E490DE000201D490AE015
:1010A00000201D4907E000201C4904E000201C49E5
:1010B00001E000201B4902F075F9FFF78BFC05E009
:1010C0001949221C002002F07DFBF6E711B0F0BDAB
:1010D000E85C0000145D00006924000008000020A6
:1010E000225D00008D300000F8FFFF1F2E5D000024
:1010F000595D00008A5D0000BA5D0000EA5D0000F5
:10110000175E0000445E0000705E00009E5E0000FE
:10111000CA5E0000F75E0000235F00004F5F000022
:101120007C5F0000A85F0000D45F0000031C303B20
:10113000021C181E09280CD9131C613B052B01D871
:10114000573A05E0131C413B0020052B01D8373AE4
:10115000101C704770B502F040F9051C02F03DF913
:10116000FF24061C281C2040FFF7E0FF051C301C54
:101170002040FFF7DBFF2D012818C0B270BD70B50D
:1011800002F02BF9041C02F028F9061C02F025F9E4
:10119000051C02F022F9FF23FA221C401D40920098
:1011A000303C544364212A1C1E40303E4E43303AAA
:1011B0005A394A43A4190340A218303BD01870BDD5
:1011C00070B50C1C161C88B00CAA157806A90880EE
:1011D0000A4A05A805700A4D12682D684A6004AADB
:1011E0001670009001930295231C002003F0B8FABA
:1011F000431E9841400008B070BDC04610FEFF1F5E
:1012000018FEFF1FF7B56A46CB1DDB08DB00D31ABB
:1012100002AF9D46051C0C1CFFF778FBFA2300204B
:1012200002AE9B002A1C00940193011C331C03F0A6
:10123000C9FF041CFFF798FB201CBD46441EA041BB
:101240008000F2BD08B50020014902F0ABF808BDEE
:101250002660000010B5094C0020211C02F0A2F805
:10126000211C002002F09EF80549002002F09AF8A7
:101270000449002002F096F810BDC04652600000FC
:1012800082600000B360000028225423F0B5E9B06A
:1012900008AFBA18D41800210722201C04F0B5FAB0
:1012A00028227423BA18D5182822603BBA18D318FC
:1012B0009C22BA18136028221C23BA18D31828229B
:1012C0006B602423BA18D3182822EB602C23BA1899
:1012D000D31828222B613423BA18D31828226B6123
:1012E0003C23BA18D3182822AB614423BA18D31868
:1012F0002822EB614C23BA18D31828222B626823CA
:101300009021BA18D318FA4A79180A6003221A7180
:101310002C220126BA1800209A60BB632670AC60AC
:1013200002F03AFD301C02F037FD8022F14B120230
:101330001A6002F081FB00200096021C031C011CB5
:1013400002F052F8EC49002002F02CF8C82002F01C
:1013500055FBEA49002002F025F8C82002F04EFBB8
:10136000E749002002F01EF8C82002F047FBE54ADA
:10137000331C0221E44802F083FB311C301C02F0D4
:101380008BFB002003F048FD28225C23BA18D118FB
:10139000FC23DB000B800023CB8000230B81002388
:1013A00000208B724E808E8003F064FD2C23002180
:1013B000F818321C04F029FA5021FB6F7918FB64ED
:1013C000A28828200A802A21A279381841180A7098
:1013D000242203218218117058217B65A288791874
:1013E00028200A803221A2793818411828200A7052
:1013F0002C210522381841180A704021FB63A2886D
:1014000079180A804221A27979180A703C210222B7
:1014100079180A7048217B64A288791828200A80EC
:101420002221A279381841180A704421042279181F
:101430000A706021FB65A288791828200A803A2169
:10144000A2793818411828200A7034210822381847
:10145000411828200A7040217B66A288381841185C
:1014600028200A804221A2793818411828200A70C1
:101470003C22092138188218282011704822FB6666
:10148000A38838188218282013804A22A379381894
:1014900082182820137044220A23381882181370E7
:1014A00000224233C3181A7028221023BA18D21807
:1014B000281C331C02F0D0FC0021022000F004FFA5
:1014C0009249934802F0E0FEFFF79EFA0820FF30B1
:1014D00002F0F6FEC82002F091FA0820FF3002F078
:1014E000FDFEC82002F08AFA0820FF3002F0E8FE74
:1014F000C82002F083FA0820FF3002F0EFFEC82077
:1015000002F07CFA0820FF3002F0DAFEC82002F078
:1015100075FA0820FF3002F0E1FE1D207D4900F041
:101520006BFF40207C4901F081FDFFF7D5FB01F006
:10153000D1FC00233B62FB6180231B027B62002302
:101540007B610333BB617549002001F02BFF744CB4
:10155000744E206802F052FA7349002001F022FF15
:10156000206802F04BFA71493A6AFB69002002F0E8
:1015700029F9206802F042FA6D4B6E4D6E491A68E7
:101580002B68096800200091796A01916B4902F08B
:1015900019F9206802F032FA694B6A4A0020D258E1
:1015A000736931680091684902F00CF9206802F013
:1015B00025FA664B65491A785B788979D2B2DBB235
:1015C00000910020624902F0FDF8206802F016FA4E
:1015D0005E4B60491A7A1B7E0978D2B2DBB2009169
:1015E00000205D4902F0EEF8206802F007FA5B4B3C
:1015F0005B491A785B780969D2B2DBB200910020AE
:10160000584902F0DFF8206802F0F8F9564B4D49CE
:101610009A78564BD2B2CB58716800200091544949
:1016200002F0D0F8206802F0E9F9524B52491A68EA
:101630002C23FB181B78002002F0C4F8206802F06D
:10164000DDF94E49002001F0ADFE206802F0D6F928
:101650004B49002001F0A6FE206802F0CFF949496D
:10166000002001F09FFE206802F0C8F946490020E2
:1016700001F098FE206802F0C1F94449002001F011
:1016800091FE206802F0BAF94149002001F08AFE7B
:10169000206802F0B3F93F49002001F083FE206882
:1016A00002F0ACF93C49002001F07CFE206802F019
:1016B000A5F93A49002001F075FE206802F09EF974
:1016C0003749002001F06EFE206802F097F9FA69B0
:1016D000BB693449002002F075F8206802F08EF9E9
:1016E0003149002001F05EFE206802F087F95DE0DC
:1016F000D108000028020020E56000000061000021
:101700000661000028FEFF1F34FFFF1F44FEFF1F7D
:1017100034FEFF1F08000020F8FFFF1F0D610000CE
:1017200000FEFF1F00D00340316100006361000034
:1017300010FEFF1F14FEFF1F04FEFF1F9761000035
:101740003C10000000700440CF61000000400640E3
:1017500005620000005006403462000000E00740CF
:1017600000ED00E06462000000D00740341000008B
:101770009E62000020000020D6620000046300008A
:101780000E6300002B6300004763000063630000EA
:1017900080630000A7630000C6630000E5630000EB
:1017A000106400003364000062640000D749002028
:1017B00001F0F8FD206802F021F9D549002001F080
:1017C000F1FD206802F01AF9D249002001F0EAFD8B
:1017D000206802F013F9D049002001F0E3FD2068F1
:1017E00002F00CF9CD49002001F0DCFD206802F088
:1017F00005F9CB49002001F0D5FD206802F0FEF884
:10180000C849002001F0CEFD206802F0F7F8C64973
:10181000002001F0C7FD206802F0F0F8C349002065
:1018200001F0C0FD206802F0E9F8C149002001F094
:10183000B9FD206802F0E2F8BE49002001F0B2FDD7
:10184000206802F0DBF8BC49002001F0ABFD206805
:1018500002F0D4F8B949002001F0A4FD206802F09C
:10186000CDF8B749002001F09DFD206802F0C6F8D0
:10187000B449002001F096FD206802F0BFF8B2499B
:10188000002001F08FFD206802F0B8F8AF49002079
:1018900001F088FD206802F0B1F8AD49002001F0A8
:1018A00081FD206802F0AAF801F097FDFF22061CD6
:1018B0000240672A00D108E25DDC362A01D100F03F
:1018C00047FC26DC322A00D16AE30CDC0A2A01D16B
:1018D00000F0AAFC312A01D000F0ACFC9D490020A8
:1018E00001F070FF5CE3342A01D100F000FC01DD5F
:1018F00000F014FC786AFFF757F801217A6A2A2071
:1019000000F07FFD0020944901F05CFF934B3B61A8
:10191000B4E3632A00D171E11BDC612A5ED000DDF3
:1019200058E1392A01D000F085FCFA248C490020C6
:1019300001F038FD786AFFF737F801217A6A2A202A
:1019400000F05FFD0020874901F03CFFA40000F09B
:1019500018FC652A00D162E100DD6BE182490020BC
:1019600001F020FDFFF70BFC804B814918601A68DD
:10197000002000F061FC6F2A00D16CE214DC6B2ABD
:1019800000D113E20CDC692A00D1AAE100DDB4E148
:101990007849002001F006FD0120FFF75BFCD2E54D
:1019A0006D2A00DD52E207E2742A00D1CBE50ADCA1
:1019B000722A00D153E200DD57E20220702A00D1E2
:1019C0004EE200F037FC782A00D165E27A2A00D195
:1019D0006CE2752A01D000F02DFC4EE26649002031
:1019E00001F0E0FC6549002001F0DCFC206802F019
:1019F00005F86349002001F0D5FC6249002001F0A0
:101A0000D1FC6149002001F0CDFC206801F0F6FF17
:101A10005E49002001F0C6FC206801F0EFFF5C4940
:101A2000002001F0BFFC206801F0E8FF59490020C8
:101A300001F0B8FC206801F0E1FF5749002001F0F7
:101A4000B1FC206801F0DAFF5449002001F0AAFC43
:101A5000206801F0D3FF5249002001F0A3FC206868
:101A600001F0CCFF4F49002001F09CFC206801F000
:101A7000C5FF4D49002001F095FC206801F0BEFF34
:101A80004A49002001F08EFC206801F0B7FF484968
:101A9000002001F087FC206801F0B0FF45490020DC
:101AA00001F080FC206801F0A9FF4349002001F00B
:101AB00079FC206801F0A2FF4049002001F072FC8F
:101AC000206801F09BFF3E49002001F06BFC3D497E
:101AD000002001F067FC206801F090FF3A490020E7
:101AE00001F060FC206801F089FF01F076FCFF2224
:101AF0000240352A03D1354B7B61012322E56D2A53
:101B000000D097E3324B7B6114231BE57E64000019
:101B1000A2640000C6640000E0640000FB640000F2
:101B20001965000036650000556500007465000009
:101B30008E650000B9650000D9650000F9650000F8
:101B400016660000526600006966000080660000AC
:101B50009F660000D1710000287200008813000009
:101B60008E7200005F720000CC6B000004FEFF1F4D
:101B7000FB6B00006A6D0000B2660000BD660000ED
:101B8000FB6600003D6700007E670000BE67000046
:101B9000EE6700002B6800006A680000A86800007B
:101BA000E568000023690000606900009F6900008B
:101BB000DC690000056A0000426A0000796A0000E2
:101BC000B66A0000F36A0000066B000008000020FF
:101BD000F8FFFF1FC949002001F0E4FBFFF7CFFA2F
:101BE000C74B18601A68C74B9A4202D1C64BC44A09
:101BF0001360C34B00201A68C4491DE3C449002088
:101C000001F0D0FBFFF7BBFA28602A68BD4B9A426F
:101C100001D1BD4B2B602A680020BE490CE3BE49B0
:101C2000002001F0BFFBFFF795FAF861BB490020E7
:101C3000FA6901E3BA49002001F0B4FBFFF78AFA20
:101C4000051CB84C2A1C211C002001F0BBFDB64924
:101C5000002001F0A7FBFFF77DFA2821082379185F
:101C6000CE18021C3070211C002001F0ABFD992D14
:101C700002D10020AD49D9E228229823BA18D418FD
:101C80009F4B386A1B6825806360FFF705F8786A08
:101C9000FEF78AFE34223B7FBA181370A44B211C36
:101CA0001A682824012302920C223C19A2180096DB
:101CB0000193002002F054FD021E03D000209D4934
:101CC00001F080FDFEF786FE3DE49B49002001F017
:101CD00069FBFFF754FA83B23B621A1C0020974954
:101CE000AAE29749002001F05DFBFFF748FA83B2B2
:101CF0007B621A1C002093499EE2FA6992490020F7
:101D000001F060FD01F069FB9049041C002001F026
:101D100049FB01F062FB8E493861002001F042FB73
:101D200001F05BFB8B49F860002001F03BFBFFF703
:101D300026FA8949061C002001F034FBFFF71FFA40
:101D40008649051C002001F02DFBFFF718FA844995
:101D5000B860002001F026FBFFF7FCF978600095E1
:101D60007B6A029601937F49BA69FB69002001F002
:101D700029FD231C303B1C1C3A69631E9C41303AF0
:101D80000092FA680296303A511E8A4103950192F8
:101D90003A6AE3B204923A8905927A680692B8697F
:101DA000F9697A6AFFF7FCF8FFF7CDFB6E4900206E
:101DB00001F0F8FAFEF7AFFF6C49002001F0F2FAEB
:101DC0006B49002001F0EEFAFFF7C4F928229823AE
:101DD000BA18D51828706749002001F0E3FAFFF718
:101DE000CEF9F6B2041C2B786C2E1AD17A6A002038
:101DF00000923A6A60490192221C01F0E3FC00253E
:101E0000A54201DBFFF79FFB28229823BA18D318BD
:101E10001A780023FF2000930121FFF7D1F9013543
:101E2000EEE73A6A002000925449221C01F0CAFCF5
:101E30000025A54201DBFFF786FB28229823BA186C
:101E4000D0180121FFF7DEF90135F2E7386AFEF715
:101E500023FFFFF778FBFEF73FFFFFF774FB082037
:101E6000002100F031FAFFF76EFB4049002001F03D
:101E700099FAFFF7E7F9FFF766FB7B690020404915
:101E8000002B00D1D2E13F4901F08CFAFFF762F953
:101E90007B691870FFF757FB3B49002001F082FA7D
:101EA000194801F0ABFD00203849BFE13849002056
:101EB00001F078FA786AFEF777FD3649002001F0E4
:101EC00071FA01F08AFA3449051C002001F06AFA1F
:101ED000FFF755F986B23149321C002001F072FC3F
:101EE000206801F08BFDE9B268394D42694101205B
:101EF000C9B2321C7B6AFEF719FFC046366B000080
:101F000010FEFF1F0F27000010270000646B000069
:101F1000846B0000B26B0000166C00004C6C00007B
:101F2000636C0000966C0000AC6C0000D56C000087
:101F300018FEFF1FFB6C00001C6D0000486D0000C8
:101F4000986D0000D46D0000F16D00002B6E000054
:101F5000546E00006D6E0000AC6E0000D86E000084
:101F6000106F0000416F00007E6F00006A6D00007E
:101F7000A16F0000C06F0000E06F00003270000031
:101F800070700000AE700000E67000000571000087
:101F90000F7100002871000051710000997100005C
:101FA000A749002001F00EFC786AFEF7FDFC2A200C
:101FB00001217A6A00F025FA32240025012002214D
:101FC00000F052FA9F4B013C1A7A5B7A92019B080F
:101FD00013438022920153409B4A9B18ED18002C1A
:101FE000ECD1281C3221FEF75FFB061C9749201C10
:101FF000321C01F0E7FB6B46B4B008AC251C3B611A
:102000001833FB600221012000F02EFA8D4A0020D7
:10201000137A527A9B0192081A4380239B015A40FB
:10202000894B8B49D218921B04C501F0CBFBFB688E
:102030009D42E7D10020874901F0C4FB00252A1CFE
:102040003221201C01F067F82821982379186A00B2
:10205000CB180135D052602DF1D1002428229823CD
:10206000BA18D318E25E00207B49023401F0AAFBC3
:10207000C02CF3D13B699D46FFF765FA802602210B
:10208000012000F0F1F96F4DB6012B7A6A7A9B01BD
:1020900092081A436C4B7240D21893B2022103206B
:1020A000FB6000F0E1F92A7A6C7A9201A4081443EB
:1020B000654B744002210520E41800F0D5F92A7A16
:1020C0006B7A92019B0813435F495E407618A4B275
:1020D0000C23FA5E002023B20096604901F072FBE7
:1020E0003B69013B3B61002BC8D1FFF72CFA5C49EF
:1020F000002001F057F901F070F9FFF717F82822D6
:102100009823BA18D418206001F067F9FFF70EF889
:102110006060201C00F0B4FEFFF715FA786AFEF745
:1021200043FC03217A6A2A2000F06BF9FA2400208C
:102130004C4901F047FBA4000120022100F094F972
:10214000404B013C1A7A5B7A002CF5D1FFF7FBF982
:102150000020454901F036FB0024201C00F0C9FF97
:1021600028229823BA18D5182860201C00F0B8FF40
:1021700001346860281C00F083FE642CEDD1FFF769
:10218000E2F90221012000F06FF92E4B00201A7AAB
:102190005B7A92019B0813438022920153402A4AA2
:1021A00032499B181A1C013C01F00CFB002CE8D1B1
:1021B000201C2F49FA2401F005FBA4000221032072
:1021C00000F052F91F4B00201A7A5B7A92019B08AB
:1021D00013438022920153401B4A24499B181A1C26
:1021E000013C01F0EFFA002CE8D1201C2149FA242F
:1021F00001F0E8FAA4000221052000F035F9114BA6
:1022000000201A7A5B7A92019B0813438022920184
:1022100053400D4A15499B181A1C013C01F0D2FA93
:10222000002CE8D1FFF78FF90020134901F0BAF82C
:10223000FFF789F90020114901F0C4FAFFF783F98B
:10224000ED7100000800002000E0FFFF07720000B1
:102250000F72000016720000217200003772000039
:10226000457200005F72000075720000B9720000D4
:10227000CA720000E0720000F67200001A6B0000E3
:102280001FB5041C01A9002002F01CFE01A869462C
:1022900002F056FD009B68461C1901A9009402F04B
:1022A000D7FC01A90122002002F038FE1FBD00006A
:1022B0000022034B1A608022024B1206DA67704735
:1022C00000A01C5804E100E010B50A2308286FD8CC
:1022D0000C1CFEF74FF9051B283C4862646657004A
:1022E00001F050FF0523012862D0FFF7E1FF201C19
:1022F000FFF7C6FF0020011C01F0D2FD041C0020E6
:10230000012101F0C9FB002C4FD150E001F03AFF50
:10231000062301284CD0FFF7CBFF201CFFF7B0FFAE
:1023200001200021E8E701F02DFF082301283FD01C
:1023300001F03AFC002803D00020012101F0ACFBA1
:102340000220002101F0ACFD00282ED12FE001F089
:1023500019FF072300282BD0FFF7AAFF201CFFF747
:102360008FFF032005E0FFF7A3FF201CFFF788FF86
:102370000420002101F094FD041C01F003FF00285B
:10238000C1D1BDE70820002101F08AFD00280CD151
:102390000120011C01F080FB09E0052002E006207D
:1023A00000E00720002101F07BFD092300E000236D
:1023B000181C10BD10B50C1C0C4B88B01B7806A95E
:1023C0000B800B4B05AA1B6810700A484B6004ABCE
:1023D0001C7000680093012302900193002002F01A
:1023E000BFF9431E9841400008B010BD080000200E
:1023F00010FEFF1F18FEFF1FC223FF3308704B6043
:10240000704708B518280FD8172818D20F2806D8F3
:102410000E2814D2031C093B012B13D80FE0031C18
:10242000113B042B0ED80AE0212804D81F2806D21D
:102430001D2807D103E0031C233B0E2B02D8FFF716
:10244000B9FF00E0032008BD38B5031C0D1C0920AE
:10245000191CFFF7AFFF291C041C2A20FFF7AAFF55
:102460000443E0B238BD0000FF2310B588B005AAD0
:102470001370182804D8092806D206281BD803E0B0
:10248000031C1D3B142B16D80C4B10701C7806AB8C
:102490001C800B4C0B482468006807940A4C01917F
:1024A0000290191C00940123002002F066F9431EDB
:1024B0009841400000E0032008B010BD0800002053
:1024C00010FEFF1F18FEFF1F1000002038B502216C
:1024D000041C0120FFF7C8FF304D2A7A6B7AD2B274
:1024E000DBB2002804D02E49002000F05BFF11E091
:1024F000002C03D02B4901F065F90BE092019B08F9
:102500001343802292015A40274B201CD21827499E
:1025100001F058F902210320FFF7A6FF2A7A697A11
:10252000D2B2CBB2002804D01D49002000F03AFFFF
:1025300011E0002C03D01B4901F044F90BE092019B
:102540009B081343802292015A40174B201CD2183B
:10255000164901F037F902210520FFF785FF2A7A95
:10256000697AD2B2CBB2002804D00D49002000F025
:1025700019FF11E0002C03D00A4901F023F90BE008
:1025800092019B081343802292015A40064B201C63
:10259000D218064901F016F938BDC04608000020DF
:1025A000287300002F73000000E0FFFF2B5C000089
:1025B00037B50E24FF34051C201C01F081FE0A20D3
:1025C00001F01CFA201C01F089FE0C2001F086FEAF
:1025D0000123084A002015700093FA239B00019301
:1025E000011C054B02F0EEFD051C201C01F068FEED
:1025F000281C3EBD550000205400002008B50020D6
:10260000FFF7D6FF3F20FFF7D3FF0020FFF7D0FFF3
:10261000002008BD38B5051C0C1C1535EDB2212075
:10262000FFF7C6FF281CFFF7C3FF201CFFF7C0FF02
:102630003834281CFFF7BCFFE0B2FFF7B9FFFFF703
:10264000DDFF002038BDF8B5061C0C1C351C271C0E
:102650002120FFF7ADFF2A35301CEDB2FFF7A8FFB0
:10266000201CFFF7A5FF281CFFF7A2FF201CFFF787
:102670009FFFFFF7C3FF2120FFF79AFF281CFFF7FA
:1026800097FF1C37201CFFB2FFF792FF281CFFF7B3
:102690008FFF381CFFF78CFFFFF7B0FF2120FFF7FB
:1026A00087FF281CFFF784FF381CFFF781FF301CD1
:1026B000FFF77EFF381CFFF77BFFFFF79FFF21200E
:1026C000FFF776FF301CFFF773FF3834381CE4B295
:1026D000FFF76EFF301CFFF76BFF201CFFF768FF52
:1026E000FFF78CFF2120FFF763FF301CFFF760FF2F
:1026F000201CFFF75DFF281CFFF75AFF201CFFF787
:1027000057FFFFF77BFF0020F8BDF8B5071C0C1C36
:102710003D1C261C2120FFF74BFF2A35381CEDB24B
:10272000FFF746FF201CFFF743FF281CFFF740FF81
:10273000201CFFF73DFFFFF761FF2120FFF738FF67
:10274000281CFFF735FF3836201CF6B2FFF730FFA4
:10275000281CFFF72DFF301CFFF72AFFFFF74EFF65
:102760002120FFF725FF281CFFF722FF301CFFF771
:102770001FFF381CFFF71CFF301CFFF719FF1C342C
:10278000FFF73CFF2120FFF713FFE4B2381CFFF7EF
:102790000FFF201CFFF70CFF281CFFF709FF201C70
:1027A000FFF706FFFFF72AFF0020F8BD70B50D1CEC
:1027B000041C2E1C2120FFF7FBFE201CFFF7F8FE57
:1027C0002A36281CF6B2FFF7F3FE201CFFF7F0FEB6
:1027D000301CFFF7EDFEFFF711FF2120FFF7E8FEA9
:1027E000201CFFF7E5FE301CFFF7E2FE201C2A301C
:1027F000C0B2FFF7DDFE1534301CE4B2FFF7D8FE9F
:10280000FFF7FCFE2120FFF7D3FE201CFFF7D0FED0
:10281000281C1C30C0B2FFF7CBFE3835201CFFF758
:10282000C7FEE8B2FFF7C4FEFFF7E8FE002070BD68
:10283000F8B5061C0C1C351C271C2A35EDB22120CE
:10284000FFF7B6FE281CFFF7B3FE201CFFF7B0FE13
:10285000301CFFF7ADFE201CFFF7AAFEFFF7CEFEEF
:102860002120FFF7A5FE301CFFF7A2FE1C37201C1D
:10287000FFB2FFF79DFE301CFFF79AFE381CFFF7F2
:1028800097FEFFF7BBFE2120FFF792FE301CFFF7FB
:102890008FFE381CFFF78CFE281CFFF789FE381CC2
:1028A000FFF786FEFFF7AAFE2120FFF781FE281C16
:1028B000FFF77EFE3834381CE4B2FFF779FE281C9F
:1028C000FFF776FE201CFFF773FEFFF797FE21202F
:1028D000FFF76EFE281CFFF76BFE201CFFF768FE5B
:1028E000301CFFF765FE201CFFF762FEFFF786FE37
:1028F0000020F8BDF8B5061C0C1C351C271C2A3519
:10290000EDB22120FFF754FE281CFFF751FE201CDA
:10291000FFF74EFE301CFFF74BFE201CFFF748FE72
:10292000FFF76CFE2120FFF743FE301CFFF740FE4F
:102930003837201CFFB2FFF73BFE301CFFF738FE94
:10294000381CFFF735FEFFF759FE2120FFF730FE58
:10295000301CFFF72DFE381CFFF72AFE281CFFF75E
:1029600027FE381CFFF724FEFFF748FE2120FFF763
:102970001FFE281CFFF71CFE1C34381CE4B2FFF7B6
:1029800017FE281CFFF714FE201CFFF711FEFFF7AF
:1029900035FE2120FFF70CFE281CFFF709FE201C46
:1029A000FFF706FE301CFFF703FE201CFFF700FEBA
:1029B000FFF724FE0020F8BD38B5051C0C1C2120B3
:1029C000FFF7F6FD281C2A35EDB2FFF7F1FD201CBC
:1029D000FFF7EEFD281CFFF7EBFD201CFFF7E8FDDD
:1029E000FFF70CFE2120FFF7E3FD281CFFF7E0FDB9
:1029F000201CFFF7DDFD3834281CFFF7D9FDE0B2BD
:102A0000FFF7D6FDFFF7FAFD002038BDF8B5061C2C
:102A10000C1C351C271C2120FFF7CAFD2A35301C51
:102A2000EDB2FFF7C5FD201CFFF7C2FD281CFFF724
:102A3000BFFD201CFFF7BCFDFFF7E0FD2120FFF7E5
:102A4000B7FD281CFFF7B4FD3837201CFFB2FFF795
:102A5000AFFD281CFFF7ACFD381CFFF7A9FDFFF701
:102A6000CDFD2120FFF7A4FD281CFFF7A1FD381C98
:102A7000FFF79EFD301CFFF79BFD381CFFF798FD0C
:102A8000FFF7BCFD2120FFF793FD301CFFF790FD01
:102A9000381CFFF78DFD301CFFF78AFD201CFFF767
:102AA00087FD1C34FFF7AAFD2120FFF781FDE4B26A
:102AB000301CFFF77DFD201CFFF77AFD281CFFF777
:102AC00077FD201CFFF774FDFFF798FD0020F8BD8F
:102AD000F8B5071C0C1C3D1C261C2A35EDB2212024
:102AE000FFF766FD281CFFF763FD201CFFF760FD64
:102AF000381CFFF75DFD201CFFF75AFDFFF77EFD38
:102B00002120FFF755FD381CFFF752FD1C36201C15
:102B1000F6B2FFF74DFD381CFFF74AFD301CFFF7FA
:102B200047FDFFF76BFD2120FFF742FD381CFFF743
:102B30003FFD301CFFF73CFD281CFFF739FD301C22
:102B4000FFF736FDFFF75AFD2120FFF731FD281C66
:102B5000FFF72EFD201CFFF72BFD3834281CFFF754
:102B600027FDE0B2FFF724FDFFF748FD0020F8BD88
:102B7000F8B5061C0F1C351C3C1C2A35EDB2212073
:102B8000FFF716FD281CFFF713FD381CFFF710FD9B
:102B9000301CFFF70DFD381CFFF70AFDFFF72EFD77
:102BA0002120FFF705FD301CFFF702FD3834381CEB
:102BB000E4B2FFF7FDFC301CFFF7FAFC201CFFF726
:102BC000F7FCFFF71BFD2120FFF7F2FC301CFFF79D
:102BD000EFFC201CFFF7ECFC281CFFF7E9FC201C95
:102BE000FFF7E6FCFFF70AFD2120FFF7E1FC281CB8
:102BF000FFF7DEFC201CFFF7DBFC281CFFF7D8FCEE
:102C0000381CFFF7D5FCFFF7F9FC2120FFF7D0FCBB
:102C1000281CFFF7CDFC381CFFF7CAFC301CFFF75F
:102C2000C7FC201CFFF7C4FCFFF7E8FC0020F8BD40
:102C300008B52520FFF7BCFC0020FFF7B9FC0020F9
:102C4000FFF7B6FC5F20FFF7B3FC3F20FFF7B0FCB7
:102C5000002008BD08B52520FFF7AAFC0020FFF7DB
:102C6000A7FC0020FFF7A4FC2F20FFF7A1FC3F20CA
:102C7000FFF79EFC002008BD08B52520FFF798FC53
:102C80003020FFF795FC0020FFF792FC5F20FFF754
:102C90008FFC3F20FFF78CFC002008BD10B5041C02
:102CA000FFF7D8FF002C04D10320011CFFF760FFC1
:102CB0003DE0012C04D10320011CFFF7ABFC36E002
:102CC000022C04D10320011CFFF7BDFC2FE0032CD4
:102CD00004D1201C211CFFF718FD28E0042C04D18E
:102CE0000320011CFFF762FD21E0052C04D1032025
:102CF000011CFFF79DFD1AE0062C04D10320011CE6
:102D0000FFF7F8FD13E0072C04D10320011CFFF7A7
:102D100053FE0CE0082C04D10320011CFFF776FEC3
:102D200005E0092C03D10320011CFFF7D1FE002090
:102D300010BD10B5041CFFF79FFF002C04D1032128
:102D40003220FFF715FF3DE0012C04D10321322092
:102D5000FFF760FC36E0022C04D103213220FFF79C
:102D600072FC2FE0032C04D1211C3220FFF7CDFC94
:102D700028E0042C04D103213220FFF717FD21E0C5
:102D8000052C04D103213220FFF752FD1AE0062C56
:102D900004D103213220FFF7ADFD13E0072C04D14D
:102DA00003213220FFF708FE0CE0082C04D1032198
:102DB0003220FFF72BFE05E0092C03D1322003213E
:102DC000FFF786FE002010BDF0B585B0071CFFF7A9
:102DD0002FFF6A466D460024284B03CB03C2161C06
:102DE00003CB03C23B59002B04D1285D315DFFF7B3
:102DF000BFFE3DE0012B04D1285D315DFFF70AFCE9
:102E000036E0022B04D1285D315DFFF71CFC2FE07A
:102E1000032B04D1285D315DFFF777FC28E0042BFC
:102E200004D1285D315DFFF7C1FC21E0052B04D101
:102E3000285D315DFFF7FCFC1AE0062B04D1285D0C
:102E4000315DFFF757FD13E0072B04D1285D315D9D
:102E5000FFF7B2FD0CE0082B04D1285D315DFFF7D0
:102E6000D5FD05E0092B03D1285D315DFFF730FE6C
:102E70000434082CB6D1002005B0F0BD405B000042
:102E800038B5134C03682268051C934206D062686B
:102E90004168914202D0FFF797FF13E02268934206
:102EA00006D168686268904202D0FFF742FF09E0ED
:102EB0002268934206D062686968914202D1181C68
:102EC000FFF7ECFE2B68002023606B68636038BD61
:102ED0002CFEFF1FC02313B580244F4A9B001360B4
:102EE0004E4A64001360FDF711FD4D4B201C1C6021
:102EF0004C4B1C604C4B1C6001F0E2F9642000F06C
:102F00007DFD201C01F0EAF9642000F077FD201C13
:102F100001F0D6F9642000F071FDAE20FFF748FB08
:102F2000A020FFF745FB7220FFF742FBA120FFF72F
:102F30003FFB0020FFF73CFBA220FFF739FB0020FE
:102F4000FFF736FBA420FFF733FB0024A820FFF790
:102F50002FFB3F20FFF72CFBAD20FFF729FB8E2036
:102F6000FFF726FBB020FFF723FB0B20FFF720FB2A
:102F7000B120FFF71DFB3120FFF71AFBB320FFF74D
:102F800017FBF020FFF714FB8A20FFF711FB6420EA
:102F9000FFF70EFB8B20FFF70BFB7820FFF708FBFA
:102FA0008A20FFF705FB6420FFF702FBBB20FFF739
:102FB000FFFA3A20FFF7FCFABE20FFF7F9FA3E20AD
:102FC000FFF7F6FA8720FFF7F3FA0E20FFF7F0FA83
:102FD0008120FFF7EDFA9120FFF7EAFA8220FFF750
:102FE000E7FAFF20FFF7E4FA8320FFF7E1FA7D20FC
:102FF000FFF7DEFAAF20FFF7DBFA2620FFF7D8FA5B
:103000000120FFF7D5FAFFF713FE684600940194FC
:10301000FFF736FF201C16BD209014542490145442
:1030200034A014543090145400A014548023DB05B1
:1030300008704B607047000000B589B005AB0A0A04
:103040001A705970002801D0052816D10C4A06A91B
:1030500012780A800B4A12684A6004AA10700A4863
:10306000006800930223029001930020013B01F0CD
:1030700077FB431E9841400000E0032009B000BDEB
:10308000F8FFFF1F10FEFF1F18FEFF1FFF2100B5F6
:1030900089B005AA031C11700320052B15D80C4913
:1030A0001370087806A908800A480B4B00681B6853
:1030B00048600A48029300900220012301900020FA
:1030C00001F05BFB431E9841400009B000BDC046C3
:1030D000F8FFFF1F10FEFF1F18FEFF1F000000205B
:1030E00008B5632800DD63200A21FDF7C3FB081C37
:1030F00008BD10B5041E632C03DC0020092C09DD7B
:1031000000E06324201C0A21FDF7B4FB601A0A21A9
:10311000FDF7CAFA10BD10B5602906DD041C101CAD
:10312000FDF7C2FA8000025904E00023914205DD58
:1031300092001258D3175B0E9B18DB11181C10BDA0
:103140000269C3689A4203D880681018013800E009
:10315000501EC01A7047F7B58368C668051C4068E2
:103160000191141C9F1B8019974203D902F044FB64
:10317000A4190AE001993A1C02F03EFB019BE41BF2
:10318000D9196868221C02F037FBEC60F7BD0023F8
:10319000F7B5061C171CC568019100933369B46824
:1031A000AB4200D81B19013B5B1B641BBC4200D91E
:1031B0003C1C9C4200D91C1C7368221C58190199A4
:1031C00002F01AFB009B2D191B190093019B3F1B5A
:1031D0001B190193B368EB1A5A1E93415B421D40C1
:1031E000F560002FDAD10098FEBD0000022310B573
:1031F0000F4C104A236163610F4BA261E361C82346
:10320000A2640E4A2362E26400230422A362636282
:10321000E362A3656365E3652265E01D084902F08A
:10322000ADFB201C074902F0A9FB2023A37110BDB0
:10323000240100203F7300005A00002056000020A7
:10324000487300004C730000F0B5294B171C1A7826
:1032500085B0009001910293002A01D1FFF7C6FFCB
:103260001823009A00255343029AD3181A1C50328F
:1032700052689C6D039294421BD91B6D3D1C1B1B15
:103280009F4200D91D1C1826009B2A1C5E43029BEE
:1032900001989E19F36C7F1B191902F0ADFA019B7E
:1032A00064195B190193336DE31A5A1E93415B4213
:1032B0001C40039B1E1BBE4200D93E1C002E0CD09E
:1032C0001823009A01985343029AAD19D318D96C68
:1032D000321C091902F090FAA419002D05D0182308
:1032E000009A5343024AD3189C65281C05B0F0BDD0
:1032F0002401002010B50B1CEFF31084012181F391
:103300001088191CFFF7A0FF84F3108810BD00007F
:10331000F8B51823451C5D434343141C134A0E1C87
:10332000D018C76A5519012F0FD0002F07D0022FD0
:1033300017D1221C281CFFF72AFF041C14E0281CAC
:10334000FFF7FEFEA0420ED305E0281CFFF7F8FEB3
:10335000844200D9041C281C311C221CFFF7FBFEF0
:1033600002E0002400E03C1C201CF8BD24010020E9
:10337000F8B50B4B071C1B780E1C151C002B01D13C
:10338000FFF734FFEFF31084012181F31088381C1C
:10339000311C2A1CFFF7BCFF84F31088F8BDC0461F
:1033A0002401002038B5051C081C0C1C02F0EEFAA4
:1033B000211C021C281CFFF7DBFF38BD13B56B4630
:1033C000DC1D0020211C0122FFF794FF012801D100
:1033D000207801E00120404216BD08B5FFF7EEFF5E
:1033E0000028FBDB08BD0000F7B5164C01932378DD
:1033F000051C0F1C161C002B01D1FFF7F7FE2369DB
:103400009D421CD2EFF31082012181F31088002D20
:103410000CD01823691C59436B43675061184E60E8
:103420000199E318196200219962596218235D43DA
:10343000089B6419E36282F31088002001E00120F8
:103440004042FEBD24010020826810B5041C406883
:10345000531C834205D820688154A360E36801337C
:10346000E360A26863689A420CD120692168FFF783
:103470007FFFA368984203D001235B42E36001E031
:103480000023A36010BD0000F0B5051C1F1C081C24
:10349000012685B00A9C00910192019B984204D3B9
:1034A0000199FDF771F80136F7E70296BE4200D2A6
:1034B000029701230B9A1A40039218D1002C01D1D4
:1034C000002414E00B9B20269B070DD5002F0BD169
:1034D000103609E0281C311CFFF7B6FFEB68013CF1
:1034E000002B04DB002CEBD0029BA342F2D3EB6851
:1034F000002B35DB0126012F01D9013F06E00098A2
:10350000311CFDF741F8019B984208D3019B5E43B3
:10351000F1E7301C0199FDF737F8061E10D000982E
:10352000311CFDF731F8331C4343009AD31A009342
:103530000C4B195C281CFFF787FFEB68002BE8DABF
:10354000039B002B0CD0002C0AD0029BA34207D275
:10355000281C2021FFF778FFEB68013C002BF2DAF2
:1035600005B0F0BD53730000F0B59FB00EAB0993EA
:1035700040230A930023161C06900B930D900C9386
:103580000B784C1C002B04D10C9B0393002B22DCEA
:1035900015E1252B16D1002502314F1E3B782B2B30
:1035A0000CD003D8232B27D1082308E02D2B03D0E0
:1035B000302B21D1022302E0012300E004231D432C
:1035C0000131EAE7191C09A8FFF73EFF211C0C9BFB
:1035D000002BD5DAD8E70B9A002A03D006980EA95B
:1035E000FFF7C6FE0C9B03930B9B0493049A039B6B
:1035F000944663440C93E2E000243A78131C303B79
:10360000092B05D80A235C43303C0137A418F4E7A2
:10361000002303932E2A0DD101373A78131C303B37
:10362000092B07D80A23039901374B43303B9B18DA
:103630000393F2E7397804230A1C9A43682A01D1DC
:103640000137F7E7642926D008D8582900D195E03A
:1036500063291AD0252900D0AFE0ABE0732900D14F
:1036600095E00DD8702900D0A7E032680021131D25
:103670003360082301910093116809A8102296E095
:10368000752971D0782979D097E0336819681A1DA7
:103690003260C9B28EE033681A1D1B683260DA17D7
:1036A00098180493012350400593092805DD0A2149
:1036B000FCF7FAFF059B0133F6E7059B039A93425B
:1036C00000D20592002C05D0049B002B01DB6B0778
:1036D00000D5013CAB0702D5039B002B10D0EB07B4
:1036E0000ED4002C01D100240AE0059BA34207D28E
:1036F00009A82021FFF7A8FE0C9B013C002BF0DA63
:103700000C9B0793002B58DB049B002B04DA5B42D5
:10371000049309A82D2103E06B0703D52B2109A8E9
:10372000FFF792FE0C9B002B47DB03232B40022B61
:1037300011D1039B002B0ED1002C01D100240AE0F3
:10374000059BA34207D209A83021FFF77DFE0C9B01
:10375000013C002BF0DA0C9B0593002B2DDB009431
:10376000019509A8049906E03368009401951A1D93
:103770001968326009A80A22039B18E03368009494
:103780001A1D0195326009A819681022F4E7336800
:103790001A1D32601C682178013400290DD009A857
:1037A000FFF752FE0C9B0393002BF4DA05E0FFF7C2
:1037B0006BFE02E009A8FFF747FE791C07E70C98AB
:1037C0001FB0F0BD0EB403B503AB02CB01AA019349
:1037D000FFF7CAFE02B008BC03B0184708B50020C6
:1037E00000F08AFD08BD08B5002001F0F5FB08BD1A
:1037F000082110B5164B9A780A4202D09A780A43EB
:103800009A70882200212220124B52019950124AAC
:1038100010708020114A400298501868104A0240E7
:1038200010481A601C58104A2240C024A4042243A5
:103830001A5080220D4B19721A767F3A19705A70FD
:103840000B4A11700C2299791142FBD110BDC04670
:1038500000D007400070044000E007404410000022
:10386000FFFFF3FF04100000FFFFFFF000400640E1
:1038700000500640154B164810B5191E81420CD059
:103880000022144B9B089B009A4203D084588C5012
:103890000432F9E7104B996001E00F4A936000236E
:1038A0000E4A0F49891A8B4204D0D45C0D48C45487
:1038B0000133F8E700230C4A0C49891A8B4204D0E3
:1038C0000024D01804700133F8E710BD0000000098
:1038D000000000000000000000ED00E0BC740000EB
:1038E0007076000000FEFF1FB4FFFF1FD002002013
:1038F00000234170436003708360181C704710B54B
:103900004378041C0120FF2B08D000F06DFA637887
:103910000133DBB2637000F05BFA002010BD0020C1
:10392000704738B5041C0D1C00F05EFAE1682943AD
:10393000E16000F04DFA002038BD000000220A4B83
:103940009A641A1C40329A631A1C30329A621A1C0A
:1039500020329A611A1C10329A60044A1360044B98
:103960009B60DB607047C046B0010020AC010020C6
:103970009C0100200022024B1A60186880B2704738
:103980000C007C5038B54378041C0D1C002B0BD068
:10399000002500F029FA6378013BDBB263702570E3
:1039A00000F016FA281C28E00220002925D02378F0
:1039B000002B15D0FFF7DEFF6368A268984201D3A1
:1039C000C01A03E0C01A80235B02C018824213D2DF
:1039D00000F00AFA0023237000F0FAF902200CE04C
:1039E0004B1C09D000F000FA0123237000F0F0F91D
:1039F000FFF7C0FFA5606060032038BD38B5051C27
:103A0000FFF7B8FF041CFFF7B5FFA04201D3001B6E
:103A100003E08023001B5B02C0188542F3D238BD4F
:103A200008B5012801D100F0DFF908BD08B501286B
:103A300001D100F0CDF908BD10B5FFF77FFF0123DC
:103A40000020084A08491360084A094C10600860C1
:103A500004212160074C216007490B600749086079
:103A6000136010BD388004500000845000000450E2
:103A7000000004510400045104000C5000000453E1
:103A800010B5044C206021710020A2602373637381
:103A900010BDC04600020020F0B587B06B46029012
:103AA0001B7A05AC23706B4603911B7B3D4D637005
:103AB0002B79029A0420934271D92B7B6B730123DB
:103AC000A37000230193374E0093337B009A371C79
:103AD00093421AD9009BB2689B009B58002B10D0D0
:103AE0001A79D2070DD51A68201C996890470028CA
:103AF00007D06B461B787373039B002B3AD00523CA
:103B00000193009B0133DBB2DDE7019E002E02D062
:103B1000039B012B2FD10120FFF782FF0C20029B7A
:103B200058432B68181800F0A7F86B461B7A012041
:103B30006B71FFF77BFF02230025A3703B7BAB4239
:103B400016D9BA68AB009B58002B0ED01A79920791
:103B50000BD51A68201C99689047002805D0039B54
:103B60007D73002B1AD0062301930135EDB2E5E7F2
:103B7000019814E005260023009FA370013FFFB2C7
:103B8000FF2F09D0AA68BB009B58002BF6D01A68FB
:103B9000201C99689047F1E7301C00E0062007B030
:103BA000F0BDC04600020020014B58797047C04666
:103BB0000002002013B500210378041C0191022BA0
:103BC00007D0032B0BD0012B0ED10279191C1348FF
:103BD00001E00279114801AB00F0CEFF08E001A935
:103BE0000E4801F00BF803E00C4801A900F0A8FF13
:103BF000002812D1A3790A4ADB01DBB21370637883
:103C0000084A5B00DBB21370A278074B1A70E278A7
:103C1000064B1A706279064B1A7016BD00400640BA
:103C20001840865300408650004006500140065020
:103C3000184016501F22802302405B05D2051A430C
:103C4000034943099B005B181A4300231360704724
:103C5000288004401F2280210240D30549051943D2
:103C6000430904489B001B1819430123081C934077
:103C700003607047288004400022072373B5041CAA
:103C8000104D0093281C131C012101F097F9201CF2
:103C9000FFF790FF0022637A217A0093281C131CFF
:103CA00001F08CF9E379084A9B041360074BA17A71
:103CB0001D68281C00F0BEFF281CE17A00F0C1FF3F
:103CC000002076BD0070044000700C59B0730000F5
:103CD00008B5054800F0F6FE044B1968C9B2013179
:103CE000FCF752FC08BDC0460040064044801C5E04
:103CF00008B5054800F0E6FE044B1968C9B2013169
:103D0000FCF742FC08BDC0460040064044801C5EF3
:103D100008B5054800F0D6FE044B1968C9B2013158
:103D2000FCF732FC08BDC0460040064044801458F1
:103D300008B5054800F0C6FE044B1968C9B2013148
:103D4000FCF722FC08BDC0460040064044801458E1
:103D50000C4B1B68DBB2022B0DD0032B0ED0002BBB
:103D600001D000200CE08021074A09021268101ED1
:103D70008842F6D104E0054B186801E0FA20800083
:103D80007047C04600700C59280200202C02002009
:103D900008B5FFF7DDFF08BD08B5024B185CFFF75B
:103DA00059FF08BD6373000008B57620FFF752FF86
:103DB00008BD08B57620FFF73DFF08BD08B56620B1
:103DC000FFF748FF08BD08B56620FFF733FF08BDC1
:103DD000044A1368002B04D0013B1360002B00D170
:103DE00062B670471002002072B6024A13680133AF
:103DF000136070471002002010B50B4B0B4A12786D
:103E0000002A04D1013B002BF8D103200AE0064C24
:103E1000074801F069FB012803D0013C002CF7D1D1
:103E2000F3E7002010BDC046EA03000002D00751AE
:103E300000E0074010B5064C064801F055FB042889
:103E400004D0013C002CF7D1032000E0002010BD7D
:103E5000EA03000000E00740F7B5071C0E1C151C24
:103E600001930120002F18D0002916D0FFF7D8FDAC
:103E70000A4C0021201C102201F0C7FC276026718B
:103E8000002D06D06B461B79A56023736B461B790A
:103E900063730120FFF7CAFD0020FEBD140200205D
:103EA000F0B5B24C8BB002900191237B012063737B
:103EB000FFF7B6FD2379029A934204D80120FFF759
:103EC000B5FD022050E1029A23689200D6586B4655
:103ED0001B7907AC357823726B461B7A2A1C23703A
:103EE00002239A4366600392012A01D0052D0AD16C
:103EF00001219F4801F04AFA002809D10120FFF76B
:103F000095FD012030E1072D02D999480321F1E701
:103F10000123637200240094944F009A3B7B9342E8
:103F20001AD9009BBA689B009B58002B0FD01A79B6
:103F3000D2070CD51A6807A899689047002806D0C0
:103F40006B461B7804247B73019B012B04D1009BDF
:103F50000133DBB20093DFE70120FFF767FD8548FF
:103F600000F0D4FD039B012B1DD10138C0B2022803
:103F700011D8FFF7DDFE804B98420CD8FFF7A8FE62
:103F80007E4FB84207D8FFF7C3FEB84203D8FFF709
:103F9000AFFEB84207D9019B012B01D1062407E0EF
:103FA000002C05D1FAE7019B012B52D0002C50D0F8
:103FB0000120FFF735FD002307AE009D7372013D20
:103FC000EDB2FF2D40D0694BAA009B68D358002B5F
:103FD000F5D01A79D207F2D51A68301C9968904743
:103FE000EDE7072205AB1A7000225A70F2789A703A
:103FF0003279DA702B1C083B05A9022B03D87379A0
:104000008B71B379CB717378002B00D084E0584862
:1040100001F0F0F9002800D00324002D00D08AE040
:10402000FFF7EAFE0024002800D09DE00120FFF702
:10403000F7FC6B464D4E1B7A0025B373022307AF86
:104040007B72337BAB427CD80120FFF7EFFC201C56
:104050008AE003200A2D00D986E0281CFCF780FAAC
:1040600006080A1940583339C1282D00002250E0B3
:1040700003224EE03E4801F037FA012807D03C48C1
:10408000002101F093F9FFF7B7FE041E6CD1012265
:104090003FE0374801F028FA042807D034480221CD
:1040A00001F084F9FFF7C6FE041E5DD1042230E062
:1040B000072205AB1A70063A03E0072205AB1A7017
:1040C000043A5A7096E7022205AB1A70013A1A7147
:1040D00004E00222012105AB1A7019715A7189E7B7
:1040E0000222002705AB1A702148013A1A715F714C
:1040F00001F0FAF9012800D17CE71D48391C01F0D4
:1041000055F9FFF779FE041EBC4200D172E72BE09F
:10411000052205AB1A706DE7012D00D877E7B2785C
:104120000220174B002A02D01A69024301E01A69E3
:1041300082431A616BE7012D00D077E7FFF77AFE23
:1041400070E7B268AB009B58002B0AD01A7992072F
:1041500007D51A68381C99689047002801D00524B3
:1041600075730135EDB26CE70BB0F0BD14020020A1
:1041700000E007400040064040420F0080841E00DF
:1041800000ED00E008B5064801F0AEF90023012873
:1041900003D00133042800D00A33181C08BDC046E0
:1041A00000E00740F7B5FF2403681C4A1D0A2540BC
:1041B0001C40AB009F581A4A061C9B58281C0193B0
:1041C000FFF7EAFD211C0022381C01F095F9019B44
:1041D000A4001C19842332795B05234352001A6022
:1041E000802372795B0523431A609023B2795B05C3
:1041F000234312011A60F3790A4A14431A04226015
:10420000002B0AD0084B5A5D002A06D01F2313400A
:1042100001229A40131C054A1360F7BDBC730000CD
:10422000B473000000001818C473000000E100E03F
:10423000F8B5FF24051C0368114A180A20401C40E9
:1042400083009F580F4A9E58FFF7A6FD381C211C7B
:10425000012201F051F96A68381C211C01F05CF957
:1042600088232A7AA40034195B05234392001A603C
:1042700098235B051C436B7A9B012360F8BDC04605
:10428000BC730000B473000038B50C1C002802D1C8
:10429000002C09D112E003680133F9D0051C083560
:1042A000FFF780FF281CF6E72368013306D0251CA2
:1042B000201C0C35FFF7BCFF2C1CF5E738BD0000B7
:1042C000FF22030A134002400120904002499B0054
:1042D0005B5858607047C046BC730000FF22030A59
:1042E000134002400120904002499B005B589860B7
:1042F0007047C046BC73000008B5084B8200D35815
:1043000094220233520513431B78002B02D000F095
:1043100041FA01E000F096FA08BDC046687300005B
:10432000031C80220C33520513431B78002BF7D05B
:104330000171704738B50D1C084B8000C458201C13
:10434000291C1830FFF71EFB0328F8D0002801D0E5
:1043500004232374207CC0B238BDC0462402002050
:10436000F0B589B00290161C8200374805931058AA
:104370000EAB019035481B781458002007AA108016
:10438000A27C8F0A04920122E274A2745A42534121
:104390001E3FDBB203937B425F41FFB2CDB2874247
:1043A00002D0CBB29C460D0A00216D00EDB28F42C7
:1043B00004D1391C002E01D16B46197B0D4307AB8C
:1043C0001D700122002F02D062465A700222A360A3
:1043D000E2600198291CFFF7A3FF02980F99FFF7ED
:1043E000A9FF237C002B0CD1002E0AD0059BA660D0
:1043F000E36031780198FFF793FF02980F99FFF778
:1044000099FF237C002B16D1039B002B13D0002F88
:1044100001D1002E0FD000230127A3600198E7608F
:1044200001F0D2F8391C01982943FFF779FF02986F
:104430000F99FFF77FFF0023E3746B46207C1B7C02
:10444000C0B2A37409B0F0BD68730000240200205C
:10445000104A830010B598580F4A9C58E37C002BF3
:1044600005D0237C052B02D0237C042B09D1982274
:10447000831C5205134300221A7001F0B7F8012380
:104480006374A37C002B03D0201C1830FFF737FA8D
:1044900010BDC0466873000024020020F7B5194B18
:1044A0008700FB5801250093174BFE58002E26D19C
:1044B0000C1C24220190081C311C01F0A6F9201CC0
:1044C000311C1830FFF714FA0198FFF777FC0098B9
:1044D00001F02AF80C4B019AFC500C4B9A5C1F23FC
:1044E00013402A1C9A40131C094A13609C22009B0B
:1044F00052050233134380226574351C1A70281C40
:10450000FEBDC046687300002402002065730000F1
:1045100000E100E0F7B59C220027051C0D4E840049
:10452000A359520501930C4BE358023313431F70F8
:10453000FFF749FC094B01985A5D1F2313400122E4
:104540009A40131C064A1830D367FFF7E8F9A751C1
:10455000F7BDC046240200206873000065730000A8
:1045600004E100E00A4B800070B5C558094BC658FD
:104570004B68726993420AD00C1CFFF7C9FB0023F9
:10458000011C6268281C00F0DDFF6368736170BD68
:104590006873000024020020F0B587B00FAC334FE1
:1045A000334D267884006559E459677C002F02D189
:1045B0000320207458E0002E01D11E270E9705938A
:1045C0000023A674E360A360237423606374071C54
:1045D00004920391FFF7C6FF90231021AA1C5B05EC
:1045E000134319708421EB1C49050B4302211970F8
:1045F00098235B05134302934023029A281C1370EF
:1046000000F0E2FF039B381C1988012300930E9BE6
:10461000049A0193059BFFF7A3FE0D9B002B15D079
:10462000237C002B0FD10C9B281CA3600D9BE36007
:104630000C9B1978FFF774FE002E13D0381C0E99CE
:10464000FFF778FE0EE0237C042B0BD1002301261C
:10465000029A1370EB785B09334202D0281C00F0F9
:10466000C5FF6674207CC0B207B0F0BD24020020F4
:1046700068730000F0B58BB013AC2478364E374D1C
:10468000039484006559A459667C002E02D103204E
:1046900020745FE0039E002E01D11E36129609930E
:1046A000109B00262360119BA66063606B461B7BFA
:1046B000E660A37426746674079108920490FFF76D
:1046C00051FF9023AF1C5B053B4305931023059AD4
:1046D000281C13708422EB1C5205134302221A700B
:1046E00098235B053B4306934023069A137000F022
:1046F0006BFF079B089A1988129B009601930498F8
:10470000099BFFF72DFE227CD2B2B24212D1059B4B
:1047100011991A708C235B053B43012900D10822B3
:104720001A702B79039B002B12D004981299FFF773
:1047300001FE0DE0237C042B0AD1069B1E7001268E
:10474000EB785B09334202D0281C00F04FFF6674FF
:10475000207CC0B20BB0F0BD2402002068730000C2
:104760001FB5069C0094079C0194089C02940124A8
:104770000394FFF711FF04B010BD1FB5069C009411
:10478000079C0194089C029401240394FFF772FF94
:1047900004B010BD842138B5244B8200D55849059A
:1047A000EB1C0B4302211970214BD45890226B183B
:1047B00052051A431278E978D2B2890634D5942189
:1047C00049051943097800292ED0012A15D1EB7823
:1047D000134202D0052323740CE0E368013BE3603D
:1047E000002B07D0A368281C5A1CA2605978FFF739
:1047F00097FD19E0FFF72CFE16E06268013A62604F
:10480000002A06D08C214905012A05D10B43082234
:1048100004E0FFF71DFE02E000220B431A7023683C
:104820005A1C22602A791A7038BDC046687300008D
:1048300024020020842303305B0518430223037005
:1048400070470000902149050A1CF0B58F4B071CEA
:104850008000C55889B0EB1C0493EB78EE78DBB28E
:104860000593F3B20693AB1D1A439446127898262B
:10487000D2B20792942252051A4314787605621E2A
:104880009441E2B2824C33430459A81C009008437F
:1048900001921A780178D2B2C9B2039101990290BB
:1048A00000292FD0079900290CD010236246281C1C
:1048B0001370FFF7BFFF236BF8B20121002B00D06C
:1048C000DCE0E0E0002A1DD04022281C1A70FFF72F
:1048D000B1FF231C2C331B78002B02D1009A164306
:1048E0003370236B002B03D0F8B28021626B9847A2
:1048F000E37D002B04D0201C80211830FFF711F835
:104900000A23BFE0069B281C9E1101231E40FFF7CF
:1049100091FF0122059B1B11134219D09023049A89
:104920005B05134310221A70002E04D0EB785B074E
:10493000DB0F10D11AE0082323702C342278002AD0
:1049400000D0A0E0982300995B050B431A709AE011
:10495000002E16D0EAE71023029A1370236B002B67
:104960006ED0F8B20221626B984769E0029A137028
:10497000236B002B03D0F8B20421626B98472B798C
:1049800081E0039B012B29D1EB78039A134257D086
:10499000029B1E702B79231C2C331B78002B09D112
:1049A000019B002B06D19823009A5B0513436A46AE
:1049B00012791A70236B002B03D0F8B20821626BB6
:1049C0009847A37D002B04D0201C08211830FEF747
:1049D000A8FF00236360E360237554E02B79A2688D
:1049E000DBB2002A2AD022691370236901332361C4
:1049F000A368013BA360A368002B44D1019B002B5B
:104A000013D1231C2C331B78002B06D19823009A3A
:104A10005B0513436A4612791A70E37D002B04D0BC
:104A2000201C20211830FEF77CFF002363752361D2
:104A3000236BF8B22021002B20D124E0072321E0B2
:104A40006368002B1DD0E3681A782B1C80210C337F
:104A500049050B431B78002BF7D02A71E36801331B
:104A6000E3606368013B63606368002B0BD1E36024
:104A70002375236B002B06D01021F8B2626B984788
:104A800001E00623237009B0F0BDC0466873000042
:104A90002402002084235B0503431A7800239A42F2
:104AA00009D0802301305B0518430378012B01D026
:104AB000024B00E0024B181C7047C04680841E0069
:104AC00000127A0010B50D4A831D13431B78DBB228
:104AD000002B10D0012B08D1041CFFF7DBFF084B83
:104AE00008341C432378D84006E00020022B03D171
:104AF000044B186800E0044810BDC04600000811CF
:104B00000000901028020020006CDC020B4A831D7C
:104B100013431B78DBB2012B06D0181E0CD00320E8
:104B2000022B09D0052007E0802301305B051843E4
:104B300000784342584101307047C04600000811D8
:104B4000021C031C9C20183340050343802018706E
:104B50000020064B134318700548931D03431B7830
:104B6000D8B20028F8D1034B0B607047000008133F
:104B700000000811006CDC02F8B5041C0D1C171CA9
:104B80001E1CFFF7C3FF012802D1002D04D007E04F
:104B9000022805D1012D03D1201C311CFFF7D0FFC5
:104BA0008022631C520513431D70842302225B057F
:104BB00023431A70231C0C4A083313437A00D2B2E1
:104BC0001A704022094B23431A70094AA31D13434C
:104BD0001B78012BF9D1002D01D1064A00E0064ACD
:104BE0003A4100203260F8BD000090100000081328
:104BF0000000081180841E0000127A000A4B10B5D4
:104C00001C681A1C0123002C0CD08024074B034382
:104C10001C70074C831D23431B78022BF9D11368AA
:104C20000B600023181C10BD280200200000081390
:104C3000000008119C23C9015B051843C9B201702B
:104C40007047942349015B051843C9B2017070474E
:104C500070B506680C1C301C2049FBF795FC1F49F9
:104C6000051C301CFBF716FD0E1C081CE121090178
:104C7000FBF78AFCE121E0800901301CFBF70AFD0B
:104C80000E1C081C3C21FBF77FFC3C212081301CC2
:104C9000FBF700FD6E22124BA1722380FF322388A6
:104CA00095420BD9AD1A032201339BB22380B72161
:104CB00013405A1E93414900CA1AF0E709499B075D
:104CC00000D109490123CA5C954201D8638003E001
:104CD0000133AD1A0D2BF6D1A58070BD80510100B6
:104CE000B2070000937300008673000030B5114ACC
:104CF0000188031C8A180020812A19D85A88541E5A
:104D00000B2C15D89C88651E1E2D11D8DD88172DFB
:104D10000ED81D893B2D0BD89B7A3B2B08D88B07CF
:104D200001D0054B00E0054B9B5CA3424041C0B263
:104D300030BDC0464EF8FFFF93730000867300003D
:104D400070B5124A838804889A186E23FF33634330
:104D50004588D318A2089B180D4A6E00B25A9B18BA
:104D6000A20702D1022D00D8013B0B60E1233C22B7
:104D7000C4881B015C4303895343827AE3189A1861
:104D80000868044B4343D3180B6070BD4A05F5FF18
:104D90006C73000080510100084B1A6880231B02CD
:104DA0009A4209D1A02310305B0518430368002BF9
:104DB00002D10133FF3303607047C0462802002050
:104DC000021C802110B500230124490510320A433A
:104DD0001460136090224360520504601C3002434B
:104DE0001360882252050243136084225205024355
:104DF00008431360036010BD031C90221433520556
:104E0000134300221A604260103201601A6070473A
:104E100003680B6070470000114B820070B5D558D5
:104E20008022104B92051A60041C281CFFF7C8FF53
:104E3000281CFFF7B1FF01201F22011C0A4B0B4E5B
:104E40001B5D345D134099402240C0250B1C9040EF
:104E500007496D004B5148510B60086070BDC0465A
:104E6000A47300003C80845EA1730000A073000066
:104E700000E100E0F7B50027114B8000C658081C80
:104E80000D1C0197FFF732FF041EBC4216D001A98A
:104E9000281CFFF755FF381CFEF77AFF011C802005
:104EA0000002814206D0FBF76FFB011C0198FBF763
:104EB0006BFB0190301C0199FFF79EFF201CFEBD8B
:104EC000A4730000F7B50025124B8000C4580E1CD7
:104ED000201C01A90195FFF79BFF281CFEF758FF36
:104EE000051C8020000285420ED00B4B291C043487
:104EF0001C43FBF749FB2768019C291C4443B8B2BB
:104F0000FBF742FB20180190311C01A8FFF7A0FE1F
:104F1000F7BDC046A473000000007810F0B500266D
:104F2000184B800085B0C458081C0F1C01920396D2
:104F3000FFF7DCFE051EB54201D100251EE0381C3E
:104F400003A9FFF7FDFE301C2768FEF721FF011CB7
:104F500080200002814206D0FBF716FB011C03985B
:104F6000FBF712FB0390039BBB42E6D3A3608823AD
:104F70001C345B051C43019B9B002360281C05B06F
:104F8000F0BDC046A47300008822044B8000C358C3
:104F900052051C331343890019607047A473000045
:104FA0008822054B8000C3585205143313431868F8
:104FB000431E9841C0B27047A47300006B46E022C4
:104FC0001B78D2021B04134009071943014BC01878
:104FD000016070474410000008B5084B8200D358A8
:104FE00090220333520513431B78002B02D000F0AC
:104FF00015F901E000F07AF908BDC046AC73000075
:1050000008B50C4B8000C2580B4B0021C3589C20A4
:105010000333400518431171017094204005034388
:105020001970137F8B4203D02032101CFEF767FCEF
:1050300008BDC04630020020AC730000F7B5061C66
:105040001C4B30220C1C8700081C0021FD5800F06E
:10505000DCFB301CFEF7A8FEFEF75AFE2060281C81
:1050600000F0E1FA201C00212030FEF741FCEB1C8F
:1050700001939023019A5B0513431022281C1A7098
:10508000032100F010FB281C002100F032FB0A4B2A
:10509000FC500A4B9A5D1F23134001229A40131CB7
:1050A000074A13609823019A5B05134340221A7044
:1050B000F7BDC046AC73000030020020A8730000AA
:1050C00000E100E0F8B50D4E84000D4BA759051C1A
:1050D000E05800F0A8FA381C2030FEF720FC094BFD
:1050E000281C5A5D1F23134001229A40131C064AB4
:1050F000D367FEF75EFE0023A351F8BD3002002007
:10510000AC730000A873000004E100E00A4B8000CB
:1051100070B5C658094B0C1CC358151C301C1A68B6
:10512000096800F087FA28602179301C6279A37938
:1051300000F0CCFA70BDC046AC7300003002002015
:10514000F7B51E4A83009C581D4A9E5822790423B5
:10515000002A31D1071C002902D001AAFFF7D6FF8F
:10516000982300214020F21C5B051343197018702E
:1051700025698D4203D1381CFFF742FF1BE0012354
:10518000237194235B053343A16119780723002918
:1051900012D0A368191E02D019780133A360B1712F
:1051A0002369013B2361A3690133A3619C235B0550
:1051B0001A43802313700023181CFEBD3002002008
:1051C000AC730000F8B5134F134C85002C59ED5902
:1051D0000127069E2777A2602661E3606661FFF7DC
:1051E000AFFF061E14D1201C07992030FEF7CAFB22
:1051F0000328F8D000280BD09C210022EB1C490585
:10520000194322710A709421032649050B431A7031
:10521000301CF8BDAC7300003002002010B51E4BEE
:105220008200D3581D4951581A79002A32D05A6940
:10523000002A11D09C2252050A431278002A0BD072
:105240008A79DC68D2B2002C03D02270DA6801328D
:10525000DA605A69013A5A611A69002A12D0942216
:1052600052050A431278002A0CD09A68141E02D004
:10527000147801329A608C711A69013A1A619A693C
:1052800001329A611A69002A04D15B69002B01D1AD
:10529000FFF7B6FE10BDC04630020020AC73000020
:1052A000104A80008158002208B50F4B0331C358C3
:1052B000581CC2779C2040050843DA621A701A8392
:1052C0005A629A621A6302709420400501430A7080
:1052D0001A1C38321278002A03D0181D0121FEF75B
:1052E00020FB08BDAC7300003002002038B5254B10
:1052F0008200D35824495258591CC97F00293FD0F5
:10530000D96A002916DB942149051143097800293F
:1053100010D0596A1C7F002905D0DD6A002D02DDFE
:105320000C78013159629471D96A0139D962596B8B
:1053300001315963D96A002905DA9424D11C640526
:10534000214300240C70196B002911DD9C214905B3
:105350001143097800290BD09279996AD2B20029B9
:1053600003D00A709A6A01329A621A6B013A1A6380
:10537000DA6A002A04DC1B6B002B01DCFFF790FFCC
:1053800038BDC04630020020AC730000012903D0B4
:10539000032909D1842300E094235B051843007896
:1053A000431E9841C0B200E000207047034B01301B
:1053B00049011843C9B201707047C0460000881205
:1053C000942302305B0549011843C9B2017070474C
:1053D000034B023089011843C9B201707047C046BF
:1053E000000008138C2302305B05C9001843C9B2C2
:1053F00001707047F7B5384EC21C164337780B78EA
:10540000FFB20122072B65D8041C181C0D1CFBF7EA
:10541000B1F804192A0D192A2A3A00232F48013419
:10542000044323703378012BFCD152E00322012F77
:1054300050D1402329480134044323703378042B8E
:10544000FCD146E00021012B01D004230221307859
:10545000032298423ED1201CFFF7A8FF0421204AD6
:1054600013698B4333E00227BB4207D100270B7936
:10547000BB4203D04979201CFFF7AAFF1948013429
:105480000443277019E004231649621C0A43137071
:105490006A78A31C0B431A706B78002B06D1AB788B
:1054A000002B03D0E978201CFFF78AFFAB79002B93
:1054B00003D0E979201CFFF795FF04213378084ACF
:1054C000DBB20193019B0133019313690B43136119
:1054D00030BF0022101CFEBD0000301000008812FA
:1054E00000ED00E000001010024B0330184300787C
:1054F000C0B270470000301014308023012A04D15C
:105500008A401B051843026005E0DB0418430123B1
:105510008B40D9430160704701238B40002A01D0A2
:10552000436000E0836070470023C2220370437031
:105530008370C37043718371C3710372427283724B
:10554000C3727047F0B5002789B00393FA23012591
:105550003C1C9B0053430690079102936D420197B8
:105560000123A3400493174B9E1CCA330593049B4D
:10557000318807985943FBF707F8029B029AC31A30
:10558000824200D9131AAB4204D2B21E177801949A
:105590001D1E03D0059B04369E42E8D10134032C26
:1055A00001D0002DDCD1039B002B00D01D603F23D8
:1055B0001F40019B9B011F43069BFFB25F7009B018
:1055C000F0BDC046C6730000942302305B05034360
:1055D0001B78002B04D088235B051843042303E0C9
:1055E00080231B0518433023037070479422831CCB
:1055F00052051A431278011C0220012A12D180227E
:10560000D2041343CF221A708022D2002023C878FC
:10561000034004D0013A002A03D0C046F6E7181C24
:1056200000E0092070470423C37000238370437097
:1056300003717047F0B5130B89B00125049308235B
:1056400000266D4203935B19079005910692029321
:1056500002270024731C191C069879430193FAF75A
:1056600093FF059B834206D31B1A9D4203D91D1C41
:1056700004900394029601347F00092C02D0002D7F
:10568000E8D104E0072E02D0019E002DE0D1702267
:10569000029B04981B011340039A1343079ADBB241
:1056A000537009B0F0BD8422C31C52051A43012374
:1056B0000B405B00DBB2137090238907C90F5B05B9
:1056C000023009011843C9B20170704710B58C242B
:1056D00003306405C9000443C9B2217088219200D7
:1056E00049050143D2B20A7080225205104303706B
:1056F00010BD8023012202305B0503430A401A706B
:105700008C238907C90F5B05C9001843C9B2017012
:105710007047011C002008B5021C031C00F03EF974
:1057200008BD0000014B18687047C046ACFFFF1F62
:10573000084B10B5041C002B02D0002100F08AF9A0
:10574000054B1868836A002B00D09847201C00F096
:10575000F5F9C046555A00009074000038B5074B63
:10576000074C1D1CE41AA410002C04D0013CA3001B
:10577000EB589847F8E701F093FE38BDB874000085
:10578000BC7400000E4B70B500251E1C0D4CE41AB5
:10579000A410A54204D0AB00F35898470135F8E7B0
:1057A00001F078FE084B00251E1C084CE41AA410DA
:1057B000A54204D0AB00F35898470135F8E770BD17
:1057C000B4740000B4740000B4740000B874000035
:1057D00008B5034B011C186800F066F808BDC04608
:1057E000ACFFFF1F08B5034B011C186800F016F84A
:1057F00008BDC046ACFFFF1F002310B5934203D085
:10580000CC5CC4540133F9E710BD031C82189342E9
:1058100002D019700133FAE77047000030B5002953
:105820003ED004390B68002B00DAC9181D4A1368F2
:10583000141C002B02D14B60116031E099420DD253
:1058400008680A189A4203D11368C3180B6053689A
:105850004B60216024E08A4203D8131C5A68002A56
:10586000F9D11D685C198C420BD109686918581868
:105870001960904214D110685268091819605A6072
:105880000EE08C4202D90C23036009E008680C1872
:10589000944203D114685268001908604A60596044
:1058A00030BDC04638020020032370B5CC1C9C4399
:1058B0000834051C0C2C01D20C2405E0002C03DA62
:1058C0000C2300202B6042E08C42F9D3204A13685D
:1058D000101C191C002913D00A68121B0DD40B2AA6
:1058E00002D90A608B181FE08B4202D15A6802600D
:1058F0001BE04A685A600B1C17E00B1C4968E9E77B
:10590000144E3368002B03D1281C00F025F83060BA
:10591000281C211C00F020F8031C421CD0D00322BC
:10592000C61C964386420AD11C60181C07210B3006
:105930001A1D8843821A0AD05142995007E0311A41
:10594000281C00F009F8431CBAD0331CECE770BDEA
:10595000380200203402002038B50023064C051C14
:10596000081C2360FAF792FF431C03D12368002B25
:1059700000D02B6038BDC046CC020020031C0A7842
:1059800001311A700133002AF9D170470023C25C3B
:105990000133002AFBD1581E70470000F7B52A4D8D
:1059A000061C2C680091171C0193002C01D1274C78
:1059B0002C6063681F2B15DD254B002B02D10120C5
:1059C000404240E08C20FFF703FF041EF7D02A6816
:1059D00000230260021C88324360286013609E42EC
:1059E0000AD128E0002E26D0231C8833186800280E
:1059F00010D1174B002BE2D084204000FFF7E8FEC7
:105A00000028DCD0031C0022FC335A609A60231C5F
:105A100088331860012261688A408B00C31880C3F4
:105A2000FC304168114341600199D967022E02D1CF
:105A300083681A438260002063685A1C62600233E4
:105A4000009A9B001A51FEBDC80200203C020020B3
:105A5000D1570000F0B587B005900391344D2C6804
:105A6000002C63D0231C88331E6863685A1E019281
:105A7000304A9B189B00F7180433E3180293019BEC
:105A8000002B3DDB039B002B07D0002E31D03B1CAD
:105A900080331B68039A93422BD16268029B019961
:105AA000013A5B68914201D1616002E000220299F3
:105AB0004A60002B1DD062680492002E07D001229C
:105AC00001998A40311CFC314868104201D1984745
:105AD00008E08968114203D105983968984701E0C8
:105AE00038689847049B62689342B7D12B68A342F9
:105AF000B4D1019B043F013B0193029B043BBDE7F2
:105B00000D4B002B12D062682368002A0BD1002BAA
:105B100009D02B60002E02D0301CFFF763FE201C42
:105B2000FFF760FE9BE7251C1C1C99E707B0F0BD42
:105B3000C8020020FFFFFF3FE5570000FEE7C04618
:105B4000030000003200000003000000030000001A
:105B50001B5B306D1B5B343B34336D1B5B313B3364
:105B6000376D0D53616E69747920636865636B20CE
:105B70006661696C6564211B5B306D0A001B5B30DC
:105B80006D1B5B343B34316D1B5B313B33376D0D2B
:105B9000496E76616C696420737570706C792076DB
:105BA0006F6C74616765205B25645D206D56211BF9
:105BB0005B306D0A004D6561737572656D656E745D
:105BC000206E756D6265722C205254432D3E5453E5
:105BD000522C205254432D3E5450522C00204D4DF7
:105BE000413834353120782C204D4D413834353111
:105BF00020792C204D4D4138343531207A2C00202D
:105C00005254432D3E5453522C205254432D3E5453
:105C100050522C202320436F6E66696720457272B4
:105C20006F72730025752C2025642C2025642C00B0
:105C30002025642C2025642C2025640A000D0930C1
:105C40007825303278202D2D3E205B30782530327B
:105C50007820307825303278203078253032785DE1
:105C60000A000D09307825303278202D2D3E203065
:105C700078253032780A000D0930782530327820C6
:105C80002D2D3E202D2D2D2D0A000D0A0925642FC6
:105C90002564207375636365737320726174652E68
:105CA0000A000D0925642F256420737563636573ED
:105CB000736573206D617463686564207265662E18
:105CC0002076616C7565206F6620307825303278DB
:105CD0002E0A000D0925642062616420636F6D6DDA
:105CE000616E64732E0A0A000D0A094144584C3350
:105CF000363220526561642041626F727465642E91
:105D0000204465766963652044697361626C6564EB
:105D1000203A28000D0A4D4D4138343531513A0AA8
:105D20000D000D0A494E413231393A0A0D000D0A73
:105D30000A424D4536383020526561642041626F19
:105D4000727465642E2044657669636520446973C6
:105D500061626C6564203A28000D0A09424D583092
:105D60003535616363656C20526561642041626F03
:105D7000727465642E204465766963652044697396
:105D800061626C6564203A2820000D0A09424D5872
:105D90003035356779726F20526561642041626FDA
:105DA000727465642E204465766963652044697366
:105DB00061626C6564203A2820000D0A0920424D7A
:105DC000583035356D616720526561642041626FDE
:105DD000727465642E204465766963652044697336
:105DE00061626C6564203A2820000D0A094D414724
:105DF0003331313020526561642041626F727465C5
:105E0000642E204465766963652044697361626C21
:105E10006564203A2820000D0A094C33474432308B
