S02B00002F686F6D652F646A623234332F4357342F576172702D6669726D776172652F6275696C642F6B736404
S113000000060020310500005905000059050000D4
S113001000000000000000000000000000000000DC
S1130020000000000000000000000000590500006E
S11300300000000000000000590500005905000000
S11300405905000059050000590500005905000034
S11300505905000059050000590500005905000024
S113006011340000590500001B340000590500003C
S11300705905000059050000590500005905000004
S113008059050000590500005905000059050000F4
S1130090811500009915000059050000590500005C
S11300A059050000590500005905000059050000D4
S11300B059050000590500005905000059050000C4
S1130400FFFFFFFFFFFFFFFFFFFFFFFFFE3DFFFFBB
S113041008B5054B054803331B1A062B03D9044BB7
S1130420002B00D0984708BDB4FFFF1FB4FFFF1F87
S1130430000000000648074908B5091A8910CB0FC7
S11304405918491003D0044B002B00D0984708BD1D
S1130450B4FFFF1FB4FFFF1F0000000010B5074CDE
S11304602378002B09D1FFF7D3FF054B002B02D0D3
S1130470044800E000BF0123237010BDB4FFFF1F38
S113048000000000B462000008B5094B002B03D043
S11304900848094900E000BF08480368002B02D15E
S11304A0FFF7C8FF08BD064B002BF9D09847F7E7C4
S11304B000000000B4620000B8FFFF1FB0FFFF1F80
S11304C000000000144B002B00D1124B9D4640222B
S11304D092029A1A924600218B460F461148124AFC
S11304E0121A04F046FF0D4B002B00D098470C4B1A
S11304F0002B00D098470020002104000D000B4879
S113050004F0BBFE04F0F2FE2000290001F040F9E3
S113051004F0C2FE000008000006002000000000F5
S113052000000000B4FFFF1FC0020020C5520000FD
S113053072B606480649074A02600A6002F072FF72
S113054002F0B2FF62B6FFF7BDFF000080E100E0F9
S113055080E200E0FFFFFFFF00480047590500006C
S113056002B4714649084900095649008E4402BC48
S11305707047C04602B4714649084900095C490005
S11305808E4402BC7047C046002243088B4274D399
S113059003098B425FD3030A8B4244D3030B8B4280
S11305A028D3030C8B420DD3FF22090212BA030C89
S11305B08B4202D31212090265D0030B8B4219D36A
S11305C000E0090AC30B8B4201D3CB03C01A52418A
S11305D0830B8B4201D38B03C01A5241430B8B42D2
S11305E001D34B03C01A5241030B8B4201D30B03BB
S11305F0C01A5241C30A8B4201D3CB02C01A5241E2
S1130600830A8B4201D38B02C01A5241430A8B42A4
S113061001D34B02C01A5241030A8B4201D30B028D
S1130620C01A5241CDD2C3098B4201D3CB01C01AA7
S1130630524183098B4201D38B01C01A52414309B1
S11306408B4201D34B01C01A524103098B4201D39F
S11306500B01C01A5241C3088B4201D3CB00C01A0C
S1130660524183088B4201D38B00C01A5241430884
S11306708B4201D34B00C01A5241411A00D20146A9
S1130680524110467047FFE701B5002000F0FCF826
S113069002BDC0460029F7D003B5FFF775FF0EBCB5
S11306A04243891A1847C04603460B437FD40022AD
S11306B043088B4274D303098B425FD3030A8B42F2
S11306C044D3030B8B4228D3030C8B420DD3FF225C
S11306D0090212BA030C8B4202D31212090265D02A
S11306E0030B8B4219D300E0090AC30B8B4201D3DD
S11306F0CB03C01A5241830B8B4201D38B03C01A24
S11307005241430B8B4201D34B03C01A5241030B9A
S11307108B4201D30B03C01A5241C30A8B4201D34B
S1130720CB02C01A5241830A8B4201D38B02C01AF6
S11307305241430A8B4201D34B02C01A5241030A6D
S11307408B4201D30B02C01A5241CDD2C3098B4252
S113075001D3CB01C01A524183098B4201D38B01CF
S1130760C01A524143098B4201D34B01C01A524172
S113077003098B4201D30B01C01A5241C3088B42B7
S113078001D3CB00C01A524183088B4201D38B00A2
S1130790C01A524143088B4201D34B00C01A524144
S11307A0411A00D201465241104670475DE0CA0F1B
S11307B000D04942031000D34042534000229C46DB
S11307C003098B422DD3030A8B4212D3FC228901E5
S11307D012BA030A8B420CD3890192118B4208D3BB
S11307E0890192118B4204D389013AD0921100E01D
S11307F08909C3098B4201D3CB01C01A5241830931
S11308008B4201D38B01C01A524143098B4201D35D
S11308104B01C01A524103098B4201D30B01C01A88
S11308205241C3088B4201D3CB00C01A5241830802
S11308308B4201D38B00C01A5241D9D243088B4258
S113084001D34B00C01A5241411A00D201466346FB
S113085052415B10104601D34042002B00D549425F
S1130860704763465B1000D3404201B5002000F09E
S11308700BF802BD0029F8D003B5FFF715FF0EBC35
S11308804243891A1847C0467047C046F0B55F46D0
S113089056464D464446F0B40F0387B098464D0083
S11308A03B0BCC0F061C924681469B466D0D019472
S11308B06BD0664B9D4235D080275B467F031F4338
S11308C0F3009946624BFF00400F9C460743002308
S11308D0BB46002665440093424617035000D20FDE
S11308E053463F0B400D904600D172E0574A904268
S11308F067D080235B031F435346554A5B0FFF00B9
S11309001F43944653460021DB0060444246624044
S113091092462D1A0E430F2E00D9A1E04D48B60081
S1130920805987465B461E4300D076E000239B46F1
S11309309946023308260093CEE799464346BB46C0
S113094001930091009B022B6BD1019B9A460021DD
S113095053460122002789461A403C4B00213F039D
S11309600C0D24053F0B27433B4C1B0527401F431D
S11309707F00D2077F0817434846391C07B03CBCA8
S113098090469946A246AB46F0BD03433ED05B4633
S1130990002B00D19CE1584600F0A8FD2823311C0F
S11309A01B1A021C5F46D940083A97400B1C96401C
S11309B03B439B46B1460023284D00262D1A009345
S11309C08AE7524603213A43A0D10027002302219B
S11309D09CE752463A4315D0002F00D185E1381CDC
S11309E000F084FD021C28215046891A131CC840BB
S11309F05146083B99409F400B1C07431748002170
S1130A00801A83E70027002301217FE700239B4608
S1130A1099460133042600935EE703230C260093D2
S1130A205AE7032B00D13CE2012B00D0BFE11A1C92
S1130A30019B1A4000210023002789468EE70023EA
S1130A408027994600223F03004B87E7FF070000F9
S1130A5001FCFFFFC4560000FFFF0F800DFCFFFFE9
S1130A60BB4500D951E100D14CE14A460392002232
S1130A705C469046013D180E3F0238431B02019329
S1130A80030C994603041B0C4946061C201C1F1C1E
S1130A900093FFF779FD021C7A4302904946201C1B
S1130AA0171CFFF7F7FD039B09041B0C19438F4226
S1130AB00CD9029B8919013B8E4200D952E18F4225
S1130AC000D84FE1029B8919023B0293CC1B201CE6
S1130AD04946FFF759FD009F834647434946201C7A
S1130AE0FFF7D8FD039A0B041404240C23439F42FC
S1130AF00DD95A469B19013A9E4200D930E19F42D2
S1130B0000D82DE10222524294469B19E344029AF2
S1130B10DB1B17045A463A439346019C170C220CDC
S1130B20101C04925A4611042204120C141C090CC1
S1130B307C4305924A43414347436118100C09180A
S1130B408C4203D980204002844667440C0C120472
S1130B500804120C3C198118A34200D2E5E000D12C
S1130B60DFE01F1B43465C1AA04592415242BF1A64
S1130B70B74200D10EE1381C4946FFF705FD009B42
S1130B80029043434946381C9846FFF783FD230CE3
S1130B900F041F43B8450CD9029BBF19013BBE4249
S1130BA000D9FBE0B84500D8F8E0029BBF19023B2E
S1130BB002934346FF1A4946381CFFF7E5FC009BA5
S1130BC0039043434946381C9846FFF763FD2404C9
S1130BD00904240C214388450CD9039B8919013B42
S1130BE08E4200D9DCE0884500D8D9E0039B8919FE
S1130BF0023B03934346C91A029B039A1B04059CB8
S1130C001A43100C13049146221C049F1B0C5A43D4
S1130C1044437B437843E318170CDB199C4203D904
S1130C2080246402A44660441C0C12041B04120CAD
S1130C3000199B18814200D296E000D1FCE04A469C
S1130C4001231A4391469B4BEB18002B00DC99E0DF
S1130C504A4652070AD00F2249460A40042A05D0C0
S1130C600431494592418946524293445A46D2013D
S1130C7006D55A46904B1A4080239346DB00EB1866
S1130C808E4A934200DD62E64A465946D208490735
S1130C9011435A4689465702514601225B053F0BD0
S1130CA05B0D0A405AE680205A460003024208D0EF
S1130CB0074206D107433F0399463F0B4246804B08
S1130CC04CE65F4607433F033F0B221C7C4B45E643
S1130CD000F00CFC031C2030272800DC5EE6083BF7
S1130CE09E400023B346994665E6504600F0FEFB5D
S1130CF0021C2032272A00DC75E657460838874054
S1130D0000237BE6994500D2AFE65A46594654087B
S1130D104A46C8075208024303924A46D2079046FD
S1130D20A9E60027884500D31CE7019F5A46BC4624
S1130D30E044B845BF417F42BF19FF18013ABE42A3
S1130D4006D2BC425FD800D19FE03F1B934609E71F
S1130D50B742FAD1019B4345F3D9371B934601E7C8
S1130D609346D4E60293B1E64A468919013A8E4283
S1130D7018D99146814200D061E7019A9A4200D085
S1130D805DE760E74F4F7F1B382F13DD0122534689
S1130D901A404FE601235B42994654E7029308E761
S1130DA0039327E788423CD874D0914647E7019BD8
S1130DB09A4648E71F2F44DC434B4A469C465B4611
S1130DC06544FA40AB4013434A46AA40151C6A1EC8
S1130DD095415A46FA402B43171C5A0709D00F2253
S1130DE01A40042A05D01A1D9A429B415B42FF18FF
S1130DF0131C3A023ED55346012200211A40002713
S1130E0001238946AAE502235B429C46019AE344F6
S1130E109446E04490459B415B429B19DF193F1B7C
S1130E20A0E6019F4A467C00BC42BF417F42BF19F5
S1130E30023AC91901949CE7002B95D10022019232
S1130E409BE75A46214B5B1BDA40202F27D0204BCF
S1130E509C465B466544AB4049460B43591E8B4157
S1130E601343072200271A4007D00F2200271A40F5
S1130E70042AB8D17A077F023F0BDB081343994653
S1130E80012253461A40002368E54145BBD89346E6
S1130E90002767E6019C9C42C3D391466DE700237B
S1130EA0DAE780275B463F031F433F033F0B019A6A
S1130EB0034B53E5FF030000FFFFFFFEFE070000A6
S1130EC0FF07000002FCFFFF1E040000E2FBFFFF1F
S1130ED03E040000F0B55F4656464D464446F0B425
S1130EE0051C061C080387B099464F00030BCC0F62
S1130EF092469B467F0D019467D06C4B9F4236D03F
S1130F0080205B4640031843C0006B0F1843684BB6
S1130F1083469C4600239846EE00674400934B4664
S1130F2049461D03C90F5B0052462D0B5B0D8946D4
S1130F3000D16EE05D498B4264D080205C4940035F
S1130F408C4600210543ED00500F0543D200634455
S1130F504846FF187B1C9A46009B604002900B4356
S1130F600F2B00D9ACE053489B00C3589F465B4607
S1130F701D4300D082E00823009300239B460233E4
S1130F8000269846CBE7029B01934346022B59D196
S1130F90012400250026019B1C40444B00212D0305
S1130FA00A0D12052D0B1543434A1B0515401D431D
S1130FB06D00E4076D082543301C291C07B03CBCB8
S1130FC090469946A246AB46F0BD2B434ED05B46B5
S1130FD0002B00D185E1584600F088FA021C282332
S1130FE0291C9B1A161C5846D940083EB0400B1CBD
S1130FF0B54003439B462E1C0023304F0093BF1A79
S113100098468CE7514629432ED10025002202211F
S11310109EE75146294323D0002D00D154E1281CDA
S113102000F064FA031C28215046C91A1A1CC8404F
S11310305146083A914095400A1C05431F48002137
S1131040C31A85E7032B00D1C2E1012B00D06DE167
S11310504446019B00251C40E4B2002300269DE782
S113106000250022012173E7032171E70423009383
S113107000239B4601330026984650E70C23009337
S1131080093B98464BE7802500242D030026074B97
S113109084E74B46AB46161C0193884675E7029BD2
S11310A0AB46161C019388466FE7C046FF07000055
S11310B001FCFFFF04570000FFFF0F800DFCFFFF42
S11310C0330C3604360C9C46331C140C1204120CDC
S11310D05343984663465343994663466343019397
S11310E0331C41466343090C4B445B18994505D9AD
S11310F0802040028146019949440191190C0391D1
S113110041460904090C1B045B1804932B0C9846F4
S1131110331C2D04290C4B4360460093434665461B
S113112058435E43009B4D431B0C9946AE194E44F5
S11311308446B54203D980235B029946CC44350CDE
S11311402B1C0398634484460593009B36041B04BC
S11311501B0CF3189C446046039058460504060C87
S1131160280C84465043351C8146604665434443FD
S11311704846000C8346724314195C44A24203D9C6
S11311808022520293465D44220CAD184A46120452
S1131190120C24044046A41862464A437143464351
S11311A060460096464670438046100C8446884448
S11311B0E044414505D9802149028C4600996144A7
S11311C00091019803998446614499429B415B4292
S11311D099460598434684461204120C1B049B1836
S11311E063449C46AB4683429B4140460A19CC4427
S11311F0A2428941E344CC45B6415C46000C80469A
S1131200494276425B426418334398448C42894194
S1131210AB459B4149425B4219430D1C009B45442D
S1131220EE187602E50D2E43B346049B56021E4388
S1131230731E9E415B46D20D324366021643DB01A8
S11312400AD50123334076081E435B46DB071E4361
S11312505B465B089B465746634BFB18002B5ADDE5
S1131260720709D00F223240042A05D0321DB2423F
S1131270B6417642B344161C5A46D20106D55A46A4
S11312805A4B1A4080239346DB00FB18584A93427A
S113129034DD0124029B00251C400026554B7DE6CD
S11312A080205B460003034208D0054206D1054373
S11312B02D032D0B4C46161C4E4B6FE65D46054325
S11312C02D032D0B4B4B69E6504600F00FF9031C20
S11312D02033272B00DCA6E655460838854000223B
S11312E0ACE6281C00F002F9021C2032272A00DC9C
S11312F075E6083885400026AB467DE65A46F60872
S1131300520716435A4601245502029A5B052D0BD7
S11313105B0D144042E6384DED1B382D0ADD0124E7
S1131320029B00251C400026002337E6019B5746FC
S1131330029391E71F2D25DC304B321C9C466744F9
S1131340BE405B46BB40371CEA407E1EB741134398
S11313503B431E1C5B46EB401D1C730709D00F2347
S11313603340042B05D0331DB342B6417642AD1948
S11313701E1C2B0220D50124029B00251C400026A4
S113138001230BE65A461E4BDB1BDA40131C202DAF
S11313901CD01C4A94465A466744BA40171C3E4324
S11313A0721E96411E4307230025334007D00F23A6
S11313B000253340042BD6D16B076D022D0B01247D
S11313C0F6081E43029B1C400023E7E50027E6E7DE
S11313D080255B4601242D031D43019B2D032340DF
S11313E01C1C2D0B034BD9E5FF030000FFFFFFFE80
S11313F0FE070000FF07000002FCFFFF1E040000C0
S1131400E2FBFFFF3E0400000B0330B5134C1A0B44
S11314104B00051C5B0DC90F0020A34210DD1048D2
S113142083420EDC80200F4C40030243E41A1F2C3D
S11314300ADD0D48C31ADA40131C484243405818C9
S113144030BD0A4BC818FBE7281CE040084CA446F2
S113145063449A40131C0343EFE7C046FE030000B5
S11314601D0400003304000013040000FFFFFF7F8D
S1131470EDFBFFFF38B5041E16D0C50F00D0444263
S1131480201C00F033F8174B1B1A0A2821DC021C1D
S1131490211C153291400A1C0B21081AC4405B051B
S11314A02403240B5B0D03E0002500230024002209
S11314B00021101C24030A0D1205240B14430A4AAC
S11314C01B0514401C436400ED0764082C43211CD5
S11314D038BD0B3884405B052403240B5B0D0022CC
S11314E0E6E7C0461E040000FFFF0F801C21012315
S11314F01B04984201D3000C10391B0A984201D3F3
S1131500000A08391B09984201D30009043902A2D0
S1131510105C40187047C046040302020101010137
S1131520000000000000000008B50A4B1A68002AF9
S113153001D1094A1A601A6808491018884206D964
S113154003F0A4FE0C2303600120404201E0186074
S1131550101C08BDD0FFFF1FC0020020C0020020E5
S1131560022380788342804140427047437A0020BE
S1131570013B012B03D901200B7801330B70704719
S113158008B5002003F0E2FA002803D00020011C73
S113159003F0D0FA08BD0000024A13680133136057
S11315A07047C0461000002037B5002002F004FA4E
S11315B0C02300250D4A9B0013600D4A0D4C136097
S11315C00D4A281C13600D4B25716571A5711A68AD
S11315D0FA239B0053430A49236003F005FB281CAC
S11315E0211C01AA03F044FB37BDC04618901454D3
S11315F01C9014540800002000A0145414FEFF1F73
S11316001400002008B5002002F0DBF98023054A0D
S11316109B001360044A00201360044902F03CFD5F
S113162008BDC0460CA0145410A01454D4FFFF1FCE
S113163008B50023354A36491360364A1360364AE2
S11316400133FF331360354A1360354A1360354A5A
S11316501360354A1360354A1360354A136001221A
S113166008780240081C3349002A01D00B6000E0CE
S11316700A60314A3149136000220A6030490A6025
S1131680304A1360304A1360304A1360304A1360A2
S1131690304A1360304A13600378DB0703D5022015
S11316A0FF3002F00BFC092002F016FC0C2002F0C3
S11316B013FC052002F010FC082002F00DFC0620AB
S11316C0FF3002F009FC0E20FF3002F005FC8320FD
S11316D0400002F001FC0820FF3002F0FDFB0C206A
S11316E0FF3002F0EBFB8220400002F0F5FB042007
S11316F0FF3002F0F1FB072002F0EEFB062002F0BF
S1131700EBFB8020400002F0E7FB08BD0C90145472
S11317100CFEFF1F10901454149014541890145479
S11317201C90145420901454249014543090145445
S113173000A0145404A0145408A014540CA014546D
S113174010A0145414A0145418A014541CA014541D
S113175028A014542CA0145434A0145408B50920FF
S113176002F0BAFB08BD08B50C2002F0B5FB08BDB9
S113177008B5FFF7F3FFFFF7F6FF8320400002F000
S11317809DFB024B186801F051FF08BD08FEFF1FC6
S113179020224C23F0B5B1B002AFBA18D6180021FC
S11317A00722301C03F0E5FD20227423BA18D41854
S11317B02022683BBA18D3189422BA181360202246
S11317C01423BA18D318202263601C23BA18D31820
S11317D02022E3602423BA18D318202223612C2367
S11317E0BA18D318202263613423BA18D3182022DC
S11317F0A3613C23BA18D3182022E3614423BA1806
S1131800D3182022236268238821BA18D318ED4AFA
S113181079180A6003221A7124220125BA180020BB
S11318209A60BB623570A66002F0BEF8281C02F014
S1131830BBF88022E44B12021A6001F015FF00206D
S11318400095021C031C011C01F0E8FBDF49002089
S113185001F0C2FBC82001F0E9FEDD49002001F0DF
S1131860BBFBC82001F0E2FEDA49002001F0B4FB22
S1131870C82001F0DBFED84A2B1C0221D74801F016
S113188017FF291C281C01F01FFF002003F09AF801
S113189020225C23BA18D118FC23DB000B80002320
S11318A0CB8000230B81002300208B724D808D8020
S11318B003F0B6F824230021F8182A1C03F059FD7C
S11318C04021FB6E7918FB63B28820200A80222114
S11318D0B279381841180A703C21032279180A7029
S11318E048217B64B288791820200A802A21B279A1
S11318F03818411820200A7024210522381841186C
S11319000A703221FB62B28879183A86B2792020B3
S11319100A702C21022279180A703A217B63B2885A
S113192079183A87B27938180A7034210422791860
S11319300A705021FB64B28879180A803221B27986
S1131940411820200A702C210822381841180A70E6
S113195058217B65B288791820200A803A21B2790F
S11319603818411820200A703422092138188218A6
S1131970202011704022FB65B3883818821820207B
S113198013804222B37938188218202013703C2225
S11319900A2338188218137000223A33C3181A70B5
S11319A020220823BA18D218201C2B1C02F052F84B
S11319B00021022000F0A8FB89498A4802F062FA5B
S11319C0FFF736FE0820FF3002F078FAC82001F055
S11319D02DFE0820FF3002F07FFAC82001F026FE19
S11319E00820FF3002F06AFAC82001F01FFE082028
S11319F0FF3002F071FAC82001F018FE0820FF3011
S1131A0002F05CFAC82001F011FE0820FF3002F059
S1131A1063FA1D20744900F00FFCFFF7A9FE01F0E2
S1131A20E7F87249002001F0D7FA714C802520684C
S1131A3001F0FCFD6F49002001F0CEFA206801F0AE
S1131A40F5FD00206C49021C031C01F0D5FC206844
S1131A5001F0ECFD694B6A491A686A4B2D021B6858
S1131A600968002000910195674901F0C5FC2068D0
S1131A7001F0DCFD654E664B664A0020D25873695E
S1131A8031680091644901F0B7FC206801F0CEFD93
S1131A90624B62491A785B788979D2B2DBB20091E1
S1131AA000205F4901F0A8FC206801F0BFFD5B4BFA
S1131AB05C491A7A1B7E0978D2B2DBB2009100200D
S1131AC0594901F099FC206801F0B0FD574B584981
S1131AD01A785B780969D2B2DBB2009100205549CB
S1131AE001F08AFC206801F0A1FD534B49499A7822
S1131AF0524BD2B2CB58716800200091504901F08A
S1131B007BFC206801F092FD4E4B4F491A68242358
S1131B10FB181B78002001F06FFC206801F086FDA3
S1131B204A49002001F058FA206801F07FFD484935
S1131B30002001F051FA206801F078FD45490020A9
S1131B4001F04AFA206801F071FD4349002001F0D8
S1131B5043FA206801F06AFD4049002001F03CFA94
S1131B60206801F063FD3E49002001F035FA206849
S1131B7001F05CFD3B49002001F02EFA206801F0E1
S1131B8055FD3949002001F027FA206801F04EFD87
S1131B903649002001F020FA206801F047FD01F0E9
S1131BA036FAC2B2332A00D188E163DC312A79D013
S1131BB000DD25E10A2A00D06DE22D49002001F064
S1131BC00BFA2EE76D15000018020020A95700003B
S1131BD0C4570000CA57000028FEFF1F34FFFF1F30
S1131BE044FEFF1F34FEFF1FF8FFFF1FD157000004
S1131BF000FEFF1FF55700002758000010FEFF1FCE
S1131C0004FEFF1F14FEFF1F5B58000000D00340BA
S1131C103C1000000070044093580000004006404F
S1131C20C958000000500640F858000000E0074082
S1131C3000ED00E02859000000D0074034100000F7
S1131C4062590000100000209A590000C859000091
S1131C50D2590000FD5900001D5A00003D5A0000F1
S1131C605A5A0000965A0000AD5A0000CC5A00009F
S1131C70D95B0000362A00D170E1392A00D1A7E1EE
S1131C80352A00D007E2FA24281CFFF7BBFC032105
S1131C902A1C2A2000F0D5FA0020BC4901F0ACFB34
S1131CA0A40050E1BA49002001F0A6FB281CFFF76C
S1131CB0A9FC2A1C2A20012100F0C3FA33240025A0
S1131CC0013C002C10D00120022100F0DDFAB14BC0
S1131CD01A7A5B7A92019B08134380229201534043
S1131CE0AD4A9B18ED18EBE7281C3221FEF7DCFC0B
S1131CF0261C7860FC61BC607C61BC61022101200F
S1131D0000F0C2FAA34A0521137A507A9B01800895
S1131D10184380239B0158409F4BC0187B68C01A0E
S1131D201822BB5E00B23B619B001818FEF7BCFC96
S1131D301C217A5E85B22BB2934206DC21B22A1CA6
S1131D408B4200DD221C94B200E0FD6132B2FA60E5
S1131D50002819DD3A69002A16DD14217A5E002A6A
S1131D6012DA0820395E00290EDA91420CDA3A6957
S1131D70934209DD1C23FA5EFA235B009A4203DDD9
S1131D80864B22B29A4203DB854BFA689A422CDDD9
S1131D90F868FFF76FFB834A834BFFF79BF8021C3D
S1131DA00B1C00208149FEF771FDFFF72DFB80B26B
S1131DB0041C00B2632800DD632424B2201C00F05C
S1131DC0C8FF7867201C00F0BBFF202254230024A6
S1131DD0BA18B867D01800F0E1FE00207449FA6818
S1131DE001F00AFB261CFC6101E0731C9EB2032077
S1131DF001F01CFCBB8ABB603B8BBD617B617DE752
S1131E006C49002001F0F8FA281CFFF7FBFB2A1CA0
S1131E102A20012100F015FA33240025013C002C6E
S1131E2010D00120022100F02FFA5A4B1A7A5B7A63
S1131E3092019B081343802292015340564A9B18F7
S1131E40ED18EBE7281C3221FEF72EFC061C5A493C
S1131E50321C201C01F0D0FAB4B002AD2A1C2B1C99
S1131E60C83200241C8002339342FAD1022101209B
S1131E7000F00AFA474B51491A7A5B7A92019B089F
S1131E801343802292015340434A00209B189B1B1A
S1131E909BB2FB611C22BB5E221C01F0ADFABA8B23
S1131EA063005A53632200230134A4B2A2425B416B
S1131EB00A205B421C4001F0B9FBD7E7281CFFF75E
S1131EC0A1FB2A1C01212A2000F0BBF900203C4977
S1131ED001F092FA3B4D80260221012000F0D4F952
S1131EE02C4CB601237A627A9B0192081A432A4B3E
S1131EF07240D21893B202210320FB6100F0C4F9AE
S1131F00227A637A92019B081343234A73409B18F5
S1131F109BB202210520BB6100F0B6F9227A637AF4
S1131F2092019B0813435E401C23FA5E18217B5EDA
S1131F3019490020761800962349013D01F05CFA06
S1131F40002DC8D16DE50120022100F09DF9114B4F
S1131F50013C1A7A5B7A002CF5D162E500201B491A
S1131F6001F04AFA0024201C00F0F3FE7867201CDC
S1131F7000F0E6FE20225423BA18B8670134D018C2
S1131F8000F00CFE642CEED14BE5C046425B000031
S1131F90DF5A0000F8FFFF1F00E0FFFFD4FEFFFF41
S1131FA010270000FA7E6ABC7493783F00004E400C
S1131FB0F35A0000F95A0000135B00001B5B000099
S1131FC0255B000088130000345B0000585B0000B0
S1131FD03349002001F000F8281CFFF713FB01210E
S1131FE02A1C2A2000F02DF9FA2600202D4901F0A0
S1131FF003FAB6000221012000F046F92A4C2B4DC9
S1132000227A637A92019B081343802292015340FF
S1132010274A00209B18291C1A1C013E01F0ECF9E8
S1132020002EE7D1301C2349FA2601F0E5F9B60069
S11320300221032000F028F9227A637A92019B0896
S11320401343802292015340194A00209B18291CF3
S11320501A1C013E01F0D0F9002EE9D1301C1649BA
S1132060FA2601F0C9F9B6000221052000F00CF9A6
S1132070227A637A92019B0813438022920153408F
S11320800B4A00209B18291C1A1C013E01F0B4F9CC
S1132090002EE9D1C5E40949002001F0ADF9C0E4FE
S11320A0715B0000425B0000F8FFFF1F9C5B0000B7
S11320B000E0FFFFAD5B0000C35B00000B5C0000B1
S11320C01FB5041C01A9002002F0D2FC01A8694636
S11320D002F00CFC009B68461C1901A9009402F054
S11320E08DFB01A90122002002F0EEFC1FBD0000BF
S11320F00022034B1A608022024B1206DA677047F3
S113210000A01C5804E100E010B50A2308286FD889
S11321100C1CFEF72FFA051B283C48626466570026
S113212001F02EFE0523012862D0FFF7E1FF201CF9
S1132130FFF7C6FF0020011C01F0B0FC041C0020C6
S1132140012101F0C1FA002C4FD150E001F018FE3A
S1132150062301284CD0FFF7CBFF201CFFF7B0FF6C
S113216001200021E8E701F00BFE082301283FD0FD
S113217001F032FB002803D00020012101F0A4FA71
S11321800220002101F08AFC00282ED12FE001F06A
S1132190F7FD072300282BD0FFF7AAFF201CFFF729
S11321A08FFF032005E0FFF7A3FF201CFFF788FF44
S11321B00420002101F072FC041C01F0E1FD002860
S11321C0C1D1BDE70820002101F068FC00280CD132
S11321D00120011C01F078FA09E0052002E0062044
S11321E000E00720002101F059FC092300E000234E
S11321F0181C10BD10B50C1C0C4B88B01B7806A91C
S11322000B800B4B05AA1B6810700A484B6004AB8B
S11322101C7000680093012302900193002002F0D7
S113222075F8431E9841400008B010BDF8FFFF1F29
S113223010FEFF1F18FEFF1FC223FF3308704B6000
S1132240704708B518280FD8172818D20F2806D8B1
S11322500E2814D2031C093B012B13D80FE0031CD6
S1132260113B042B0ED80AE0212804D81F2806D2DB
S11322701D2807D103E0031C233B0E2B02D8FFF7D4
S1132280B9FF00E0032008BDFF2310B588B005AAFC
S11322901370182804D8092806D206281BD803E08E
S11322A0031C1D3B142B16D80C4B10701C7806AB6A
S11322B01C800B4C0B482468006807940A4C01915D
S11322C00290191C00940123002002F02CF8431EF4
S11322D09841400000E0032008B010BDF8FFFF1F44
S11322E010FEFF1F18FEFF1F0000002037B50E244C
S11322F0FF34051C201C01F0E1FD0A2001F096F9D1
S1132300201C01F0E9FD0C2001F0E6FD0123084A40
S1132310002015700093FA239B000193011C054BC8
S113232002F002FD051C201C01F0C8FD281C3EBD66
S1132330450000204400002073B5041C0E20FF302B
S11323400D1C01F0BBFD0A2001F070F90E20FF30D6
S113235001F0C2FD0C2001F0BFFD6519AC420DD0A7
S113236001230093FA2300209B000193221C011CEB
S1132370054B02F0D9FC0134061CEFE70E20FF30B8
S113238001F09CFD301C76BD4400002008B50020FF
S1132390FFF7ACFF3F20FFF7A9FF0020FFF7A6FFE0
S11323A0002008BD1FB50B2401A8221C074902F018
S11323B0D7FF211C01A8FFF7BFFF0549C2B20020C7
S11323C001F01AF8002004B010BDC046A856000061
S11323D05761000013B521236A46002413703F237C
S11323E01530C0B2917038315070D0701171684698
S11323F0082154719371D471FFF79EFF201C16BD00
S1132400F0B58BB021266B461E7058709970031C72
S113241000246A463F252A33DBB2D370117154710C
S11324209571D471167253729172D3720A1C6F46ED
S11324301C32D2B23A73BA743A75BA766A463831F3
S1132440C9B201327B74F8747876F87639777C7384
S1132450BD73FC733E747C75BD75FC753E767C77EC
S1132460BD77FC77D6776A460232D0776A46033264
S1132470D17701AAD3776B460533D9776B460633F8
S1132480DC776B460733DD77684602AB2821DC77BF
S1132490FFF752FF201C0BB0F0BDF0B589B0212628
S11324A06B461E7058709970031C6A4600243F25C1
S11324B02A33DBB2D370117154719571D4711672D1
S11324C053729172D3720A1C6F461C31C9B23832EE
S11324D0D2B2F8747876B9763977684620213A739F
S11324E07C73BD73FC733E747B74BA743A757C75EB
S11324F0BD75FC753E76FB767C77BD77FC77FFF780
S11325001BFF201C09B0F0BDF0B587B06B46212538
S113251058701D709970D8700B1C00246A462A33B9
S1132520DBB26F466E46137154713F22F471B2717F
S113253035727072B3723B73061C0B1C1530C0B23B
S1132540383178741C33F87439752A366846182182
S1132550FE727C73BA73FC733D74BB747C75BA757C
S1132560FC75FFF7E9FE201C07B0F0BDF0B58BB099
S113257021266B461E70031C6A4600243F252A331D
S1132580DBB253709170D070117154719571D47124
S1132590167250729172D0720A1C6F461C32D2B2FB
S11325A03A73BA743A75BA766A463831C9B20132A6
S11325B07874FB747B76FB7639777C73BD73FC731C
S11325C03E747C75BD75FC753E767C77BD77FC7773
S11325D0D6776A460232D3776B460333D97701AB99
S11325E0D8776B460533D9776B460633DC776B4671
S11325F00733DD77684602AB3221DC77FFF79CFEB8
S1132600201C0BB0F0BDF8B5061C0C1C351C271C97
S11326102A35EDB22120FFF769FE281CFFF766FE7C
S1132620201CFFF763FE301CFFF760FE201CFFF741
S11326305DFEFFF7ABFE2120FFF758FE301CFFF7CD
S113264055FE3837201CFFB2FFF750FE301CFFF751
S11326504DFE381CFFF74AFEFFF798FE2120FFF7D6
S113266045FE301CFFF742FE381CFFF73FFE281CD6
S1132670FFF73CFE381CFFF739FEFFF787FE2120E9
S1132680FFF734FE281CFFF731FE1C34381CE4B27B
S1132690FFF72CFE281CFFF729FE201CFFF726FE5F
S11326A0FFF774FE2120FFF721FE281CFFF71EFE12
S11326B0201CFFF71BFE301CFFF718FE201CFFF741
S11326C015FEFFF763FE0020F8BD38B5051C0C1C91
S11326D02120FFF70BFE281C2A35EDB2FFF706FE7A
S11326E0201CFFF703FE281CFFF700FE201CFFF749
S11326F0FDFDFFF74BFE2120FFF7F8FD281CFFF737
S1132700F5FD201CFFF7F2FD3834281CFFF7EEFD21
S1132710E0B2FFF7EBFDFFF739FE002038BDF8B556
S1132720061C0C1C351C271C2120FFF7DFFD2A3555
S1132730301CEDB2FFF7DAFD201CFFF7D7FD281C93
S1132740FFF7D4FD201CFFF7D1FDFFF71FFE21206A
S1132750FFF7CCFD281CFFF7C9FD3837201CFFB25A
S1132760FFF7C4FD281CFFF7C1FD381CFFF7BEFDB1
S1132770FFF70CFE2120FFF7B9FD281CFFF7B6FD7B
S1132780381CFFF7B3FD301CFFF7B0FD381CFFF712
S1132790ADFDFFF7FBFD2120FFF7A8FD301CFFF77F
S11327A0A5FD381CFFF7A2FD301CFFF79FFD201C80
S11327B0FFF79CFD1C34FFF7E9FD2120FFF796FD90
S11327C0E4B2301CFFF792FD201CFFF78FFD281C9C
S11327D0FFF78CFD201CFFF789FDFFF7D7FD0020D4
S11327E0F8BDF8B5071C0C1C3D1C261C2A35EDB29F
S11327F02120FFF77BFD281CFFF778FD201CFFF745
S113280075FD381CFFF772FD201CFFF76FFDFFF705
S1132810BDFD2120FFF76AFD381CFFF767FD1C365C
S1132820201CF6B2FFF762FD381CFFF75FFD301C79
S1132830FFF75CFDFFF7AAFD2120FFF757FD381CC9
S1132840FFF754FD301CFFF751FD281CFFF74EFD28
S1132850301CFFF74BFDFFF799FD2120FFF746FDE4
S1132860281CFFF743FD201CFFF740FD3834281CCB
S1132870FFF73CFDE0B2FFF739FDFFF787FD0020CD
S1132880F8BDF8B5061C0F1C351C3C1C2A35EDB2EE
S11328902120FFF72BFD281CFFF728FD381CFFF72C
S11328A025FD301CFFF722FD381CFFF71FFDFFF745
S11328B06DFD2120FFF71AFD301CFFF717FD38349A
S11328C0381CE4B2FFF712FD301CFFF70FFD201C8B
S11328D0FFF70CFDFFF75AFD2120FFF707FD301C21
S11328E0FFF704FD201CFFF701FD281CFFF7FEFC89
S11328F0201CFFF7FBFCFFF749FD2120FFF7F6FC46
S1132900281CFFF7F3FC201CFFF7F0FC281CFFF742
S1132910EDFC381CFFF7EAFCFFF738FD2120FFF738
S1132920E5FC281CFFF7E2FC381CFFF7DFFC301C39
S1132930FFF7DCFC201CFFF7D9FCFFF727FD002084
S1132940F8BD08B52520FFF7D1FC0020FFF7CEFC29
S11329500020FFF7CBFC5F20FFF7C8FC3F20FFF708
S1132960C5FC002008BD08B52520FFF7BFFC0020EA
S1132970FFF7BCFC0020FFF7B9FC2F20FFF7B6FCE3
S11329803F20FFF7B3FC002008BD08B52520FFF762
S1132990ADFC3020FFF7AAFC0020FFF7A7FC5F2066
S11329A0FFF7A4FC3F20FFF7A1FC002008BD10B5F1
S11329B0041CFFF7D8FF002C04D10320011CFFF7EF
S11329C060FF3DE0012C04D10320011CFFF702FD50
S11329D036E0022C04D10320011CFFF711FD2FE087
S11329E0032C04D1201C211CFFF757FD28E0042CE4
S11329F004D10320011CFFF787FD21E0052C04D13D
S1132A000320011CFFF7B2FD1AE0062C04D10320B9
S1132A10011CFFF7F8FD13E0072C04D10320011C6F
S1132A20FFF753FE0CE0082C04D10320011CFFF730
S1132A3076FE05E0092C03D10320011CFFF7D1FE2B
S1132A40002010BD10B5041CFFF79FFF002C04D11B
S1132A5003213220FFF715FF3DE0012C04D10321AF
S1132A603220FFF7B7FC36E0022C04D103213220D8
S1132A70FFF7C6FC2FE0032C04D1211C3220FFF702
S1132A800CFD28E0042C04D103213220FFF73CFD87
S1132A9021E0052C04D103213220FFF767FD1AE061
S1132AA0062C04D103213220FFF7ADFD13E0072CDF
S1132AB004D103213220FFF708FE0CE0082C04D1D6
S1132AC003213220FFF72BFE05E0092C03D132202D
S1132AD00321FFF786FE002010BD0000F0B585B08D
S1132AE0071CFFF72EFF2C4B69461A1C0C3211CA27
S1132AF011C10A1C6D46002414330E1C03CB03C2FF
S1132B003B59002B04D1285D315DFFF7BAFE3DE04F
S1132B10012B04D1285D315DFFF75CFC36E0022B0C
S1132B2004D1285D315DFFF76BFC2FE0032B04D14A
S1132B30285D315DFFF7B1FC28E0042B04D1285D4A
S1132B40315DFFF7E1FC21E0052B04D1285D315D07
S1132B50FFF70CFD1AE0062B04D1285D315DFFF769
S1132B6052FD13E0072B04D1285D315DFFF7ADFD65
S1132B700CE0082B04D1285D315DFFF7D0FD05E0A2
S1132B80092B03D1285D315DFFF72BFE0434082C9B
S1132B90B6D1002005B0F0BDA856000038B5134CDE
S1132BA003682268051C934206D06268416891421A
S1132BB002D0FFF793FF13E02268934206D16868BE
S1132BC06268904202D0FFF73DFF09E02268934219
S1132BD006D062686968914202D1181CFFF7E7FECB
S1132BE02B68002023606B68636038BD2CFEFF1FD8
S1132BF0C02310B580244D4A9B0013604C4A6400E6
S1132C001360FEF7D1FC4B4B201C1C604A4B1C602C
S1132C104A4B1C6001F052F9642000F007FD201CAF
S1132C2001F05AF9642000F001FD201C01F046F97E
S1132C30642000F0FBFCAE20FFF758FBA020FFF758
S1132C4055FB7220FFF752FBA120FFF74FFB00203A
S1132C50FFF74CFBA220FFF749FB0020FFF746FBE0
S1132C60A420FFF743FBA820FFF740FB3F20FFF71A
S1132C703DFBAD20FFF73AFB8E20FFF737FBB0207A
S1132C80FFF734FB0B20FFF731FBB120FFF72EFBDE
S1132C903120FFF72BFBB320FFF728FBF020FFF7D1
S1132CA025FB8A20FFF722FB6420FFF71FFB8B2004
S1132CB0FFF71CFB7820FFF719FB8A20FFF716FBB0
S1132CC06420FFF713FBBB20FFF710FB3A20FFF74C
S1132CD00DFBBE20FFF70AFB3E20FFF707FB872012
S1132CE0FFF704FB0E20FFF701FB8120FFF7FEFA3C
S1132CF09120FFF7FBFA8220FFF7F8FAFF20FFF795
S1132D00F5FA8320FFF7F2FA7D20FFF7EFFAAF2000
S1132D10FFF7ECFA2620FFF7E9FA0120FFF7E6FABD
S1132D20FFF70FFEFFF73EFB002010BD2090145468
S1132D302490145434A014543090145400A0145407
S1132D4008B5632800DD63200A21FDF793FD081C04
S1132D5008BD10B5041E632C03DC0020092C09DD1A
S1132D6000E06324201C0A21FDF784FD601A0A2177
S1132D70FDF79AFC10BD0269C3689A4203D88068C3
S1132D801018013800E0501EC01A7047F7B5836868
S1132D90C668051C40680191141C9F1B801997424A
S1132DA003D902F0DDFAA4190AE001993A1C02F0F1
S1132DB0D7FA019BE41BD9196868221C02F0D0FAE7
S1132DC0EC60F7BD0023F7B5061C171CC56801911C
S1132DD000933369B468AB4200D81B19013B5B1BF9
S1132DE0641BBC4200D93C1C9C4200D91C1C736867
S1132DF0221C5819019902F0B3FA009B2D191B19D2
S1132E000093019B3F1B1B190193B368EB1A5A1ED5
S1132E1093415B421D40F560002FDAD10098FEBD5E
S1132E20022310B50F4C104A236163610F4BA2615A
S1132E30E361C823A2640E4A2362E26400230422ED
S1132E40A3626362E362A3656365E3652265E01DD3
S1132E50084902F047FB201C074902F043FB2023EA
S1132E60A37110BD14010020606100004A0000201D
S1132E7046000020696100006D610000F0B5294B37
S1132E80171C1A7885B0009001910293002A01D191
S1132E90FFF7C6FF1823009A00255343029AD3185C
S1132EA01A1C503252689C6D039294421BD91B6DBC
S1132EB03D1C1B1B9F4200D91D1C1826009B2A1C6D
S1132EC05E43029B01989E19F36C7F1B191902F053
S1132ED047FA019B64195B190193336DE31A5A1E77
S1132EE093415B421C40039B1E1BBE4200D93E1C07
S1132EF0002E0CD01823009A01985343029AAD195E
S1132F00D318D96C321C091902F02AFAA419002D1D
S1132F1005D01823009A5343024AD3189C65281CF1
S1132F2005B0F0BD1401002010B50B1CEFF31084A4
S1132F30012181F31088191CFFF7A0FF84F3108886
S1132F4010BD0000F8B51823451C5D434343141C11
S1132F50134A0E1CD018C76A5519012F0FD0002F21
S1132F6007D0022F17D1221C281CFFF72BFF041CAB
S1132F7014E0281CFFF7FFFEA0420ED305E0281C36
S1132F80FFF7F9FE844200D9041C281C311C221CC2
S1132F90FFF7FCFE02E0002400E03C1C201CF8BD0E
S1132FA014010020F8B50B4B071C1B780E1C151CD4
S1132FB0002B01D1FFF734FFEFF31084012181F3DB
S1132FC01088381C311C2A1CFFF7BCFF84F31088BE
S1132FD0F8BDC0461401002038B5051C081C0C1CA3
S1132FE002F088FA211C021C281CFFF7DBFF38BD05
S1132FF013B56B46DC1D0020211C0122FFF794FF52
S1133000012801D1207801E00120404216BD08B515
S1133010FFF7EEFF0028FBDB08BD0000F7B5164CF8
S113302001932378051C0F1C161C002B01D1FFF7FC
S1133030F7FE23699D421CD2EFF31082012181F334
S11330401088002D0CD01823691C59436B4367501A
S113305061184E600199E31819620021996259625E
S113306018235D43089B6419E36282F310880020EF
S113307001E001204042FEBD14010020826810B529
S1133080041C4068531C834205D820688154A36003
S1133090E3680133E360A26863689A420CD1206953
S11330A02168FFF77FFFA368984203D001235B42A6
S11330B0E36001E00023A36010BD0000F0B5051C2F
S11330C01F1C081C012685B00A9C00910192019BDB
S11330D0984204D30199FDF757FA0136F7E70296AF
S11330E0BE4200D2029701230B9A1A40039218D1D0
S11330F0002C01D1002414E00B9B20269B070DD546
S1133100002F0BD1103609E0281C311CFFF7B6FF45
S1133110EB68013C002B04DB002CEBD0029BA342A8
S1133120F2D3EB68002B35DB0126012F01D9013FD7
S113313006E00098311CFDF727FA019B984208D35A
S1133140019B5E43F1E7301C0199FDF71DFA061E51
S113315010D00098311CFDF717FA331C4343009A32
S1133160D31A00930C4B195C281CFFF787FFEB68FC
S1133170002BE8DA039B002B0CD0002C0AD0029B16
S1133180A34207D2281C2021FFF778FFEB68013CFB
S1133190002BF2DA05B0F0BD74610000F0B59FB009
S11331A00EAB099340230A930023161C06900B933D
S11331B00D900C930B784C1C002B04D10C9B0393A7
S11331C0002B22DC15E1252B16D1002502314F1EE0
S11331D03B782B2B0CD003D8232B27D1082308E0D2
S11331E02D2B03D0302B21D1022302E0012300E058
S11331F004231D430131EAE7191C09A8FFF73EFF28
S1133200211C0C9B002BD5DAD8E70B9A002A03D09B
S113321006980EA9FFF7C6FE0C9B03930B9B049321
S1133220049A039B944663440C93E2E000243A78A6
S1133230131C303B092B05D80A235C43303C01376F
S1133240A418F4E7002303932E2A0DD101373A780A
S1133250131C303B092B07D80A23039901374B432E
S1133260303B9B180393F2E7397804230A1C9A43F2
S1133270682A01D10137F7E7642926D008D85829EC
S113328000D195E063291AD0252900D0AFE0ABE046
S1133290732900D195E00DD8702900D0A7E03268D9
S11332A00021131D3360082301910093116809A8BC
S11332B0102296E0752971D0782979D097E0336887
S11332C019681A1D3260C9B28EE033681A1D1B6872
S11332D03260DA17981804930123504005930928A3
S11332E005DD0A21FDF7E0F9059B0133F6E7059BAF
S11332F0039A934200D20592002C05D0049B002B24
S113330001DB6B0700D5013CAB0702D5039B002B07
S113331010D0EB070ED4002C01D100240AE0059B49
S1133320A34207D209A82021FFF7A8FE0C9B013C69
S1133330002BF0DA0C9B0793002B58DB049B002B2B
S113334004DA5B42049309A82D2103E06B0703D53B
S11333502B2109A8FFF792FE0C9B002B47DB0323CC
S11333602B40022B11D1039B002B0ED1002C01D139
S113337000240AE0059BA34207D209A83021FFF7E5
S11333807DFE0C9B013C002BF0DA0C9B0593002B7B
S11333902DDB0094019509A8049906E03368009494
S11333A001951A1D1968326009A80A22039B18E0C6
S11333B0336800941A1D0195326009A81968102217
S11333C0F4E733681A1D32601C682178013400293F
S11333D00DD009A8FFF752FE0C9B0393002BF4DADF
S11333E005E0FFF76BFE02E009A8FFF747FE791C32
S11333F007E70C981FB0F0BD0EB403B503AB02CBC6
S113340001AA0193FFF7CAFE02B008BC03B0184733
S113341008B5002000F06EFD08BD08B5002001F0DD
S1133420B1FB08BD082110B5164B9A780A4202D0A8
S11334309A780A439A70882200212220124B520162
S11334409950124A10708020114A4002985018680E
S1133450104A024010481A601C58104A2240C024E6
S1133460A40422431A5080220D4B19721A767F3A13
S113347019705A700B4A11700C2299791142FBD1C0
S113348010BDC04600D007400070044000E0074073
S113349044100000FFFFF3FF04100000FFFFFFF0E3
S11334A00040064000500640154B164810B5191E42
S11334B081420CD00022144B9B089B009A4203D0FB
S11334C084588C500432F9E7104B996001E00F4A9C
S11334D0936000230E4A0F49891A8B4204D0D45CAE
S11334E00D48C4540133F8E700230C4A0C49891AE7
S11334F08B4204D00024D01804700133F8E710BDC7
S113350000000000000000000000000000ED00E0EA
S1133510DC6200009064000000FEFF1FB4FFFF1F88
S1133520C002002000234170436003708360181CB4
S1133530704710B54378041C0120FF2B08D000F01D
S113354051FA63780133DBB2637000F03FFA002074
S113355010BD38B5041C0D1C00F044FAE168294381
S1133560E16000F033FA002038BD000000220A4B6D
S11335709A641A1C40329A631A1C30329A621A1CDA
S113358020329A611A1C10329A60044A1360044B68
S11335909B60DB607047C046A00100209C010020B6
S11335A08C0100200022024B1A60186880B2704718
S11335B00C007C5038B54378041C0D1C002B0BD038
S11335C0002500F00FFA6378013BDBB263702570CD
S11335D000F0FCF9281C28E00220002925D02378DB
S11335E0002B15D0FFF7DEFF6368A268984201D371
S11335F0C01A03E0C01A80235B02C018824213D2AF
S113360000F0F0F90023237000F0E0F902200CE050
S11336104B1C09D000F0E6F90123237000F0D6F921
S1133620FFF7C0FFA5606060032038BD38B5051CF6
S1133630FFF7B8FF041CFFF7B5FFA04201D3001B3E
S113364003E08023001B5B02C0188542F3D238BD1F
S113365008B5012801D100F0C5F908BD08B5012855
S113366001D100F0B3F908BD10B5FFF77FFF0123C6
S11336700020084A08491360084A094C1060086091
S113368004212160074C216007490B600749086049
S1133690136010BD388004500000845000000450B2
S11336A0000004510400045104000C5000000453B1
S11336B010B5044C206021710020A2602373637351
S11336C010BDC046F0010020F0B587B06B460290F3
S11336D01B7A05AC23706B4603911B7B3D4D6370D5
S11336E02B79029A0420934271D92B7B6B730123AB
S11336F0A37000230193374E0093337B009A371C49
S113370093421AD9009BB2689B009B58002B10D09F
S11337101A79D2070DD51A68201C99689047002899
S113372007D06B461B787373039B002B3AD0052399
S11337300193009B0133DBB2DDE7019E002E02D032
S1133740039B012B2FD10120FFF782FF0C20029B4A
S113375058432B68181800F097F86B461B7A012021
S11337606B71FFF77BFF02230025A3703B7BAB4209
S113377016D9BA68AB009B58002B0ED01A79920761
S11337800BD51A68201C99689047002805D0039B24
S11337907D73002B1AD0062301930135EDB2E5E7C2
S11337A0019814E005260023009FA370013FFFB297
S11337B0FF2F09D0AA68BB009B58002BF6D01A68CB
S11337C0201C99689047F1E7301C00E0062007B000
S11337D0F0BDC046F0010020014B58797047C04647
S11337E0F001002013B500210378041C0191022B81
S11337F007D0032B0BD0012B0ED10279191C1348CF
S113380001E00279114801AB00F08CFF08E001A946
S11338100E4800F0C9FF03E00C4801A900F066FF60
S1133820002812D1A3790A4ADB01DBB21370637852
S1133830084A5B00DBB21370A278074B1A70E27877
S1133840064B1A706279064B1A7016BD004006408A
S113385018408653004086500040065001400650F0
S1133860184016501F2280210240D30549051943F0
S1133870430904489B001B1819430123081C934067
S113388003607047288004400022072373B5041C9A
S1133890104D0093281C131C012101F065F9201C14
S11338A0FFF7A0FF0022637A217A0093281C131CDF
S11338B001F05AF9E379084A9B041360074BA17A93
S11338C01D68281C00F08CFF281CE17A00F08FFF93
S11338D0002076BD0070044000700C59D0610000D7
S11338E008B5054800F0C4FE044B1968C9B201319B
S11338F0FCF74AFE08BDC0460040064044801C5EFA
S113390008B5054800F0B4FE044B1968C9B201318A
S1133910FCF73AFE08BDC0460040064044801C5EE9
S113392008B5054800F0A4FE044B1968C9B201317A
S1133930FCF72AFE08BDC0460040064044801458E7
S113394008B5054800F094FE044B1968C9B201316A
S1133950FCF71AFE08BDC0460040064044801458D7
S11339600C4B1B68DBB2022B0DD0032B0ED0002BAB
S113397001D000200CE08021074A09021268101EC1
S11339808842F6D104E0054B186801E0FA20800073
S11339907047C04600700C59180200201C02002019
S11339A008B5FFF7DDFF08BD08B5024B185CFFF74B
S11339B059FF08BD8461000008B57620FFF752FF67
S11339C008BD08B56620FFF74DFF08BD044A13681B
S11339D0002B04D0013B1360002B00D162B670476A
S11339E00002002072B6024A136801331360704764
S11339F00002002010B50B4B0B4A1278002A04D1A8
S1133A00013B002BF8D103200AE0064C074801F0E3
S1133A101FFB012803D0013C002CF7D1F3E7002061
S1133A2010BDC046EA03000002D0075100E0074081
S1133A3010B5064C064801F00BFB042804D0013CE9
S1133A40002CF7D1032000E0002010BDEA030000A1
S1133A5000E00740F7B5071C0E1C151C019301205C
S1133A60002F18D0002916D0FFF7F2FD0A4C0021D0
S1133A70201C102201F07DFC27602671002D06D049
S1133A806B461B79A56023736B461B796373012016
S1133A90FFF7E4FD0020FEBD04020020F0B5B24CA7
S1133AA08BB002900191237B01206373FFF7D0FD5B
S1133AB02379029A934204D80120FFF7CFFD022014
S1133AC050E1029A23689200D6586B461B7907ACE2
S1133AD0357823726B461B7A2A1C237002239A437F
S1133AE066600392012A01D0052D0AD101219F4865
S1133AF001F000FA002809D10120FFF7AFFD0120F1
S1133B0030E1072D02D999480321F1E701236372BB
S1133B1000240094944F009A3B7B93421AD9009B53
S1133B20BA689B009B58002B0FD01A79D2070CD58A
S1133B301A6807A899689047002806D06B461B7836
S1133B4004247B73019B012B04D1009B0133DBB262
S1133B500093DFE70120FFF781FD854800F0ACFD0D
S1133B60039B012B1DD10138C0B2022811D8FFF7E5
S1133B70E7FE804B98420CD8FFF7B2FE7E4FB84266
S1133B8007D8FFF7CDFEB84203D8FFF7B9FEB84215
S1133B9007D9019B012B01D1062407E0002C05D194
S1133BA0FAE7019B012B52D0002C50D00120FFF7E3
S1133BB04FFD002307AE009D7372013DEDB2FF2D52
S1133BC040D0694BAA009B68D358002BF5D01A79D2
S1133BD0D207F2D51A68301C99689047EDE707229E
S1133BE005AB1A7000225A70F2789A703279DA7042
S1133BF02B1C083B05A9022B03D873798B71B3796D
S1133C00CB717378002B00D084E0584801F0A6F9FA
S1133C10002800D00324002D00D08AE0FFF7EAFE3C
S1133C200024002800D09DE00120FFF711FD6B4621
S1133C304D4E1B7A0025B373022307AF7B72337B8F
S1133C40AB427CD80120FFF709FD201C8AE0032049
S1133C500A2D00D986E0281CFCF782FC06080A1904
S1133C6040583339C1282D00002250E003224EE091
S1133C703E4801F0EDF9012807D03C48002101F04D
S1133C8049F9FFF7B7FE041E6CD101223FE0374823
S1133C9001F0DEF9042807D03448022101F03AF992
S1133CA0FFF7C6FE041E5DD1042230E0072205ABF7
S1133CB01A70063A03E0072205AB1A70043A5A70E8
S1133CC096E7022205AB1A70013A1A7104E0022247
S1133CD0012105AB1A7019715A7189E70222002774
S1133CE005AB1A702148013A1A715F7101F0B0F9FD
S1133CF0012800D17CE71D48391C01F00BF9FFF7BE
S1133D0079FE041EBC4200D172E72BE0052205AB0C
S1133D101A706DE7012D00D877E7B2780220174BAF
S1133D20002A02D01A69024301E01A6982431A6127
S1133D306BE7012D00D077E7FFF77AFE70E7B268F2
S1133D40AB009B58002B0AD01A79920707D51A6842
S1133D50381C99689047002801D0052475730135F3
S1133D60EDB26CE70BB0F0BD0402002000E00740A8
S1133D700040064040420F0080841E0000ED00E039
S1133D8008B5064801F064F90023012803D0013383
S1133D90042800D00A33181C08BDC04600E00740C0
S1133DA0F7B5FF2403681C4A1D0A25401C40AB00DC
S1133DB09F581A4A061C9B58281C0193FFF7F4FDD0
S1133DC0211C0022381C01F04BF9019BA4001C1992
S1133DD0842332795B05234352001A60802372796D
S1133DE05B0523431A609023B2795B0523431201D8
S1133DF01A60F3790A4A14431A042260002B0AD089
S1133E00084B5A5D002A06D01F23134001229A4012
S1133E10131C054A1360F7BDDC610000D461000087
S1133E2000001818E461000000E100E0F8B5FF2488
S1133E30051C0368114A180A20401C4083009F583F
S1133E400F4A9E58FFF7B0FD381C211C012201F0D7
S1133E5007F96A68381C211C01F012F988232A7AB0
S1133E60A40034195B05234392001A6098235B0570
S1133E701C436B7A9B012360F8BDC046DC610000E3
S1133E80D461000038B50C1C002802D1002C09D1E3
S1133E9012E003680133F9D0051C0835FFF780FFF1
S1133EA0281CF6E72368013306D0251C201C0C359A
S1133EB0FFF7BCFF2C1CF5E738BD0000FF22030A06
S1133EC0134002400120904002499B005B58586017
S1133ED07047C046DC610000FF22030A1340024021
S1133EE00120904002499B005B5898607047C0468F
S1133EF0DC61000008B5084B8200D35894220233D9
S1133F00520513431B78002B02D000F019FA01E08C
S1133F1000F06EFA08BDC04688610000031C8022D0
S1133F200C33520513431B78002BF7D001717047F3
S1133F3038B50D1C084B8000C458201C291C1830AF
S1133F40FFF738FB0328F8D0002801D0042323749A
S1133F50207CC0B238BDC04614020020F0B589B040
S1133F600290161C82003748059310580EAB01903E
S1133F7035481B781458002007AA1080A27C8F0AA9
S1133F8004920122E274A2745A4253411E3FDBB2EE
S1133F9003937B425F41FFB2CDB2874202D0CBB2E2
S1133FA09C460D0A00216D00EDB28F4204D1391CEC
S1133FB0002E01D16B46197B0D4307AB1D70012206
S1133FC0002F02D062465A700222A360E260019878
S1133FD0291CFFF7A3FF02980F99FFF7A9FF237C81
S1133FE0002B0CD1002E0AD0059BA660E36031782B
S1133FF00198FFF793FF02980F99FFF799FF237C2D
S1134000002B16D1039B002B13D0002F01D1002EBF
S11340100FD000230127A3600198E76001F088F81E
S1134020391C01982943FFF779FF02980F99FFF78C
S11340307FFF0023E3746B46207C1B7CC0B2A37417
S113404009B0F0BD8861000014020020104A83000A
S113405010B598580F4A9C58E37C002B05D0237C5C
S1134060052B02D0237C042B09D19822831C5205F2
S1134070134300221A7001F06DF801236374A37CCA
S1134080002B03D0201C1830FFF753FA10BDC04694
S11340908861000014020020F7B5194B8700FB5813
S11340A001250093174BFE58002E26D10C1C242208
S11340B00190081C311C01F05CF9201C311C1830E3
S11340C0FFF730FA0198FFF77CFC009800F0E0FF5E
S11340D00C4B019AFC500C4B9A5C1F2313402A1C76
S11340E09A40131C094A13609C22009B5205023318
S11340F0134380226574351C1A70281CFEBDC0460B
S113410088610000140200208661000000E100E0E4
S11341100A4B800070B5C558094BC6584B68726984
S113412093420AD00C1CFFF7FBFB0023011C6268BE
S1134130281C00F0BBFF6368736170BD88610000D8
S113414014020020F0B587B00FAC334F334D2678FE
S113415084006559E459677C002F02D10320207440
S113416058E0002E01D11E270E9705930023A67454
S1134170E360A360237423606374071C04920391B7
S1134180FFF7C6FF90231021AA1C5B051343197087
S11341908421EB1C49050B430221197098235B050C
S11341A0134302934023029A281C137000F0C0FFAB
S11341B0039B381C1988012300930E9B049A0193D6
S11341C0059BFFF7CBFE0D9B002B15D0237C002B0A
S11341D00FD10C9B281CA3600D9BE3600C9B1978EA
S11341E0FFF79CFE002E13D0381C0E99FFF7A0FE9B
S11341F00EE0237C042B0BD100230126029A1370BA
S1134200EB785B09334202D0281C00F0A3FF6674EC
S1134210207CC0B207B0F0BD140200208861000009
S1134220F0B58BB013AC2478364E374D039484002C
S11342306559A459667C002E02D1032020745FE0E6
S1134240039E002E01D11E3612960993109B002660
S11342502360119BA66063606B461B7BE660A374BE
S113426026746674079108920490FFF751FF902317
S1134270AF1C5B053B4305931023059A281C137060
S11342808422EB1C5205134302221A7098235B0507
S11342903B4306934023069A137000F049FF079BA3
S11342A0089A1988129B009601930498099BFFF7BA
S11342B055FE227CD2B2B24212D1059B11991A70DA
S11342C08C235B053B43012900D108221A702B790A
S11342D0039B002B12D004981299FFF729FE0DE0DE
S11342E0237C042B0AD1069B1E700126EB785B0904
S11342F0334202D0281C00F02DFF6674207CC0B22B
S11343000BB0F0BD14020020886100001FB5069CAC
S11343100094079C0194089C029401240394FFF7E1
S113432011FF04B010BD1FB5069C0094079C0194B6
S1134330089C029401240394FFF772FF04B010BD9B
S1134340842138B5244B8200D5584905EB1C0B4316
S113435002211970214BD45890226B1852051A432C
S11343601278E978D2B2890634D5942149051943E3
S1134370097800292ED0012A15D1EB78134202D0F6
S1134380052323740CE0E368013BE360002B07D0B2
S1134390A368281C5A1CA2605978FFF7BFFD19E0D6
S11343A0FFF754FE16E06268013A6260002A06D004
S11343B08C214905012A05D10B43082204E0FFF7AB
S11343C045FE02E000220B431A7023685A1C226047
S11343D02A791A7038BDC046886100001402002092
S11343E0842303305B0518430223037070470000E5
S11343F0902149050A1CF0B58F4B071C8000C55855
S113440089B0EB1C0493EB78EE78DBB20593F3B23E
S11344100693AB1D1A43944612789826D2B207929B
S1134420942252051A4314787605621E9441E2B22E
S1134430824C33430459A81C0090084301921A7813
S11344400178D2B2C9B203910199029000292FD008
S1134450079900290CD010236246281C1370FFF71B
S1134460BFFF236BF8B20121002B00D0DCE0E0E0B9
S1134470002A1DD04022281C1A70FFF7B1FF231C0C
S11344802C331B78002B02D1009A16433370236B14
S1134490002B03D0F8B28021626B9847E37D002B98
S11344A004D0201C80211830FFF753F80A23BFE002
S11344B0069B281C9E1101231E40FFF791FF012239
S11344C0059B1B11134219D09023049A5B051343D7
S11344D010221A70002E04D0EB785B07DB0F10D18A
S11344E01AE0082323702C342278002A00D0A0E09C
S11344F0982300995B050B431A709AE0002E16D09E
S1134500EAE71023029A1370236B002B6ED0F8B2E3
S11345100221626B984769E0029A1370236B002BA7
S113452003D0F8B20421626B98472B7981E0039B96
S1134530012B29D1EB78039A134257D0029B1E70AA
S11345402B79231C2C331B78002B09D1019B002BC6
S113455006D19823009A5B0513436A4612791A70B0
S1134560236B002B03D0F8B20821626B9847A37D1C
S1134570002B04D0201C08211830FEF7EAFF00238A
S11345806360E360237554E02B79A268DBB2002AF0
S11345902AD022691370236901332361A368013B84
S11345A0A360A368002B44D1019B002B13D1231CCF
S11345B02C331B78002B06D19823009A5B051343F8
S11345C06A4612791A70E37D002B04D0201C202146
S11345D01830FEF7BEFF002363752361236BF8B226
S11345E02021002B20D124E0072321E06368002B45
S11345F01DD0E3681A782B1C80210C3349050B432A
S11346001B78002BF7D02A71E3680133E3606368F9
S1134610013B63606368002B0BD1E3602375236B5C
S1134620002B06D01021F8B2626B984701E00623F4
S1134630237009B0F0BDC046886100001402002058
S113464084235B0503431A7800239A4209D080230C
S113465001305B0518430378012B01D0024B00E0C5
S1134660024B181C7047C04680841E0000127A005A
S113467010B50D4A831D13431B78DBB2002B10D0F9
S1134680012B08D1041CFFF7DBFF084B08341C4343
S11346902378D84006E00020022B03D1044B18688D
S11346A000E0044810BDC04600000811000090104E
S11346B018020020006CDC020B4A831D13431B7894
S11346C0DBB2012B06D0181E0CD00320022B09D01C
S11346D0052007E0802301305B051843007843423E
S11346E0584101307047C04600000811021C031CE9
S11346F09C20183340050343802018700020064B8B
S1134700134318700548931D03431B78D8B200283F
S1134710F8D1034B0B607047000008130000081128
S1134720006CDC02F8B5041C0D1C171C1E1CFFF7E2
S1134730C3FF012802D1002D04D007E0022805D1CF
S1134740012D03D1201C311CFFF7D0FF8022631CF4
S1134750520513431D70842302225B0523431A7000
S1134760231C0C4A083313437A00D2B21A70402235
S1134770094B23431A70094AA31D13431B78012BC9
S1134780F9D1002D01D1064A00E0064A3A41002041
S11347903260F8BD000090100000081300000811FA
S11347A080841E0000127A000A4B10B51C681A1C83
S11347B00123002C0CD08024074B03431C70074CAE
S11347C0831D23431B78022BF9D113680B6000234C
S11347D0181C10BD18020020000008130000081166
S11347E09C23C9015B051843C9B201707047942327
S11347F049015B051843C9B20170704770B506687A
S11348000C1C301C2049FBF7BFFE1F49051C301C43
S1134810FBF740FF0E1C081CE1210901FBF7B4FE65
S1134820E121E0800901301CFBF734FF0E1C081C59
S11348303C21FBF7A9FE3C212081301CFBF72AFF19
S11348406E22124BA1722380FF32238895420BD92A
S1134850AD1A032201339BB22380B72113405A1EA1
S113486093414900CA1AF0E709499B0700D1094955
S11348700123CA5C954201D8638003E00133AD1A79
S11348800D2BF6D1A58070BD80510100B207000048
S1134890B3610000A661000030B5114A0188031C11
S11348A08A180020812A19D85A88541E0B2C15D82E
S11348B09C88651E1E2D11D8DD88172D0ED81D89E4
S11348C03B2D0BD89B7A3B2B08D88B0701D0054B8B
S11348D000E0054B9B5CA3424041C0B230BDC046E2
S11348E04EF8FFFFB3610000A661000070B5124AE4
S11348F0838804889A186E23FF3363434588D3184A
S1134900A2089B180D4A6E00B25A9B18A20702D146
S1134910022D00D8013B0B60E1233C22C4881B011B
S11349205C4303895343827AE3189A180868044B5A
S11349304343D3180B6070BD4A05F5FF8C6100003A
S113494080510100084B1A6880231B029A4209D146
S1134950A02310305B0518430368002B02D10133F8
S1134960FF3303607047C04618020020021C8021F8
S113497010B500230124490510320A431460136062
S113498090224360520504601C3002431360882265
S11349905205024313608422520502430843136004
S11349A0036010BD031C90221433520513430022EC
S11349B01A604260103201601A60704703680B602D
S11349C070470000114B820070B5D5588022104BFF
S11349D092051A60041C281CFFF7C8FF281CFFF767
S11349E0B1FF01201F22011C0A4B0B4E1B5D345DDD
S11349F0134099402240C0250B1C904007496D008C
S1134A004B5148510B60086070BDC046C461000042
S1134A103C80845EC1610000C061000000E100E0F0
S1134A20F7B50027114B8000C658081C0D1C0197D0
S1134A30FFF732FF041EBC4216D001A9281CFFF761
S1134A4055FF381CFEF7ACFF011C80200002814298
S1134A5006D0FBF799FD011C0198FBF795FD019029
S1134A60301C0199FFF79EFF201CFEBDC4610000AD
S1134A70F7B50025124B8000C4580E1C201C01A958
S1134A800195FFF79BFF281CFEF78AFF051C802079
S1134A90000285420ED00B4B291C04341C43FBF747
S1134AA073FD2768019C291C4443B8B2FBF76CFDD5
S1134AB020180190311C01A8FFF7A0FEF7BDC046E5
S1134AC0C461000000007810F0B50026184B800087
S1134AD085B0C458081C0F1C01920396FFF7DCFE36
S1134AE0051EB54201D100251EE0381C03A9FFF7BD
S1134AF0FDFE301C2768FEF753FF011C80200002D6
S1134B00814206D0FBF740FD011C0398FBF73CFDF6
S1134B100390039BBB42E6D3A36088231C345B054C
S1134B201C43019B9B002360281C05B0F0BDC046BC
S1134B30C46100008822044B8000C35852051C3312
S1134B401343890019607047C46100008822054B33
S1134B508000C3585205143313431868431E984108
S1134B60C0B27047C46100006B46E0221B78D202D9
S1134B701B04134009071943014BC0180160704717
S1134B804410000008B5084B8200D3589022033328
S1134B90520513431B78002B02D000F0F3F801E018
S1134BA000F058F908BDC046CC61000008B50C4BB4
S1134BB08000C2580B4B0021C3589C20033340058E
S1134BC01843117101709420400503431970137F39
S1134BD08B4203D02032101CFEF7ABFC08BDC0464C
S1134BE020020020CC610000F7B5061C1C4B3022CB
S1134BF00C1C8700081C0021FD5800F0BAFB301C77
S1134C00FEF7DAFEFEF78CFE2060281C00F0BFFAE7
S1134C10201C00212030FEF785FCEB1C019390231F
S1134C20019A5B0513431022281C1A70032100F01B
S1134C30EEFA281C002100F010FB0A4BFC500A4B32
S1134C409A5D1F23134001229A40131C074A1360E4
S1134C509823019A5B05134340221A70F7BDC0469E
S1134C60CC61000020020020C861000000E100E0E7
S1134C700A4B800070B5C658094B0C1CC358151C50
S1134C80301C1A68096800F089FA28602179301C00
S1134C906279A37900F0CEFA70BDC046CC61000001
S1134CA020020020F7B51E4A83009C581D4A9E58D6
S1134CB022790423002A31D1071C002902D001AA39
S1134CC0FFF7D6FF982300214020F21C5B05134315
S1134CD01970187025698D4203D1381CFFF766FFDF
S1134CE01BE00123237194235B053343A1611978ED
S1134CF00723002912D0A368191E02D019780133A2
S1134D00A360B1712369013B2361A3690133A361EA
S1134D109C235B051A43802313700023181CFEBDDB
S1134D2020020020CC610000F8B5144F144C85001B
S1134D302C59ED590127069E2777A2602661E3606E
S1134D406661FFF7AFFF002801D0002014E0201CAB
S1134D5007992030FEF72EFC0328F8D00028F4D061
S1134D609C210022EB1C4905194322710A709421ED
S1134D70032049050B431A70F8BDC046CC610000FE
S1134D802002002010B51E4B8200D3581D495158F3
S1134D901A79002A32D05A69002A11D09C2252056D
S1134DA00A431278002A0BD08A79DC68D2B2002C2C
S1134DB003D02270DA680132DA605A69013A5A6122
S1134DC01A69002A12D0942252050A431278002A42
S1134DD00CD09A68141E02D0147801329A608C7137
S1134DE01A69013A1A619A6901329A611A69002AA8
S1134DF004D15B69002B01D1FFF7D8FE10BDC0467A
S1134E0020020020CC610000104A8000815800225A
S1134E1008B50F4B0331C358581CC2779C2040057A
S1134E200843DA621A701A835A629A621A63027029
S1134E309420400501430A701A1C38321278002A63
S1134E4003D0181D0121FEF784FB08BDCC610000CE
S1134E502002002038B5254B8200D35824495258EB
S1134E60591CC97F00293FD0D96A002916DB942137
S1134E70490511430978002910D0596A1C7F00297B
S1134E8005D0DD6A002D02DD0C7801315962947180
S1134E90D96A0139D962596B01315963D96A002938
S1134EA005DA9424D11C6405214300240C70196B89
S1134EB0002911DD9C2149051143097800290BD0F3
S1134EC09279996AD2B2002903D00A709A6A01329F
S1134ED09A621A6B013A1A63DA6A002A04DC1B6BC1
S1134EE0002B01DCFFF790FF38BDC04620020020F4
S1134EF0CC610000012903D0032909D1842300E0F7
S1134F0094235B0518430078431E9841C0B200E027
S1134F1000207047034B013049011843C9B20170A6
S1134F207047C04600008812942302305B05490193
S1134F301843C9B201707047034B0230890118430A
S1134F40C9B201707047C046000008138C230230B8
S1134F505B05C9001843C9B201707047F7B5384EF4
S1134F60C21C164337780B78FFB20122072B65D891
S1134F70041C181C0D1CFBF7FDFA04192A0D192A30
S1134F802A3A00232F480134044323703378012B39
S1134F90FCD152E00322012F50D14023294801348F
S1134FA0044323703378042BFCD146E00021012B09
S1134FB001D0042302213078032298423ED1201CE0
S1134FC0FFF7A8FF0421204A13698B4333E002272B
S1134FD0BB4207D100270B79BB4203D04979201C7F
S1134FE0FFF7AAFF194801340443277019E004238A
S1134FF01649621C0A4313706A78A31C0B431A7087
S11350006B78002B06D1AB78002B03D0E978201CF9
S1135010FFF78AFFAB79002B03D0E979201CFFF757
S113502095FF04213378084ADBB20193019B0133D5
S1135030019313690B43136130BF0022101CFEBDA2
S1135040000030100000881200ED00E00000101095
S1135050024B033018430078C0B270470000301090
S113506014308023012A04D18A401B0518430260AE
S113507005E0DB04184301238B40D94301607047EA
S113508001238B40002A01D0436000E08360704715
S11350900023C222037043708370C3704371837111
S11350A0C371037242728372C3727047F0B50027F2
S11350B089B00393FA2301253C1C9B0053430690BB
S11350C0079102936D4201970123A3400493174B68
S11350D09E1CCA330593049B318807985943FBF7F8
S11350E053FA029B029AC31A824200D9131AAB42A2
S11350F004D2B21E177801941D1E03D0059B0436FA
S11351009E42E8D10134032C01D0002DDCD1039B55
S1135110002B00D01D603F231F40019B9B011F43B8
S1135120069BFFB25F7009B0F0BDC046E6610000A7
S1135130942302305B0503431B78002B04D088239F
S11351405B051843042303E080231B051843302325
S1135150037070479422831C52051A431278011C71
S11351600220012A12D18022D2041343CF221A70C2
S11351708022D2002023C878034004D0013A002AB8
S113518003D0C046F6E7181C00E00920704704234A
S1135190C37000238370437003717047F0B5130B21
S11351A089B001250493082300266D4203935B19FB
S11351B0079005910692029302270024731C191C80
S11351C0069879430193FBF7DFF9059B834206D3E5
S11351D01B1A9D4203D91D1C0490039402960134AA
S11351E07F00092C02D0002DE8D104E0072E02D064
S11351F0019E002DE0D17022029B04981B011340F4
S1135200039A1343079ADBB2537009B0F0BD8422AA
S1135210C31C52051A4301230B405B00DBB213701D
S113522090238907C90F5B05023009011843C9B2ED
S11352300170704710B58C2403306405C900044321
S1135240C9B221708821920049050143D2B20A7083
S1135250802252051043037010BD802301220230C6
S11352605B0503430A401A708C238907C90F5B0549
S1135270C9001843C9B201707047011C002008B569
S1135280021C031C00F03EF908BD0000014B186825
S11352907047C046ACFFFF1F084B10B5041C002B21
S11352A002D0002100F08AF9054B1868836A002BAC
S11352B000D09847201C00F0F5F9C046BD55000009
S11352C0B062000038B5074B074C1D1CE41AA4104B
S11352D0002C04D0013CA300EB589847F8E700F0F9
S11352E0EFFF38BDD8620000DC6200000E4B70B5E1
S11352F000251E1C0D4CE41AA410A54204D0AB00DA
S1135300F35898470135F8E700F0D4FF084B00251F
S11353101E1C084CE41AA410A54204D0AB00F35898
S113532098470135F8E770BDD4620000D4620000EC
S1135330D4620000D862000008B5034B011C186851
S113534000F066F808BDC046ACFFFF1F08B5034B6C
S1135350011C186800F016F808BDC046ACFFFF1F1A
S1135360002310B5934203D0CC5CC4540133F9E755
S113537010BD031C8218934202D019700133FAE75E
S11353807047000030B500293ED004390B68002B6B
S113539000DAC9181D4A1368141C002B02D14B6093
S11353A0116031E099420DD208680A189A4203D17B
S11353B01368C3180B6053684B60216024E08A4271
S11353C003D8131C5A68002AF9D11D685C198C4251
S11353D00BD10968691858181960904214D11068E3
S11353E05268091819605A600EE08C4202D90C23E5
S11353F0036009E008680C18944203D114685268E9
S1135400001908604A60596030BDC0462802002077
S1135410032370B5CC1C9C430834051C0C2C01D20E
S11354200C2405E0002C03DA0C2300202B6042E05E
S11354308C42F9D3204A1368101C191C002913D07C
S11354400A68121B0DD40B2A02D90A608B181FE0BC
S11354508B4202D15A6802601BE04A685A600B1CF6
S113546017E00B1C4968E9E7144E3368002B03D19D
S1135470281C00F025F83060281C211C00F020F8BE
S1135480031C421CD0D00322C61C964386420AD178
S11354901C60181C07210B301A1D8843821A0AD07D
S11354A05142995007E0311A281C00F009F8431CB6
S11354B0BAD0331CECE770BD28020020240200207F
S11354C038B50023064C051C081C2360FCF72CF897
S11354D0431C03D12368002B00D02B6038BDC04689
S11354E0BC020020031C0A7801311A700133002A1F
S11354F0F9D170470023C25C0133002AFBD1581E46
S113550070470000F7B52A4D061C2C680091171C43
S11355100193002C01D1274C2C6063681F2B15DDEF
S1135520254B002B02D10120404240E08C20FFF7A4
S113553003FF041EF7D02A6800230260021C88328D
S11355404360286013609E420AD128E0002E26D0D2
S1135550231C88331868002810D1174B002BE2D085
S113556084204000FFF7E8FE0028DCD0031C002262
S1135570FC335A609A60231C8833186001226168E6
S11355808A408B00C31880C3FC30416811434160DA
S11355900199D967022E02D183681A4382600020E0
S11355A063685A1C62600233009A9B001A51FEBD64
S11355B0B80200202C02002039530000F0B587B057
S11355C005900391344D2C68002C63D0231C883340
S11355D01E6863685A1E0192304A9B189B00F71894
S11355E00433E3180293019B002B3DDB039B002B48
S11355F007D0002E31D03B1C80331B68039A9342A2
S11356002BD16268029B0199013A5B68914201D1F6
S1135610616002E0002202994A60002B1DD062689A
S11356200492002E07D0012201998A40311CFC31DA
S11356304868104201D1984708E08968114203D1B3
S113564005983968984701E038689847049B626870
S11356509342B7D12B68A342B4D1019B043F013BD1
S11356600193029B043BBDE70D4B002B12D06268F3
S11356702368002A0BD1002B09D02B60002E02D006
S1135680301CFFF763FE201CFFF760FE9BE7251C20
S11356901C1C99E707B0F0BDB8020020FFFFFF3FD4
S11356A04D530000FEE7C0462200005F3F003F006C
S11356B0003F00000300000032000000030000006F
S11356C003000000600A00004E090000340A0000D4
S11356D03A090000340A00003E0A0000340A0000BF
S11356E03A0900004E0900004E0900003E0A00007D
S11356F03A0900004409000044090000440900007C
S1135700A60C0000C01000009E1000009E100000B7
S113571092100000860F0000860F00008610000023
S113572092100000860F000086100000860F000013
S1135730921000008A0F00008A0F00008A0F0000F8
S1135740A01200001B5B306D1B5B343B34336D1BBC
S11357505B313B33376D0D53616E69747920636837
S113576065636B206661696C6564211B5B306D0A3F
S1135770001B5B306D1B5B343B34316D1B5B313B79
S113578033376D0D496E76616C6964207375707082
S11357906C7920766F6C74616765205B25645D208D
S11357A06D56211B5B306D0A000A0A0A0D426F6FA9
S11357B074696E6720576172702C20696E20332ED5
S11357C02E2E2000322E2E2E2000312E2E2E0A0DAB
S11357D0000D0A0A0A0A5B202A0909090957096106
S11357E00972097009287265762E2062290909094F
S11357F02A205D0A000D5B202009090909202020C8
S113580020202043616D627269646765202F2050F7
S1135810687973636F6D706C6162202020090909D7
S11358200920205D0A0A000D09537570706C793DDA
S113583025646D562C0944656661756C7420546149
S11358407267657420526561642052656769737478
S113585065723D3078253032780A000D09493243AB
S11358603D25646B622F732C095350493D25646BAD
S1135870622F732C09554152543D25646B622F737A
S11358802C094932432050756C6C2D55703D2564AC
S11358900A0A000D0953494D2D3E53434743363DF3
S11358A030782530327809095254432D3E53523D05
S11358B030782530327809095254432D3E545352DE
S11358C03D3078253032780A000D094D43475F4357
S11358D0313D3078253032780909094D43475F431B
S11358E0323D30782530327809094D43475F533DC6
S11358F03078253032780A000D094D43475F534311
S11359003D3078253032780909094D43475F4D43CE
S11359103D30782530327809094F53435F43523D77
S11359203078253032780A000D09534D435F504DCD
S113593050524F543D307825303278090909534D7F
S1135940435F504D4354524C3D30782530327809F2
S1135950095343422D3E5343523D3078253032782B
S11359600A000D09504D435F52454753433D30787B
S11359702530327809090953494D5F53434743346D
S11359803D307825303278095254432D3E545052DC
S11359903D3078253032780A0A000D0925647320D9
S11359A0696E205254432048616E646C65722074A1
S11359B06F2D646174652C09256420506D67722015
S11359C04572726F72730A000D53656C6563743AA5
S11359D00A000D2D202778273A2064697361626CD0
S11359E0652053574420616E64207370696E20668D
S11359F06F7220313020736563732E0A000D2D20E1
S1135A00277A273A2064756D7020616C6C20736569
S1135A106E736F727320646174612E0A000D2D2001
S1135A202731273A207265616420494E4132313969
S1135A30207265676973746572732E0A000D2D20D8
S1135A402732273A20506C61636520706F696E7449
S1135A50206F6E204F4C45440A000D2D202733271C
S1135A603A205265616420616C6C20616363656CEB
S1135A7065726174696F6E732028582C592C5A29E9
S1135A8020666F72206461746120636F6C6C65635F
S1135A9074696F6E0A000D2D202735273A20526F46
S1135AA077696E672053797374656D0A000D2D2034
S1135AB02739273A2052656164206E20616363654B
S1135AC06C65726174696F6E73200A000D456E74A3
S1135AD065722073656C656374696F6E3E20000D9A
S1135AE009200A200A5374726F6B6520436F756E28
S1135AF0740A000D0925640A000D09200A200A50C1
S1135B00756C6C696E6720666F726365206461747E
S1135B10610A000D090A2025640A000D0925642C78
S1135B202025640A000D09200A200A582C20592C2B
S1135B30205A0A000D0925642C2025642C20256494
S1135B400A000D09200A200A5820416363656C6528
S1135B50726174696F6E0A0057726974696E6720A6
S1135B60303020746F20393920746F204F4C4544F5
S1135B70000D0A095072696E74696E67204D4D41BB
S1135B803834353151207265676973746572203118
S1135B903030302074696D6573200A000D09307847
S1135BA025303478202D2D3E2025640A000D09204F
S1135BB00A200A5920416363656C65726174696FD8
S1135BC06E0A000D09200A200A5A20416363656C9D
S1135BD065726174696F6E0A000D095061796C6FAA
S1135BE0616473206D616B6520726F636B657473A0
S1135BF0206D6F7265207468616E206A75737420FD
S1135C0066697265776F726B732E000D09496E7643
S1135C10616C69642073656C656374696F6E2027B9
S1135C2025632720210A004D6561737572656D65D2
S1135C306E74206E756D6265722C205254432D3E35
S1135C405453522C205254432D3E5450522C002075
S1135C504D4D413834353120782C204D4D41383468
S1135C60353120792C204D4D4138343531207A2C72
S1135C7000205254432D3E5453522C205254432D51
S1135C803E5450522C202320436F6E666967204592
S1135C9072726F72730025752C2025642C20256484
S1135CA02C002025642C2025642C2025640A000D5A
S1135CB009307825303278202D2D3E205B30782530
S1135CC030327820307825303278203078253032E0
S1135CD0785D0A000D09307825303278202D2D3E6C
S1135CE0203078253032780A000D0930782530329A
S1135CF078202D2D3E202D2D2D2D0A000D0A09254D
S1135D00642F2564207375636365737320726174F3
S1135D10652E0A000D0925642F25642073756363BD
S1135D206573736573206D6174636865642072655F
S1135D30662E2076616C7565206F6620307825307C
S1135D4032782E0A000D0925642062616420636F95
S1135D506D6D616E64732E0A0A000D0A0941445880
S1135D604C33363220526561642041626F7274652F
S1135D70642E204465766963652044697361626CAE
S1135D806564203A28000D0A4D4D413834353151AF
S1135D903A0A0D000D0A494E413231393A0A0D00D2
S1135DA00D0A0A424D45363830205265616420415F
S1135DB0626F727465642E2044657669636520445D
S1135DC0697361626C6564203A28000D0A09424DCA
S1135DD058303535616363656C20526561642041D8
S1135DE0626F727465642E2044657669636520442D
S1135DF0697361626C6564203A2820000D0A0942C7
S1135E004D583035356779726F2052656164204191
S1135E10626F727465642E204465766963652044FC
S1135E20697361626C6564203A2820000D0A0920B8
S1135E30424D583035356D616720526561642041AB
S1135E40626F727465642E204465766963652044CC
S1135E50697361626C6564203A2820000D0A094D5B
S1135E6041473331313020526561642041626F72A1
S1135E707465642E204465766963652044697361A2
S1135E80626C6564203A2820000D0A094C334744AB
S1135E9032304820526561642041626F72746564D7
S1135EA02E204465766963652044697361626C657C
S1135EB064203A2820000D0A094C505332354820FA
S1135EC0526561642041626F727465642E2044657A
S1135ED0766963652044697361626C6564203A285D
S1135EE020000D0A095443533334373235205265A8
S1135EF061642041626F727465642E204465766922
S1135F0063652044697361626C6564203A282000EB
S1135F100D0A0953493437303520526561642041F4
S1135F20626F727465642E204465766963652044EB
S1135F30697361626C6564203A2820000D0A09487F
S1135F4044433130303020526561642041626F72C5
S1135F507465642E204465766963652044697361C1
S1135F60626C6564203A2820000D0A0953493730D1
S1135F70323120526561642041626F727465642E0F
S1135F80204465766963652044697361626C656465
S1135F90203A2820000D0A09434353383131205256
S1135FA06561642041626F727465642E2044657675
S1135FB06963652044697361626C6564203A2820D2
S1135FC0000D0A09414D4738383334205265616465
S1135FD02041626F727465642E204465766963653E
S1135FE02044697361626C6564203A2820000D0ABC
S1135FF00941533732363220526561642041626F61
S1136000727465642E2044657669636520446973FF
S113601061626C6564203A2820000D0A09415337F7
