:1000000000060020310500005905000059050000D8
:1000100000000000000000000000000000000000E0
:100020000000000000000000000000005905000072
:100030000000000000000000590500005905000004
:100040005905000059050000590500005905000038
:100050005905000059050000590500005905000028
:1000600001370000590500000B370000590500005A
:100070005905000059050000590500005905000008
:1000800059050000590500005905000059050000F8
:10009000E5080000FD0800005905000059050000B2
:1000A00059050000590500005905000059050000D8
:1000B00059050000590500005905000059050000C8
:10040000FFFFFFFFFFFFFFFFFFFFFFFFFE3DFFFFBF
:1004100008B5054B054803331B1A062B03D9044BBB
:10042000002B00D0984708BDB4FFFF1FB4FFFF1F8B
:10043000000000000648074908B5091A8910CB0FCB
:100440005918491003D0044B002B00D0984708BD21
:10045000B4FFFF1FB4FFFF1F0000000010B5074CE2
:100460002378002B09D1FFF7D3FF054B002B02D0D7
:10047000044800E000BF0123237010BDB4FFFF1F3C
:1004800000000000E073000008B5094B002B03D00A
:100490000848094900E000BF08480368002B02D162
:1004A000FFF7C8FF08BD064B002BF9D09847F7E7C8
:1004B00000000000E0730000B8FFFF1FB0FFFF1F47
:1004C00000000000144B002B00D1124B9D4640222F
:1004D00092029A1A924600218B460F461148124A00
:1004E000121A05F024F90D4B002B00D098470C4B45
:1004F000002B00D098470020002104000D000B487D
:1005000005F099F805F0D0F82000290000F0E0FE91
:1005100005F0A0F800000800000600200000000020
:1005200000000000B4FFFF1FD00200208156000031
:1005300072B606480649074A02600A6003F0EAF804
:1005400003F02AF962B6FFF7BDFF000080E100E08A
:1005500080E200E0FFFFFFFF004800475905000070
:1005600002B4714649084900095649008E4402BC4C
:100570007047C04602B4714649084900095C490009
:100580008E4402BC7047C046002243088B4274D39D
:1005900003098B425FD3030A8B4244D3030B8B4284
:1005A00028D3030C8B420DD3FF22090212BA030C8D
:1005B0008B4202D31212090265D0030B8B4219D36E
:1005C00000E0090AC30B8B4201D3CB03C01A52418E
:1005D000830B8B4201D38B03C01A5241430B8B42D6
:1005E00001D34B03C01A5241030B8B4201D30B03BF
:1005F000C01A5241C30A8B4201D3CB02C01A5241E6
:10060000830A8B4201D38B02C01A5241430A8B42A8
:1006100001D34B02C01A5241030A8B4201D30B0291
:10062000C01A5241CDD2C3098B4201D3CB01C01AAB
:10063000524183098B4201D38B01C01A52414309B5
:100640008B4201D34B01C01A524103098B4201D3A3
:100650000B01C01A5241C3088B4201D3CB00C01A10
:10066000524183088B4201D38B00C01A5241430888
:100670008B4201D34B00C01A5241411A00D20146AD
:10068000524110467047FFE701B5002000F0FCF82A
:1006900002BDC0460029F7D003B5FFF775FF0EBCB9
:1006A0004243891A1847C04603460B437FD40022B1
:1006B00043088B4274D303098B425FD3030A8B42F6
:1006C00044D3030B8B4228D3030C8B420DD3FF2260
:1006D000090212BA030C8B4202D31212090265D02E
:1006E000030B8B4219D300E0090AC30B8B4201D3E1
:1006F000CB03C01A5241830B8B4201D38B03C01A28
:100700005241430B8B4201D34B03C01A5241030B9E
:100710008B4201D30B03C01A5241C30A8B4201D34F
:10072000CB02C01A5241830A8B4201D38B02C01AFA
:100730005241430A8B4201D34B02C01A5241030A71
:100740008B4201D30B02C01A5241CDD2C3098B4256
:1007500001D3CB01C01A524183098B4201D38B01D3
:10076000C01A524143098B4201D34B01C01A524176
:1007700003098B4201D30B01C01A5241C3088B42BB
:1007800001D3CB00C01A524183088B4201D38B00A6
:10079000C01A524143088B4201D34B00C01A524148
:1007A000411A00D201465241104670475DE0CA0F1F
:1007B00000D04942031000D34042534000229C46DF
:1007C00003098B422DD3030A8B4212D3FC228901E9
:1007D00012BA030A8B420CD3890192118B4208D3BF
:1007E000890192118B4204D389013AD0921100E021
:1007F0008909C3098B4201D3CB01C01A5241830935
:100800008B4201D38B01C01A524143098B4201D361
:100810004B01C01A524103098B4201D30B01C01A8C
:100820005241C3088B4201D3CB00C01A5241830806
:100830008B4201D38B00C01A5241D9D243088B425C
:1008400001D34B00C01A5241411A00D201466346FF
:1008500052415B10104601D34042002B00D5494263
:10086000704763465B1000D3404201B5002000F0A2
:100870000BF802BD0029F8D003B5FFF715FF0EBC39
:100880004243891A1847C0467047C04608B50A4B0C
:100890001A68002A01D1094A1A601A680849101812
:1008A000884206D904F0D0FE0C23036001204042A8
:1008B00001E01860101C08BDD0FFFF1FD00200200F
:1008C000D00200200223807883428041404270475A
:1008D000437A0020013B012B03D901200B7801331F
:1008E0000B70704708B5002004F0ECFA002803D024
:1008F0000020011C04F0DAFA08BD0000024A136867
:10090000013313607047C0462000002037B5002037
:1009100003F0DCF9C02300250D4A9B0013600D4A4B
:100920000D4C13600D4A281C13600D4B2571657129
:10093000A5711A68FA239B0053430A49236004F007
:100940000FFB281C211C01AA04F072FB37BDC04616
:10095000189014541C9014541800002000A0145433
:1009600014FEFF1F2400002010B58024002004F096
:100970003BFB0A4B64001C60094B07201C60094BC1
:100980001C6003F03DFC062003F03AFC201C03F041
:1009900037FC002003F09FF910BDC0461890145496
:1009A0001C90145400A0145408B5002003F098F9CA
:1009B0008023054A9B001360044A00201360044909
:1009C00003F0FEFC08BDC0460CA0145410A0145443
:1009D000D4FFFF1F08B5002003F02EFD80238220E6
:1009E000074A5B001360074A4000136003F008FCED
:1009F0000420FF3003F004FC002003F076F908BD6A
:100A00000CA0145410A0145408B50023354A3649DC
:100A10001360364A1360364A0133FF331360354A98
:100A20001360354A1360354A1360354A1360354AFE
:100A30001360354A1360012208780240081C3349CC
:100A4000002A01D00B6000E00A60314A314913608E
:100A500000220A6030490A60304A1360304A13604D
:100A6000304A1360304A1360304A1360304A1360D2
:100A70000378DB0703D50220FF3003F0B3FB092026
:100A800003F0BEFB0C2003F0BBFB052003F0B8FB1A
:100A9000082003F0B5FB0620FF3003F0B1FB0E2069
:100AA000FF3003F0ADFB8320400003F0A9FB0820DA
:100AB000FF3003F0A5FB0C20FF3003F093FB8220F6
:100AC000400003F09DFB0420FF3003F099FB07205A
:100AD00003F096FB062003F093FB8020400003F018
:100AE0008FFB08BD0C9014540CFEFF1F1090145483
:100AF00014901454189014541C90145420901454AE
:100B0000249014543090145400A0145404A014548D
:100B100008A014540CA0145410A0145414A014547D
:100B200018A014541CA0145428A014542CA014541D
:100B300034A0145408B5092003F062FB08BD08B5C1
:100B40000C2003F05DFB08BD08B5384B984259D026
:100B500013D8374B984243D007D8364B984230D001
:100B60006433984238D0C83B12E0334B98423ED0B1
:100B70006433984242D0314B15E0314B98422FD02C
:100B80000CD8304B98421CD06433984224D02E4B62
:100B9000984242D1052003F033FB15E02B4B9842DD
:100BA00025D006D82A4B984237D1052003F028FBE0
:100BB00020E0C8231B01984220D0264B984221D028
:100BC0002BE0052003F00EFB082003F019FB0620A4
:100BD000FF3003F015FB24E0052003F011FB02E0D9
:100BE000052003F0FFFA082003F0FCFAEFE70520E8
:100BF00003F0F8FA082003F003FB09E0052003F0F6
:100C0000FFFA02E0052003F0EDFA082003F0EAFA0B
:100C10000620FF3003F0E6FA03E000200E4902F060
:100C200063FD0E4B186802F07BFE08BDC40900008E
:100C3000340800006C070000FC0800009808000061
:100C4000540B00008C0A0000280A00001C0C000055
:100C5000B80B0000E40C0000745A000008FEFF1FEF
:100C600008B5FFF771FF092003F0BCFA0C2003F070
:100C7000C7FA8320400003F0C3FA08BD08B5FFF7A8
:100C800063FF092003F0BCFA0C2003F0ABFA8320C9
:100C9000400003F0A7FA08BDAF2108B50B4B021CBA
:100CA000C3189BB289008B4202D8FFF7D9FF0BE033
:100CB000074BC3189BB28B4202D8FFF7DFFF03E05C
:100CC0000020044902F010FD08BDC046F8F8FFFFFF
:100CD000D8F5FFFFA15A000008B5FFF72BFFFFF77B
:100CE0002EFF8320400003F07DFA024B186802F0CB
:100CF00017FE08BD08FEFF1F10B5041C002901D017
:100D0000FFF782FE0021022001F096FA211C042048
:100D100001F092FA10BD08B501200021FFF7ECFFA9
:100D20003C200121FFF7E8FFF6E70000F0B585B0B1
:100D30000391041C161C00209AB2012101F03CFB17
:100D4000071C002C1CD01C49002002F0BDFA1B4CD3
:100D5000206802F0E5FD1A49002002F0B5FA20688B
:100D600002F0DEFD1749002002F0AEFA206802F022
:100D7000D7FD0020144902F0A7FA206802F0D0FD48
:100D80000025124C124923686268002000922A1C38
:100D900002F0AAFC039801F051FB2268002063686E
:100DA0000C49009702F0A0FC002E02DD301C02F07E
:100DB000B7FD0135E5E7C046D95A000000FEFF1F28
:100DC000015B0000235B0000666B000000D0034065
:100DD000485B0000545B0000F0B591B01D1C16ABE1
:100DE0000C91197817AB05921A7818AB1B78041C74
:100DF0000D931CAB1B780EA80E931DAB1B8808939C
:100E000021231B18DB7F09931FAB1B880F9320AB9B
:100E10001B780A930B1C914200D9131CDFB2059B6F
:100E2000002D02D1002B06D101E0002B03D00020C1
:100E3000544902F059FC0898FFF72EFF211C0020AE
:100E400002F042FA0023089C029303930793049351
:100E500000230693069A199B93426BDB00261A9B8C
:100E60009E4264DABB190B932C226B469B181878B0
:100E700001210C9B9847002838D1049B013304932F
:100E8000089B9C4204D9643CA4B2201CFFF704FFD9
:100E9000002D16D0099A6B7BD31A5A425341039AFC
:100EA000D31803930A9B002B39D0EB7A287B697BFC
:100EB00000900191DBB2F2193349002002F014FCDA
:100EC0002DE0059B099A1B7AD31A5A425341039A83
:100ED000D31803930A9B002B21D0059BF2191B7A90
:100EE000281CDBB2294902F0FFFB18E0022810D1D0
:100EF000002027490B9A02F0F7FB079B0133079369
:100F00000F9B9C420BD26434A4B2201CFFF7C4FE9A
:100F100005E0033843425841029B1B1802931B9B78
:100F2000002B02DD181C02F0FBFC013697E7069B44
:100F300001338EE70E9B002B04D07B1CDFB20D9B90
:100F40009F4285D9049A079B944612496344002026
:100F500002F0CAFB322002F0E3FC099B039A0093E3
:100F60000D49049B002002F0BFFB322002F0D8FCA8
:100F70000A49029A002002F0B7FB322002F0D0FCAE
:100F800011B0F0BD745A0000615B0000865B000088
:100F90009B5B0000AE5B0000C65B0000F75B0000DF
:100FA000F0B591B00D9316AB0F1C02CB041C1B784F
:100FB0000E931AAB1B880F931BAB1D881CAB1E78BE
:100FC000002811D0101CFFF7EFFC601E132877D803
:100FD000FFF7D0FA0E45484B4E765154575A5D6094
:100FE000636966766C6F7625394902F06DF96DE0BC
:100FF000312200230292199A00970392169A0193C4
:101000000492189A089605920D9A099506920F9ADD
:10101000304807920E9A30490A92304A1CE0A021CB
:101020008022C9011202052001F0BEFF0522002323
:101030000292199A2A480392169A2A490492189AF7
:10104000009705920D9A019306920F9A08960792BF
:101050000E9A09950A92244AFFF7BEFE2DE0002061
:10106000224928E00020224925E00020214922E0F1
:10107000002021491FE0002020491CE000202049D9
:1010800019E000201F4916E000201F4913E000204E
:101090001E4910E000201E490DE000201D490AE015
:1010A00000201D4907E000201C4904E000201C49E5
:1010B00001E000201B4902F007F9FFF78BFC05E077
:1010C0001949221C002002F00FFBF6E711B0F0BD19
:1010D0000C5C0000385C0000D923000008000020F0
:1010E000465C0000FD2F0000F8FFFF1F525C00006F
:1010F0007D5C0000AE5C0000DE5C00000E5D000068
:101100003B5D0000685D0000945D0000C25D000072
:10111000EE5D00001B5E0000475E0000735E000095
:10112000A05E0000CC5E0000F85E0000031C303BB7
:10113000021C181E09280CD9131C613B052B01D871
:10114000573A05E0131C413B0020052B01D8373AE4
:10115000101C704770B502F0D2F8051C02F0CFF8F1
:10116000FF24061C281C2040FFF7E0FF051C301C54
:101170002040FFF7DBFF2D012818C0B270BDF8B585
:1011800002F0BDF8051C02F0BAF8041C02F0B7F832
:10119000071C02F0B4F8061CA8B2FFF7C7FF051C35
:1011A000A0B2FFF7C3FF2D030002281885B2B8B222
:1011B000FFF7BCFF041CB0B2FFF7B8FF24012818EA
:1011C000001980B2F8BD70B502F099F8041C02F065
:1011D00096F8061C02F093F8051C02F090F8FF2325
:1011E000FA221C401D409200303C544364212A1CCA
:1011F0001E40303E4E43303A5A394A43A419034008
:10120000A218303BD01870BD70B50C1C161C88B0ED
:101210000CAA157806A908800A4A05A805700A4D87
:1012200012682D684A6004AA167000900193029516
:10123000231C002003F026FA431E9841400008B00A
:1012400070BDC04610FEFF1F18FEFF1FF7B56A46AF
:10125000CB1DDB08DB00D31A02AF9D46051C0C1C1E
:10126000FFF754FBFA23002002AE9B002A1C0094D7
:101270000193011C331C03F037FF041CFFF774FBC0
:10128000201CBD46441EA0418000F2BD08B50020D0
:10129000014902F019F808BD4A5F000010B5094C79
:1012A0000020211C02F010F8211C002002F00CF894
:1012B0000549002002F008F80449002002F004F873
:1012C00010BDC046765F0000A65F0000D75F00003B
:1012D000F0B5B9B025AC00210722201C04F027FA94
:1012E000FA4A01252C92032215AB2F9317AB3093AA
:1012F00019AB32931DAB34931FAB359321AB3693AF
:1013000023AB37932CAB1BAF1A71002011AA2E927E
:10131000149333972570319402F0D0FC281C02F00E
:10132000CDFC8022EA4B12021A6002F017FB00206B
:101330000095021C031C011C01F0E8FFE549002098
:1013400001F0C2FFC82002F0EBFAE349002001F0EF
:10135000BBFFC82002F0E4FAE049002001F0B4FF2E
:10136000C82002F0DDFADE4A2B1C0221DD4802F023
:1013700019FB291C281C02F021FB002003F0DEFCD5
:101380000026FC2329A9DB00301C0B804D808D80BA
:10139000CE800E818E7203F0FFFC311C2A1C11A836
:1013A00004F0C5F94820259B08A91993A2880918BB
:1013B0000A80A279023008A909180A70442108AAF3
:1013C0005218413911701B93A28808A9BA80A279DA
:1013D0001038BA7105223A701593A28802270A873D
:1013E000A27909180A70342108AA521817701793A5
:1013F000A288063008A909180A80A279C01908A98C
:1014000009180A700422063808A909180A701D93E1
:10141000A2881C3008A909180A80A279C01908A955
:1014200009180A700822063808A909180A701F93BB
:10143000A2880C3008A909180A80C019A27908A945
:1014400009180A700921063808AA12181170219388
:10145000A3880C3008AA12181380A379C01908AA0F
:10146000121813700A23063808AA121813706C2277
:1014700008AB9B181E7014AA2B1C2FA802F07EFC30
:10148000381C311C00F0D8FE9749984802F08EFEB7
:10149000FFF7BAFA0820FF3002F0A4FEC82002F0DD
:1014A0003FFA0820FF3002F0ABFEC82002F038FA05
:1014B0000820FF3002F096FEC82002F031FA082022
:1014C000FF3002F09DFEC82002F02AFA0820FF300B
:1014D00002F088FEC82002F023FA0820FF3002F054
:1014E0008FFE1D20824900F03FFF4020814901F01E
:1014F00055FD8027FFF7F0FB01F0A4FC331C089694
:1015000009963F020B9603330A937B49002001F0B2
:10151000DBFE7A4C7A4E206802F002FA794900200C
:1015200001F0D2FE206802F0FBF97749089A099B86
:10153000002002F0D9F8206802F0F2F9734B744DE4
:1015400074491A682B680968002000910197724954
:1015500002F0CAF8206802F0E3F9704B704A0020EC
:10156000D2587369316800916E4902F0BDF8206865
:1015700002F0D6F96C4B6C491A785B788979D2B253
:10158000DBB200910020694902F0AEF8206802F059
:10159000C7F9654B66491A7A1B7E0978D2B2DBB26D
:1015A00000910020634902F09FF8206802F0B8F92A
:1015B000614B62491A785B780969D2B2DBB200915B
:1015C00000205F4902F090F8206802F0A9F95D4B15
:1015D00053499A785C4BD2B2CB5871680020009185
:1015E0005A4902F081F8206802F09AF9584B59499B
:1015F0001A6811AB1B78002002F076F8206802F020
:101600008FF95549002001F05FFE206802F088F94B
:101610005249002001F058FE206802F081F950493B
:10162000002001F051FE206802F07AF94D490020B7
:1016300001F04AFE206802F073F94B49002001F0E6
:1016400043FE206802F06CF94849002001F03CFE9E
:10165000206802F065F94649002001F035FE206857
:1016600002F05EF94349002001F02EFE206802F0EE
:1016700057F94149002001F027FE206802F050F997
:101680003E49002001F020FE206802F049F9099A45
:101690000A9B3B49002002F027F8206802F040F93D
:1016A0003849002001F010FE206802F039F936496F
:1016B000002001F009FE206802F032F933490020D1
:1016C00001F002FE206802F02BF961E0D108000071
:1016D0002802002009600000246000002A60000049
:1016E00028FEFF1F34FFFF1F44FEFF1F34FEFF1FB5
:1016F00008000020F8FFFF1F3160000000FEFF1F00
:1017000000D00340556000008760000010FEFF1FFE
:1017100014FEFF1F04FEFF1FBB6000003C10000012
:1017200000700440F36000000040064029610000A2
:10173000005006405861000000E0074000ED00E066
:101740008861000000D0074034100000C261000032
:1017500020000020FA6100002862000032620000D0
:101760004F6200006B62000087620000A46200000C
:10177000CB620000EA6200000963000034630000ED
:101780005763000086630000A2630000C663000088
:10179000BF49002001F098FD206802F0C1F8BD4962
:1017A000002001F091FD206802F0BAF8BA4900204B
:1017B00001F08AFD206802F0B3F8B849002001F07A
:1017C00083FD206802F0ACF8B549002001F07CFDF3
:1017D000206802F0A5F8B349002001F075FD2068EB
:1017E00002F09EF8B049002001F06EFD206802F082
:1017F00097F8AE49002001F067FD206802F090F8EC
:10180000AB49002001F060FD206802F089F8A94989
:10181000002001F059FD206802F082F8A64900205E
:1018200001F052FD206802F07BF8A449002001F08D
:101830004BFD206802F074F8A149002001F044FD3E
:10184000206802F06DF89F49002001F03DFD2068FE
:1018500002F066F89C49002001F036FD206802F095
:101860005FF89A49002001F02FFD206802F058F837
:1018700001F045FDFF22061C0240672A00D149E223
:1018800000DDD3E0362A01D100F012FC00DD9DE03E
:10189000322A00D1BCE300DD89E00A2A01D100F040
:1018A0006FFC312A01D000F071FC8949002001F061
:1018B0000BFD381CFFF778F80221002001F09EFB99
:1018C000844C854D227A617A237A607A12020090E4
:1018D0000020521892B2DBB20192291C021C01F0C6
:1018E00003FF0221012001F089FB227A617A1202B2
:1018F000237A5218607A92B2DBB200900192291CCE
:101900000122002001F0F0FE0220011C01F076FB14
:10191000227A617A1202237A5218607A92B2DBB28A
:1019200000900192291C0222002001F0DDFE02211C
:10193000032001F063FB227A617A1202237A5218A3
:10194000607A92B2DBB200900192291C032200203F
:1019500001F0CAFE0221042001F050FB207A637AD4
:101960000002267AC018637A80B20A21009301909F
:10197000FEF70AFEF6B280B2331C029004225749E9
:10198000002001F0B1FE0221052001F037FB227A90
:10199000617A1202237A5218607A92B20090019210
:1019A000DBB2291C0522002001F09EFEADE5342AA1
:1019B00000D150E300DD61E3FA244949002001F041
:1019C00083FC381CFEF7F0FFA40031E3632A00D14A
:1019D00040E11ADC612A00D190E000DD26E1392ADD
:1019E00000D0D3E3FA243F49002001F06DFC381CFD
:1019F000FEF7DAFF01213A1C2A2000F0BAFC002091
:101A0000394901F071FEA40067E3652A00D132E193
:101A100000DD3BE13549002001F056FCFFF7D3FB28
:101A2000334B344918601A680020B1E36F2A00D1A3
:101A30002BE214DC6B2A00D1DCE10CDC692A00D13A
:101A400074E100DD7DE12C49002001F03DFC012026
:101A5000FFF724FC59E56D2A00DD11E2D0E1742A7C
:101A600000D152E509DC722A00D112E200DD16E253
:101A70000220702A00D10DE288E3782A00D196E294
:101A80007A2A00D19DE2752A00D07FE380E2C04629
:101A9000EA630000046400001F6400003D6400006D
:101AA0005A6400007964000098640000B264000089
:101AB000DD640000FD6400001D6500003A65000063
:101AC000586500006F65000086650000A565000090
:101AD000D7700000F8FFFF1FF570000015710000BF
:101AE0005C710000DA710000AB710000D26A000086
:101AF00004FEFF1F016B0000706C0000EC49002029
:101B000001F0E2FBEB49002001F0DEFB206801F070
:101B100007FFE949002001F0D7FBE849002001F068
:101B2000D3FBE749002001F0CFFB206801F0F8FE6D
:101B3000E449002001F0C8FB206801F0F1FEE24911
:101B4000002001F0C1FB206801F0EAFEDF4900201F
:101B500001F0BAFB206801F0E3FEDD49002001F04E
:101B6000B3FB206801F0DCFEDA49002001F0ACFB99
:101B7000206801F0D5FED849002001F0A5FB2068BF
:101B800001F0CEFED549002001F09EFB206801F057
:101B9000C7FED349002001F097FB206801F0C0FE8A
:101BA000D049002001F090FB206801F0B9FECE4939
:101BB000002001F089FB206801F0B2FECB49002033
:101BC00001F082FB206801F0ABFEC949002001F062
:101BD0007BFB206801F0A4FEC649002001F074FBE5
:101BE000206801F09DFEC449002001F06DFBC3494F
:101BF000002001F069FB206801F092FEC04900203E
:101C000001F062FB206801F08BFE01F078FBFF22FF
:101C10000240352A03D1BB4B0B93012374E46D2A98
:101C200000D0B3E2B84B0B9314236DE4B749002006
:101C300001F04AFBFFF7C7FAB54B18601A68B54BBD
:101C40009A4202D1B44BB24A1360B14B00201A68D9
:101C5000B2499DE2B249002001F036FBFFF7B3FA2A
:101C600028602A68AB4B9A4201D1AB4B2B602A68A3
:101C70000020AC498CE2AC49002001F025FBFFF7C5
:101C800069FA0990A9490020099A81E2A84900202F
:101C900001F01AFBFFF75EFA051CA64C2A1C211C5A
:101CA000002001F021FDA449002001F00DFBFFF709
:101CB00051FA12AE021C3070211C002001F014FDFC
:101CC000992D02D100209D495CE2914B27AC1B6805
:101CD000089828932580FEF7DFFF381CFEF764FE86
:101CE00024216B465B181B7813AA1370944B0020B9
:101CF00019680123029100960193211C02F0C2FC95
:101D0000021E03D000208F4901F0EEFCFEF762FEB8
:101D1000FFF7FBFB8C49002001F0D6FAFFF753FADE
:101D200083B208931A1C0020884931E288490020B8
:101D300001F0CAFAFFF747FA87B23A1C002085493A
:101D400026E2099A8449002001F0CEFC01F0D7FA7E
:101D50008249041C002001F0B7FA01F0D0FA804952
:101D60000C90002001F0B0FA01F0C9FA7D490D9005
:101D7000002001F0A9FAFFF726FA7B49051C002094
:101D800001F0A2FAFFF71FFA7849061C002001F0C3
:101D90009BFAFFF718FA76490E90002001F094FAAA
:101DA000FFF7D8F902950F9072490A9A099B00969D
:101DB0000197002001F098FC231C0C9A303B303A2C
:101DC00000920D9A1C1C303A511E8A410192089AC9
:101DD000631E9C4104926A4602950396158F0F9AE2
:101DE000E3B2069205950A9809993A1CFFF7D8F8CC
:101DF000FFF78BFB6049002001F066FAFEF78BFFCE
:101E00005E49002001F060FA5D49002001F05CFAB3
:101E1000FFF7A0F927AD28705A49002001F054FAC5
:101E2000FFF7D1F9F6B2041C2B786C2E16D1089A64
:101E30000097019200205449221C01F055FC002516
:101E4000A54201DBFFF761FB27AB1A780023FF20D7
:101E500000930121FFF7D8F90135F1E7089A002036
:101E600000924A49221C01F03FFC0025A54201DBFB
:101E7000FFF74BFB27A80121FFF7E8F90135F5E74C
:101E80000898FEF709FFFFF740FBFEF725FFFFF775
:101E90003CFB0820002100F0CFF9FFF736FB374963
:101EA000002001F011FAFFF7F1F9FFF72EFBC04611
:101EB000B8650000C36500000166000043660000CD
:101EC00084660000C4660000F4660000316700000C
:101ED00070670000AE670000EB6700002968000033
:101EE00066680000A5680000E26800000B69000059
:101EF000486900007F690000BC690000F9690000C2
:101F00000C6A000008000020F8FFFF1F3C6A000078
:101F100010FEFF1F0F270000102700006A6A000054
:101F20008A6A0000B86A00001C6B0000526B000057
:101F3000696B00009C6B0000B26B0000DB6B000063
:101F400018FEFF1F016C0000226C00004E6C0000A8
:101F50009E6C0000DA6C0000F76C0000316D000030
:101F60005A6D0000736D0000B26D0000DE6D000060
:101F7000166E0000476E0000846E0000706C00005A
:101F8000A76E0000C66E0000E66E0000386F00000D
:101F90000B9B00208049002B00D1F3E07F4901F02A
:101FA00093F9FFF7D7F80B9B1870FFF7AEFA7C494F
:101FB000002001F089F97B4801F0B2FC00207A4949
:101FC000E0E07A49002001F07FF9381CFEF7ECFCD4
:101FD0007749002001F078F901F091F97549051C65
:101FE000002001F071F9FFF7EEF886B27249321C59
:101FF000002001F079FB206801F092FCE9B2683919
:102000004D4269410120C9B2321C3B1CFEF78EFED5
:102010006A49002001F058F9381CFEF7C5FCFFF7AB
:10202000AEF83A1C011C052000F0BEFFFFF76DFA68
:102030000221042000F0E2FF614B00201A7A5B7A53
:102040001202D21892B25F49013C01F04DFB002C04
:10205000EED1FFF75AFA5C49002001F035F901F0A2
:102060004EF9FFF763F8279001F049F9FFF75EF8A2
:10207000289027A800F0BCFEFFF747FA381CFEF7AF
:1020800093FCFA240020514901F02EFBA4003A1CD5
:1020900003212A2000F06DF90120022100F09CF9B3
:1020A0004B4B013C1A7A5B7A002CF0D1FFF72DFAEA
:1020B0000020484901F018FB0024201C00F0C8FF54
:1020C0002790201C00F0CDFF0134289027A800F0B5
:1020D0008FFE642CF1D1FFF718FA0221012000F0E5
:1020E0007BF93B4B00201A7A5B7A92019B081343E1
:1020F000802292015340384A38499B181A1C013CEF
:1021000001F0F2FA002CE8D1201C3549FA2401F044
:10211000EBFAA4000221032000F05EF92C4B002012
:102120001A7A5B7A92019B081343802292015340F2
:10213000294A2A499B181A1C013C01F0D5FA002CA7
:10214000E8D1201C2749FA2401F0CEFAA40002218C
:10215000052000F041F91E4B00201A7A5B7A9201AB
:102160009B0813438022920153401B4A1B499B1832
:102170001A1C013C01F0B8FA002CE8D1FFF7C5F9B0
:102180000020194901F0A0F8FFF7BFF90020174916
:1021900001F0AAFAFFF7B9F9766F0000B46F0000FA
:1021A000EC6F0000102700000B700000157000009D
:1021B0002E700000577000009F70000040710000FA
:1021C000F8FFFF1F8A71000091710000AB710000E1
:1021D00008000020C171000000E0FFFF0572000050
:1021E000167200002C72000042720000206A00008B
:1021F0001FB5041C01A9002002F0F6FD01A86946E4
:1022000002F030FD009B68461C1901A9009402F001
:10221000B1FC01A90122002002F012FE1FBD000046
:102220000022034B1A608022024B1206DA677047C5
:1022300000A01C5804E100E010B50A2308286FD85C
:102240000C1CFEF797F9051B283C48626466570092
:1022500001F02AFF0523012862D0FFF7E1FF201CCF
:10226000FFF7C6FF0020011C01F0ACFD041C00209C
:10227000012101F0A3FB002C4FD150E001F014FF2D
:10228000062301284CD0FFF7CBFF201CFFF7B0FF3F
:1022900001200021E8E701F007FF082301283FD0D3
:1022A00001F014FC002803D00020012101F086FB7E
:1022B0000220002101F086FD00282ED12FE001F040
:1022C000F3FE072300282BD0FFF7AAFF201CFFF7FF
:1022D0008FFF032005E0FFF7A3FF201CFFF788FF17
:1022E0000420002101F06EFD041C01F0DDFE002839
:1022F000C1D1BDE70820002101F064FD00280CD108
:102300000120011C01F05AFB09E0052002E0062033
:1023100000E00720002101F055FD092300E0002323
:10232000181C10BD10B50C1C0C4B88B01B7806A9EE
:102330000B800B4B05AA1B6810700A484B6004AB5E
:102340001C7000680093012302900193002002F0AA
:1023500099F9431E9841400008B010BD08000020C4
:1023600010FEFF1F18FEFF1FC223FF3308704B60D3
:10237000704708B518280FD8172818D20F2806D884
:102380000E2814D2031C093B012B13D80FE0031CA9
:10239000113B042B0ED80AE0212804D81F2806D2AE
:1023A0001D2807D103E0031C233B0E2B02D8FFF7A7
:1023B000B9FF00E0032008BD38B5031C0D1C09203F
:1023C000191CFFF7AFFF291C041C2A20FFF7AAFFE6
:1023D0000443E0B238BD0000FF2310B588B005AA61
:1023E0001370182804D8092806D206281BD803E041
:1023F000031C1D3B142B16D80C4B10701C7806AB1D
:102400001C800B4C0B482468006807940A4C01910F
:102410000290191C00940123002002F040F9431E91
:102420009841400000E0032008B010BD08000020E3
:1024300010FEFF1F18FEFF1F1000002038B50221FC
:10244000041C0120FFF7C8FF304D2A7A6B7AD2B204
:10245000DBB2002804D02E49002000F035FF11E047
:10246000002C03D02B4901F03FF90BE092019B08AF
:102470001343802292015A40274B201CD21827492F
:1024800001F032F902210320FFF7A6FF2A7A697AC8
:10249000D2B2CBB2002804D01D49002000F014FFB6
:1024A00011E0002C03D01B4901F01EF90BE0920152
:1024B0009B081343802292015A40174B201CD218CC
:1024C000164901F011F902210520FFF785FF2A7A4C
:1024D000697AD2B2CBB2002804D00D49002000F0B6
:1024E000F3FE11E0002C03D00A4901F0FDF80BE0E7
:1024F00092019B081343802292015A40064B201CF4
:10250000D218064901F0F0F838BDC0460800002096
:10251000747200007B72000000E0FFFF4F5B000060
:1025200037B50E24FF34051C201C01F05BFE0A2089
:1025300001F0F6F9201C01F063FE0C2001F060FEB2
:102540000123084A002015700093FA239B00019391
:10255000011C054B02F0C8FD051C201C01F042FEC9
:10256000281C3EBD550000205400002008B5002066
:10257000FFF7D6FF3F20FFF7D3FF0020FFF7D0FF84
:10258000002008BD38B5051C0C1C1535EDB2212006
:10259000FFF7C6FF281CFFF7C3FF201CFFF7C0FF93
:1025A0003834281CFFF7BCFFE0B2FFF7B9FFFFF794
:1025B000DDFF002038BDF8B5061C0C1C351C271C9F
:1025C0002120FFF7ADFF2A35301CEDB2FFF7A8FF41
:1025D000201CFFF7A5FF281CFFF7A2FF201CFFF718
:1025E0009FFFFFF7C3FF2120FFF79AFF281CFFF78B
:1025F00097FF1C37201CFFB2FFF792FF281CFFF744
:102600008FFF381CFFF78CFFFFF7B0FF2120FFF78B
:1026100087FF281CFFF784FF381CFFF781FF301C61
:10262000FFF77EFF381CFFF77BFFFFF79FFF21209E
:10263000FFF776FF301CFFF773FF3834381CE4B225
:10264000FFF76EFF301CFFF76BFF201CFFF768FFE2
:10265000FFF78CFF2120FFF763FF301CFFF760FFBF
:10266000201CFFF75DFF281CFFF75AFF201CFFF717
:1026700057FFFFF77BFF0020F8BDF8B5071C0C1CC7
:102680003D1C261C2120FFF74BFF2A35381CEDB2DC
:10269000FFF746FF201CFFF743FF281CFFF740FF12
:1026A000201CFFF73DFFFFF761FF2120FFF738FFF8
:1026B000281CFFF735FF3836201CF6B2FFF730FF35
:1026C000281CFFF72DFF301CFFF72AFFFFF74EFFF6
:1026D0002120FFF725FF281CFFF722FF301CFFF702
:1026E0001FFF381CFFF71CFF301CFFF719FF1C34BD
:1026F000FFF73CFF2120FFF713FFE4B2381CFFF780
:102700000FFF201CFFF70CFF281CFFF709FF201C00
:10271000FFF706FFFFF72AFF0020F8BD70B50D1C7C
:10272000041C2E1C2120FFF7FBFE201CFFF7F8FEE7
:102730002A36281CF6B2FFF7F3FE201CFFF7F0FE46
:10274000301CFFF7EDFEFFF711FF2120FFF7E8FE39
:10275000201CFFF7E5FE301CFFF7E2FE201C2A30AC
:10276000C0B2FFF7DDFE1534301CE4B2FFF7D8FE2F
:10277000FFF7FCFE2120FFF7D3FE201CFFF7D0FE61
:10278000281C1C30C0B2FFF7CBFE3835201CFFF7E9
:10279000C7FEE8B2FFF7C4FEFFF7E8FE002070BDF9
:1027A000F8B5061C0C1C351C271C2A35EDB221205F
:1027B000FFF7B6FE281CFFF7B3FE201CFFF7B0FEA4
:1027C000301CFFF7ADFE201CFFF7AAFEFFF7CEFE80
:1027D0002120FFF7A5FE301CFFF7A2FE1C37201CAE
:1027E000FFB2FFF79DFE301CFFF79AFE381CFFF783
:1027F00097FEFFF7BBFE2120FFF792FE301CFFF78C
:102800008FFE381CFFF78CFE281CFFF789FE381C52
:10281000FFF786FEFFF7AAFE2120FFF781FE281CA6
:10282000FFF77EFE3834381CE4B2FFF779FE281C2F
:10283000FFF776FE201CFFF773FEFFF797FE2120BF
:10284000FFF76EFE281CFFF76BFE201CFFF768FEEB
:10285000301CFFF765FE201CFFF762FEFFF786FEC7
:102860000020F8BDF8B5061C0C1C351C271C2A35A9
:10287000EDB22120FFF754FE281CFFF751FE201C6B
:10288000FFF74EFE301CFFF74BFE201CFFF748FE03
:10289000FFF76CFE2120FFF743FE301CFFF740FEE0
:1028A0003837201CFFB2FFF73BFE301CFFF738FE25
:1028B000381CFFF735FEFFF759FE2120FFF730FEE9
:1028C000301CFFF72DFE381CFFF72AFE281CFFF7EF
:1028D00027FE381CFFF724FEFFF748FE2120FFF7F4
:1028E0001FFE281CFFF71CFE1C34381CE4B2FFF747
:1028F00017FE281CFFF714FE201CFFF711FEFFF740
:1029000035FE2120FFF70CFE281CFFF709FE201CD6
:10291000FFF706FE301CFFF703FE201CFFF700FE4A
:10292000FFF724FE0020F8BD38B5051C0C1C212043
:10293000FFF7F6FD281C2A35EDB2FFF7F1FD201C4C
:10294000FFF7EEFD281CFFF7EBFD201CFFF7E8FD6D
:10295000FFF70CFE2120FFF7E3FD281CFFF7E0FD49
:10296000201CFFF7DDFD3834281CFFF7D9FDE0B24D
:10297000FFF7D6FDFFF7FAFD002038BDF8B5061CBD
:102980000C1C351C271C2120FFF7CAFD2A35301CE2
:10299000EDB2FFF7C5FD201CFFF7C2FD281CFFF7B5
:1029A000BFFD201CFFF7BCFDFFF7E0FD2120FFF776
:1029B000B7FD281CFFF7B4FD3837201CFFB2FFF726
:1029C000AFFD281CFFF7ACFD381CFFF7A9FDFFF792
:1029D000CDFD2120FFF7A4FD281CFFF7A1FD381C29
:1029E000FFF79EFD301CFFF79BFD381CFFF798FD9D
:1029F000FFF7BCFD2120FFF793FD301CFFF790FD92
:102A0000381CFFF78DFD301CFFF78AFD201CFFF7F7
:102A100087FD1C34FFF7AAFD2120FFF781FDE4B2FA
:102A2000301CFFF77DFD201CFFF77AFD281CFFF707
:102A300077FD201CFFF774FDFFF798FD0020F8BD1F
:102A4000F8B5071C0C1C3D1C261C2A35EDB22120B4
:102A5000FFF766FD281CFFF763FD201CFFF760FDF4
:102A6000381CFFF75DFD201CFFF75AFDFFF77EFDC8
:102A70002120FFF755FD381CFFF752FD1C36201CA6
:102A8000F6B2FFF74DFD381CFFF74AFD301CFFF78B
:102A900047FDFFF76BFD2120FFF742FD381CFFF7D4
:102AA0003FFD301CFFF73CFD281CFFF739FD301CB3
:102AB000FFF736FDFFF75AFD2120FFF731FD281CF7
:102AC000FFF72EFD201CFFF72BFD3834281CFFF7E5
:102AD00027FDE0B2FFF724FDFFF748FD0020F8BD19
:102AE000F8B5061C0F1C351C3C1C2A35EDB2212004
:102AF000FFF716FD281CFFF713FD381CFFF710FD2C
:102B0000301CFFF70DFD381CFFF70AFDFFF72EFD07
:102B10002120FFF705FD301CFFF702FD3834381C7B
:102B2000E4B2FFF7FDFC301CFFF7FAFC201CFFF7B6
:102B3000F7FCFFF71BFD2120FFF7F2FC301CFFF72D
:102B4000EFFC201CFFF7ECFC281CFFF7E9FC201C25
:102B5000FFF7E6FCFFF70AFD2120FFF7E1FC281C48
:102B6000FFF7DEFC201CFFF7DBFC281CFFF7D8FC7E
:102B7000381CFFF7D5FCFFF7F9FC2120FFF7D0FC4C
:102B8000281CFFF7CDFC381CFFF7CAFC301CFFF7F0
:102B9000C7FC201CFFF7C4FCFFF7E8FC0020F8BDD1
:102BA00008B52520FFF7BCFC0020FFF7B9FC00208A
:102BB000FFF7B6FC5F20FFF7B3FC3F20FFF7B0FC48
:102BC000002008BDF0B585B0071CFFF7E9FF6A4695
:102BD0006D460024284B03CB03C2161C03CB03C253
:102BE0003B59002B04D1285D315DFFF779FF3DE0B3
:102BF000012B04D1285D315DFFF7C4FC36E0022BC8
:102C000004D1285D315DFFF7D6FC2FE0032B04D102
:102C1000285D315DFFF731FD28E0042B04D1285DEC
:102C2000315DFFF77BFD21E0052B04D1285D315D8F
:102C3000FFF7B6FD1AE0062B04D1285D315DFFF7E2
:102C400011FE13E0072B04D1285D315DFFF76CFE08
:102C50000CE0082B04D1285D315DFFF78FFE05E005
:102C6000092B03D1285D315DFFF7EAFE0434082CFF
:102C7000B6D1002005B0F0BD645A000008B525208B
:102C8000FFF74EFC0020FFF74BFC0020FFF748FC4D
:102C90002F20FFF745FC3F20FFF742FC002008BD36
:102CA00010B5041CFFF7EAFF002C04D10320011C1F
:102CB000FFF716FF3DE0012C04D10320011CFFF7B4
:102CC00061FC36E0022C04D10320011CFFF773FCE9
:102CD0002FE0032C04D1201C211CFFF7CEFC28E0A0
:102CE000042C04D10320011CFFF718FD21E0052C62
:102CF00004D10320011CFFF753FD1AE0062C04D178
:102D00000320011CFFF7AEFD13E0072C04D10320C4
:102D1000011CFFF709FE0CE0082C04D10320011C64
:102D2000FFF72CFE05E0092C03D10320011CFFF75F
:102D300087FE002010BD08B52520FFF7F1FB3020ED
:102D4000FFF7EEFB0020FFF7EBFB5F20FFF7E8FB50
:102D50003F20FFF7E5FB002008BD10B5041CFFF77E
:102D6000EAFF002C04D103213220FFF7B9FE3DE039
:102D7000012C04D103213220FFF704FC36E0022CA1
:102D800004D103213220FFF716FC2FE0032C04D1DD
:102D9000211C3220FFF771FC28E0042C04D1032110
:102DA0003220FFF7BBFC21E0052C04D103213220A7
:102DB000FFF7F6FC1AE0062C04D103213220FFF7BE
:102DC00051FD13E0072C04D103213220FFF7ACFDA5
:102DD0000CE0082C04D103213220FFF7CFFD05E0E1
:102DE000092C03D132200321FFF72AFE002010BD59
:102DF00038B5134C03682268051C934206D06268FC
:102E00004168914202D0FFF7DDFE13E02268934251
:102E100006D168686268904202D0FFF79EFF09E021
:102E20002268934206D062686968914202D1181CF8
:102E3000FFF736FF2B68002023606B68636038BDA6
:102E40002CFEFF1FC02313B580244F4A9B00136044
:102E50004E4A64001360FDF759FD4D4B201C1C6069
:102E60004C4B1C604C4B1C6001F0BCF9642000F022
:102E700057FD201C01F0C4F9642000F051FD201C16
:102E800001F0B0F9642000F04BFDAE20FFF748FBE5
:102E9000A020FFF745FB7220FFF742FBA120FFF7C0
:102EA0003FFB0020FFF73CFBA220FFF739FB00208F
:102EB000FFF736FBA420FFF733FB0024A820FFF721
:102EC0002FFB3F20FFF72CFBAD20FFF729FB8E20C7
:102ED000FFF726FBB020FFF723FB0B20FFF720FBBB
:102EE000B120FFF71DFB3120FFF71AFBB320FFF7DE
:102EF00017FBF020FFF714FB8A20FFF711FB64207B
:102F0000FFF70EFB8B20FFF70BFB7820FFF708FB8A
:102F10008A20FFF705FB6420FFF702FBBB20FFF7C9
:102F2000FFFA3A20FFF7FCFABE20FFF7F9FA3E203D
:102F3000FFF7F6FA8720FFF7F3FA0E20FFF7F0FA13
:102F40008120FFF7EDFA9120FFF7EAFA8220FFF7E0
:102F5000E7FAFF20FFF7E4FA8320FFF7E1FA7D208C
:102F6000FFF7DEFAAF20FFF7DBFA2620FFF7D8FAEB
:102F70000120FFF7D5FAFFF713FE6846009401948D
:102F8000FFF736FF201C16BD2090145424901454D3
:102F900034A014543090145400A014548023DB0542
:102FA00008704B607047000000B589B005AB0A0A95
:102FB0001A705970002801D0052816D10C4A06A9AC
:102FC00012780A800B4A12684A6004AA10700A48F4
:102FD000006800930223029001930020013B01F05E
:102FE00051FB431E9841400000E0032009B000BDA2
:102FF000F8FFFF1F10FEFF1F18FEFF1FFF2100B587
:1030000089B005AA031C11700320052B15D80C49A3
:103010001370087806A908800A480B4B00681B68E3
:1030200048600A480293009002200123019000208A
:1030300001F035FB431E9841400009B000BDC04679
:10304000F8FFFF1F10FEFF1F18FEFF1F00000020EB
:1030500008B5632800DD63200A21FDF70BFC081C7E
:1030600008BD002070470269C3689A4203D880688F
:103070001018013800E0501EC01A7047F7B5836879
:10308000C668051C40680191141C9F1B801997425B
:1030900003D902F043FBA4190AE001993A1C02F09B
:1030A0003DFB019BE41BD9196868221C02F036FB2A
:1030B000EC60F7BD0023F7B5061C171CC56801912D
:1030C00000933369B468AB4200D81B19013B5B1B0A
:1030D000641BBC4200D93C1C9C4200D91C1C736878
:1030E000221C5819019902F019FB009B2D191B197C
:1030F0000093019B3F1B1B190193B368EB1A5A1EE7
:1031000093415B421D40F560002FDAD10098FEBD6F
:10311000022310B50F4C104A236163610F4BA2616B
:10312000E361C823A2640E4A2362E26400230422FE
:10313000A3626362E362A3656365E3652265E01DE4
:10314000084902F0ADFB201C074902F0A9FB20232F
:10315000A37110BD240100208B7200005A000020D2
:10316000560000209472000098720000F0B5294BC0
:10317000171C1A7885B0009001910293002A01D1A2
:10318000FFF7C6FF1823009A00255343029AD3186D
:103190001A1C503252689C6D039294421BD91B6DCD
:1031A0003D1C1B1B9F4200D91D1C1826009B2A1C7E
:1031B0005E43029B01989E19F36C7F1B191902F064
:1031C000ADFA019B64195B190193336DE31A5A1E22
:1031D00093415B421C40039B1E1BBE4200D93E1C18
:1031E000002E0CD01823009A01985343029AAD196F
:1031F000D318D96C321C091902F090FAA419002DC9
:1032000005D01823009A5343024AD3189C65281C02
:1032100005B0F0BD2401002010B50B1CEFF31084A5
:10322000012181F31088191CFFF7A0FF84F3108897
:1032300010BD0000F8B51823451C5D434343141C22
:10324000134A0E1CD018C76A5519012F0FD0002F32
:1032500007D0022F17D1221C281CFFF72BFF041CBC
:1032600014E0281CFFF7FFFEA0420ED305E0281C47
:10327000FFF7F9FE844200D9041C281C311C221CD3
:10328000FFF7FCFE02E0002400E03C1C201CF8BD1F
:1032900024010020F8B50B4B071C1B780E1C151CD5
:1032A000002B01D1FFF734FFEFF31084012181F3EC
:1032B0001088381C311C2A1CFFF7BCFF84F31088CF
:1032C000F8BDC0462401002038B5051C081C0C1CA4
:1032D00002F0EEFA211C021C281CFFF7DBFF38BDB0
:1032E00013B56B46DC1D0020211C0122FFF794FF63
:1032F000012801D1207801E00120404216BD08B527
:10330000FFF7EEFF0028FBDB08BD0000F7B5164C09
:1033100001932378051C0F1C161C002B01D1FFF70D
:10332000F7FE23699D421CD2EFF31082012181F345
:103330001088002D0CD01823691C59436B4367502B
:1033400061184E600199E31819620021996259626F
:1033500018235D43089B6419E36282F31088002000
:1033600001E001204042FEBD24010020826810B52A
:10337000041C4068531C834205D820688154A36014
:10338000E3680133E360A26863689A420CD1206964
:103390002168FFF77FFFA368984203D001235B42B7
:1033A000E36001E00023A36010BD0000F0B5051C40
:1033B0001F1C081C012685B00A9C00910192019BEC
:1033C000984204D30199FDF7DFF80136F7E702963A
:1033D000BE4200D2029701230B9A1A40039218D1E1
:1033E000002C01D1002414E00B9B20269B070DD557
:1033F000002F0BD1103609E0281C311CFFF7B6FF57
:10340000EB68013C002B04DB002CEBD0029BA342B9
:10341000F2D3EB68002B35DB0126012F01D9013FE8
:1034200006E00098311CFDF7AFF8019B984208D3E5
:10343000019B5E43F1E7301C0199FDF7A5F8061EDC
:1034400010D00098311CFDF79FF8331C4343009ABD
:10345000D31A00930C4B195C281CFFF787FFEB680D
:10346000002BE8DA039B002B0CD0002C0AD0029B27
:10347000A34207D2281C2021FFF778FFEB68013C0C
:10348000002BF2DA05B0F0BD9F720000F0B59FB0DE
:103490000EAB099340230A930023161C06900B934E
:1034A0000D900C930B784C1C002B04D10C9B0393B8
:1034B000002B22DC15E1252B16D1002502314F1EF1
:1034C0003B782B2B0CD003D8232B27D1082308E0E3
:1034D0002D2B03D0302B21D1022302E0012300E069
:1034E00004231D430131EAE7191C09A8FFF73EFF39
:1034F000211C0C9B002BD5DAD8E70B9A002A03D0AD
:1035000006980EA9FFF7C6FE0C9B03930B9B049332
:10351000049A039B944663440C93E2E000243A78B7
:10352000131C303B092B05D80A235C43303C013780
:10353000A418F4E7002303932E2A0DD101373A781B
:10354000131C303B092B07D80A23039901374B433F
:10355000303B9B180393F2E7397804230A1C9A4303
:10356000682A01D10137F7E7642926D008D85829FD
:1035700000D195E063291AD0252900D0AFE0ABE057
:10358000732900D195E00DD8702900D0A7E03268EA
:103590000021131D3360082301910093116809A8CD
:1035A000102296E0752971D0782979D097E0336898
:1035B00019681A1D3260C9B28EE033681A1D1B6883
:1035C0003260DA17981804930123504005930928B4
:1035D00005DD0A21FDF768F8059B0133F6E7059B39
:1035E000039A934200D20592002C05D0049B002B35
:1035F00001DB6B0700D5013CAB0702D5039B002B19
:1036000010D0EB070ED4002C01D100240AE0059B5A
:10361000A34207D209A82021FFF7A8FE0C9B013C7A
:10362000002BF0DA0C9B0793002B58DB049B002B3C
:1036300004DA5B42049309A82D2103E06B0703D54C
:103640002B2109A8FFF792FE0C9B002B47DB0323DD
:103650002B40022B11D1039B002B0ED1002C01D14A
:1036600000240AE0059BA34207D209A83021FFF7F6
:103670007DFE0C9B013C002BF0DA0C9B0593002B8C
:103680002DDB0094019509A8049906E033680094A5
:1036900001951A1D1968326009A80A22039B18E0D7
:1036A000336800941A1D0195326009A81968102228
:1036B000F4E733681A1D32601C6821780134002950
:1036C0000DD009A8FFF752FE0C9B0393002BF4DAF0
:1036D00005E0FFF76BFE02E009A8FFF747FE791C43
:1036E00007E70C981FB0F0BD0EB403B503AB02CBD7
:1036F00001AA0193FFF7CAFE02B008BC03B0184745
:1037000008B5002000F08AFD08BD08B5002001F0D2
:10371000F5FB08BD082110B5164B9A780A4202D075
:103720009A780A439A70882200212220124B520173
:103730009950124A10708020114A4002985018681F
:10374000104A024010481A601C58104A2240C024F7
:10375000A40422431A5080220D4B19721A767F3A24
:1037600019705A700B4A11700C2299791142FBD1D1
:1037700010BDC04600D007400070044000E0074084
:1037800044100000FFFFF3FF04100000FFFFFFF0F4
:103790000040064000500640154B164810B5191E53
:1037A00081420CD00022144B9B089B009A4203D00C
:1037B00084588C500432F9E7104B996001E00F4AAD
:1037C000936000230E4A0F49891A8B4204D0D45CBF
:1037D0000D48C4540133F8E700230C4A0C49891AF8
:1037E0008B4204D00024D01804700133F8E710BDD8
:1037F00000000000000000000000000000ED00E0FC
:1038000008740000BC75000000FEFF1FB4FFFF1F1E
:10381000D002002000234170436003708360181CB5
:10382000704710B54378041C0120FF2B08D000F02E
:103830006DFA63780133DBB2637000F05BFA00204D
:1038400010BD0020704738B5041C0D1C00F05EFA56
:10385000E1682943E16000F04DFA002038BD000026
:1038600000220A4B9A641A1C40329A631A1C3032A6
:103870009A621A1C20329A611A1C10329A60044A09
:103880001360044B9B60DB607047C046B0010020B2
:10389000AC0100209C0100200022024B1A60186835
:1038A00080B270470C007C5038B54378041C0D1C66
:1038B000002B0BD0002500F029FA6378013BDBB226
:1038C0006370257000F016FA281C28E002200029F9
:1038D00025D02378002B15D0FFF7DEFF6368A268A0
:1038E000984201D3C01A03E0C01A80235B02C018BB
:1038F000824213D200F00AFA0023237000F0FAF992
:1039000002200CE04B1C09D000F000FA01232370C8
:1039100000F0F0F9FFF7C0FFA5606060032038BD3C
:1039200038B5051CFFF7B8FF041CFFF7B5FFA04230
:1039300001D3001B03E08023001B5B02C0188542FB
:10394000F3D238BD08B5012801D100F0DFF908BD78
:1039500008B5012801D100F0CDF908BD10B5FFF779
:103960007FFF01230020084A08491360084A094CD8
:103970001060086004212160074C216007490B603A
:1039800007490860136010BD38800450000084505F
:1039900000000450000004510400045104000C50C5
:1039A0000000045310B5044C206021710020A26077
:1039B0002373637310BDC04600020020F0B587B0CA
:1039C0006B4602901B7A05AC23706B4603911B7B00
:1039D0003D4D63702B79029A0420934271D92B7B61
:1039E0006B730123A37000230193374E0093337B45
:1039F000009A371C93421AD9009BB2689B009B58CF
:103A0000002B10D01A79D2070DD51A68201C99689E
:103A10009047002807D06B461B787373039B002BDD
:103A20003AD005230193009B0133DBB2DDE7019E11
:103A3000002E02D0039B012B2FD10120FFF782FF24
:103A40000C20029B58432B68181800F0A7F86B460F
:103A50001B7A01206B71FFF77BFF02230025A37007
:103A60003B7BAB4216D9BA68AB009B58002B0ED0FB
:103A70001A7992070BD51A68201C9968904700287C
:103A800005D0039B7D73002B1AD0062301930135CB
:103A9000EDB2E5E7019814E005260023009FA3702E
:103AA000013FFFB2FF2F09D0AA68BB009B58002B33
:103AB000F6D01A68201C99689047F1E7301C00E0A6
:103AC000062007B0F0BDC04600020020014B587927
:103AD0007047C0460002002013B500210378041C83
:103AE0000191022B07D0032B0BD0012B0ED10279B1
:103AF000191C134801E00279114801AB00F0CEFF18
:103B000008E001A90E4801F00BF803E00C4801A9F8
:103B100000F0A8FF002812D1A3790A4ADB01DBB22A
:103B200013706378084A5B00DBB21370A278074B0E
:103B30001A70E278064B1A706279064B1A7016BD3D
:103B40000040064018408653004086500040065012
:103B500001400650184016501F22802302405B058A
:103B6000D2051A43034943099B005B181A430023FB
:103B700013607047288004401F2280210240D30533
:103B800049051943430904489B001B1819430123A5
:103B9000081C9340036070472880044000220723DC
:103BA00073B5041C104D0093281C131C012101F057
:103BB00097F9201CFFF790FF0022637A217A009387
:103BC000281C131C01F08CF9E379084A9B0413604C
:103BD000074BA17A1D68281C00F0BEFF281CE17A63
:103BE00000F0C1FF002076BD0070044000700C5949
:103BF000FC72000008B5054800F0F6FE044B196899
:103C0000C9B20131FCF7C0FC08BDC0460040064007
:103C100044801C5E08B5054800F0E6FE044B1968B8
:103C2000C9B20131FCF7B0FC08BDC04600400640F7
:103C300044801C5E08B5054800F0D6FE044B1968A8
:103C4000C9B20131FCF7A0FC08BDC04600400640E7
:103C50004480145808B5054800F0C6FE044B1968A6
:103C6000C9B20131FCF790FC08BDC04600400640D7
:103C7000448014580C4B1B68DBB2022B0DD0032B75
:103C80000ED0002B01D000200CE08021074A090251
:103C90001268101E8842F6D104E0054B186801E056
:103CA000FA2080007047C04600700C59280200209E
:103CB0002C02002008B5FFF7DDFF08BD08B5024B58
:103CC000185CFFF759FF08BDAF72000008B57620F9
:103CD000FFF752FF08BD08B57620FFF73DFF08BD8E
:103CE00008B56620FFF748FF08BD08B56620FFF756
:103CF00033FF08BD044A1368002B04D0013B136056
:103D0000002B00D162B670471002002072B6024A42
:103D100013680133136070471002002010B50B4B7D
:103D20000B4A1278002A04D1013B002BF8D1032062
:103D30000AE0064C074801F069FB012803D0013C6A
:103D4000002CF7D1F3E7002010BDC046EA030000C5
:103D500002D0075100E0074010B5064C064801F0BC
:103D600055FB042804D0013C002CF7D1032000E0CF
:103D7000002010BDEA03000000E00740F7B5071C73
:103D80000E1C151C01930120002F18D0002916D0FD
:103D9000FFF7D8FD0A4C0021201C102201F0C7FCBF
:103DA00027602671002D06D06B461B79A560237312
:103DB0006B461B7963730120FFF7CAFD0020FEBD2F
:103DC00014020020F0B5B24C8BB002900191237B1D
:103DD00001206373FFF7B6FD2379029A934204D85A
:103DE0000120FFF7B5FD022050E1029A23689200FE
:103DF000D6586B461B7907AC357823726B461B7A15
:103E00002A1C237002239A4366600392012A01D080
:103E1000052D0AD101219F4801F04AFA002809D155
:103E20000120FFF795FD012030E1072D02D99948C7
:103E30000321F1E70123637200240094944F009A58
:103E40003B7B93421AD9009BBA689B009B58002B7E
:103E50000FD01A79D2070CD51A6807A8996890472D
:103E6000002806D06B461B7804247B73019B012B32
:103E700004D1009B0133DBB20093DFE70120FFF7A1
:103E800067FD854800F0D4FD039B012B1DD101384F
:103E9000C0B2022811D8FFF7DDFE804B98420CD843
:103EA000FFF7A8FE7E4FB84207D8FFF7C3FEB8421F
:103EB00003D8FFF7AFFEB84207D9019B012B01D110
:103EC000062407E0002C05D1FAE7019B012B52D014
:103ED000002C50D00120FFF735FD002307AE009DD8
:103EE0007372013DEDB2FF2D40D0694BAA009B6873
:103EF000D358002BF5D01A79D207F2D51A68301CA6
:103F000099689047EDE7072205AB1A7000225A70B6
:103F1000F2789A703279DA702B1C083B05A9022BD3
:103F200003D873798B71B379CB717378002B00D080
:103F300084E0584801F0F0F9002800D00324002D57
:103F400000D08AE0FFF7EAFE0024002800D09DE0C0
:103F50000120FFF7F7FC6B464D4E1B7A0025B3732B
:103F6000022307AF7B72337BAB427CD80120FFF783
:103F7000EFFC201C8AE003200A2D00D986E0281CD3
:103F8000FCF7EEFA06080A1940583339C1282D000B
:103F9000002250E003224EE03E4801F037FA0128AB
:103FA00007D03C48002101F093F9FFF7B7FE041E4B
:103FB0006CD101223FE0374801F028FA042807D0ED
:103FC0003448022101F084F9FFF7C6FE041E5DD1DA
:103FD000042230E0072205AB1A70063A03E00722FC
:103FE00005AB1A70043A5A7096E7022205AB1A70B4
:103FF000013A1A7104E00222012105AB1A7019710D
:104000005A7189E70222002705AB1A702148013A4C
:104010001A715F7101F0FAF9012800D17CE71D489F
:10402000391C01F055F9FFF779FE041EBC4200D19E
:1040300072E72BE0052205AB1A706DE7012D00D861
:1040400077E7B2780220174B002A02D01A690243A0
:1040500001E01A6982431A616BE7012D00D077E70E
:10406000FFF77AFE70E7B268AB009B58002B0AD0CE
:104070001A79920707D51A68381C99689047002862
:1040800001D0052475730135EDB26CE70BB0F0BDBE
:104090001402002000E007400040064040420F00AC
:1040A00080841E0000ED00E008B5064801F0AEF97E
:1040B0000023012803D00133042800D00A33181C40
:1040C00008BDC04600E00740F7B5FF2403681C4A5E
:1040D0001D0A25401C40AB009F581A4A061C9B58DD
:1040E000281C0193FFF7EAFD211C0022381C01F077
:1040F00095F9019BA4001C19842332795B052343A5
:1041000052001A60802372795B0523431A60902362
:10411000B2795B05234312011A60F3790A4A14430A
:104120001A042260002B0AD0084B5A5D002A06D0E0
:104130001F23134001229A40131C054A1360F7BD48
:1041400008730000007300000000181810730000CE
:1041500000E100E0F8B5FF24051C0368114A180AC5
:1041600020401C4083009F580F4A9E58FFF7A6FD31
:10417000381C211C012201F051F96A68381C211CED
:1041800001F05CF988232A7AA40034195B052343E3
:1041900092001A6098235B051C436B7A9B01236095
:1041A000F8BDC046087300000073000038B50C1C51
:1041B000002802D1002C09D112E003680133F9D0A4
:1041C000051C0835FFF780FF281CF6E7236801333C
:1041D00006D0251C201C0C35FFF7BCFF2C1CF5E776
:1041E00038BD0000FF22030A134002400120904026
:1041F00002499B005B5858607047C0460873000036
:10420000FF22030A134002400120904002499B0014
:104210005B5898607047C0460873000008B5084BAB
:104220008200D35894220233520513431B78002B8B
:1042300002D000F041FA01E000F096FA08BDC04655
:10424000B4720000031C80220C33520513431B7808
:10425000002BF7D00171704738B50D1C084B80005A
:10426000C458201C291C1830FFF71EFB0328F8D067
:10427000002801D004232374207CC0B238BDC0467E
:1042800024020020F0B589B00290161C8200374845
:10429000059310580EAB019035481B781458002038
:1042A00007AA1080A27C8F0A04920122E274A274F1
:1042B0005A4253411E3FDBB203937B425F41FFB240
:1042C000CDB2874202D0CBB29C460D0A00216D00D0
:1042D000EDB28F4204D1391C002E01D16B46197BFF
:1042E0000D4307AB1D700122002F02D062465A70A9
:1042F0000222A360E2600198291CFFF7A3FF029845
:104300000F99FFF7A9FF237C002B0CD1002E0AD0B8
:10431000059BA660E36031780198FFF793FF029850
:104320000F99FFF799FF237C002B16D1039B002BDD
:1043300013D0002F01D1002E0FD000230127A3603E
:104340000198E76001F0D2F8391C01982943FFF782
:1043500079FF02980F99FFF77FFF0023E3746B4604
:10436000207C1B7CC0B2A37409B0F0BDB472000005
:1043700024020020104A830010B598580F4A9C5818
:10438000E37C002B05D0237C052B02D0237C042B5F
:1043900009D19822831C5205134300221A7001F0A0
:1043A000B7F801236374A37C002B03D0201C1830C2
:1043B000FFF737FA10BDC046B47200002402002097
:1043C000F7B5194B8700FB5801250093174BFE5892
:1043D000002E26D10C1C24220190081C311C01F057
:1043E000A6F9201C311C1830FFF714FA0198FFF7CA
:1043F00077FC009801F02AF80C4B019AFC500C4B0A
:104400009A5C1F2313402A1C9A40131C094A13600C
:104410009C22009B52050233134380226574351C95
:104420001A70281CFEBDC046B47200002402002091
:10443000B172000000E100E0F7B59C220027051CE6
:104440000D4E8400A359520501930C4BE3580233DF
:1044500013431F70FFF749FC094B01985A5D1F2356
:10446000134001229A40131C064A1830D367FFF705
:10447000E8F9A751F7BDC04624020020B47200003D
:10448000B172000004E100E00A4B800070B5C5582D
:10449000094BC6584B68726993420AD00C1CFFF74F
:1044A000C9FB0023011C6268281C00F0DDFF636863
:1044B000736170BDB472000024020020F0B587B0B3
:1044C0000FAC334F334D267884006559E459677C2F
:1044D000002F02D10320207458E0002E01D11E27A6
:1044E0000E9705930023A674E360A36023742360F2
:1044F0006374071C04920391FFF7C6FF90231021F9
:10450000AA1C5B05134319708421EB1C49050B435E
:104510000221197098235B05134302934023029AEA
:10452000281C137000F0E2FF039B381C198801233C
:1045300000930E9B049A0193059BFFF7A3FE0D9B2E
:10454000002B15D0237C002B0FD10C9B281CA360C3
:104550000D9BE3600C9B1978FFF774FE002E13D0BF
:10456000381C0E99FFF778FE0EE0237C042B0BD14C
:1045700000230126029A1370EB785B09334202D0C4
:10458000281C00F0C5FF6674207CC0B207B0F0BDE7
:1045900024020020B4720000F0B58BB013AC247874
:1045A000364E374D039484006559A459667C002E1D
:1045B00002D1032020745FE0039E002E01D11E363D
:1045C00012960993109B00262360119BA6606360DE
:1045D0006B461B7BE660A374267466740791089291
:1045E0000490FFF751FF9023AF1C5B053B430593FD
:1045F0001023059A281C13708422EB1C52051343C8
:1046000002221A7098235B053B4306934023069AC7
:10461000137000F06BFF079B089A1988129B009695
:1046200001930498099BFFF72DFE227CD2B2B2427F
:1046300012D1059B11991A708C235B053B4301290C
:1046400000D108221A702B79039B002B12D00498FA
:104650001299FFF701FE0DE0237C042B0AD1069B83
:104660001E700126EB785B09334202D0281C00F053
:104670004FFF6674207CC0B20BB0F0BD2402002056
:10468000B47200001FB5069C0094079C0194089C1E
:10469000029401240394FFF711FF04B010BD1FB56D
:1046A000069C0094079C0194089C029401240394A6
:1046B000FFF772FF04B010BD842138B5244B82008F
:1046C000D5584905EB1C0B4302211970214BD458D6
:1046D00090226B1852051A431278E978D2B28906F3
:1046E00034D5942149051943097800292ED0012A8F
:1046F00015D1EB78134202D0052323740CE0E36854
:10470000013BE360002B07D0A368281C5A1CA26061
:104710005978FFF797FD19E0FFF72CFE16E0626865
:10472000013A6260002A06D08C214905012A05D190
:104730000B43082204E0FFF71DFE02E000220B43BA
:104740001A7023685A1C22602A791A7038BDC04634
:10475000B472000024020020842303305B05184358
:104760000223037070470000902149050A1CF0B530
:104770008F4B071C8000C55889B0EB1C0493EB7865
:10478000EE78DBB20593F3B20693AB1D1A43944661
:1047900012789826D2B20792942252051A431478BE
:1047A0007605621E9441E2B2824C33430459A81C40
:1047B0000090084301921A780178D2B2C9B20391ED
:1047C0000199029000292FD0079900290CD01023BD
:1047D0006246281C1370FFF7BFFF236BF8B201215C
:1047E000002B00D0DCE0E0E0002A1DD04022281C95
:1047F0001A70FFF7B1FF231C2C331B78002B02D15A
:10480000009A16433370236B002B03D0F8B280213B
:10481000626B9847E37D002B04D0201C8021183068
:10482000FFF711F80A23BFE0069B281C9E11012305
:104830001E40FFF791FF0122059B1B11134219D067
:104840009023049A5B05134310221A70002E04D0A3
:10485000EB785B07DB0F10D11AE0082323702C34B0
:104860002278002A00D0A0E0982300995B050B4332
:104870001A709AE0002E16D0EAE71023029A1370FD
:10488000236B002B6ED0F8B20221626B984769E06F
:10489000029A1370236B002B03D0F8B20421626BD1
:1048A00098472B7981E0039B012B29D1EB78039A60
:1048B000134257D0029B1E702B79231C2C331B787C
:1048C000002B09D1019B002B06D19823009A5B0590
:1048D00013436A4612791A70236B002B03D0F8B287
:1048E0000821626B9847A37D002B04D0201C08216F
:1048F0001830FEF7A8FF00236360E360237554E0DF
:104900002B79A268DBB2002A2AD0226913702369AE
:1049100001332361A368013BA360A368002B44D14A
:10492000019B002B13D1231C2C331B78002B06D1A9
:104930009823009A5B0513436A4612791A70E37D47
:10494000002B04D0201C20211830FEF77CFF002310
:1049500063752361236BF8B22021002B20D124E062
:10496000072321E06368002B1DD0E3681A782B1C15
:1049700080210C3349050B431B78002BF7D02A719B
:10498000E3680133E3606368013B63606368002BA5
:104990000BD1E3602375236B002B06D01021F8B2F6
:1049A000626B984701E00623237009B0F0BDC04652
:1049B000B47200002402002084235B0503431A78AC
:1049C00000239A4209D0802301305B051843037805
:1049D000012B01D0024B00E0024B181C7047C0466F
:1049E00080841E0000127A0010B50D4A831D134307
:1049F0001B78DBB2002B10D0012B08D1041CFFF771
:104A0000DBFF084B08341C432378D84006E0002025
:104A1000022B03D1044B186800E0044810BDC046C7
:104A2000000008110000901028020020006CDC0239
:104A30000B4A831D13431B78DBB2012B06D0181ED3
:104A40000CD00320022B09D0052007E08023013081
:104A50005B05184300784342584101307047C04617
:104A600000000811021C031C9C201833400503435E
:104A7000802018700020064B134318700548931DC2
:104A800003431B78D8B20028F8D1034B0B60704762
:104A90000000081300000811006CDC02F8B5041CCB
:104AA0000D1C171C1E1CFFF7C3FF012802D1002D8F
:104AB00004D007E0022805D1012D03D1201C311CB0
:104AC000FFF7D0FF8022631C520513431D7084231F
:104AD00002225B0523431A70231C0C4A083313433C
:104AE0007A00D2B21A704022094B23431A70094A45
:104AF000A31D13431B78012BF9D1002D01D1064AC8
:104B000000E0064A3A4100203260F8BD00009010F3
:104B1000000008130000081180841E0000127A00B3
:104B20000A4B10B51C681A1C0123002C0CD08024E1
:104B3000074B03431C70074C831D23431B78022B38
:104B4000F9D113680B600023181C10BD2802002047
:104B500000000813000008119C23C9015B051843DD
:104B6000C9B201707047942349015B051843C9B26B
:104B70000170704770B506680C1C301C2049FBF7AB
:104B800003FD1F49051C301CFBF784FD0E1C081C8F
:104B9000E1210901FBF7F8FCE121E0800901301C6B
:104BA000FBF778FD0E1C081C3C21FBF7EDFC3C21BB
:104BB0002081301CFBF76EFD6E22124BA172238008
:104BC000FF32238895420BD9AD1A032201339BB2E1
:104BD0002380B72113405A1E93414900CA1AF0E7B7
:104BE00009499B0700D109490123CA5C954201D8B4
:104BF000638003E00133AD1A0D2BF6D1A58070BDA3
:104C000080510100B2070000DF720000D272000084
:104C100030B5114A0188031C8A180020812A19D84E
:104C20005A88541E0B2C15D89C88651E1E2D11D831
:104C3000DD88172D0ED81D893B2D0BD89B7A3B2B79
:104C400008D88B0701D0054B00E0054B9B5CA342C5
:104C50004041C0B230BDC0464EF8FFFFDF720000D9
:104C6000D272000070B5124A838804889A186E23A5
:104C7000FF3363434588D318A2089B180D4A6E0082
:104C8000B25A9B18A20702D1022D00D8013B0B603B
:104C9000E1233C22C4881B015C4303895343827A8D
:104CA000E3189A180868044B4343D3180B6070BD8F
:104CB0004A05F5FFB872000080510100084B1A68E0
:104CC00080231B029A4209D1A02310305B051843B0
:104CD0000368002B02D10133FF3303607047C046E5
:104CE00028020020021C802110B500230124490560
:104CF00010320A431460136090224360520504602E
:104D00001C30024313608822520502431360842240
:104D10005205024308431360036010BD031C902238
:104D200014335205134300221A60426010320160AE
:104D30001A60704703680B6070470000114B8200D7
:104D400070B5D5588022104B92051A60041C281C9F
:104D5000FFF7C8FF281CFFF7B1FF01201F22011C2D
:104D60000A4B0B4E1B5D345D134099402240C02519
:104D70000B1C904007496D004B5148510B60086077
:104D800070BDC046F07200003C80845EED72000091
:104D9000EC72000000E100E0F7B50027114B800045
:104DA000C658081C0D1C0197FFF732FF041EBC42B9
:104DB00016D001A9281CFFF755FF381CFEF77AFF13
:104DC000011C80200002814206D0FBF7DDFB011CA4
:104DD0000198FBF7D9FB0190301C0199FFF79EFF6A
:104DE000201CFEBDF0720000F7B50025124B8000BC
:104DF000C4580E1C201C01A90195FFF79BFF281C1D
:104E0000FEF758FF051C8020000285420ED00B4B98
:104E1000291C04341C43FBF7B7FB2768019C291CA1
:104E20004443B8B2FBF7B0FB20180190311C01A835
:104E3000FFF7A0FEF7BDC046F0720000000078103A
:104E4000F0B50026184B800085B0C458081C0F1C14
:104E500001920396FFF7DCFE051EB54201D1002545
:104E60001EE0381C03A9FFF7FDFE301C2768FEF783
:104E700021FF011C80200002814206D0FBF784FB49
:104E8000011C0398FBF780FB0390039BBB42E6D316
:104E9000A36088231C345B051C43019B9B0023609B
:104EA000281C05B0F0BDC046F07200008822044BFB
:104EB0008000C35852051C331343890019607047A2
:104EC000F07200008822054B8000C358520514334D
:104ED00013431868431E9841C0B27047F072000037
:104EE0006B46E0221B78D2021B04134009071943CA
:104EF000014BC018016070474410000008B5084B12
:104F00008200D35890220333520513431B78002BA1
:104F100002D000F015F901E000F07AF908BDC046B2
:104F2000F872000008B50C4B8000C2580B4B0021F2
:104F3000C3589C200333400518431171017094201D
:104F4000400503431970137F8B4203D02032101C9D
:104F5000FEF767FC08BDC04630020020F872000072
:104F6000F7B5061C1C4B30220C1C8700081C0021C6
:104F7000FD5800F0DCFB301CFEF7A8FEFEF75AFEE1
:104F80002060281C00F0E1FA201C00212030FEF7F0
:104F900041FCEB1C01939023019A5B051343102203
:104FA000281C1A70032100F010FB281C002100F0BF
:104FB00032FB0A4BFC500A4B9A5D1F23134001221F
:104FC0009A40131C074A13609823019A5B05134308
:104FD00040221A70F7BDC046F8720000300200206F
:104FE000F472000000E100E0F8B50D4E84000D4BB6
:104FF000A759051CE05800F0A8FA381C2030FEF72D
:1050000020FC094B281C5A5D1F23134001229A40A3
:10501000131C064AD367FEF75EFE0023A351F8BDBA
:1050200030020020F8720000F472000004E100E099
:105030000A4B800070B5C658094B0C1CC358151C90
:10504000301C1A68096800F087FA28602179301C42
:105050006279A37900F0CCFA70BDC046F872000006
:1050600030020020F7B51E4A83009C581D4A9E5806
:1050700022790423002A31D1071C002902D001AA79
:10508000FFF7D6FF982300214020F21C5B05134355
:105090001970187025698D4203D1381CFFF742FF43
:1050A0001BE00123237194235B053343A16119782D
:1050B0000723002912D0A368191E02D019780133E2
:1050C000A360B1712369013B2361A3690133A3612B
:1050D0009C235B051A43802313700023181CFEBD1C
:1050E00030020020F8720000F8B5134F134C850011
:1050F0002C59ED590127069E2777A2602661E360AF
:105100006661FFF7AFFF061E14D1201C07992030FF
:10511000FEF7CAFB0328F8D000280BD09C21002200
:10512000EB1C4905194322710A7094210326490595
:105130000B431A70301CF8BDF872000030020020DA
:1051400010B51E4B8200D3581D4951581A79002AB8
:1051500032D05A69002A11D09C2252050A43127893
:10516000002A0BD08A79DC68D2B2002C03D02270DE
:10517000DA680132DA605A69013A5A611A69002A1A
:1051800012D0942252050A431278002A0CD09A6851
:10519000141E02D0147801329A608C711A69013A97
:1051A0001A619A6901329A611A69002A04D15B690D
:1051B000002B01D1FFF7B6FE10BDC0463002002023
:1051C000F8720000104A80008158002208B50F4B89
:1051D0000331C358581CC2779C2040050843DA624B
:1051E0001A701A835A629A621A63027094204005F8
:1051F00001430A701A1C38321278002A03D0181D95
:105200000121FEF720FB08BDF872000030020020EB
:1052100038B5254B8200D35824495258591CC97FB0
:1052200000293FD0D96A002916DB94214905114392
:105230000978002910D0596A1C7F002905D0DD6A41
:10524000002D02DD0C78013159629471D96A01395F
:10525000D962596B01315963D96A002905DA94245E
:10526000D11C6405214300240C70196B002911DD49
:105270009C2149051143097800290BD09279996A3C
:10528000D2B2002903D00A709A6A01329A621A6B6C
:10529000013A1A63DA6A002A04DC1B6B002B01DC7A
:1052A000FFF790FF38BDC04630020020F8720000C2
:1052B000012903D0032909D1842300E094235B054D
:1052C00018430078431E9841C0B200E000207047A8
:1052D000034B013049011843C9B201707047C04601
:1052E00000008812942302305B0549011843C9B2BB
:1052F00001707047034B023089011843C9B2017035
:105300007047C046000008138C2302305B05C900BB
:105310001843C9B201707047F7B5384EC21C164326
:1053200037780B78FFB20122072B65D8041C181CB4
:105330000D1CFBF71FF904192A0D192A2A3A00231C
:105340002F480134044323703378012BFCD152E001
:105350000322012F50D140232948013404432370F4
:105360003378042BFCD146E00021012B01D004232B
:1053700002213078032298423ED1201CFFF7A8FF7B
:105380000421204A13698B4333E00227BB4207D133
:1053900000270B79BB4203D04979201CFFF7AAFFF5
:1053A000194801340443277019E004231649621C8C
:1053B0000A4313706A78A31C0B431A706B78002B96
:1053C00006D1AB78002B03D0E978201CFFF78AFFC9
:1053D000AB79002B03D0E979201CFFF795FF04215E
:1053E0003378084ADBB20193019B013301931369BF
:1053F0000B43136130BF0022101CFEBD00003010B3
:105400000000881200ED00E000001010024B033095
:1054100018430078C0B27047000030101430802369
:10542000012A04D18A401B051843026005E0DB0411
:10543000184301238B40D9430160704701238B40FF
:10544000002A01D0436000E0836070470023C2223D
:10545000037043708370C37043718371C3710372AF
:1054600042728372C3727047F0B5002789B003930C
:10547000FA2301253C1C9B0053430690079102939D
:105480006D4201970123A3400493174B9E1CCA331E
:105490000593049B318807985943FBF775F8029BE5
:1054A000029AC31A824200D9131AAB4204D2B21E26
:1054B000177801941D1E03D0059B04369E42E8D147
:1054C0000134032C01D0002DDCD1039B002B00D034
:1054D0001D603F231F40019B9B011F43069BFFB2A2
:1054E0005F7009B0F0BDC046127300009423023013
:1054F0005B0503431B78002B04D088235B0518430E
:10550000042303E080231B051843302303707047F6
:105510009422831C52051A431278011C0220012A8E
:1055200012D18022D2041343CF221A708022D200DB
:105530002023C878034004D0013A002A03D0C04693
:10554000F6E7181C00E0092070470423C37000230D
:105550008370437003717047F0B5130B89B0012558
:105560000493082300266D4203935B19079005916D
:105570000692029302270024731C191C0698794393
:105580000193FBF701F8059B834206D31B1A9D424A
:1055900003D91D1C04900394029601347F00092C4A
:1055A00002D0002DE8D104E0072E02D0019E002D8C
:1055B000E0D17022029B04981B011340039A13430D
:1055C000079ADBB2537009B0F0BD8422C31C5205A8
:1055D0001A4301230B405B00DBB213709023890751
:1055E000C90F5B05023009011843C9B20170704749
:1055F00010B58C2403306405C9000443C9B221707E
:105600008821920049050143D2B20A7080225205D6
:105610001043037010BD8023012202305B05034359
:105620000A401A708C238907C90F5B05C90018430B
:10563000C9B201707047011C002008B5021C031C90
:1056400000F03EF908BD0000014B18687047C046E5
:10565000ACFFFF1F084B10B5041C002B02D000212B
:1056600000F08AF9054B1868836A002B00D0984730
:10567000201C00F0F5F9C04679590000DC730000E9
:1056800038B5074B074C1D1CE41AA410002C04D09D
:10569000013CA300EB589847F8E701F0A7FE38BD9E
:1056A00004740000087400000E4B70B500251E1C29
:1056B0000D4CE41AA410A54204D0AB00F35898474F
:1056C0000135F8E701F08CFE084B00251E1C084C44
:1056D000E41AA410A54204D0AB00F3589847013552
:1056E000F8E770BD00740000007400000074000052
:1056F0000474000008B5034B011C186800F066F83C
:1057000008BDC046ACFFFF1F08B5034B011C18685D
:1057100000F016F808BDC046ACFFFF1F002310B50F
:10572000934203D0CC5CC4540133F9E710BD031C91
:105730008218934202D019700133FAE770470000D3
:1057400030B500293ED004390B68002B00DAC918A7
:105750001D4A1368141C002B02D14B60116031E00C
:1057600099420DD208680A189A4203D11368C318E7
:105770000B6053684B60216024E08A4203D8131CFD
:105780005A68002AF9D11D685C198C420BD109684E
:10579000691858181960904214D110685268091895
:1057A00019605A600EE08C4202D90C23036009E0B4
:1057B00008680C18944203D11468526800190860F4
:1057C0004A60596030BDC04638020020032370B5DE
:1057D000CC1C9C430834051C0C2C01D20C2405E085
:1057E000002C03DA0C2300202B6042E08C42F9D31A
:1057F000204A1368101C191C002913D00A68121BB8
:105800000DD40B2A02D90A608B181FE08B4202D1FB
:105810005A6802601BE04A685A600B1C17E00B1CB8
:105820004968E9E7144E3368002B03D1281C00F0C7
:1058300025F83060281C211C00F020F8031C421CB5
:10584000D0D00322C61C964386420AD11C60181C85
:1058500007210B301A1D8843821A0AD051429950F1
:1058600007E0311A281C00F009F8431CBAD0331C99
:10587000ECE770BD380200203402002038B5002368
:10588000064C051C081C2360FBF700F8431C03D1E1
:105890002368002B00D02B6038BDC046CC0200200E
:1058A000031C0A7801311A700133002AF9D17047BC
:1058B0000023C25C0133002AFBD1581E7047000050
:1058C000F7B52A4D061C2C680091171C0193002C7B
:1058D00001D1274C2C6063681F2B15DD254B002B55
:1058E00002D10120404240E08C20FFF703FF041E5C
:1058F000F7D02A6800230260021C883243602860C7
:1059000013609E420AD128E0002E26D0231C883343
:105910001868002810D1174B002BE2D084204000DB
:10592000FFF7E8FE0028DCD0031C0022FC335A609D
:105930009A60231C88331860012261688A408B00BA
:10594000C31880C3FC304168114341600199D96795
:10595000022E02D183681A438260002063685A1CB9
:1059600062600233009A9B001A51FEBDC8020020FB
:105970003C020020F5560000F0B587B00590039179
:10598000344D2C68002C63D0231C88331E68636858
:105990005A1E0192304A9B189B00F7180433E318F3
:1059A0000293019B002B3DDB039B002B07D0002EB5
:1059B00031D03B1C80331B68039A93422BD1626821
:1059C000029B0199013A5B68914201D1616002E05A
:1059D000002202994A60002B1DD062680492002EBA
:1059E00007D0012201998A40311CFC3148681042DD
:1059F00001D1984708E08968114203D105983968B8
:105A0000984701E038689847049B62689342B7D191
:105A10002B68A342B4D1019B043F013B0193029B3D
:105A2000043BBDE70D4B002B12D062682368002AAF
:105A30000BD1002B09D02B60002E02D0301CFFF7B9
:105A400063FE201CFFF760FE9BE7251C1C1C99E7EA
:105A500007B0F0BDC8020020FFFFFF3F095700005C
:105A6000FEE7C04603000000320000000300000013
:105A7000030000001B5B306D1B5B343B34336D1B3C
:105A80005B313B33376D0D53616E69747920636808
:105A900065636B206661696C6564211B5B306D0A10
:105AA000001B5B306D1B5B343B34316D1B5B313B4A
:105AB00033376D0D496E76616C6964207375707053
:105AC0006C7920766F6C74616765205B25645D205E
:105AD0006D56211B5B306D0A004D656173757265F3
:105AE0006D656E74206E756D6265722C2052544324
:105AF0002D3E5453522C205254432D3E5450522C80
:105B000000204D4D413834353120782C204D4D4109
:105B10003834353120792C204D4D41383435312001
:105B20007A2C00205254432D3E5453522C20525470
:105B3000432D3E5450522C202320436F6E666967DC
:105B4000204572726F72730025752C2025642C20FD
:105B500025642C002025642C2025642C2025640A33
:105B6000000D09307825303278202D2D3E205B3015
:105B700078253032782030782530327820307825FA
:105B80003032785D0A000D09307825303278202DCA
:105B90002D3E203078253032780A000D09307825E6
:105BA000303278202D2D3E202D2D2D2D0A000D0A6E
:105BB0000925642F256420737563636573732072F0
:105BC0006174652E0A000D0925642F256420737504
:105BD00063636573736573206D61746368656420C6
:105BE0007265662E2076616C7565206F6620307850
:105BF000253032782E0A000D092564206261642068
:105C0000636F6D6D616E64732E0A0A000D0A09419F
:105C100044584C33363220526561642041626F72C1
:105C20007465642E204465766963652044697361F8
:105C3000626C6564203A28000D0A4D4D41383435B8
:105C400031513A0A0D000D0A494E413231393A0AB2
:105C50000D000D0A0A424D45363830205265616408
:105C60002041626F727465642E20446576696365B5
:105C70002044697361626C6564203A28000D0A094A
:105C8000424D58303535616363656C2052656164FF
:105C90002041626F727465642E2044657669636585
:105CA0002044697361626C6564203A2820000D0A03
:105CB00009424D583035356779726F2052656164FD
:105CC0002041626F727465642E2044657669636555
:105CD0002044697361626C6564203A2820000D0AD3
:105CE0000920424D583035356D6167205265616439
:105CF0002041626F727465642E2044657669636525
:105D00002044697361626C6564203A2820000D0AA2
:105D1000094D414733313130205265616420416281
:105D20006F727465642E20446576696365204469EA
:105D30007361626C6564203A2820000D0A094C33B7
:105D4000474432304820526561642041626F72746A
:105D500065642E20446576696365204469736162D9
:105D60006C6564203A2820000D0A094C50533235E6
:105D70004820526561642041626F727465642E2010
:105D80004465766963652044697361626C6564206B
:105D90003A2820000D0A0954435333343732352052
:105DA000526561642041626F727465642E2044659F
:105DB000766963652044697361626C6564203A2882
:105DC00020000D0A0953493437303520526561648B
:105DD0002041626F727465642E2044657669636544
:105DE0002044697361626C6564203A2820000D0AC2
:105DF00009484443313030302052656164204162AB
:105E00006F727465642E2044657669636520446909
:105E10007361626C6564203A2820000D0A095349B9
