:1000000000060020310500005905000059050000D8
:1000100000000000000000000000000000000000E0
:100020000000000000000000000000005905000072
:100030000000000000000000590500005905000004
:100040005905000059050000590500005905000038
:100050005905000059050000590500005905000028
:100060006942000059050000734200005905000074
:100070005905000059050000590500005905000008
:1000800059050000590500005905000059050000F8
:100090008115000099150000590500005905000060
:1000A00059050000590500005905000059050000D8
:1000B00059050000590500005905000059050000C8
:10040000FFFFFFFFFFFFFFFFFFFFFFFFFE3DFFFFBF
:1004100008B5054B054803331B1A062B03D9044BBB
:10042000002B00D0984708BDB4FFFF1FB4FFFF1F8B
:10043000000000000648074908B5091A8910CB0FCB
:100440005918491003D0044B002B00D0984708BD21
:10045000B4FFFF1FB4FFFF1F0000000010B5074CE2
:100460002378002B09D1FFF7D3FF054B002B02D0D7
:10047000044800E000BF0123237010BDB4FFFF1F3C
:1004800000000000087D000008B5094B002B03D0D8
:100490000848094900E000BF08480368002B02D162
:1004A000FFF7C8FF08BD064B002BF9D09847F7E7C8
:1004B00000000000087D0000B8FFFF1FB0FFFF1F15
:1004C00000000000144B002B00D1124B9D4640222F
:1004D00092029A1A924600218B460F461148124A00
:1004E000121A05F0B0FE0D4B002B00D098470C4BB4
:1004F000002B00D098470020002104000D000B487D
:1005000005F025FE05F05CFE2000290001F062FCEC
:1005100005F02CFE0000080000060020000000008E
:1005200000000000B4FFFF1FD0020020996100000E
:1005300072B606480649074A02600A6003F09EFE4A
:1005400003F0DEFE62B6FFF7BDFF000080E100E0D1
:1005500080E200E0FFFFFFFF004800475905000070
:1005600002B4714649084900095649008E4402BC4C
:100570007047C04602B4714649084900095C490009
:100580008E4402BC7047C046002243088B4274D39D
:1005900003098B425FD3030A8B4244D3030B8B4284
:1005A00028D3030C8B420DD3FF22090212BA030C8D
:1005B0008B4202D31212090265D0030B8B4219D36E
:1005C00000E0090AC30B8B4201D3CB03C01A52418E
:1005D000830B8B4201D38B03C01A5241430B8B42D6
:1005E00001D34B03C01A5241030B8B4201D30B03BF
:1005F000C01A5241C30A8B4201D3CB02C01A5241E6
:10060000830A8B4201D38B02C01A5241430A8B42A8
:1006100001D34B02C01A5241030A8B4201D30B0291
:10062000C01A5241CDD2C3098B4201D3CB01C01AAB
:10063000524183098B4201D38B01C01A52414309B5
:100640008B4201D34B01C01A524103098B4201D3A3
:100650000B01C01A5241C3088B4201D3CB00C01A10
:10066000524183088B4201D38B00C01A5241430888
:100670008B4201D34B00C01A5241411A00D20146AD
:10068000524110467047FFE701B5002000F0FCF82A
:1006900002BDC0460029F7D003B5FFF775FF0EBCB9
:1006A0004243891A1847C04603460B437FD40022B1
:1006B00043088B4274D303098B425FD3030A8B42F6
:1006C00044D3030B8B4228D3030C8B420DD3FF2260
:1006D000090212BA030C8B4202D31212090265D02E
:1006E000030B8B4219D300E0090AC30B8B4201D3E1
:1006F000CB03C01A5241830B8B4201D38B03C01A28
:100700005241430B8B4201D34B03C01A5241030B9E
:100710008B4201D30B03C01A5241C30A8B4201D34F
:10072000CB02C01A5241830A8B4201D38B02C01AFA
:100730005241430A8B4201D34B02C01A5241030A71
:100740008B4201D30B02C01A5241CDD2C3098B4256
:1007500001D3CB01C01A524183098B4201D38B01D3
:10076000C01A524143098B4201D34B01C01A524176
:1007700003098B4201D30B01C01A5241C3088B42BB
:1007800001D3CB00C01A524183088B4201D38B00A6
:10079000C01A524143088B4201D34B00C01A524148
:1007A000411A00D201465241104670475DE0CA0F1F
:1007B00000D04942031000D34042534000229C46DF
:1007C00003098B422DD3030A8B4212D3FC228901E9
:1007D00012BA030A8B420CD3890192118B4208D3BF
:1007E000890192118B4204D389013AD0921100E021
:1007F0008909C3098B4201D3CB01C01A5241830935
:100800008B4201D38B01C01A524143098B4201D361
:100810004B01C01A524103098B4201D30B01C01A8C
:100820005241C3088B4201D3CB00C01A5241830806
:100830008B4201D38B00C01A5241D9D243088B425C
:1008400001D34B00C01A5241411A00D201466346FF
:1008500052415B10104601D34042002B00D5494263
:10086000704763465B1000D3404201B5002000F0A2
:100870000BF802BD0029F8D003B5FFF715FF0EBC39
:100880004243891A1847C0467047C046F0B55F46D4
:1008900056464D464446F0B40F0387B098464D0087
:1008A0003B0BCC0F061C924681469B466D0D019476
:1008B0006BD0664B9D4235D080275B467F031F433C
:1008C000F3009946624BFF00400F9C46074300230C
:1008D000BB46002665440093424617035000D20FE2
:1008E00053463F0B400D904600D172E0574A90426C
:1008F00067D080235B031F435346554A5B0FFF00BD
:100900001F43944653460021DB0060444246624048
:1009100092462D1A0E430F2E00D9A1E04D48B60085
:10092000805987465B461E4300D076E000239B46F5
:100930009946023308260093CEE799464346BB46C4
:1009400001930091009B022B6BD1019B9A460021E1
:1009500053460122002789461A403C4B00213F03A1
:100960000C0D24053F0B27433B4C1B0527401F4321
:100970007F00D2077F0817434846391C07B03CBCAC
:1009800090469946A246AB46F0BD03433ED05B4637
:10099000002B00D19CE1584600F0A8FD2823311C13
:1009A0001B1A021C5F46D940083A97400B1C964020
:1009B0003B439B46B1460023284D00262D1A009349
:1009C0008AE7524603213A43A0D10027002302219F
:1009D0009CE752463A4315D0002F00D185E1381CE0
:1009E00000F084FD021C28215046891A131CC840BF
:1009F0005146083B99409F400B1C07431748002174
:100A0000801A83E70027002301217FE700239B460C
:100A100099460133042600935EE703230C260093D6
:100A20005AE7032B00D13CE2012B00D0BFE11A1C96
:100A3000019B1A4000210023002789468EE70023EE
:100A40008027994600223F03004B87E7FF070000FD
:100A500001FCFFFF8C650000FFFF0F800DFCFFFF16
:100A6000BB4500D951E100D14CE14A460392002236
:100A70005C469046013D180E3F0238431B0201932D
:100A8000030C994603041B0C4946061C201C1F1C22
:100A90000093FFF779FD021C7A4302904946201C1F
:100AA000171CFFF7F7FD039B09041B0C19438F422A
:100AB0000CD9029B8919013B8E4200D952E18F4229
:100AC00000D84FE1029B8919023B0293CC1B201CEA
:100AD0004946FFF759FD009F834647434946201C7E
:100AE000FFF7D8FD039A0B041404240C23439F4200
:100AF0000DD95A469B19013A9E4200D930E19F42D6
:100B000000D82DE10222524294469B19E344029AF6
:100B1000DB1B17045A463A439346019C170C220CE0
:100B2000101C04925A4611042204120C141C090CC5
:100B30007C4305924A43414347436118100C09180E
:100B40008C4203D980204002844667440C0C120476
:100B50000804120C3C198118A34200D2E5E000D130
:100B6000DFE01F1B43465C1AA04592415242BF1A68
:100B7000B74200D10EE1381C4946FFF705FD009B46
:100B8000029043434946381C9846FFF783FD230CE7
:100B90000F041F43B8450CD9029BBF19013BBE424D
:100BA00000D9FBE0B84500D8F8E0029BBF19023B32
:100BB00002934346FF1A4946381CFFF7E5FC009BA9
:100BC000039043434946381C9846FFF763FD2404CD
:100BD0000904240C214388450CD9039B8919013B46
:100BE0008E4200D9DCE0884500D8D9E0039B891902
:100BF000023B03934346C91A029B039A1B04059CBC
:100C00001A43100C13049146221C049F1B0C5A43D8
:100C100044437B437843E318170CDB199C4203D908
:100C200080246402A44660441C0C12041B04120CB1
:100C300000199B18814200D296E000D1FCE04A46A0
:100C400001231A4391469B4BEB18002B00DC99E0E3
:100C50004A4652070AD00F2249460A40042A05D0C4
:100C60000431494592418946524293445A46D20141
:100C700006D55A46904B1A4080239346DB00EB186A
:100C80008E4A934200DD62E64A465946D208490739
:100C900011435A4689465702514601225B053F0BD4
:100CA0005B0D0A405AE680205A460003024208D0F3
:100CB000074206D107433F0399463F0B4246804B0C
:100CC0004CE65F4607433F033F0B221C7C4B45E647
:100CD00000F00CFC031C2030272800DC5EE6083BFB
:100CE0009E400023B346994665E6504600F0FEFB61
:100CF000021C2032272A00DC75E657460838874058
:100D000000237BE6994500D2AFE65A46594654087F
:100D10004A46C8075208024303924A46D207904601
:100D2000A9E60027884500D31CE7019F5A46BC4628
:100D3000E044B845BF417F42BF19FF18013ABE42A7
:100D400006D2BC425FD800D19FE03F1B934609E723
:100D5000B742FAD1019B4345F3D9371B934601E7CC
:100D60009346D4E60293B1E64A468919013A8E4287
:100D700018D99146814200D061E7019A9A4200D089
:100D80005DE760E74F4F7F1B382F13DD012253468D
:100D90001A404FE601235B42994654E7029308E765
:100DA000039327E788423CD874D0914647E7019BDC
:100DB0009A4648E71F2F44DC434B4A469C465B4615
:100DC0006544FA40AB4013434A46AA40151C6A1ECC
:100DD00095415A46FA402B43171C5A0709D00F2257
:100DE0001A40042A05D01A1D9A429B415B42FF1803
:100DF000131C3A023ED55346012200211A40002717
:100E000001238946AAE502235B429C46019AE344FA
:100E10009446E04490459B415B429B19DF193F1B80
:100E2000A0E6019F4A467C00BC42BF417F42BF19F9
:100E3000023AC91901949CE7002B95D10022019236
:100E40009BE75A46214B5B1BDA40202F27D0204BD3
:100E50009C465B466544AB4049460B43591E8B415B
:100E60001343072200271A4007D00F2200271A40F9
:100E7000042AB8D17A077F023F0BDB081343994657
:100E8000012253461A40002368E54145BBD89346EA
:100E9000002767E6019C9C42C3D391466DE700237F
:100EA000DAE780275B463F031F433F033F0B019A6E
:100EB000034B53E5FF030000FFFFFFFEFE070000AA
:100EC000FF07000002FCFFFF1E040000E2FBFFFF23
:100ED0003E040000F0B55F4656464D464446F0B429
:100EE000051C061C080387B099464F00030BCC0F66
:100EF00092469B467F0D019467D06C4B9F4236D043
:100F000080205B4640031843C0006B0F1843684BBA
:100F100083469C4600239846EE00674400934B4668
:100F200049461D03C90F5B0052462D0B5B0D8946D8
:100F300000D16EE05D498B4264D080205C49400363
:100F40008C4600210543ED00500F0543D200634459
:100F50004846FF187B1C9A46009B604002900B435A
:100F60000F2B00D9ACE053489B00C3589F465B460B
:100F70001D4300D082E00823009300239B460233E8
:100F800000269846CBE7029B01934346022B59D19A
:100F9000012400250026019B1C40444B00212D0309
:100FA0000A0D12052D0B1543434A1B0515401D4321
:100FB0006D00E4076D082543301C291C07B03CBCBC
:100FC00090469946A246AB46F0BD2B434ED05B46B9
:100FD000002B00D185E1584600F088FA021C282336
:100FE000291C9B1A161C5846D940083EB0400B1CC1
:100FF000B54003439B462E1C0023304F0093BF1A7D
:1010000098468CE7514629432ED100250022022123
:101010009EE75146294323D0002D00D154E1281CDE
:1010200000F064FA031C28215046C91A1A1CC84053
:101030005146083A914095400A1C05431F4800213B
:10104000C31A85E7032B00D1C2E1012B00D06DE16B
:101050004446019B00251C40E4B2002300269DE786
:1010600000250022012173E7032171E70423009387
:1010700000239B4601330026984650E70C2300933B
:10108000093B98464BE7802500242D030026074B9B
:1010900084E74B46AB46161C0193884675E7029BD6
:1010A000AB46161C019388466FE7C046FF07000059
:1010B00001FCFFFFCC650000FFFF0F800DFCFFFF70
:1010C000330C3604360C9C46331C140C1204120CE0
:1010D000534398466346534399466346634301939B
:1010E000331C41466343090C4B445B18994505D9B1
:1010F000802040028146019949440191190C0391D5
:1011000041460904090C1B045B1804932B0C9846F8
:10111000331C2D04290C4B4360460093434665461F
:1011200058435E43009B4D431B0C9946AE194E44F9
:101130008446B54203D980235B029946CC44350CE2
:101140002B1C0398634484460593009B36041B04C0
:101150001B0CF3189C446046039058460504060C8B
:10116000280C84465043351C814660466543444301
:101170004846000C8346724314195C44A24203D9CA
:101180008022520293465D44220CAD184A46120456
:10119000120C24044046A41862464A437143464355
:1011A00060460096464670438046100C844688444C
:1011B000E044414505D9802149028C4600996144AB
:1011C0000091019803998446614499429B415B4296
:1011D00099460598434684461204120C1B049B183A
:1011E00063449C46AB4683429B4140460A19CC442B
:1011F000A2428941E344CC45B6415C46000C80469E
:10120000494276425B426418334398448C42894198
:10121000AB459B4149425B4219430D1C009B454431
:10122000EE187602E50D2E43B346049B56021E438C
:10123000731E9E415B46D20D324366021643DB01AC
:101240000AD50123334076081E435B46DB071E4365
:101250005B465B089B465746634BFB18002B5ADDE9
:10126000720709D00F223240042A05D0321DB24243
:10127000B6417642B344161C5A46D20106D55A46A8
:101280005A4B1A4080239346DB00FB18584A93427E
:1012900034DD0124029B00251C400026554B7DE6D1
:1012A00080205B460003034208D0054206D1054377
:1012B0002D032D0B4C46161C4E4B6FE65D46054329
:1012C0002D032D0B4B4B69E6504600F00FF9031C24
:1012D0002033272B00DCA6E655460838854000223F
:1012E000ACE6281C00F002F9021C2032272A00DCA0
:1012F00075E6083885400026AB467DE65A46F60876
:10130000520716435A4601245502029A5B052D0BDB
:101310005B0D144042E6384DED1B382D0ADD0124EB
:10132000029B00251C400026002337E6019B574600
:10133000029391E71F2D25DC304B321C9C466744FD
:10134000BE405B46BB40371CEA407E1EB74113439C
:101350003B431E1C5B46EB401D1C730709D00F234B
:101360003340042B05D0331DB342B6417642AD194C
:101370001E1C2B0220D50124029B00251C400026A8
:1013800001230BE65A461E4BDB1BDA40131C202DB3
:101390001CD01C4A94465A466744BA40171C3E4328
:1013A000721E96411E4307230025334007D00F23AA
:1013B00000253340042BD6D16B076D022D0B012481
:1013C000F6081E43029B1C400023E7E50027E6E7E2
:1013D00080255B4601242D031D43019B2D032340E3
:1013E0001C1C2D0B034BD9E5FF030000FFFFFFFE84
:1013F000FE070000FF07000002FCFFFF1E040000C4
:10140000E2FBFFFF3E0400000B0330B5134C1A0B48
:101410004B00051C5B0DC90F0020A34210DD1048D6
:1014200083420EDC80200F4C40030243E41A1F2C41
:101430000ADD0D48C31ADA40131C484243405818CD
:1014400030BD0A4BC818FBE7281CE040084CA446F6
:1014500063449A40131C0343EFE7C046FE030000B9
:101460001D0400003304000013040000FFFFFF7F91
:10147000EDFBFFFF38B5041E16D0C50F00D0444267
:10148000201C00F033F8174B1B1A0A2821DC021C21
:10149000211C153291400A1C0B21081AC4405B051F
:1014A0002403240B5B0D03E000250023002400220D
:1014B0000021101C24030A0D1205240B14430A4AB0
:1014C0001B0514401C436400ED0764082C43211CD9
:1014D00038BD0B3884405B052403240B5B0D0022D0
:1014E000E6E7C0461E040000FFFF0F801C21012319
:1014F0001B04984201D3000C10391B0A984201D3F7
:10150000000A08391B09984201D30009043902A2D4
:10151000105C40187047C04604030202010101013B
:10152000000000000000000008B50A4B1A68002AFD
:1015300001D1094A1A601A6808491018884206D968
:1015400004F00EFE0C2303600120404201E018600D
:10155000101C08BDD0FFFF1FD0020020D0020020C9
:10156000022380788342804140427047437A0020C2
:10157000013B012B03D901200B7801330B7070471D
:1015800008B5002004F04EFA002803D00020011C0A
:1015900004F03CFA08BD0000024A136801331360EE
:1015A0007047C0462000002037B5002003F042F904
:1015B000C02300250D4A9B0013600D4A0D4C13609B
:1015C0000D4A281C13600D4B25716571A5711A68B1
:1015D000FA239B0053430A49236004F071FA281C44
:1015E000211C01AA04F0B0FA37BDC046189014546B
:1015F0001C9014541800002000A0145414FEFF1F67
:101600002400002008B5002003F019F98023054AC2
:101610009B001360044A00201360044903F080FC1F
:1016200008BDC0460CA0145410A01454D4FFFF1FD2
:1016300008B5002003F0B0FC80238220074A5B003D
:101640001360074A4000136003F08AFB0420FF3058
:1016500003F086FB002003F0F7F808BD0CA014543B
:1016600010A0145408B50023354A36491360364A91
:101670001360364A0133FF331360354A1360354A2D
:101680001360354A1360354A1360354A1360354A92
:101690001360012208780240081C3349002A01D057
:1016A0000B6000E00A60314A3149136000220A6091
:1016B00030490A60304A1360304A1360304A136080
:1016C000304A1360304A1360304A13600378DB07F6
:1016D00003D50220FF3003F035FB092003F040FB67
:1016E0000C2003F03DFB052003F03AFB082003F03B
:1016F00037FB0620FF3003F033FB0E20FF3003F0F2
:101700002FFB8320400003F02BFB0820FF3003F069
:1017100027FB0C20FF3003F015FB8220400003F074
:101720001FFB0420FF3003F01BFB072003F018FB16
:10173000062003F015FB8020400003F011FB08BDDC
:101740000C9014540CFEFF1F109014541490145459
:10175000189014541C901454209014542490145431
:101760003090145400A0145404A0145408A014542D
:101770000CA0145410A0145414A0145418A0145401
:101780001CA0145428A014542CA0145434A0145495
:1017900008B5092003F0E4FA08BD08B50C2003F0F1
:1017A000DFFA08BD08B5384B984259D013D8374BEB
:1017B000984243D007D8364B984230D06433984291
:1017C00038D0C83B12E0334B98423ED06433984245
:1017D00042D0314B15E0314B98422FD00CD8304BD2
:1017E00098421CD06433984224D02E4B984242D168
:1017F000052003F0B5FA15E02B4B984225D006D80A
:101800002A4B984237D1052003F0AAFA20E0C823DA
:101810001B01984220D0264B984221D02BE0052076
:1018200003F090FA082003F09BFA0620FF3003F043
:1018300097FA24E0052003F093FA02E0052003F074
:1018400081FA082003F07EFAEFE7052003F07AFA28
:10185000082003F085FA09E0052003F081FA02E090
:10186000052003F06FFA082003F06CFA0620FF3021
:1018700003F068FA03E000200E4902F0E9FC0E4B89
:10188000186802F001FE08BDC40900003408000019
:101890006C070000FC08000098080000540B0000D2
:1018A0008C0A0000280A00001C0C0000B80B000085
:1018B000E40C00000C66000008FEFF1F08B5FFF7EF
:1018C00071FF092003F03EFA0C2003F049FA83204F
:1018D000400003F045FA08BD08B5FFF763FF092093
:1018E00003F03EFA0C2003F02DFA8320400003F0B1
:1018F00029FA08BDAF2108B50B4B021CC3189BB2D7
:1019000089008B4202D8FFF7D9FF0BE0074BC318C1
:101910009BB28B4202D8FFF7DFFF03E000200449AF
:1019200002F096FC08BDC046F8F8FFFFD8F5FFFFAF
:101930003966000008B5FFF72BFFFFF72EFF832065
:10194000400003F0FFF9024B186802F09DFD08BD4E
:1019500008FEFF1F10B5041C002901D0FFF782FE0E
:101960000021022001F03CFA211C042001F038FA89
:1019700010BD08B501200021FFF7ECFF3C2001213C
:10198000FFF7E8FFF6E70000F0B591B01D1C16ABBD
:101990000C91197817AB05921A7818AB1B78041CB8
:1019A0000D931CAB1B780EA80E931DAB1B880893E0
:1019B00021231B18DB7F09931FAB1B880F9320ABE0
:1019C0001B780A930B1C914200D9131CDFB2059BB4
:1019D000002D02D1002B06D101E0002B03D0002006
:1019E000544902F035FC0898FFF784FF211C0020C1
:1019F00002F01EFA0023089C0293039307930493BA
:101A000000230693069A199B93426BDB00261A9BD0
:101A10009E4264DABB190B932C226B469B181878F4
:101A200001210C9B9847002838D1049B0133049373
:101A3000089B9C4204D9643CA4B2201CFFF75AFFC7
:101A4000002D16D0099A6B7BD31A5A425341039A40
:101A5000D31803930A9B002B39D0EB7A287B697B40
:101A600000900191DBB2F2193349002002F0F0FB43
:101A70002DE0059B099A1B7AD31A5A425341039AC7
:101A8000D31803930A9B002B21D0059BF2191B7AD4
:101A9000281CDBB2294902F0DBFB18E0022810D138
:101AA000002027490B9A02F0D3FB079B01330793D1
:101AB0000F9B9C420BD26434A4B2201CFFF71AFF88
:101AC00005E0033843425841029B1B1802931B9BBD
:101AD000002B02DD181C02F0D7FC013697E7069BAD
:101AE00001338EE70E9B002B04D07B1CDFB20D9BD5
:101AF0009F4285D9049A079B94461249634400206B
:101B000002F0A6FB322002F0BFFC099B039A00936F
:101B10000D49049B002002F09BFB322002F0B4FC34
:101B20000A49029A002002F093FB322002F0ACFC3A
:101B300011B0F0BD0C660000F96600001E670000E1
:101B400033670000466700005E6700008F67000093
:101B5000F0B591B00D9316AB0F1C02CB041C1B7893
:101B60000E931AAB1B880F931BAB1D881CAB1E7802
:101B7000002811D0101CFFF745FD601E132877D8F0
:101B8000FEF7F8FC0E45484B4E765154575A5D60AF
:101B9000636966766C6F7625394902F049F96DE024
:101BA000312200230292199A00970392169A019308
:101BB0000492189A089605920D9A099506920F9A22
:101BC000304807920E9A30490A92304A1CE0A02110
:101BD0008022C9011202052001F072FF05220023B4
:101BE0000292199A2A480392169A2A490492189A3C
:101BF000009705920D9A019306920F9A0896079204
:101C00000E9A09950A92244AFFF7BEFE2DE00020A5
:101C1000224928E00020224925E00020214922E035
:101C2000002021491FE0002020491CE0002020491D
:101C300019E000201F4916E000201F4913E0002092
:101C40001E4910E000201E490DE000201D490AE059
:101C500000201D4907E000201C4904E000201C4929
:101C600001E000201B4902F0E3F8FFF7E1FC05E08A
:101C70001949221C002002F0EBFAF6E711B0F0BD82
:101C8000A4670000D0670000612F0000080000205A
:101C9000DE670000153B0000F8FFFF1FEA67000049
:101CA000156800004668000076680000A66800001D
:101CB000D3680000006900002C6900005A69000028
:101CC00086690000B3690000DF6900000B6A00004C
:101CD000386A0000646A0000906A0000031C303B10
:101CE000021C181E09280CD9131C613B052B01D8B6
:101CF000573A05E0131C413B0020052B01D8373A29
:101D0000101C704770B502F0AEF8051C02F0ABF87D
:101D1000FF24061C281C2040FFF7E0FF051C301C98
:101D20002040FFF7DBFF2D012818C0B270BD70B551
:101D300002F099F8041C02F096F8061C02F093F8E1
:101D4000051C02F090F8FF23FA221C401D4092006F
:101D5000303C544364212A1C1E40303E4E43303AEE
:101D60005A394A43A4190340A218303BD01870BD19
:101D700038B502F078F8051C02F075F8041C02F082
:101D800072F8FF2364221D401C40303D5543221C45
:101D90000A21303A4A430340AA18303BD01838BDD4
:101DA00010B5094C0020211C02F042F8211C002033
:101DB00002F03EF80549002002F03AF804490020FC
:101DC00002F036F810BDC0460E6B00003E6B0000FE
:101DD0006F6B000020225423F0B5E7B008AFBA18AB
:101DE000D41800210722201C04F02DFA202274238D
:101DF000BA18D5182022603BBA18D3189422BA1802
:101E0000136020221C23BA18D31820226B602423CD
:101E1000BA18D3182022EB602C23BA18D31820222A
:101E20002B613423BA18D31820226B613C23BA18D3
:101E3000D3182022AB614423BA18D3182022EB61B7
:101E40004C23BA18D31820222B6268238821BA1891
:101E5000D318FA4A79180A6003221A71242201263B
:101E6000BA1800209A603B632670AC6002F0DAFC7E
:101E7000301C02F0D7FC8022F14B12021A6002F0F3
:101E800021FB00200096021C031C011C01F0F2FF44
:101E9000EC49002001F0CCFFC82002F0F5FAEA4935
:101EA000002001F0C5FFC82002F0EEFAE74900204B
:101EB00001F0BEFFC82002F0E7FAE54A331C022118
:101EC000E44802F023FB311C301C02F02BFB002005
:101ED00003F0E4FC20225C23BA18D118FC23DB00B9
:101EE0000B800023CB8000230B81002300208B720A
:101EF0004E808E8003F000FD24230021F818321C50
:101F000004F0A1F948217B6F79187B64A288202016
:101F10000A802A21A279381841180A702422032144
:101F2000821811705021FB64A288791820200A8041
:101F30003221A2793818411820200A702C2105225C
:101F4000381841180A703A217B63A28879183A87B9
:101F5000A27920200A703421022279180A704021C7
:101F6000FB63A28879180A802221A27938184118C7
:101F70000A703C21042279180A7058217B65A288D6
:101F8000791820200A803A21A27938184118202097
:101F90000A70342108223818411820200A70402184
:101FA000FB65A2883818411820200A804221A279B6
:101FB0003818411820200A703C220921381882184C
:101FC0002020117048227B66A388381882182020B0
:101FD00013804A22A37938188218202013704422D3
:101FE0000A2338188218137000224233C3181A705B
:101FF00020221023BA18D218281C331C02F06EFCC1
:102000000021022000F0ECFE9349944802F07EFE8D
:10201000FFF728FB0820FF3002F094FEC82002F0F2
:1020200033FA0820FF3002F09BFEC82002F02CFAA1
:102030000820FF3002F086FEC82002F025FA0820B2
:10204000FF3002F08DFEC82002F01EFA0820FF309B
:1020500002F078FEC82002F017FA0820FF3002F0E4
:102060007FFE1D207E4900F053FF40207D4901F096
:1020700021FDFFF75FFC01F071FC00233B61BB61B8
:1020800080231B02FB6103237B617749002001F061
:10209000CFFE764C206802F0F7F97549002001F078
:1020A000C7FE206802F0F0F972493A69BB69002066
:1020B00002F0CEF8206802F0E7F96F4E6F4D7049DC
:1020C00032682B68096800200091F96901916D4917
:1020D00002F0BEF8206802F0D7F96B4B6B4A6C49EE
:1020E000D2586B4B00205B6909680091694902F086
:1020F000AFF8206802F0C8F9674B67491A785B7837
:102100008979D2B2DBB200910020644902F0A0F8D4
:10211000206802F0B9F9604B61491A7A1B7E097890
:10212000D2B2DBB2009100205E4902F091F8206843
:1021300002F0AAF95C4B5D491A785B780969D2B262
:10214000DBB2009100205A4902F082F8206802F0C8
:102150009BF9584B4D499A78574BD2B2CB584C49C2
:10216000002049680091554902F072F8206802F099
:102170008BF9534B53491A682423FB181B78002012
:1021800002F066F8206802F07FF94F49002001F064
:102190004FFE206802F078F94C49002001F048FE1B
:1021A000206802F071F94A49002001F041FE2068E0
:1021B00002F06AF94749002001F03AFE206802F077
:1021C00063F94549002001F033FE206802F05CF914
:1021D0004249002001F02CFE206802F055F94049E8
:1021E000002001F025FE206802F04EF93D49002054
:1021F00001F01EFE206802F047F93B49002001F083
:1022000017FE206802F040F93849002001F010FE66
:10221000206802F039F9BA697B693549002002F07B
:1022200017F8206802F030F93249002001F000FE72
:10223000206802F029F9304900205FE06D150000A8
:1022400028020020A16B0000BC6B0000C26B0000E4
:1022500028FEFF1F34FFFF1F44FEFF1F34FEFF1F39
:1022600008000020F8FFFF1FC96B000000FEFF1FE1
:10227000ED6B00001F6C000010FEFF1F14FEFF1F1F
:1022800004FEFF1F536C00003C100000007004406F
:1022900000D003408B6C000000400640C16C000081
:1022A00000500640F06C000000E0074000ED00E048
:1022B000206D000000D00740341000005A6D00006F
:1022C00020000020926D0000C06D0000CA6D00006B
:1022D000E76D0000036E00001F6E00003C6E000002
:1022E000636E0000826E0000A16E0000CC6E0000E4
:1022F000EF6E00001E6F00003A6F000001F098FDC5
:10230000206802F0C1F8E149002001F091FD206849
:1023100002F0BAF8DE49002001F08AFD206802F0E0
:10232000B3F8DC49002001F083FD206802F0ACF82E
:10233000D949002001F07CFD206802F0A5F8D749BA
:10234000002001F075FD206802F09EF8D4490020BD
:1023500001F06EFD206802F097F8D249002001F0EC
:1023600067FD206802F090F8CF49002001F060FD81
:10237000206802F089F8CD49002001F059FD20685D
:1023800002F082F8CA49002001F052FD206802F0F4
:102390007BF8C849002001F04BFD206802F074F87A
:1023A000C549002001F044FD206802F06DF8C349E2
:1023B000002001F03DFD206802F066F8C0490020D1
:1023C00001F036FD206802F05FF8BE49002001F000
:1023D0002FFD206802F058F8BB49002001F028FDCD
:1023E000206802F051F8B949002001F021FD206871
:1023F00002F04AF801F037FDFF220240622A00D1C4
:10240000EBE033DC342A01D100F0F7FB20DC312A89
:1024100000D152E207DC0A2A01D000F0A1FC002022
:10242000AB4900F099FC322A00D1EDE2332A01D009
:1024300000F096FCF869FFF7E5F80121FA692A2017
:1024400000F06BFD0020A34901F002FFA24D9BE3C9
:10245000362A01D100F002FC00DAE5E3392A01D185
:1024600000F015FC612A24D000F07AFC672A00D124
:10247000AAE10CDC642A00D1D1E000DABEE0652AD2
:1024800000D1D8E0662A00D1E0E000F069FC692ABA
:1024900000D1ADE100DAA3E16A2A00D1B4E16B2AF0
:1024A00001D000F05DFC8D49002001F0C1FCFFF778
:1024B00060FA8B49002001F0BBFC8A49002001F042
:1024C000B7FC206801F0E0FF8749002001F0B0FC74
:1024D0008649002001F0ACFC8549002001F0A8FCF1
:1024E000206801F0D1FF8349002001F0A1FC2068A1
:1024F00001F0CAFF8049002001F09AFC206801F039
:10250000C3FF7E49002001F093FC206801F0BCFF6E
:102510007B49002001F08CFC206801F0B5FF79496F
:10252000002001F085FC206801F0AEFF7649002014
:1025300001F07EFC206801F0A7FF7449002001F043
:1025400077FC206801F0A0FF7149002001F070FCC9
:10255000206801F099FF6F49002001F069FC2068B4
:1025600001F092FF6C49002001F062FC206801F04C
:102570008BFF6A49002001F05BFC206801F084FFBA
:102580006749002001F054FC206801F07DFF654997
:10259000002001F04DFC206801F076FF6249002028
:1025A00001F046FC6149002001F042FC206801F086
:1025B0006BFF5F49002001F03BFC206801F064FFE5
:1025C00001F051FCFF220240352A01D101235BE5D5
:1025D0006D2A00D0C4E3142356E55649002001F0CB
:1025E00027FCFFF7A4FB30603268534B9A4201D1BD
:1025F000524B3360326800205149B3E35149002007
:1026000001F016FCFFF793FB28602A684A4B9A42B8
:1026100001D14A4B2B602A6800204B49A2E34B4969
:10262000002001F005FCFFF782FB494B4949186087
:102630001A68002096E34849002001F0F9FBFFF7F3
:1026400061FBB86145490020BA698BE34449002029
:1026500001F0EEFBFFF756FB051C424C2A1C211C27
:10266000002001F0F5FD4049002001F0E1FBFFF7FB
:1026700049FB2823FB18021C1870211C002001F0C4
:10268000E7FD992D74D10020384965E35E6F0000A5
:10269000826F00009C6F0000B76F0000D56F0000D4
:1026A000F26F000011700000307000004A700000EE
:1026B0007570000095700000B5700000D2700000C9
:1026C0000E710000257100003C7100005B7100007C
:1026D000817B0000B37A0000881300003A7A000082
:1026E0006E71000079710000B7710000F97100008F
:1026F0003A7200007A720000AA720000E7720000CD
:102700002673000064730000A1730000DF730000F3
:102710001C7400005B74000098740000C174000019
:10272000FE7400003575000072750000AF75000082
:10273000C2750000F27500000F270000102700008E
:1027400020760000407600006E760000887600005B
:1027500004FEFF1FB7760000D27600000877000065
:102760001F77000052770000687700009177000023
:1027700020229823BA18D4183368386963602580FA
:10278000FFF7B8F8F869FEF73DFF2C223B7EBA1838
:102790001370E04B20211A6808237918CB18211CEC
:1027A00020240093029201230C223C19A2180193C9
:1027B000002002F017FD021E03D00020D64901F0D0
:1027C00047FDFEF735FF60E4D449002001F030FBFF
:1027D000FFF7ADFA83B23B611A1C0020D049C1E279
:1027E000D049002001F024FB0120FFF7D9FA4CE486
:1027F000CD49002001F01CFBFFF799FA83B2FB6181
:102800001A1C0020C949ADE2BA69C949002001F08B
:102810001FFD01F028FBC749041C002001F008FB44
:1028200001F021FBC449F860002001F001FB01F038
:102830001AFBC249B860002001F0FAFAFFF777FAF4
:10284000BF49061C002001F0F3FAFFF770FABD49FA
:10285000051C002001F0ECFAFFF769FABA4978602C
:10286000002001F0E5FAFFF74DFA38600095FB69AA
:1028700002960193B5497A69BB69002001F0E8FC32
:10288000231C303B1C1CFA68631E9C41303A0092AA
:10289000BA680296303A511E8A41039501923A690C
:1028A000E3B20492BA8805923A6806927869B969E7
:1028B000FA69FFF74DF9FFF7E8FBA549002001F0A1
:1028C000C7FCF869FEF79EFE2A200121FA6900F094
:1028D00024FB33240025013C002C10D001200221D0
:1028E00000F03EFB9B4B1A7A5B7A92019B081343E4
:1028F000802292015340984A9B18ED18EBE7281C60
:102900003221FDF7D1FE261C251CB860FC607C61DD
:10291000BC610120022100F023FB8E4B1A7A5B7A06
:1029200092019B0813438022920153408A4A9B18CC
:10293000BA689B1A9BB2FB611C22BB5E32B2934207
:1029400006DC221C24B29C4200DDBA8B94B200E06B
:10295000FE692AB23A61002B19DD18217A5E94468D
:10296000002A14DD1420395E002910DA0C22B85E2A
:1029700000280CDA88420ADA634508DDFA2332B20D
:102980005B009A4203DD754B22B29A4203DB744B23
:102990003A699A422CDD3869FEF76CFD714A724B38
:1029A000FEF798FA021C0B1C00207049FDF76EFF21
:1029B000FEF72AFD80B2051C00B2632800DD632506
:1029C0002DB2281C01F0D9F820229823BA18D61865
:1029D0003060281C01F0C8F800257060301C00F041
:1029E0006FFF002062493A6901F032FC2E1C01E0C1
:1029F0000135ADB2032001F047FDBB8AFB603B8B84
:102A00007B61FB69BB6184E75A49002001F020FC2F
:102A1000F869FEF7F7FD2A200121FA6900F07DFA36
:102A200033240025013C002C10D00120022100F0AD
:102A300097FA484B1A7A5B7A92019B0813438022DB
:102A400092015340444A9B18ED18EBE7281C3221B1
:102A5000FDF72AFE051C48492A1C201C01F0F8FB42
:102A6000FFF786F983B2BB606B4686B276007B6067
:102A7000331C6A460833DB08DB00D31A9D46FA2074
:102A800008AB8000FB6001F0FFFCB4421AD00221C9
:102A9000012000F065FA2F4AF968137A527A9B01F7
:102AA00092081A4380239B015A402B4B0020D218D6
:102AB00092B2531B12B20B53521B304901F0C8FBA8
:102AC0000234E2E700202E4901F0C2FB0024A2B24A
:102AD000B968F86801F063F820219823791862003A
:102AE000CB180134D052602CF1D10024202298233D
:102AF000BA18D518625F00202249023401F0A8FB01
:102B0000C02CF3D1281C602100F004FF7B689D4697
:102B1000FFF7BBFA18FEFF1FB7770000D877000059
:102B200004780000267800005478000090780000B7
:102B3000AD780000E77800001079000029790000E6
:102B40006879000094790000CC790000FD790000DC
:102B50005D7A00000800002000E0FFFF0CFEFFFF90
:102B600010270000FA7E6ABC7493783F00004E4044
:102B7000717A0000777A0000917A0000997A00005B
:102B8000A07A0000AB7A000080260221012000F02C
:102B9000E7F9764CB601237A627A9B0192081A43D0
:102BA000734B7240D21893B202210320FB6000F0F5
:102BB000D7F9227A637A92019B0813436C4A7340D7
:102BC0009B189BB202210520BB6000F0C9F9227A54
:102BD000637A92019B0813435E400C23FA5E08213E
:102BE0007B5E63490020761800966249013D01F042
:102BF0002FFB002DC8D1FFF748FA5F49002001F0F4
:102C000017F901F030F9FFF769F820229823BA1874
:102C1000D418206001F027F9FFF760F86060201CED
:102C200000F04EFEFFF731FAF869FEF7EBFC0321E6
:102C3000FA692A2000F071F9FA2400204F4901F0C6
:102C400007FBA4000120022100F08AF9474B013C58
:102C50001A7A5B7A002CF5D1FFF717FA0020484961
:102C600001F0F6FA0024201C00F087FF20229823B0
:102C7000BA18D5182860201C00F076FF013468606F
:102C8000281C00F01DFE642CEDD1FFF7FEF93D4934
:102C9000002001F0CDF8F869FEF7B4FC0121FA69D3
:102CA0002A2000F03AF9FA240020344901F0D0FA41
:102CB000A4000221012000F053F92C4B00201A7AC5
:102CC0005B7A92019B081343802292015340284A69
:102CD0002D499B181A1C013C01F0BAFA002CE8D1CE
:102CE000201C2A49FA2401F0B3FAA400022103208F
:102CF00000F036F91D4B00201A7A5B7A92019B088E
:102D00001343802292015340194A1F499B181A1CF1
:102D1000013C01F09DFA002CE8D1201C1C49FA244A
:102D200001F096FAA4000221052000F019F90F4BDA
:102D300000201A7A5B7A92019B0813438022920149
:102D400053400B4A10499B181A1C013C01F080FAB1
:102D5000002CE8D1FFF799F901F06AF8FFF795F92F
:102D600000200C4901F074FAFFF78FF908000020E9
:102D700000E0FFFFC27A0000D07A0000EA7A00008B
:102D8000007B0000197B0000447B0000557B0000A5
:102D90006B7B0000D67500001FB5041C01A9002044
:102DA00002F0D2FD01A8694602F00CFD009B6846C6
:102DB0001C1901A9009402F08DFC01A90122002038
:102DC00002F0EEFD1FBD00000022034B1A608022BE
:102DD000024B1206DA67704700A01C5804E100E0BD
:102DE00010B50A2308286FD80C1CFDF7C3FB051B80
:102DF000283C48626466570001F006FF052301285D
:102E000062D0FFF7E1FF201CFFF7C6FF0020011C86
:102E100001F088FD041C0020012101F083FB002C3F
:102E20004FD150E001F0F0FE062301284CD0FFF70F
:102E3000CBFF201CFFF7B0FF01200021E8E701F0E5
:102E4000E3FE082301283FD001F0F4FB002803D063
:102E50000020012101F066FB0220002101F062FD4B
:102E600000282ED12FE001F0CFFE072300282BD021
:102E7000FFF7AAFF201CFFF78FFF032005E0FFF7F5
:102E8000A3FF201CFFF788FF0420002101F04AFD6A
:102E9000041C01F0B9FE0028C1D1BDE708200021C3
:102EA00001F040FD00280CD10120011C01F03AFB8B
:102EB00009E0052002E0062000E00720002101F0E3
:102EC00031FD092300E00023181C10BD10B50C1CB7
:102ED0000C4B88B01B7806A90B800B4B05AA1B680E
:102EE00010700A484B6004AB1C700068009301230B
:102EF00002900193002002F075F9431E98414000B2
:102F000008B010BD0800002010FEFF1F18FEFF1FB4
:102F1000C223FF3308704B60704708B518280FD8DC
:102F2000172818D20F2806D80E2814D2031C093BE4
:102F3000012B13D80FE0031C113B042B0ED80AE021
:102F4000212804D81F2806D21D2807D103E0031C1E
:102F5000233B0E2B02D8FFF7B9FF00E0032008BD8A
:102F6000FF2310B588B005AA1370182804D80928C3
:102F700006D206281BD803E0031C1D3B142B16D8D1
:102F80000C4B10701C7806AB1C800B4C0B48246853
:102F9000006807940A4C01910290191C00940123C7
:102FA000002002F02CF9431E9841400000E003206D
:102FB00008B010BD0800002010FEFF1F18FEFF1F04
:102FC0001000002037B50E24FF34051C201C01F032
:102FD000B9FE0A2001F058FA201C01F0C1FE0C20B5
:102FE00001F0BEFE0123084A002015700093FA2369
:102FF0009B000193011C054B02F002FE051C201CE6
:1030000001F0A0FE281C3EBD550000205400002009
:1030100008B50020FFF7D6FF3F20FFF7D3FF0020C1
:10302000FFF7D0FF002008BD08B52220FFF7CAFF38
:103030000020FFF7C7FF0020FFF7C4FF5F20FFF766
:10304000C1FF3F20FFF7BEFFFFF7E2FFFFF7E0FF02
:10305000002008BD38B5051C0C1C1535EDB221202B
:10306000FFF7B0FF281CFFF7ADFF201CFFF7AAFFFA
:103070003834281CFFF7A6FFE0B2FFF7A3FFFFF7E5
:10308000C7FF002038BDF8B5061C0C1C351C271CDA
:103090002120FFF797FF2A35301CEDB2FFF792FF92
:1030A000201CFFF78FFF281CFFF78CFF201CFFF769
:1030B00089FFFFF7ADFF2120FFF784FF281CFFF7F2
:1030C00081FF1C37201CFFB2FFF77CFF281CFFF795
:1030D00079FF381CFFF776FFFFF79AFF2120FFF7F3
:1030E00071FF281CFFF76EFF381CFFF76BFF301CC9
:1030F000FFF768FF381CFFF765FFFFF789FF212006
:10310000FFF760FF301CFFF75DFF3834381CE4B276
:10311000FFF758FF301CFFF755FF201CFFF752FF49
:10312000FFF776FF2120FFF74DFF301CFFF74AFF26
:10313000201CFFF747FF281CFFF744FF201CFFF768
:1031400041FFFFF765FF0020F8BDF8B5071C0C1C18
:103150003D1C261C2120FFF735FF2A35381CEDB217
:10316000FFF730FF201CFFF72DFF281CFFF72AFF79
:10317000201CFFF727FFFFF74BFF2120FFF722FF5F
:10318000281CFFF71FFF3836201CF6B2FFF71AFF86
:10319000281CFFF717FF301CFFF714FFFFF738FF5D
:1031A0002120FFF70FFF281CFFF70CFF301CFFF753
:1031B00009FF381CFFF706FF301CFFF703FF1C3424
:1031C000FFF726FF2120FFF7FDFEE4B2381CFFF7D2
:1031D000F9FE201CFFF7F6FE281CFFF7F3FE201C6B
:1031E000FFF7F0FEFFF714FF0020F8BD70B50D1CCF
:1031F000041C2E1C2120FFF7E5FE201CFFF7E2FE39
:103200002A36281CF6B2FFF7DDFE201CFFF7DAFE97
:10321000301CFFF7D7FEFFF7FBFE2120FFF7D2FEA1
:10322000201CFFF7CFFE301CFFF7CCFE201C2A30FD
:10323000C0B2FFF7C7FE1534301CE4B2FFF7C2FE80
:10324000FFF7E6FE2120FFF7BDFE201CFFF7BAFEC8
:10325000281C1C30C0B2FFF7B5FE3835201CFFF724
:10326000B1FEE8B2FFF7AEFEFFF7D2FE002070BD60
:10327000F8B5061C0C1C351C271C2A35EDB2212084
:10328000FFF7A0FE281CFFF79DFE201CFFF79AFE0B
:10329000301CFFF797FE201CFFF794FEFFF7B8FEE7
:1032A0002120FFF78FFE301CFFF78CFE1C37201CFF
:1032B000FFB2FFF787FE301CFFF784FE381CFFF7D4
:1032C00081FEFFF7A5FE2120FFF77CFE301CFFF7F3
:1032D00079FE381CFFF776FE281CFFF773FE381CBA
:1032E000FFF770FEFFF794FE2120FFF76BFE281C0E
:1032F000FFF768FE3834381CE4B2FFF763FE281C81
:10330000FFF760FE201CFFF75DFEFFF781FE212026
:10331000FFF758FE281CFFF755FE201CFFF752FE52
:10332000301CFFF74FFE201CFFF74CFEFFF770FE2E
:103330000020F8BDF8B5061C0C1C351C271C2A35CE
:10334000EDB22120FFF73EFE281CFFF73BFE201CBC
:10335000FFF738FE301CFFF735FE201CFFF732FE6A
:10336000FFF756FE2120FFF72DFE301CFFF72AFE47
:103370003837201CFFB2FFF725FE301CFFF722FE76
:10338000381CFFF71FFEFFF743FE2120FFF71AFE50
:10339000301CFFF717FE381CFFF714FE281CFFF740
:1033A00011FE381CFFF70EFEFFF732FE2120FFF75B
:1033B00009FE281CFFF706FE1C34381CE4B2FFF798
:1033C00001FE281CFFF7FEFD201CFFF7FBFDFFF7A9
:1033D0001FFE2120FFF7F6FD281CFFF7F3FD201C40
:1033E000FFF7F0FD301CFFF7EDFD201CFFF7EAFDB5
:1033F000FFF70EFE0020F8BD38B5051C0C1C21207F
:10340000FFF7E0FD281C2A35EDB2FFF7DBFD201C9D
:10341000FFF7D8FD281CFFF7D5FD201CFFF7D2FDD4
:10342000FFF7F6FD2120FFF7CDFD281CFFF7CAFDB1
:10343000201CFFF7C7FD3834281CFFF7C3FDE0B29E
:10344000FFF7C0FDFFF7E4FD002038BDF8B5061C0E
:103450000C1C351C271C2120FFF7B4FD2A35301C1D
:10346000EDB2FFF7AFFD201CFFF7ACFD281CFFF706
:10347000A9FD201CFFF7A6FDFFF7CAFD2120FFF7DD
:10348000A1FD281CFFF79EFD3837201CFFB2FFF777
:1034900099FD281CFFF796FD381CFFF793FDFFF7F9
:1034A000B7FD2120FFF78EFD281CFFF78BFD381C90
:1034B000FFF788FD301CFFF785FD381CFFF782FD04
:1034C000FFF7A6FD2120FFF77DFD301CFFF77AFDF9
:1034D000381CFFF777FD301CFFF774FD201CFFF749
:1034E00071FD1C34FFF794FD2120FFF76BFDE4B262
:1034F000301CFFF767FD201CFFF764FD281CFFF759
:1035000061FD201CFFF75EFDFFF782FD0020F8BD86
:10351000F8B5071C0C1C3D1C261C2A35EDB22120D9
:10352000FFF750FD281CFFF74DFD201CFFF74AFD5B
:10353000381CFFF747FD201CFFF744FDFFF768FD2F
:103540002120FFF73FFD381CFFF73CFD1C36201CF7
:10355000F6B2FFF737FD381CFFF734FD301CFFF7DC
:1035600031FDFFF755FD2120FFF72CFD381CFFF73B
:1035700029FD301CFFF726FD281CFFF723FD301C1A
:10358000FFF720FDFFF744FD2120FFF71BFD281C5E
:10359000FFF718FD201CFFF715FD3834281CFFF736
:1035A00011FDE0B2FFF70EFDFFF732FD0020F8BD80
:1035B000F8B5061C0F1C351C3C1C2A35EDB2212029
:1035C000FFF700FD281CFFF7FDFC381CFFF7FAFC95
:1035D000301CFFF7F7FC381CFFF7F4FCFFF718FD71
:1035E0002120FFF7EFFC301CFFF7ECFC3834381CCF
:1035F000E4B2FFF7E7FC301CFFF7E4FC201CFFF708
:10360000E1FCFFF705FD2120FFF7DCFC301CFFF794
:10361000D9FC201CFFF7D6FC281CFFF7D3FC201C8C
:10362000FFF7D0FCFFF7F4FC2120FFF7CBFC281CB0
:10363000FFF7C8FC201CFFF7C5FC281CFFF7C2FCE5
:10364000381CFFF7BFFCFFF7E3FC2120FFF7BAFCB3
:10365000281CFFF7B7FC381CFFF7B4FC301CFFF741
:10366000B1FC201CFFF7AEFCFFF7D2FC0020F8BD38
:1036700008B52520FFF7A6FC0020FFF7A3FC0020DB
:10368000FFF7A0FC5F20FFF79DFC3F20FFF79AFCAF
:10369000002008BD08B52520FFF794FC0020FFF7A7
:1036A00091FC0020FFF78EFC2F20FFF78BFC3F20C2
:1036B000FFF788FC002008BD08B52520FFF782FC35
:1036C0003020FFF77FFC0020FFF77CFC5F20FFF736
:1036D00079FC3F20FFF776FC002008BD10B5041CE4
:1036E000FFF7D8FF002C04D10320011CFFF760FF77
:1036F0003DE0012C04D10320011CFFF7ABFC36E0B8
:10370000022C04D10320011CFFF7BDFC2FE0032C89
:1037100004D1201C211CFFF718FD28E0042C04D143
:103720000320011CFFF762FD21E0052C04D10320DA
:10373000011CFFF79DFD1AE0062C04D10320011C9B
:10374000FFF7F8FD13E0072C04D10320011CFFF75D
:1037500053FE0CE0082C04D10320011CFFF776FE79
:1037600005E0092C03D10320011CFFF7D1FE002046
:1037700010BD10B5041CFFF79FFF002C04D10321DE
:103780003220FFF715FF3DE0012C04D10321322048
:10379000FFF760FC36E0022C04D103213220FFF752
:1037A00072FC2FE0032C04D1211C3220FFF7CDFC4A
:1037B00028E0042C04D103213220FFF717FD21E07B
:1037C000052C04D103213220FFF752FD1AE0062C0C
:1037D00004D103213220FFF7ADFD13E0072C04D103
:1037E00003213220FFF708FE0CE0082C04D103214E
:1037F0003220FFF72BFE05E0092C03D132200321F4
:10380000FFF786FE002010BDF0B585B0071CFFF75E
:103810002FFF6A466D460024284B03CB03C2161CBB
:1038200003CB03C23B59002B04D1285D315DFFF768
:10383000BFFE3DE0012B04D1285D315DFFF70AFC9E
:1038400036E0022B04D1285D315DFFF71CFC2FE030
:10385000032B04D1285D315DFFF777FC28E0042BB2
:1038600004D1285D315DFFF7C1FC21E0052B04D1B7
:10387000285D315DFFF7FCFC1AE0062B04D1285DC2
:10388000315DFFF757FD13E0072B04D1285D315D53
:10389000FFF7B2FD0CE0082B04D1285D315DFFF786
:1038A000D5FD05E0092B03D1285D315DFFF730FE22
:1038B0000434082CB6D1002005B0F0BD7C650000B2
:1038C00038B5134C03682268051C934206D0626821
:1038D0004168914202D0FFF797FF13E022689342BC
:1038E00006D168686268904202D0FFF742FF09E0A3
:1038F0002268934206D062686968914202D1181C1E
:10390000FFF7ECFE2B68002023606B68636038BD16
:103910002CFEFF1F38B50C1C051CFFF7A9FE602C00
:1039200003D9FFF781FB012017E000242120FFF7D6
:1039300049FB201CFFF746FB2878FFF743FB201CC0
:103940000134FFF73FFBE4B22878FFF73BFB023579
:10395000FFF75EFB602CE9D1002038BDC02313B512
:1039600080244F4A9B0013604E4A64001360FDF7A9
:103970001BFE4D4B201C1C604C4B1C604C4B1C60B8
:1039800001F0E0F9642000F07FFD201C01F0E8F96F
:10399000642000F079FD201C01F0D4F9642000F0CF
:1039A00073FDAE20FFF70EFBA020FFF70BFB72208C
:1039B000FFF708FBA120FFF705FB0020FFF702FB44
:1039C000A220FFF7FFFA0020FFF7FCFAA420FFF780
:1039D000F9FA0024A820FFF7F5FA3F20FFF7F2FAE2
:1039E000AD20FFF7EFFA8E20FFF7ECFAB020FFF7DB
:1039F000E9FA0B20FFF7E6FAB120FFF7E3FA3120EE
:103A0000FFF7E0FAB320FFF7DDFAF020FFF7DAFA6C
:103A10008A20FFF7D7FA6420FFF7D4FA8B20FFF74C
:103A2000D1FA7820FFF7CEFA8A20FFF7CBFA64208C
:103A3000FFF7C8FABB20FFF7C5FA3A20FFF7C2FA32
:103A4000BE20FFF7BFFA3E20FFF7BCFA8720FFF742
:103A5000B9FA0E20FFF7B6FA8120FFF7B3FA9120EA
:103A6000FFF7B0FA8220FFF7ADFAFF20FFF7AAFABE
:103A70008320FFF7A7FA7D20FFF7A4FAAF20FFF716
:103A8000A1FA2620FFF79EFA0120FFF79BFAFFF725
:103A9000EFFD684600940194FFF712FF201C16BD4D
:103AA000209014542490145434A01454309014547E
:103AB00000A014548023DB0508704B6070470000A1
:103AC00000B589B005AB0A0A1A705970002801D0F8
:103AD000052816D10C4A06A912780A800B4A1268EA
:103AE0004A6004AA10700A480068009302230290FA
:103AF00001930020013B01F075FB431E98414000FB
:103B000000E0032009B000BDF8FFFF1F10FEFF1FFB
:103B100018FEFF1FFF2100B589B005AA031C117014
:103B20000320052B15D80C491370087806A90880C6
:103B30000A480B4B00681B6848600A4802930090D3
:103B4000022001230190002001F059FB431E9841FF
:103B5000400009B000BDC046F8FFFF1F10FEFF1F68
:103B600018FEFF1F0000002008B5632800DD632059
:103B70000A21FCF77FFE081C08BD10B5041E632C4B
:103B800003DC0020092C09DD00E06324201C0A214D
:103B9000FCF770FE601A0A21FCF786FD10BD10B517
:103BA000602909D95143041C081C6021FCF77CFDE5
:103BB00000B24000025F04E00023914205D95200A8
:103BC000125ED3175B0E9B18DB11181C10BD026927
:103BD000C3689A4203D880681018013800E0501E6C
:103BE000C01A7047F7B58368C668051C4068019124
:103BF000141C9F1B8019974203D902F01BFBA419C8
:103C00000AE001993A1C02F015FB019BE41BD9194B
:103C10006868221C02F00EFBEC60F7BD0023F7B5CC
:103C2000061C171CC568019100933369B468AB4248
:103C300000D81B19013B5B1B641BBC4200D93C1C18
:103C40009C4200D91C1C7368221C5819019902F06F
:103C5000F1FA009B2D191B190093019B3F1B1B19A7
:103C60000193B368EB1A5A1E93415B421D40F56005
:103C7000002FDAD10098FEBD022310B50F4C104A78
:103C8000236163610F4BA261E361C823A2640E4A02
:103C90002362E26400230422A3626362E362A365F9
:103CA0006365E3652265E01D084902F085FB201C81
:103CB000074902F081FB2023A37110BD24010020DD
:103CC000B37B00005A00002056000020BC7B00009F
:103CD000C07B0000F0B5294B171C1A7885B0009006
:103CE00001910293002A01D1FFF7C6FF1823009A21
:103CF00000255343029AD3181A1C503252689C6D07
:103D0000039294421BD91B6D3D1C1B1B9F4200D983
:103D10001D1C1826009B2A1C5E43029B01989E19BD
:103D2000F36C7F1B191902F085FA019B64195B196A
:103D30000193336DE31A5A1E93415B421C40039B6F
:103D40001E1BBE4200D93E1C002E0CD01823009A28
:103D500001985343029AAD19D318D96C321C091932
:103D600002F068FAA419002D05D01823009A5343D5
:103D7000024AD3189C65281C05B0F0BD2401002020
:103D800010B50B1CEFF31084012181F31088191C6E
:103D9000FFF7A0FF84F3108810BD0000F8B51823CA
:103DA000451C5D434343141C134A0E1CD018C76ABC
:103DB0005519012F0FD0002F07D0022F17D1221C29
:103DC000281CFFF72BFF041C14E0281CFFF7FFFE44
:103DD000A0420ED305E0281CFFF7F9FE844200D96B
:103DE000041C281C311C221CFFF7FCFE02E00024EE
:103DF00000E03C1C201CF8BD24010020F8B50B4B52
:103E0000071C1B780E1C151C002B01D1FFF734FF7B
:103E1000EFF31084012181F31088381C311C2A1C17
:103E2000FFF7BCFF84F31088F8BDC04624010020D2
:103E300038B5051C081C0C1C02F0C6FA211C021C1B
:103E4000281CFFF7DBFF38BD13B56B46DC1D0020D7
:103E5000211C0122FFF794FF012801D1207801E005
:103E60000120404216BD08B5FFF7EEFF0028FBDB3E
:103E700008BD0000F7B5164C01932378051C0F1CF4
:103E8000161C002B01D1FFF7F7FE23699D421CD2BF
:103E9000EFF31082012181F31088002D0CD018233C
:103EA000691C59436B43675061184E600199E318D0
:103EB000196200219962596218235D43089B6419B5
:103EC000E36282F31088002001E001204042FEBD41
:103ED00024010020826810B5041C4068531C8342F2
:103EE00005D820688154A360E3680133E360A268C9
:103EF00063689A420CD120692168FFF77FFFA368AD
:103F0000984203D001235B42E36001E00023A360F9
:103F100010BD0000F0B5051C1F1C081C012685B053
:103F20000A9C00910192019B984204D30199FCF7ED
:103F30002BFB0136F7E70296BE4200D2029701231F
:103F40000B9A1A40039218D1002C01D1002414E0DE
:103F50000B9B20269B070DD5002F0BD1103609E0B7
:103F6000281C311CFFF7B6FFEB68013C002B04DB7B
:103F7000002CEBD0029BA342F2D3EB68002B35DB85
:103F80000126012F01D9013F06E00098311CFCF702
:103F9000FBFA019B984208D3019B5E43F1E7301C7A
:103FA0000199FCF7F1FA061E10D00098311CFCF7BD
:103FB000EBFA331C4343009AD31A00930C4B195C61
:103FC000281CFFF787FFEB68002BE8DA039B002B28
:103FD0000CD0002C0AD0029BA34207D2281C20211F
:103FE000FFF778FFEB68013C002BF2DA05B0F0BD7B
:103FF000C77B0000F0B59FB00EAB099340230A9336
:104000000023161C06900B930D900C930B784C1C00
:10401000002B04D10C9B0393002B22DC15E1252BF4
:1040200016D1002502314F1E3B782B2B0CD003D824
:10403000232B27D1082308E02D2B03D0302B21D1AF
:10404000022302E0012300E004231D430131EAE7DB
:10405000191C09A8FFF73EFF211C0C9B002BD5DA89
:10406000D8E70B9A002A03D006980EA9FFF7C6FEE0
:104070000C9B03930B9B0493049A039B9446634409
:104080000C93E2E000243A78131C303B092B05D84E
:104090000A235C43303C0137A418F4E70023039360
:1040A0002E2A0DD101373A78131C303B092B07D843
:1040B0000A23039901374B43303B9B180393F2E7E4
:1040C000397804230A1C9A43682A01D10137F7E79B
:1040D000642926D008D8582900D195E063291AD040
:1040E000252900D0AFE0ABE0732900D195E00DD8D1
:1040F000702900D0A7E032680021131D3360082327
:1041000001910093116809A8102296E0752971D0D9
:10411000782979D097E0336819681A1D3260C9B2DE
:104120008EE033681A1D1B683260DA179818049302
:10413000012350400593092805DD0A21FCF7B4FA54
:10414000059B0133F6E7059B039A934200D2059243
:10415000002C05D0049B002B01DB6B0700D5013C34
:10416000AB0702D5039B002B10D0EB070ED4002C1D
:1041700001D100240AE0059BA34207D209A820210F
:10418000FFF7A8FE0C9B013C002BF0DA0C9B079379
:10419000002B58DB049B002B04DA5B42049309A834
:1041A0002D2103E06B0703D52B2109A8FFF792FE11
:1041B0000C9B002B47DB03232B40022B11D1039BCD
:1041C000002B0ED1002C01D100240AE0059BA34254
:1041D00007D209A83021FFF77DFE0C9B013C002B84
:1041E000F0DA0C9B0593002B2DDB0094019509A8B8
:1041F000049906E03368009401951A1D196832602D
:1042000009A80A22039B18E0336800941A1D01953F
:10421000326009A819681022F4E733681A1D326069
:104220001C682178013400290DD009A8FFF752FE3F
:104230000C9B0393002BF4DA05E0FFF76BFE02E022
:1042400009A8FFF747FE791C07E70C981FB0F0BDDF
:104250000EB403B503AB02CB01AA0193FFF7CAFE6C
:1042600002B008BC03B0184708B5002000F086FD76
:1042700008BD08B5002001F0F1FB08BD082110B50C
:10428000164B9A780A4202D09A780A439A7088228A
:1042900000212220124B52019950124A10708020A6
:1042A000114A400298501868104A024010481A609B
:1042B0001C58104A2240C024A40422431A508022D1
:1042C0000D4B19721A767F3A19705A700B4A117099
:1042D0000C2299791142FBD110BDC04600D0074095
:1042E0000070044000E0074044100000FFFFF3FFAF
:1042F00004100000FFFFFFF00040064000500640A1
:10430000154B164810B5191E81420CD00022144BD3
:104310009B089B009A4203D084588C500432F9E7E2
:10432000104B996001E00F4A936000230E4A0F4939
:10433000891A8B4204D0D45C0D48C4540133F8E789
:1043400000230C4A0C49891A8B4204D00024D0184F
:1043500004700133F8E710BD000000000000000009
:104360000000000000ED00E0307D0000E47E000071
:1043700000FEFF1FB4FFFF1FD0020020002341708A
:10438000436003708360181C704710B54378041CA9
:104390000120FF2B08D000F069FA63780133DBB20B
:1043A000637000F057FA002010BD0020704738B548
:1043B000041C0D1C00F05AFAE1682943E16000F08A
:1043C00049FA002038BD000000220A4B9A641A1CEA
:1043D00040329A631A1C30329A621A1C20329A6157
:1043E0001A1C10329A60044A1360044B9B60DB6015
:1043F0007047C046B0010020AC0100209C010020A5
:104400000022024B1A60186880B270470C007C5082
:1044100038B54378041C0D1C002B0BD0002500F090
:1044200025FA6378013BDBB26370257000F012FA65
:10443000281C28E00220002925D02378002B15D045
:10444000FFF7DEFF6368A268984201D3C01A03E059
:10445000C01A80235B02C018824213D200F006FA11
:104460000023237000F0F6F902200CE04B1C09D069
:1044700000F0FCF90123237000F0ECF9FFF7C0FF16
:10448000A5606060032038BD38B5051CFFF7B8FF94
:10449000041CFFF7B5FFA04201D3001B03E08023FB
:1044A000001B5B02C0188542F3D238BD08B5012855
:1044B00001D100F0DBF908BD08B5012801D100F0F9
:1044C000C9F908BD10B5FFF77FFF01230020084A96
:1044D00008491360084A094C1060086004212160F3
:1044E000074C216007490B6007490860136010BD45
:1044F0003880045000008450000004500000045133
:104500000400045104000C500000045310B5044C86
:10451000206021710020A2602373637310BDC04628
:1045200000020020F0B587B06B4602901B7A05AC04
:1045300023706B4603911B7B3D4D63702B79029A70
:104540000420934271D92B7B6B730123A37000234A
:104550000193374E0093337B009A371C93421AD94C
:10456000009BB2689B009B58002B10D01A79D20791
:104570000DD51A68201C99689047002807D06B4613
:104580001B787373039B002B3AD005230193009B88
:104590000133DBB2DDE7019E002E02D0039B012B2D
:1045A0002FD10120FFF782FF0C20029B58432B687C
:1045B000181800F0A7F86B461B7A01206B71FFF703
:1045C0007BFF02230025A3703B7BAB4216D9BA6860
:1045D000AB009B58002B0ED01A7992070BD51A68A6
:1045E000201C99689047002805D0039B7D73002B01
:1045F0001AD0062301930135EDB2E5E7019814E0E6
:1046000005260023009FA370013FFFB2FF2F09D0B2
:10461000AA68BB009B58002BF6D01A68201C99682A
:104620009047F1E7301C00E0062007B0F0BDC0461F
:1046300000020020014B58797047C046000200205C
:1046400013B500210378041C0191022B07D0032B22
:104650000BD0012B0ED10279191C134801E002790D
:10466000114801AB00F0CAFF08E001A90E4801F0B3
:1046700007F803E00C4801A900F0A4FF002812D1BC
:10468000A3790A4ADB01DBB213706378084A5B0046
:10469000DBB21370A278074B1A70E278064B1A70DF
:1046A0006279064B1A7016BD0040064018408653CA
:1046B00000408650004006500140065018401650F9
:1046C0001F22802302405B05D2051A430349430998
:1046D0009B005B181A430023136070472880044036
:1046E0001F2280210240D30549051943430904488C
:1046F0009B001B1819430123081C9340036070475B
:10470000288004400022072373B5041C104D009339
:10471000281C131C012101F093F9201CFFF790FFC6
:104720000022637A217A0093281C131C01F088F977
:10473000E379084A9B041360074BA17A1D68281C83
:1047400000F0BAFF281CE17A00F0BDFF002076BD22
:104750000070044000700C59247C000008B5054826
:1047600000F0F2FE044B1968C9B20131FBF70CFFEF
:1047700008BDC0460040064044801C5E08B50548A0
:1047800000F0E2FE044B1968C9B20131FBF7FCFEF0
:1047900008BDC0460040064044801C5E08B5054880
:1047A00000F0D2FE044B1968C9B20131FBF7ECFEF0
:1047B00008BDC046004006404480145808B505486E
:1047C00000F0C2FE044B1968C9B20131FBF7DCFEF0
:1047D00008BDC04600400640448014580C4B1B687E
:1047E000DBB2022B0DD0032B0ED0002B01D000200A
:1047F0000CE08021074A09021268101E8842F6D197
:1048000004E0054B186801E0FA2080007047C046BC
:1048100000700C59280200202C02002008B5FFF778
:10482000DDFF08BD08B5024B185CFFF759FF08BD56
:10483000D77B000008B57620FFF752FF08BD08B50A
:104840006620FFF74DFF08BD08B56620FFF738FF6B
:1048500008BD0000044A1368002B04D0013B13601C
:10486000002B00D162B670471002002072B6024AD7
:1048700013680133136070471002002010B50B4B12
:104880000B4A1278002A04D1013B002BF8D10320F7
:104890000AE0064C074801F045FB012803D0013C23
:1048A000002CF7D1F3E7002010BDC046EA0300005A
:1048B00002D0075100E0074010B5064C064801F051
:1048C00031FB042804D0013C002CF7D1032000E088
:1048D000002010BDEA03000000E00740F7B5071C08
:1048E0000E1C151C01930120002F18D0002916D092
:1048F000FFF7DCFD0A4C0021201C102201F0A3FC74
:1049000027602671002D06D06B461B79A5602373A6
:104910006B461B7963730120FFF7CEFD0020FEBDBF
:1049200014020020F0B5B24C8BB002900191237BB1
:1049300001206373FFF7BAFD2379029A934204D8EA
:104940000120FFF7B9FD022050E1029A236892008E
:10495000D6586B461B7907AC357823726B461B7AA9
:104960002A1C237002239A4366600392012A01D015
:10497000052D0AD101219F4801F026FA002809D10E
:104980000120FFF799FD012030E1072D02D9994858
:104990000321F1E70123637200240094944F009AED
:1049A0003B7B93421AD9009BBA689B009B58002B13
:1049B0000FD01A79D2070CD51A6807A899689047C2
:1049C000002806D06B461B7804247B73019B012BC7
:1049D00004D1009B0133DBB20093DFE70120FFF736
:1049E0006BFD854800F0D4FD039B012B1DD10138E0
:1049F000C0B2022811D8FFF7E1FE804B98420CD8D4
:104A0000FFF7ACFE7E4FB84207D8FFF7C7FEB842AB
:104A100003D8FFF7B3FEB84207D9019B012B01D1A0
:104A2000062407E0002C05D1FAE7019B012B52D0A8
:104A3000002C50D00120FFF739FD002307AE009D68
:104A40007372013DEDB2FF2D40D0694BAA009B6807
:104A5000D358002BF5D01A79D207F2D51A68301C3A
:104A600099689047EDE7072205AB1A7000225A704B
:104A7000F2789A703279DA702B1C083B05A9022B68
:104A800003D873798B71B379CB717378002B00D015
:104A900084E0584801F0CCF9002800D00324002D10
:104AA00000D08AE0FFF7EAFE0024002800D09DE055
:104AB0000120FFF7FBFC6B464D4E1B7A0025B373BC
:104AC000022307AF7B72337BAB427CD80120FFF718
:104AD000F3FC201C8AE003200A2D00D986E0281C64
:104AE000FBF73EFD06080A1940583339C1282D004E
:104AF000002250E003224EE03E4801F013FA012864
:104B000007D03C48002101F06FF9FFF7B7FE041E03
:104B10006CD101223FE0374801F004FA042807D0A5
:104B20003448022101F060F9FFF7C6FE041E5DD192
:104B3000042230E0072205AB1A70063A03E0072290
:104B400005AB1A70043A5A7096E7022205AB1A7048
:104B5000013A1A7104E00222012105AB1A701971A1
:104B60005A7189E70222002705AB1A702148013AE1
:104B70001A715F7101F0D6F9012800D17CE71D4858
:104B8000391C01F031F9FFF779FE041EBC4200D157
:104B900072E72BE0052205AB1A706DE7012D00D8F6
:104BA00077E7B2780220174B002A02D01A69024335
:104BB00001E01A6982431A616BE7012D00D077E7A3
:104BC000FFF77AFE70E7B268AB009B58002B0AD063
:104BD0001A79920707D51A68381C996890470028F7
:104BE00001D0052475730135EDB26CE70BB0F0BD53
:104BF0001402002000E007400040064040420F0041
:104C000080841E0000ED00E008B5064801F08AF936
:104C10000023012803D00133042800D00A33181CD4
:104C200008BDC04600E00740F7B5FF2403681C4AF2
:104C30001D0A25401C40AB009F581A4A061C9B5871
:104C4000281C0193FFF7EEFD211C0022381C01F007
:104C500071F9019BA4001C19842332795B0523435D
:104C600052001A60802372795B0523431A609023F7
:104C7000B2795B05234312011A60F3790A4A14439F
:104C80001A042260002B0AD0084B5A5D002A06D075
:104C90001F23134001229A40131C054A1360F7BDDD
:104CA000307C0000287C000000001818387C0000D0
:104CB00000E100E0F8B5FF24051C0368114A180A5A
:104CC00020401C4083009F580F4A9E58FFF7AAFDC2
:104CD000381C211C012201F02DF96A68381C211CA6
:104CE00001F038F988232A7AA40034195B0523439C
:104CF00092001A6098235B051C436B7A9B0123602A
:104D0000F8BDC046307C0000287C000038B50C1C83
:104D1000002802D1002C09D112E003680133F9D038
:104D2000051C0835FFF780FF281CF6E723680133D0
:104D300006D0251C201C0C35FFF7BCFF2C1CF5E70A
:104D400038BD0000FF22030A1340024001209040BA
:104D500002499B005B5858607047C046307C000099
:104D6000FF22030A134002400120904002499B00A9
:104D70005B5898607047C046307C000008B5084B0F
:104D80008200D35894220233520513431B78002B20
:104D900002D000F041FA01E000F096FA08BDC046EA
:104DA000DC7B0000031C80220C33520513431B786C
:104DB000002BF7D00171704738B50D1C084B8000EF
:104DC000C458201C291C1830FFF722FB0328F8D0F8
:104DD000002801D004232374207CC0B238BDC04613
:104DE00024020020F0B589B00290161C82003748DA
:104DF000059310580EAB019035481B7814580020CD
:104E000007AA1080A27C8F0A04920122E274A27485
:104E10005A4253411E3FDBB203937B425F41FFB2D4
:104E2000CDB2874202D0CBB29C460D0A00216D0064
:104E3000EDB28F4204D1391C002E01D16B46197B93
:104E40000D4307AB1D700122002F02D062465A703D
:104E50000222A360E2600198291CFFF7A3FF0298D9
:104E60000F99FFF7A9FF237C002B0CD1002E0AD04D
:104E7000059BA660E36031780198FFF793FF0298E5
:104E80000F99FFF799FF237C002B16D1039B002B72
:104E900013D0002F01D1002E0FD000230127A360D3
:104EA0000198E76001F0AEF8391C01982943FFF73B
:104EB00079FF02980F99FFF77FFF0023E3746B4699
:104EC000207C1B7CC0B2A37409B0F0BDDC7B000069
:104ED00024020020104A830010B598580F4A9C58AD
:104EE000E37C002B05D0237C052B02D0237C042BF4
:104EF00009D19822831C5205134300221A7001F035
:104F000093F801236374A37C002B03D0201C18307A
:104F1000FFF73BFA10BDC046DC7B000024020020F6
:104F2000F7B5194B8700FB5801250093174BFE5826
:104F3000002E26D10C1C24220190081C311C01F0EB
:104F400082F9201C311C1830FFF718FA0198FFF77E
:104F500076FC009801F006F80C4B019AFC500C4BC3
:104F60009A5C1F2313402A1C9A40131C094A1360A1
:104F70009C22009B52050233134380226574351C2A
:104F80001A70281CFEBDC046DC7B000024020020F5
:104F9000D97B000000E100E0F7B59C220027051C4A
:104FA0000D4E8400A359520501930C4BE358023374
:104FB00013431F70FFF748FC094B01985A5D1F23EC
:104FC000134001229A40131C064A1830D367FFF79A
:104FD000ECF9A751F7BDC04624020020DC7B00009D
:104FE000D97B000004E100E00A4B800070B5C55891
:104FF000094BC6584B68726993420AD00C1CFFF7E4
:10500000CDFB0023011C6268281C00F0B9FF636817
:10501000736170BDDC7B000024020020F0B587B016
:105020000FAC334F334D267884006559E459677CC3
:10503000002F02D10320207458E0002E01D11E273A
:105040000E9705930023A674E360A3602374236086
:105050006374071C04920391FFF7C6FF902310218D
:10506000AA1C5B05134319708421EB1C49050B43F3
:105070000221197098235B05134302934023029A7F
:10508000281C137000F0BEFF039B381C19880123F5
:1050900000930E9B049A0193059BFFF7A3FE0D9BC3
:1050A000002B15D0237C002B0FD10C9B281CA36058
:1050B0000D9BE3600C9B1978FFF774FE002E13D054
:1050C000381C0E99FFF778FE0EE0237C042B0BD1E1
:1050D00000230126029A1370EB785B09334202D059
:1050E000281C00F0A1FF6674207CC0B207B0F0BDA0
:1050F00024020020DC7B0000F0B58BB013AC2478D8
:10510000364E374D039484006559A459667C002EB1
:1051100002D1032020745FE0039E002E01D11E36D1
:1051200012960993109B00262360119BA660636072
:105130006B461B7BE660A374267466740791089225
:105140000490FFF751FF9023AF1C5B053B43059391
:105150001023059A281C13708422EB1C520513435C
:1051600002221A7098235B053B4306934023069A5C
:10517000137000F047FF079B089A1988129B00964E
:1051800001930498099BFFF72DFE227CD2B2B24214
:1051900012D1059B11991A708C235B053B430129A1
:1051A00000D108221A702B79039B002B12D004988F
:1051B0001299FFF701FE0DE0237C042B0AD1069B18
:1051C0001E700126EB785B09334202D0281C00F0E8
:1051D0002BFF6674207CC0B20BB0F0BD240200200F
:1051E000DC7B00001FB5069C0094079C0194089C82
:1051F000029401240394FFF711FF04B010BD1FB502
:10520000069C0094079C0194089C0294012403943A
:10521000FFF772FF04B010BD842138B5244B820023
:10522000D5584905EB1C0B4302211970214BD4586A
:1052300090226B1852051A431278E978D2B2890687
:1052400034D5942149051943097800292ED0012A23
:1052500015D1EB78134202D0052323740CE0E368E8
:10526000013BE360002B07D0A368281C5A1CA260F6
:105270005978FFF797FD19E0FFF72CFE16E06268FA
:10528000013A6260002A06D08C214905012A05D125
:105290000B43082204E0FFF71DFE02E000220B434F
:1052A0001A7023685A1C22602A791A7038BDC046C9
:1052B000DC7B000024020020842303305B051843BC
:1052C0000223037070470000902149050A1CF0B5C5
:1052D0008F4B071C8000C55889B0EB1C0493EB78FA
:1052E000EE78DBB20593F3B20693AB1D1A439446F6
:1052F00012789826D2B20792942252051A43147853
:105300007605621E9441E2B2824C33430459A81CD4
:105310000090084301921A780178D2B2C9B2039181
:105320000199029000292FD0079900290CD0102351
:105330006246281C1370FFF7BFFF236BF8B20121F0
:10534000002B00D0DCE0E0E0002A1DD04022281C29
:105350001A70FFF7B1FF231C2C331B78002B02D1EE
:10536000009A16433370236B002B03D0F8B28021D0
:10537000626B9847E37D002B04D0201C80211830FD
:10538000FFF715F80A23BFE0069B281C9E11012396
:105390001E40FFF791FF0122059B1B11134219D0FC
:1053A0009023049A5B05134310221A70002E04D038
:1053B000EB785B07DB0F10D11AE0082323702C3445
:1053C0002278002A00D0A0E0982300995B050B43C7
:1053D0001A709AE0002E16D0EAE71023029A137092
:1053E000236B002B6ED0F8B20221626B984769E004
:1053F000029A1370236B002B03D0F8B20421626B66
:1054000098472B7981E0039B012B29D1EB78039AF4
:10541000134257D0029B1E702B79231C2C331B7810
:10542000002B09D1019B002B06D19823009A5B0524
:1054300013436A4612791A70236B002B03D0F8B21B
:105440000821626B9847A37D002B04D0201C082103
:105450001830FEF7ACFF00236360E360237554E06F
:105460002B79A268DBB2002A2AD022691370236943
:1054700001332361A368013BA360A368002B44D1DF
:10548000019B002B13D1231C2C331B78002B06D13E
:105490009823009A5B0513436A4612791A70E37DDC
:1054A000002B04D0201C20211830FEF780FF0023A1
:1054B00063752361236BF8B22021002B20D124E0F7
:1054C000072321E06368002B1DD0E3681A782B1CAA
:1054D00080210C3349050B431B78002BF7D02A7130
:1054E000E3680133E3606368013B63606368002B3A
:1054F0000BD1E3602375236B002B06D01021F8B28B
:10550000626B984701E00623237009B0F0BDC046E6
:10551000DC7B00002402002084235B0503431A780F
:1055200000239A4209D0802301305B051843037899
:10553000012B01D0024B00E0024B181C7047C04603
:1055400080841E0000127A0010B50D4A831D13439B
:105550001B78DBB2002B10D0012B08D1041CFFF705
:10556000DBFF084B08341C432378D84006E00020BA
:10557000022B03D1044B186800E0044810BDC0465C
:10558000000008110000901028020020006CDC02CE
:105590000B4A831D13431B78DBB2012B06D0181E68
:1055A0000CD00320022B09D0052007E08023013016
:1055B0005B05184300784342584101307047C046AC
:1055C00000000811021C031C9C20183340050343F3
:1055D000802018700020064B134318700548931D57
:1055E00003431B78D8B20028F8D1034B0B607047F7
:1055F0000000081300000811006CDC02F8B5041C60
:105600000D1C171C1E1CFFF7C3FF012802D1002D23
:1056100004D007E0022805D1012D03D1201C311C44
:10562000FFF7D0FF8022631C520513431D708423B3
:1056300002225B0523431A70231C0C4A08331343D0
:105640007A00D2B21A704022094B23431A70094AD9
:10565000A31D13431B78012BF9D1002D01D1064A5C
:1056600000E0064A3A4100203260F8BD0000901088
:10567000000008130000081180841E0000127A0048
:105680000A4B10B51C681A1C0123002C0CD0802476
:10569000074B03431C70074C831D23431B78022BCD
:1056A000F9D113680B600023181C10BD28020020DC
:1056B00000000813000008119C23C9015B05184372
:1056C000C9B201707047942349015B051843C9B200
:1056D0000170704770B506680C1C301C2049FAF741
:1056E00053FF1F49051C301CFAF7D4FF0E1C081C81
:1056F000E1210901FAF748FFE121E0800901301CAE
:10570000FAF7C8FF0E1C081C3C21FAF73DFF3C21AC
:105710002081301CFAF7BEFF6E22124BA17223804B
:10572000FF32238895420BD9AD1A032201339BB275
:105730002380B72113405A1E93414900CA1AF0E74B
:1057400009499B0700D109490123CA5C954201D848
:10575000638003E00133AD1A0D2BF6D1A58070BD37
:1057600080510100B2070000077C0000FA7B0000B6
:1057700030B5114A0188031C8A180020812A19D8E3
:105780005A88541E0B2C15D89C88651E1E2D11D8C6
:10579000DD88172D0ED81D893B2D0BD89B7A3B2B0E
:1057A00008D88B0701D0054B00E0054B9B5CA3425A
:1057B0004041C0B230BDC0464EF8FFFF077C00003C
:1057C000FA7B000070B5124A838804889A186E2309
:1057D000FF3363434588D318A2089B180D4A6E0017
:1057E000B25A9B18A20702D1022D00D8013B0B60D0
:1057F000E1233C22C4881B015C4303895343827A22
:10580000E3189A180868044B4343D3180B6070BD23
:105810004A05F5FFE07B000080510100084B1A6843
:1058200080231B029A4209D1A02310305B05184344
:105830000368002B02D10133FF3303607047C04679
:1058400028020020021C802110B5002301244905F4
:1058500010320A43146013609022436052050460C2
:105860001C300243136088225205024313608422D5
:105870005205024308431360036010BD031C9022CD
:1058800014335205134300221A6042601032016043
:105890001A60704703680B6070470000114B82006C
:1058A00070B5D5588022104B92051A60041C281C34
:1058B000FFF7C8FF281CFFF7B1FF01201F22011CC2
:1058C0000A4B0B4E1B5D345D134099402240C025AE
:1058D0000B1C904007496D004B5148510B6008600C
:1058E00070BDC046187C00003C80845E157C0000C2
:1058F000147C000000E100E0F7B50027114B8000A8
:10590000C658081C0D1C0197FFF732FF041EBC424D
:1059100016D001A9281CFFF755FF381CFEF77EFFA3
:10592000011C80200002814206D0FAF72DFE011CE6
:105930000198FAF729FE0190301C0199FFF79EFFAC
:10594000201CFEBD187C0000F7B50025124B80001E
:10595000C4580E1C201C01A90195FFF79BFF281CB1
:10596000FEF75CFF051C8020000285420ED00B4B29
:10597000291C04341C43FAF707FE2768019C291CE4
:105980004443B8B2FAF700FE20180190311C01A878
:10599000FFF7A0FEF7BDC046187C0000000078109D
:1059A000F0B50026184B800085B0C458081C0F1CA9
:1059B00001920396FFF7DCFE051EB54201D10025DA
:1059C0001EE0381C03A9FFF7FDFE301C2768FEF718
:1059D00025FF011C80200002814206D0FAF7D4FD89
:1059E000011C0398FAF7D0FD0390039BBB42E6D35A
:1059F000A36088231C345B051C43019B9B00236030
:105A0000281C05B0F0BDC046187C00008822044B5D
:105A10008000C35852051C33134389001960704736
:105A2000187C00008822054B8000C35852051433AF
:105A300013431868431E9841C0B27047187C000099
:105A40006B46E0221B78D2021B041340090719435E
:105A5000014BC018016070474410000008B5084BA6
:105A60008200D35890220333520513431B78002B36
:105A700002D000F0F1F801E000F056F908BDC04690
:105A8000207C000008B50C4B8000C2580B4B002155
:105A9000C3589C20033340051843117101709420B2
:105AA000400503431970137F8B4203D02032101C32
:105AB000FEF76BFC08BDC04630020020207C0000D1
:105AC000F7B5061C1C4B30220C1C8700081C00215B
:105AD000FD5800F0B8FB301CFEF7ACFEFEF75EFE92
:105AE0002060281C00F0BDFA201C00212030FEF7A9
:105AF00045FCEB1C01939023019A5B051343102294
:105B0000281C1A70032100F0ECFA281C002100F078
:105B10000EFB0A4BFC500A4B9A5D1F2313400122D7
:105B20009A40131C074A13609823019A5B0513439C
:105B300040221A70F7BDC046207C000030020020D1
:105B40001C7C000000E100E00A4B800070B5C658E4
:105B5000094B0C1CC358151C301C1A68096800F04E
:105B600087FA28602179301C6279A37900F0CCFA99
:105B700070BDC046207C000030020020F7B51E4AF0
:105B800083009C581D4A9E5822790423002A31D153
:105B9000071C002902D001AAFFF7D6FF9823002195
:105BA0004020F21C5B0513431970187025698D4263
:105BB00003D1381CFFF766FF1BE0012323719423F8
:105BC0005B053343A16119780723002912D0A3682C
:105BD000191E02D019780133A360B1712369013B0A
:105BE0002361A3690133A3619C235B051A438023CE
:105BF00013700023181CFEBD30020020207C000022
:105C0000F8B5134F134C85002C59ED590127069E0A
:105C10002777A2602661E3606661FFF7AFFF061E8B
:105C200014D1201C07992030FEF7F2FB0328F8D08E
:105C300000280BD09C210022EB1C4905194322713E
:105C40000A709421032649050B431A70301CF8BDD5
:105C5000207C00003002002010B51E4B8200D3587B
:105C60001D4951581A79002A32D05A69002A11D098
:105C70009C2252050A431278002A0BD08A79DC68EC
:105C8000D2B2002C03D02270DA680132DA605A698D
:105C9000013A5A611A69002A12D0942252050A4325
:105CA0001278002A0CD09A68141E02D0147801329F
:105CB0009A608C711A69013A1A619A6901329A6183
:105CC0001A69002A04D15B69002B01D1FFF7DAFEC3
:105CD00010BDC04630020020207C0000104A800029
:105CE0008158002208B50F4B0331C358581CC277A6
:105CF0009C2040050843DA621A701A835A629A623D
:105D00001A6302709420400501430A701A1C38324D
:105D10001278002A03D0181D0121FEF748FB08BDA8
:105D2000207C00003002002038B5254B8200D3587B
:105D300024495258591CC97F00293FD0D96A0029EB
:105D400016DB9421490511430978002910D0596ABE
:105D50001C7F002905D0DD6A002D02DD0C780131A1
:105D600059629471D96A0139D962596B0131596309
:105D7000D96A002905DA9424D11C64052143002442
:105D80000C70196B002911DD9C214905114309781C
:105D900000290BD09279996AD2B2002903D00A70F7
:105DA0009A6A01329A621A6B013A1A63DA6A002A15
:105DB00004DC1B6B002B01DCFFF790FF38BDC046F5
:105DC00030020020207C0000012903D0032909D1E2
:105DD000842300E094235B0518430078431E984118
:105DE000C0B200E000207047034B01304901184366
:105DF000C9B201707047C046000088129423023077
:105E00005B0549011843C9B201707047034B02306A
:105E100089011843C9B201707047C04600000813D9
