:1000000000060020310500005905000059050000D8
:1000100000000000000000000000000000000000E0
:100020000000000000000000000000005905000072
:100030000000000000000000590500005905000004
:100040005905000059050000590500005905000038
:100050005905000059050000590500005905000028
:100060000D35000059050000173500005905000046
:100070005905000059050000590500005905000008
:1000800059050000590500005905000059050000F8
:10009000E5080000FD0800005905000059050000B2
:1000A00059050000590500005905000059050000D8
:1000B00059050000590500005905000059050000C8
:10040000FFFFFFFFFFFFFFFFFFFFFFFFFE3DFFFFBF
:1004100008B5054B054803331B1A062B03D9044BBB
:10042000002B00D0984708BDACFFFF1FACFFFF1F9B
:10043000000000000648074908B5091A8910CB0FCB
:100440005918491003D0044B002B00D0984708BD21
:10045000ACFFFF1FACFFFF1F0000000010B5074CF2
:100460002378002B09D1FFF7D3FF054B002B02D0D7
:10047000044800E000BF0123237010BDACFFFF1F44
:1004800000000000D471000008B5094B002B03D018
:100490000848094900E000BF08480368002B02D162
:1004A000FFF7C8FF08BD064B002BF9D09847F7E7C8
:1004B00000000000D4710000B0FFFF1FA8FFFF1F65
:1004C00000000000144B002B00D1124B9D4640222F
:1004D00092029A1A924600218B460F461148124A00
:1004E000121A05F02AF80D4B002B00D098470C4B40
:1004F000002B00D098470020002104000D000B487D
:1005000004F09FFF04F0D6FF2000290000F0E0FE79
:1005100004F0A6FF00000800000600200000000014
:1005200000000000ACFFFF1FC80200208D54000037
:1005300072B606480649074A02600A6002F0F0FFF8
:1005400003F030F862B6FFF7BDFF000080E100E085
:1005500080E200E0FFFFFFFF004800475905000070
:1005600002B4714649084900095649008E4402BC4C
:100570007047C04602B4714649084900095C490009
:100580008E4402BC7047C046002243088B4274D39D
:1005900003098B425FD3030A8B4244D3030B8B4284
:1005A00028D3030C8B420DD3FF22090212BA030C8D
:1005B0008B4202D31212090265D0030B8B4219D36E
:1005C00000E0090AC30B8B4201D3CB03C01A52418E
:1005D000830B8B4201D38B03C01A5241430B8B42D6
:1005E00001D34B03C01A5241030B8B4201D30B03BF
:1005F000C01A5241C30A8B4201D3CB02C01A5241E6
:10060000830A8B4201D38B02C01A5241430A8B42A8
:1006100001D34B02C01A5241030A8B4201D30B0291
:10062000C01A5241CDD2C3098B4201D3CB01C01AAB
:10063000524183098B4201D38B01C01A52414309B5
:100640008B4201D34B01C01A524103098B4201D3A3
:100650000B01C01A5241C3088B4201D3CB00C01A10
:10066000524183088B4201D38B00C01A5241430888
:100670008B4201D34B00C01A5241411A00D20146AD
:10068000524110467047FFE701B5002000F0FCF82A
:1006900002BDC0460029F7D003B5FFF775FF0EBCB9
:1006A0004243891A1847C04603460B437FD40022B1
:1006B00043088B4274D303098B425FD3030A8B42F6
:1006C00044D3030B8B4228D3030C8B420DD3FF2260
:1006D000090212BA030C8B4202D31212090265D02E
:1006E000030B8B4219D300E0090AC30B8B4201D3E1
:1006F000CB03C01A5241830B8B4201D38B03C01A28
:100700005241430B8B4201D34B03C01A5241030B9E
:100710008B4201D30B03C01A5241C30A8B4201D34F
:10072000CB02C01A5241830A8B4201D38B02C01AFA
:100730005241430A8B4201D34B02C01A5241030A71
:100740008B4201D30B02C01A5241CDD2C3098B4256
:1007500001D3CB01C01A524183098B4201D38B01D3
:10076000C01A524143098B4201D34B01C01A524176
:1007700003098B4201D30B01C01A5241C3088B42BB
:1007800001D3CB00C01A524183088B4201D38B00A6
:10079000C01A524143088B4201D34B00C01A524148
:1007A000411A00D201465241104670475DE0CA0F1F
:1007B00000D04942031000D34042534000229C46DF
:1007C00003098B422DD3030A8B4212D3FC228901E9
:1007D00012BA030A8B420CD3890192118B4208D3BF
:1007E000890192118B4204D389013AD0921100E021
:1007F0008909C3098B4201D3CB01C01A5241830935
:100800008B4201D38B01C01A524143098B4201D361
:100810004B01C01A524103098B4201D30B01C01A8C
:100820005241C3088B4201D3CB00C01A5241830806
:100830008B4201D38B00C01A5241D9D243088B425C
:1008400001D34B00C01A5241411A00D201466346FF
:1008500052415B10104601D34042002B00D5494263
:10086000704763465B1000D3404201B5002000F0A2
:100870000BF802BD0029F8D003B5FFF715FF0EBC39
:100880004243891A1847C0467047C04608B50A4B0C
:100890001A68002A01D1094A1A601A680849101812
:1008A000884206D904F0D6FD0C23036001204042A3
:1008B00001E01860101C08BDC8FFFF1FC80200201F
:1008C000C802002002238078834280414042704762
:1008D000437A0020013B012B03D901200B7801331F
:1008E0000B70704708B5002004F0F2F9002803D01F
:1008F0000020011C04F0E0F908BD0000024A136862
:10090000013313607047C0461800002037B500203F
:1009100003F0E2F8C02300250D4A9B0013600D4A46
:100920000D4C13600D4A281C13600D4B2571657129
:10093000A5711A68FA239B0053430A49236004F007
:1009400015FA281C211C01AA04F078FA37BDC0460C
:10095000189014541C9014541000002000A014543B
:1009600014FEFF1F1C00002010B58024002004F09E
:1009700041FA0A4B64001C60094B07201C60094BBC
:100980001C6003F043FB062003F040FB201C03F037
:100990003DFB002003F0A5F810BDC046189014548C
:1009A0001C90145400A0145408B5002003F09EF8C5
:1009B0008023054A9B001360044A00201360044909
:1009C00003F004FC08BDC0460CA0145410A014543D
:1009D000CCFFFF1F08B5002003F034FC80238220E9
:1009E000074A5B001360074A4000136003F00EFBE8
:1009F0000420FF3003F00AFB002003F07CF808BD60
:100A00000CA0145410A0145408B50023354A3649DC
:100A10001360364A1360364A0133FF331360354A98
:100A20001360354A1360354A1360354A1360354AFE
:100A30001360354A1360012208780240081C3349CC
:100A4000002A01D00B6000E00A60314A314913608E
:100A500000220A6030490A60304A1360304A13604D
:100A6000304A1360304A1360304A1360304A1360D2
:100A70000378DB0703D50220FF3003F0B9FA092021
:100A800003F0C4FA0C2003F0C1FA052003F0BEFA0B
:100A9000082003F0BBFA0620FF3003F0B7FA0E205F
:100AA000FF3003F0B3FA8320400003F0AFFA0820D0
:100AB000FF3003F0ABFA0C20FF3003F099FA8220EC
:100AC000400003F0A3FA0420FF3003F09FFA072050
:100AD00003F09CFA062003F099FA8020400003F00E
:100AE00095FA08BD0C9014540CFEFF1F109014547E
:100AF00014901454189014541C90145420901454AE
:100B0000249014543090145400A0145404A014548D
:100B100008A014540CA0145410A0145414A014547D
:100B200018A014541CA0145428A014542CA014541D
:100B300034A0145408B5092003F068FA08BD08B5BC
:100B40000C2003F063FA08BD08B5384B984259D021
:100B500013D8374B984243D007D8364B984230D001
:100B60006433984238D0C83B12E0334B98423ED0B1
:100B70006433984242D0314B15E0314B98422FD02C
:100B80000CD8304B98421CD06433984224D02E4B62
:100B9000984242D1052003F039FA15E02B4B9842D8
:100BA00025D006D82A4B984237D1052003F02EFADB
:100BB00020E0C8231B01984220D0264B984221D028
:100BC0002BE0052003F014FA082003F01FFA06209A
:100BD000FF3003F01BFA24E0052003F017FA02E0CF
:100BE000052003F005FA082003F002FAEFE70520DC
:100BF00003F0FEF9082003F009FA09E0052003F0EC
:100C000005FA02E0052003F0F3F9082003F0F0F9FB
:100C10000620FF3003F0ECF903E000200E4902F05B
:100C200069FC0E4B186802F081FD08BDC409000084
:100C3000340800006C070000FC0800009808000061
:100C4000540B00008C0A0000280A00001C0C000055
:100C5000B80B0000E40C00008058000008FEFF1FE5
:100C600008B5FFF771FF092003F0C2F90C2003F06B
:100C7000CDF98320400003F0C9F908BD08B5FFF79E
:100C800063FF092003F0C2F90C2003F0B1F98320BF
:100C9000400003F0ADF908BDAF2108B50B4B021CB5
:100CA000C3189BB289008B4202D8FFF7D9FF0BE033
:100CB000074BC3189BB28B4202D8FFF7DFFF03E05C
:100CC0000020044902F016FC08BDC046F8F8FFFFFA
:100CD000D8F5FFFFAD58000008B5FFF72BFFFFF771
:100CE0002EFF8320400003F083F9024B186802F0C6
:100CF0001DFD08BD08FEFF1F10B5041C002901D012
:100D0000FFF782FE0021022001F08CFA211C042052
:100D100001F088FA10BD08B501200021FFF7ECFFB3
:100D20003C200121FFF7E8FFF6E70000F0B585B0B1
:100D30000391041C161C00209AB2012101F032FB21
:100D4000071C002C1CD01C49002002F0C3F91B4CCE
:100D5000206802F0EBFC1A49002002F0BBF9206881
:100D600002F0E4FC1749002002F0B4F9206802F018
:100D7000DDFC0020144902F0ADF9206802F0D6FC39
:100D80000025124C124923686268002000922A1C38
:100D900002F0B0FB039801F047FB22680020636873
:100DA0000C49009702F0A6FB002E02DD301C02F079
:100DB000BDFC0135E5E7C046E558000000FEFF1F19
:100DC0000D5900002F5900007269000000D0034047
:100DD0005459000060590000F0B591B01D1C16ABCD
:100DE0000C91197817AB05921A7818AB1B78041C74
:100DF0000D931CAB1B780EA80E931DAB1B8808939C
:100E000021231B18DB7F09931FAB1B880F9320AB9B
:100E10001B780A930B1C914200D9131CDFB2059B6F
:100E2000002D02D1002B06D101E0002B03D00020C1
:100E3000544902F05FFB0898FFF72EFF211C0020A9
:100E400002F048F90023089C02930393079304934C
:100E500000230693069A199B93426BDB00261A9B8C
:100E60009E4264DABB190B932C226B469B181878B0
:100E700001210C9B9847002838D1049B013304932F
:100E8000089B9C4204D9643CA4B2201CFFF704FFD9
:100E9000002D16D0099A6B7BD31A5A425341039AFC
:100EA000D31803930A9B002B39D0EB7A287B697BFC
:100EB00000900191DBB2F2193349002002F01AFBD5
:100EC0002DE0059B099A1B7AD31A5A425341039A83
:100ED000D31803930A9B002B21D0059BF2191B7A90
:100EE000281CDBB2294902F005FB18E0022810D1CA
:100EF000002027490B9A02F0FDFA079B0133079364
:100F00000F9B9C420BD26434A4B2201CFFF7C4FE9A
:100F100005E0033843425841029B1B1802931B9B78
:100F2000002B02DD181C02F001FC013697E7069B3E
:100F300001338EE70E9B002B04D07B1CDFB20D9B90
:100F40009F4285D9049A079B944612496344002026
:100F500002F0D0FA322002F0E9FB099B039A0093D9
:100F60000D49049B002002F0C5FA322002F0DEFB9E
:100F70000A49029A002002F0BDFA322002F0D6FBA4
:100F800011B0F0BD805800006D590000925900006A
:100F9000A7590000BA590000D2590000035A0000B6
:100FA000F0B591B00D9316AB0F1C02CB041C1B784F
:100FB0000E931AAB1B880F931BAB1D881CAB1E78BE
:100FC000002811D0101CFFF7EFFC601E132877D803
:100FD000FFF7D0FA0E45484B4E765154575A5D6094
:100FE000636966766C6F7625394902F073F86DE0B7
:100FF000312200230292199A00970392169A0193C4
:101000000492189A089605920D9A099506920F9ADD
:10101000304807920E9A30490A92304A1CE0A021CB
:101020008022C9011202052001F0CEFE0522002314
:101030000292199A2A480392169A2A490492189AF7
:10104000009705920D9A019306920F9A08960792BF
:101050000E9A09950A92244AFFF7BEFE2DE0002061
:10106000224928E00020224925E00020214922E0F1
:10107000002021491FE0002020491CE000202049D9
:1010800019E000201F4916E000201F4913E000204E
:101090001E4910E000201E490DE000201D490AE015
:1010A00000201D4907E000201C4904E000201C49E5
:1010B00001E000201B4902F00DF8FFF78BFC05E072
:1010C0001949221C002002F015FAF6E711B0F0BD14
:1010D000185A0000445A0000C523000000000020F8
:1010E000525A00001D2E0000F0FFFF1F5E5A000044
:1010F000895A0000BA5A0000EA5A00001A5B000040
:10110000475B0000745B0000A05B0000CE5B00004A
:10111000FA5B0000275C0000535C00007F5C00006D
:10112000AC5C0000D85C0000045D0000031C303B98
:10113000021C181E09280CD9131C613B052B01D871
:10114000573A05E0131C413B0020052B01D8373AE4
:10115000101C704770B501F0D8FF051C01F0D5FFD9
:10116000FF24061C281C2040FFF7E0FF051C301C54
:101170002040FFF7DBFF2D012818C0B270BDF8B585
:1011800001F0C3FF051C01F0C0FF041C01F0BDFF0E
:10119000071C01F0BAFF061CA8B2FFF7C7FF051C29
:1011A000A0B2FFF7C3FF2D030002281885B2B8B222
:1011B000FFF7BCFF041CB0B2FFF7B8FF24012818EA
:1011C000001980B2F8BD70B501F09FFF041C01F05A
:1011D0009CFF061C01F099FF051C01F096FFFF2300
:1011E000FA221C401D409200303C544364212A1CCA
:1011F0001E40303E4E43303A5A394A43A419034008
:10120000A218303BD01870BD70B50C1C161C88B0ED
:101210000CAA157806A908800A4A05A805700A4D87
:1012200012682D684A6004AA167000900193029516
:10123000231C002003F02CF9431E9841400008B005
:1012400070BDC04610FEFF1F18FEFF1FF7B56A46AF
:10125000CB1DDB08DB00D31A02AF9D46051C0C1C1E
:10126000FFF754FBFA23002002AE9B002A1C0094D7
:101270000193011C331C03F03DFE041CFFF774FBBB
:10128000201CBD46441EA0418000F2BD08B50020D0
:10129000014901F01FFF08BD565D000010B5094C63
:1012A0000020211C01F016FF211C002001F012FF7C
:1012B0000549002001F00EFF0449002001F00AFF5B
:1012C00010BDC046825D0000B25D0000E35D00001D
:1012D000F0B5B9B025AC00210722201C04F02DF98F
:1012E000FA4A01252C92032215AB2F9317AB3093AA
:1012F00019AB32931DAB34931FAB359321AB3693AF
:1013000023AB37932CAB1BAF1A71002011AA2E927E
:10131000149333972570319402F0D6FB281C02F009
:10132000D3FB8022EA4B12021A6002F01DFA002061
:101330000095021C031C011C01F0EEFEE549002093
:1013400001F0C8FEC82002F0F1F9E349002001F0E5
:10135000C1FEC82002F0EAF9E049002001F0BAFE1F
:10136000C82002F0E3F9DE4A2B1C0221DD4802F01E
:101370001FFA291C281C02F027FA002003F0E4FBC6
:101380000026FC2329A9DB00301C0B804D808D80BA
:10139000CE800E818E7203F005FC311C2A1C11A830
:1013A00004F0CBF84820259B08A91993A2880918B6
:1013B0000A80A279023008A909180A70442108AAF3
:1013C0005218413911701B93A28808A9BA80A279DA
:1013D0001038BA7105223A701593A28802270A873D
:1013E000A27909180A70342108AA521817701793A5
:1013F000A288063008A909180A80A279C01908A98C
:1014000009180A700422063808A909180A701D93E1
:10141000A2881C3008A909180A80A279C01908A955
:1014200009180A700822063808A909180A701F93BB
:10143000A2880C3008A909180A80C019A27908A945
:1014400009180A700921063808AA12181170219388
:10145000A3880C3008AA12181380A379C01908AA0F
:10146000121813700A23063808AA121813706C2277
:1014700008AB9B181E7014AA2B1C2FA802F084FB2B
:10148000381C311C00F0CEFE9749984802F094FDBC
:10149000FFF7BAFA0820FF3002F0AAFDC82002F0D8
:1014A00045F90820FF3002F0B1FDC82002F03EF9F6
:1014B0000820FF3002F09CFDC82002F037F9082018
:1014C000FF3002F0A3FDC82002F030F90820FF3001
:1014D00002F08EFDC82002F029F90820FF3002F04A
:1014E00095FD1D20824900F035FF4020814901F023
:1014F00065FC8027FFF7F0FB01F0B4FB331C089676
:1015000009963F020B9603330A937B49002001F0B2
:10151000E1FD7A4C7A4E206802F008F97949002002
:1015200001F0D8FD206802F001F97749089A099B7B
:10153000002001F0DFFF206802F0F8F8734B744DD3
:1015400074491A682B680968002000910197724954
:1015500001F0D0FF206802F0E9F8704B704A0020DB
:10156000D2587369316800916E4901F0C3FF206859
:1015700002F0DCF86C4B6C491A785B788979D2B24E
:10158000DBB200910020694901F0B4FF206802F04D
:10159000CDF8654B66491A7A1B7E0978D2B2DBB268
:1015A00000910020634901F0A5FF206802F0BEF819
:1015B000614B62491A785B780969D2B2DBB200915B
:1015C00000205F4901F096FF206802F0AFF85D4B04
:1015D00053499A785C4BD2B2CB5871680020009185
:1015E0005A4901F087FF206802F0A0F8584B59498A
:1015F0001A6811AB1B78002001F07CFF206802F014
:1016000095F85549002001F065FD206802F08EF83C
:101610005249002001F05EFD206802F087F8504931
:10162000002001F057FD206802F080F84D490020AD
:1016300001F050FD206802F079F84B49002001F0DC
:1016400049FD206802F072F84849002001F042FD8F
:10165000206802F06BF84649002001F03BFD20684D
:1016600002F064F84349002001F034FD206802F0E4
:101670005DF84149002001F02DFD206802F056F888
:101680003E49002001F026FD206802F04FF8099A3B
:101690000A9B3B49002001F02DFF206802F046F82C
:1016A0003849002001F016FD206802F03FF8364965
:1016B000002001F00FFD206802F038F833490020C7
:1016C00001F008FD206802F031F861E0D108000067
:1016D00020020020155E0000305E0000365E000033
:1016E00028FEFF1F2CFFFF1F3CFEFF1F2CFEFF1FCD
:1016F00000000020F0FFFF1F3D5E000000FEFF1F06
:1017000000D00340615E0000935E000010FEFF1FEA
:1017100014FEFF1F04FEFF1FC75E00003C10000008
:1017200000700440FF5E000000400640355F00008E
:1017300000500640645F000000E0074000ED00E05C
:10174000945F000000D0074034100000CE5F00001E
:101750001800002006600000346000003E600000B9
:101760005B6000007760000093600000B0600000E4
:10177000D7600000F66000001561000040610000C5
:101780006361000092610000AE610000D261000060
:10179000E249002001F09EFC206801F0C7FFE0490B
:1017A000002001F097FC206801F0C0FFDD49002017
:1017B00001F090FC206801F0B9FFDB49002001F046
:1017C00089FC206801F0B2FFD849002001F082FCBA
:1017D000206801F0ABFFD649002001F07BFC2068B7
:1017E00001F0A4FFD349002001F074FC206801F04F
:1017F0009DFFD149002001F06DFC206801F096FFAB
:10180000CE49002001F066FC206801F08FFFCC4932
:10181000002001F05FFC206801F088FFC94900202A
:1018200001F058FC206801F081FFC749002001F059
:1018300051FC206801F07AFFC449002001F04AFC05
:10184000206801F073FFC249002001F043FC2068CA
:1018500001F06CFFBF49002001F03CFC206801F062
:1018600065FFBD49002001F035FC206801F05EFFF6
:1018700001F04BFCFF22061C0240682A00D1A4E2C2
:1018800000DDC8E0392A01D100F01CFC00DDA5E034
:10189000322A00D14AE300DD89E00A2A01D100F0B2
:1018A00076FC312A01D000F078FCAC49002001F030
:1018B00011FC381CFFF778F80221002001F0AEFA85
:1018C000A74CA84D227A617A237A607A120200909E
:1018D0000020521892B2DBB20192291C021C01F0C6
:1018E00009FE0221012001F099FA227A617A12029E
:1018F000237A5218607A92B2DBB200900192291CCE
:101900000122002001F0F6FD0220011C01F086FA00
:10191000227A617A1202237A5218607A92B2DBB28A
:1019200000900192291C0222002001F0E3FD022117
:10193000032001F073FA227A617A1202237A521894
:10194000607A92B2DBB200900192291C032200203F
:1019500001F0D0FD0221042001F060FA207A637AC0
:101960000002267AC018637A80B20A21009301909F
:10197000FEF70AFEF6B280B2331C029004227A49C6
:10198000002001F0B7FD0221052001F047FA227A7C
:10199000617A1202237A5218607A92B20090019210
:1019A000DBB2291C0522002001F0A4FDADE5342A9C
:1019B00000D15BE300DA3DE3352A00D0EDE3FA2401
:1019C000381CFEF7F1FF03213A1C2A2000F0C7FC67
:1019D0000020664901F08EFDA4005AE3642A00D17C
:1019E00097E108DC622A00D16EE100DD80E1612A26
:1019F00000D1D1E0D1E3662A00D196E100DDD8E143
:101A00005B49002001F066FBFFF7A4FB09905949F0
:101A10000020099AC3E36F2A00D135E265DC6B2A06
:101A200000D1E6E15DDC692A00D1D7E16A2A00D065
:101A3000B3E3099A5049002001F05CFD01F065FB19
:101A40004E49041C002001F045FB01F05EFB4C49AF
:101A50000C90002001F03EFB01F057FB49490D902E
:101A6000002001F037FBFFF7AEFB4749051C0020C3
:101A700001F030FBFFF7A7FB4449061C002001F0F2
:101A800029FBFFF7A0FB42490E90002001F022FB4A
:101A9000FFF760FB02950F903E490A9A099B00965A
:101AA0000197002001F026FD231C0C9A303B303AB0
:101AB00000920D9A1C1C303A511E8A410192089ADC
:101AC000631E9C4104926A4602950396158F0F9AF5
:101AD000E3B2069205950A9809993A1CFFF760FA55
:101AE00013E56D2A00DDCAE189E1742A00D10CE515
:101AF00009DC722A00D1CBE100DDCFE10220702A9F
:101B000000D1C6E149E3782A00D1DEE17A2A00D18A
:101B1000E5E1752A00D040E3C8E1C046F661000067
:101B2000106200002B620000496200006662000043
:101B300085620000A4620000BE620000E96200004D
:101B4000096300002963000046630000646300002D
:101B50007B63000092630000B1630000E36E00004D
:101B6000F0FFFF1F016F0000216F0000B76F000042
:101B7000286900005E690000036B00003D6B0000F7
:101B8000666B00007F6B0000BE6B0000EA6B00001C
:101B9000226C0000536C0000EC49002001F09AFA1E
:101BA000EB49002001F096FA206801F0BFFDE949F9
:101BB000002001F08FFAE849002001F08BFAE74994
:101BC000002001F087FA206801F0B0FDE449002010
:101BD00001F080FA206801F0A9FDE249002001F03F
:101BE00079FA206801F0A2FDDF49002001F072FAC5
:101BF000206801F09BFDDD49002001F06BFA2068B0
:101C000001F094FDDA49002001F064FA206801F047
:101C10008DFDD849002001F05DFA206801F086FDB5
:101C2000D549002001F056FA206801F07FFDD34924
:101C3000002001F04FFA206801F078FDD049002023
:101C400001F048FA206801F071FDCE49002001F052
:101C500041FA206801F06AFDCB49002001F03AFA10
:101C6000206801F063FDC949002001F033FA2068C3
:101C700001F05CFDC649002001F02CFA206801F05B
:101C800055FDC449002001F025FAC349002001F0A8
:101C900021FA206801F04AFDC049002001F01AFA3B
:101CA000206801F043FD01F030FAFF220240352A9E
:101CB00003D1BB4B0B93012326E46D2A00D06CE2C9
:101CC000B84B0B9314231FE4B749002001F002FA2C
:101CD000FFF779FAB54B18601A68B54B9A4202D1F2
:101CE000B44BB24A1360B14B00201A68B24956E2B5
:101CF000B249002001F0EEF9FFF765FA28602A6882
:101D0000AB4B9A4201D1AB4B2B602A680020AC4907
:101D100045E2AC49002001F0DDF9FFF754FAAA4B87
:101D2000AA4918601A68002039E2A949002001F088
:101D3000D1F9FFF70FFA051CA64C2A1C211C002024
:101D400001F0D8FBA449002001F0C4F9FFF702FA22
:101D500012AE021C3070211C002001F0CBFB992D2B
:101D600002D100209D4914E2904B27AC1B680898D3
:101D700028932580FEF790FF381CFEF715FE2421DE
:101D80006B465B181B7813AA1370954B00201968DB
:101D90000123029100960193211C02F079FB021E9F
:101DA00003D000208F4901F0A5FBFEF713FEFFF7DB
:101DB000ACFB8D49002001F08DF9FFF704FA83B2E6
:101DC00008931A1C00208949E9E18949002001F0A3
:101DD00081F90120FFF762FAFFF797FB85490020A0
:101DE00001F078F9FFF7EFF987B23A1C0020824939
:101DF000D5E18249002001F06DF9FEF78CFF7C49A6
:101E0000002001F067F97E49002001F063F9FFF737
:101E1000A1F927AD28707B49002001F05BF9FFF79D
:101E2000D2F9F6B2041C2B786C2E16D1089A0097C2
:101E3000019200207449221C01F05CFB0025A542A0
:101E400001DBFFF762FB27AB1A780023FF2000932A
:101E50000121FFF7D9F90135F1E7089A0020009236
:101E60006A49221C01F046FB0025A54201DBFFF771
:101E70004CFB27A80121FFF7E9F90135F5E70898A0
:101E8000FEF70AFFFFF741FBFEF726FFFFF73DFBDA
:101E90000820002100F0C6F9FFF737FB5449002065
:101EA00001F018F9FFF7F2F9FFF72FFB0B9B002069
:101EB0005749002B00D16CE1564901F00BF9FFF7AF
:101EC00049F90B9B1870FFF720FB5349002001F0E4
:101ED00001F9384801F02AFC0020504959E15049E5
:101EE000002001F0F7F8381CFEF75EFD4D49002098
:101EF00001F0F0F801F009F94B49051C002001F050
:101F0000E9F8FFF760F986B24849321C002001F079
:101F1000F1FA206801F00AFCE9B268394D426941E2
:101F20000120C9B2321C3B1CFEF700FF40490020D3
:101F300001F0D0F8381CFEF737FDFFF720F93A1C06
:101F4000011C052000F040FFFFF7DFFAC46300002A
:101F5000CF6300000D6400004F6400009064000037
:101F6000D0640000006500003D6500007C65000055
:101F7000BA650000F7650000356600007266000073
:101F8000B1660000EE6600001767000054670000AD
:101F90008B670000C8670000056800001868000033
:101FA00000000020F0FFFF1F4868000010FEFF1F28
:101FB0000F270000102700007668000096680000D8
:101FC000C4680000DE68000004FEFF1F0D69000009
:101FD00075690000A8690000BE690000E76900009B
:101FE00018FEFF1F0D6A00002E6A00005A6A0000EA
:101FF0007C6A0000AA6A0000E66A0000906C00009B
:10200000B36C0000D26C0000F26C0000446D000064
:10201000826D0000C06D0000F86D0000176E0000BA
:10202000216E00003A6E0000636E0000AB6E00008F
:102030004C6F00005C49002001F04CF8FA24381C79
:10204000FEF7B2FCA4000221042000F0E7FE574B8B
:1020500000201A7A5B7A1202D21892B25449013CDB
:1020600001F048FA002CEED1FFF74FFA5149002059
:1020700001F030F801F049F8FFF758F8279001F027
:1020800044F8FFF753F8289027A800F08FFDFFF7DA
:102090003CFA0221012000F095F9474B00201A7A02
:1020A0005B7A92019B081343802292015340434A7A
:1020B00043499B181A1C013C01F01CFA002CE8D182
:1020C000FFF723FA3F49002001F004F8381CFEF71F
:1020D0006BFC01213A1C2A2000F041F9FA2400206F
:1020E000394901F007FAA4000221012000F06AF941
:1020F000314B00201A7A5B7A92019B0813438022AD
:10210000920153402D4A2E499B181A1C013C01F0A4
:10211000F1F9002CE8D1201C2C49FA2401F0EAF94D
:10212000A4000221032000F04DF9234B00201A7A6D
:102130005B7A92019B0813438022920153401F4A0D
:102140001F499B181A1C013C01F0D4F9002CE8D15E
:10215000201C1F49FA2401F0CDF9A400022105201A
:1021600000F030F9144B00201A7A5B7A92019B0838
:102170001343802292015340104A11499B181A1CA4
:10218000013C01F0B7F9002CE8D1FFF7BEF90020BF
:10219000104900F09FFFFFF7B8F900200E4901F049
:1021A000A9F9FFF7B2F9C046686F0000F0FFFF1F02
:1021B000966F00009D6F00000000002000E0FFFF10
:1021C000CD6F0000DE6F0000B76F000009700000E7
:1021D0001F700000357000002C6800001FB5041C43
:1021E00001A9002002F006FD01A8694602F040FCAA
:1021F000009B68461C1901A9009402F0C1FB01A9CB
:102200000122002002F022FD1FBD00000022034B2E
:102210001A608022024B1206DA67704700A01C5831
:1022200004E100E010B50A2308286FD80C1CFEF763
:10223000A1F9051B283C48626466570001F03AFE8C
:102240000523012862D0FFF7E1FF201CFFF7C6FF3E
:102250000020011C01F0BCFC041C0020012101F045
:10226000B3FA002C4FD150E001F024FE06230128E0
:102270004CD0FFF7CBFF201CFFF7B0FF012000215F
:10228000E8E701F017FE082301283FD001F024FB06
:10229000002803D00020012101F096FA022000213D
:1022A00001F096FC00282ED12FE001F003FE072359
:1022B00000282BD0FFF7AAFF201CFFF78FFF032079
:1022C00005E0FFF7A3FF201CFFF788FF0420002193
:1022D00001F07EFC041C01F0EDFD0028C1D1BDE73A
:1022E0000820002101F074FC00280CD10120011C01
:1022F00001F06AFA09E0052002E0062000E007206C
:10230000002101F065FC092300E00023181C10BD2A
:1023100010B50C1C0C4B88B01B7806A90B800B4B1E
:1023200005AA1B6810700A484B6004AB1C7000685B
:102330000093012302900193002002F0A9F8431EAC
:102340009841400008B010BD0000002010FEFF1FA3
:1023500018FEFF1FC223FF3308704B60704708B59B
:1023600018280FD8172818D20F2806D80E2814D2EC
:10237000031C093B012B13D80FE0031C113B042B5A
:102380000ED80AE0212804D81F2806D21D2807D11C
:1023900003E0031C233B0E2B02D8FFF7B9FF00E03C
:1023A000032008BD38B5031C0D1C0920191CFFF7BC
:1023B000AFFF291C041C2A20FFF7AAFF0443E0B248
:1023C00038BD0000FF2310B588B005AA1370182887
:1023D00004D8092806D206281BD803E0031C1D3B9D
:1023E000142B16D80C4B10701C7806AB1C800B4CB1
:1023F0000B482468006807940A4C01910290191C4C
:1024000000940123002002F050F8431E9841400040
:1024100000E0032008B010BD0000002010FEFF1FE8
:1024200018FEFF1F0800002038B50221041C0120FF
:10243000FFF7C8FF304D2A7A6B7AD2B2DBB20028A0
:1024400004D02E49002000F045FE11E0002C03D0FE
:102450002B4901F04FF80BE092019B0813438022B7
:1024600092015A40274B201CD218274901F042F80C
:1024700002210320FFF7A6FF2A7A697AD2B2CBB2F3
:10248000002804D01D49002000F024FE11E0002C9B
:1024900003D01B4901F02EF80BE092019B08134377
:1024A000802292015A40174B201CD218164901F085
:1024B00021F802210520FFF785FF2A7A697AD2B236
:1024C000CBB2002804D00D49002000F003FE11E03B
:1024D000002C03D00A4901F00DF80BE092019B0893
:1024E0001343802292015A40064B201CD218064901
:1024F00001F000F838BDC046000000206770000001
:102500006E70000000E0FFFF5B59000037B50E243D
:10251000FF34051C201C01F06BFD0A2001F006F9B8
:10252000201C01F073FD0C2001F070FD0123084A0E
:10253000002015700093FA239B000193011C054BAA
:1025400002F0D8FC051C201C01F052FD281C3EBDE9
:102550004D0000204C00002008B50020FFF7D6FFFA
:102560003F20FFF7D3FF0020FFF7D0FF002008BD7A
:1025700038B5051C0C1C2120FFF7C8FF281CFFF7ED
:10258000C5FF201CFFF7C2FF3834281CFFF7BEFF31
:10259000E0B2FFF7BBFFFFF7DFFF002038BDF8B563
:1025A000061C0C1C351C271C2120FFF7AFFF2A3509
:1025B000301CEDB2FFF7AAFF201CFFF7A7FF281C75
:1025C000FFF7A4FF201CFFF7A1FFFFF7C5FF2120A5
:1025D000FFF79CFF281CFFF799FF1C37201CFFB258
:1025E000FFF794FF281CFFF791FF381CFFF78EFFC1
:1025F000FFF7B2FF2120FFF789FF281CFFF786FFB6
:10260000381CFFF783FF301CFFF780FF381CFFF7F3
:102610007DFFFFF7A1FF2120FFF778FF301CFFF7B8
:1026200075FF3834381CE4B2FFF770FF301CFFF739
:102630006DFF201CFFF76AFFFFF78EFF2120FFF7D9
:1026400065FF301CFFF762FF201CFFF75FFF281CAF
:10265000FFF75CFF201CFFF759FFFFF77DFF00200D
:10266000F8BDF8B5071C0C1C3D1C261C2120FFF7EB
:102670004DFF2A35381CEDB2FFF748FF201CFFF74D
:1026800045FF281CFFF742FF201CFFF73FFFFFF725
:1026900063FF2120FFF73AFF281CFFF737FF38368A
:1026A000201CF6B2FFF732FF281CFFF72FFF301C6B
:1026B000FFF72CFFFFF750FF2120FFF727FF281C13
:1026C000FFF724FF301CFFF721FF381CFFF71EFF28
:1026D000301CFFF71BFF1C34FFF73EFF2120FFF7E4
:1026E00015FFE4B2381CFFF711FF201CFFF70EFFA7
:1026F000281CFFF70BFF201CFFF708FFFFF72CFF3C
:102700000020F8BD70B50D1C041C2E1C2120FFF705
:10271000FDFE201CFFF7FAFE2A36281CF6B2FFF752
:10272000F5FE201CFFF7F2FE301CFFF7EFFEFFF76F
:1027300013FF2120FFF7EAFE201CFFF7E7FE301C05
:10274000FFF7E4FE201C2A30C0B2FFF7DFFE15348D
:10275000301CE4B2FFF7DAFEFFF7FEFE2120FFF7A0
:10276000D5FE201CFFF7D2FE281C1C30C0B2FFF79C
:10277000CDFE3835201CFFF7C9FEE8B2FFF7C6FED4
:10278000FFF7EAFE002070BDF8B5061C0C1C351CD6
:10279000271C2A35EDB22120FFF7B8FE281CFFF7D1
:1027A000B5FE201CFFF7B2FE301CFFF7AFFE201C69
:1027B000FFF7ACFEFFF7D0FE2120FFF7A7FE301C8D
:1027C000FFF7A4FE1C37201CFFB2FFF79FFE301C52
:1027D000FFF79CFE381CFFF799FEFFF7BDFE212096
:1027E000FFF794FE301CFFF791FE381CFFF78EFEBA
:1027F000281CFFF78BFE381CFFF788FEFFF7ACFEA6
:102800002120FFF783FE281CFFF780FE3834381C98
:10281000E4B2FFF77BFE281CFFF778FE201CFFF7D1
:1028200075FEFFF799FE2120FFF770FE281CFFF7C9
:102830006DFE201CFFF76AFE301CFFF767FE201CB0
:10284000FFF764FEFFF788FE0020F8BDF8B5061C10
:102850000C1C351C271C2A35EDB22120FFF756FE33
:10286000281CFFF753FE201CFFF750FE301CFFF71B
:102870004DFE201CFFF74AFEFFF76EFE2120FFF7FA
:1028800045FE301CFFF742FE3837201CFFB2FFF731
:102890003DFE301CFFF73AFE381CFFF737FEFFF70E
:1028A0005BFE2120FFF732FE301CFFF72FFE381CA5
:1028B000FFF72CFE281CFFF729FE381CFFF726FE29
:1028C000FFF74AFE2120FFF721FE281CFFF71EFE1E
:1028D0001C34381CE4B2FFF719FE281CFFF716FE63
:1028E000201CFFF713FEFFF737FE2120FFF70EFE37
:1028F000281CFFF70BFE201CFFF708FE301CFFF71B
:1029000005FE201CFFF702FEFFF726FE0020F8BDA3
:1029100038B5051C0C1C2120FFF7F8FD281C2A35B2
:10292000EDB2FFF7F3FD201CFFF7F0FD281CFFF7C9
:10293000EDFD201CFFF7EAFDFFF70EFE2120FFF75B
:10294000E5FD281CFFF7E2FD201CFFF7DFFD383412
:10295000281CFFF7DBFDE0B2FFF7D8FDFFF7FCFD19
:10296000002038BDF8B5061C0C1C351C271C212086
:10297000FFF7CCFD2A35301CEDB2FFF7C7FD201C58
:10298000FFF7C4FD281CFFF7C1FD201CFFF7BEFDAB
:10299000FFF7E2FD2120FFF7B9FD281CFFF7B6FD88
:1029A0003837201CFFB2FFF7B1FD281CFFF7AEFD42
:1029B000381CFFF7ABFDFFF7CFFD2120FFF7A6FD89
:1029C000281CFFF7A3FD381CFFF7A0FD301CFFF704
:1029D0009DFD381CFFF79AFDFFF7BEFD2120FFF794
:1029E00095FD301CFFF792FD381CFFF78FFD301C62
:1029F000FFF78CFD201CFFF789FD1C34FFF7ACFDB1
:102A00002120FFF783FDE4B2301CFFF77FFD201C7F
:102A1000FFF77CFD281CFFF779FD201CFFF776FDF2
:102A2000FFF79AFD0020F8BDF8B5071C0C1C3D1CF3
:102A3000261C2A35EDB22120FFF768FD281CFFF780
:102A400065FD201CFFF762FD381CFFF75FFD201CB1
:102A5000FFF75CFDFFF780FD2120FFF757FD381CD5
:102A6000FFF754FD1C36201CF6B2FFF74FFD381C53
:102A7000FFF74CFD301CFFF749FDFFF76DFD2120EE
:102A8000FFF744FD381CFFF741FD301CFFF73EFD0A
:102A9000281CFFF73BFD301CFFF738FDFFF75CFDFE
:102AA0002120FFF733FD281CFFF730FD201CFFF726
:102AB0002DFD3834281CFFF729FDE0B2FFF726FD75
:102AC000FFF74AFD0020F8BDF8B5061C0F1C351CA9
:102AD0003C1C2A35EDB22120FFF718FD281CFFF71A
:102AE00015FD381CFFF712FD301CFFF70FFD381CD9
:102AF000FFF70CFDFFF730FD2120FFF707FD301C2D
:102B0000FFF704FD3834381CE4B2FFF7FFFC301C3B
:102B1000FFF7FCFC201CFFF7F9FCFFF71DFD21204F
:102B2000FFF7F4FC301CFFF7F1FC201CFFF7EEFC74
:102B3000281CFFF7EBFC201CFFF7E8FCFFF70CFD5F
:102B40002120FFF7E3FC281CFFF7E0FC201CFFF727
:102B5000DDFC281CFFF7DAFC381CFFF7D7FCFFF779
:102B6000FBFC2120FFF7D2FC281CFFF7CFFC381C10
:102B7000FFF7CCFC301CFFF7C9FC201CFFF7C6FC9C
:102B8000FFF7EAFC0020F8BD08B52520FFF7BEFCE2
:102B90000020FFF7BBFC0020FFF7B8FC5F20FFF729
:102BA000B5FC3F20FFF7B2FC002008BDF0B585B0B2
:102BB000071CFFF7E9FF6A466D460024284B03CB4C
:102BC00003C2161C03CB03C23B59002B04D1285D62
:102BD000315DFFF779FF3DE0012B04D1285D315DC8
:102BE000FFF7C6FC36E0022B04D1285D315DFFF70C
:102BF000D6FC2FE0032B04D1285D315DFFF731FDBA
:102C000028E0042B04D1285D315DFFF77BFD21E036
:102C1000052B04D1285D315DFFF7B6FD1AE0062BC8
:102C200004D1285D315DFFF711FE13E0072B04D1BD
:102C3000285D315DFFF76CFE0CE0082B04D1285DA8
:102C4000315DFFF78FFE05E0092B03D1285D315D73
:102C5000FFF7EAFE0434082CB6D1002005B0F0BD21
:102C600070580000C02313B580244F4A9B001360A6
:102C70004E4A64001360FDF749FE4D4B201C1C605A
:102C80004C4B1C604C4B1C6001F0B2F9642000F00E
:102C90004DFD201C01F0BAF9642000F047FD201C16
:102CA00001F0A6F9642000F041FDAE20FFF72EFCF4
:102CB000A020FFF72BFC7220FFF728FCA120FFF7D4
:102CC00025FC0020FFF722FCA220FFF71FFC0020BC
:102CD000FFF71CFCA420FFF719FC0024A820FFF735
:102CE00015FC3F20FFF712FCAD20FFF70FFC8E20F4
:102CF000FFF70CFCB020FFF709FC0B20FFF706FCE8
:102D0000B120FFF703FC3120FFF700FCB320FFF7F1
:102D1000FDFBF020FFF7FAFB8A20FFF7F7FB6420AA
:102D2000FFF7F4FB8B20FFF7F1FB7820FFF7EEFBBA
:102D30008A20FFF7EBFB6420FFF7E8FBBB20FFF7DF
:102D4000E5FB3A20FFF7E2FBBE20FFF7DFFB3E206A
:102D5000FFF7DCFB8720FFF7D9FB0E20FFF7D6FB40
:102D60008120FFF7D3FB9120FFF7D0FB8220FFF7F4
:102D7000CDFBFF20FFF7CAFB8320FFF7C7FB7D20B9
:102D8000FFF7C4FBAF20FFF7C1FB2620FFF7BEFB18
:102D90000120FFF7BBFBFFF7F7FE684600940194A4
:102DA000FFF704FF201C16BD2090145424901454E7
:102DB00034A014543090145400A014548023DB0524
:102DC00008704B607047000000B589B005AB0A0A77
:102DD0001A705970002801D0052816D10C4A06A98E
:102DE00012780A800B4A12684A6004AA10700A48D6
:102DF000006800930223029001930020013B01F040
:102E000047FB431E9841400000E0032009B000BD8D
:102E1000F0FFFF1F10FEFF1F18FEFF1FFF2100B570
:102E200089B005AA031C11700320052B15D80C4985
:102E30001370087806A908800A480B4B00681B68C5
:102E400048600A480293009002200123019000206C
:102E500001F02BFB431E9841400009B000BDC04665
:102E6000F0FFFF1F10FEFF1F18FEFF1FF8FFFF1FE0
:102E70000269C3689A4203D880681018013800E0DC
:102E8000501EC01A7047F7B58368C668051C4068B5
:102E90000191141C9F1B8019974203D902F044FB37
:102EA000A4190AE001993A1C02F03EFB019BE41BC5
:102EB000D9196868221C02F037FBEC60F7BD0023CB
:102EC000F7B5061C171CC568019100933369B468F7
:102ED000AB4200D81B19013B5B1B641BBC4200D9F1
:102EE0003C1C9C4200D91C1C7368221C5819019977
:102EF00002F01AFB009B2D191B190093019B3F1B2D
:102F00001B190193B368EB1A5A1E93415B421D4093
:102F1000F560002FDAD10098FEBD0000022310B545
:102F20000F4C104A236163610F4BA261E361C82318
:102F3000A2640E4A2362E26400230422A362636255
:102F4000E362A3656365E3652265E01D084902F05D
:102F5000ADFB201C074902F0A9FB2023A37110BD83
:102F60001C0100207E700000520000204E00002056
:102F7000877000008B700000F0B5294B171C1A7881
:102F800085B0009001910293002A01D1FFF7C6FF9E
:102F90001823009A00255343029AD3181A1C503262
:102FA00052689C6D039294421BD91B6D3D1C1B1BE8
:102FB0009F4200D91D1C1826009B2A1C5E43029BC1
:102FC00001989E19F36C7F1B191902F0ADFA019B51
:102FD00064195B190193336DE31A5A1E93415B42E6
:102FE0001C40039B1E1BBE4200D93E1C002E0CD071
:102FF0001823009A01985343029AAD19D318D96C3B
:10300000321C091902F090FAA419002D05D01823DA
:10301000009A5343024AD3189C65281C05B0F0BDA2
:103020001C01002010B50B1CEFF31084012181F36B
:103030001088191CFFF7A0FF84F3108810BD000052
:10304000F8B51823451C5D434343141C134A0E1C5A
:10305000D018C76A5519012F0FD0002F07D0022FA3
:1030600017D1221C281CFFF72AFF041C14E0281C7F
:10307000FFF7FEFEA0420ED305E0281CFFF7F8FE86
:10308000844200D9041C281C311C221CFFF7FBFEC3
:1030900002E0002400E03C1C201CF8BD1C010020C4
:1030A000F8B50B4B071C1B780E1C151C002B01D10F
:1030B000FFF734FFEFF31084012181F31088381CEF
:1030C000311C2A1CFFF7BCFF84F31088F8BDC046F2
:1030D0001C01002038B5051C081C0C1C02F0EEFA7F
:1030E000211C021C281CFFF7DBFF38BD13B56B4603
:1030F000DC1D0020211C0122FFF794FF012801D1D3
:10310000207801E00120404216BD08B5FFF7EEFF30
:103110000028FBDB08BD0000F7B5164C01932378AF
:10312000051C0F1C161C002B01D1FFF7F7FE2369AD
:103130009D421CD2EFF31082012181F31088002DF3
:103140000CD01823691C59436B43675061184E60BB
:103150000199E318196200219962596218235D43AD
:10316000089B6419E36282F31088002001E00120CB
:103170004042FEBD1C010020826810B5041C40685E
:10318000531C834205D820688154A360E36801334F
:10319000E360A26863689A420CD120692168FFF756
:1031A0007FFFA368984203D001235B42E36001E004
:1031B0000023A36010BD0000F0B5051C1F1C081CF7
:1031C000012685B00A9C00910192019B984204D38C
:1031D0000199FDF7D9F90136F7E70296BE4200D210
:1031E000029701230B9A1A40039218D1002C01D1A7
:1031F000002414E00B9B20269B070DD5002F0BD13C
:10320000103609E0281C311CFFF7B6FFEB68013CC3
:10321000002B04DB002CEBD0029BA342F2D3EB6823
:10322000002B35DB0126012F01D9013F06E0009874
:10323000311CFDF7A9F9019B984208D3019B5E431D
:10324000F1E7301C0199FDF79FF9061E10D0009898
:10325000311CFDF799F9331C4343009AD31A0093AC
:103260000C4B195C281CFFF787FFEB68002BE8DA92
:10327000039B002B0CD0002C0AD0029BA34207D248
:10328000281C2021FFF778FFEB68013C002BF2DAC5
:1032900005B0F0BD92700000F0B59FB00EAB099381
:1032A00040230A930023161C06900B930D900C9359
:1032B0000B784C1C002B04D10C9B0393002B22DCBD
:1032C00015E1252B16D1002502314F1E3B782B2B03
:1032D0000CD003D8232B27D1082308E02D2B03D0B3
:1032E000302B21D1022302E0012300E004231D43FF
:1032F0000131EAE7191C09A8FFF73EFF211C0C9BCE
:10330000002BD5DAD8E70B9A002A03D006980EA92D
:10331000FFF7C6FE0C9B03930B9B0493049A039B3D
:10332000944663440C93E2E000243A78131C303B4B
:10333000092B05D80A235C43303C0137A418F4E775
:10334000002303932E2A0DD101373A78131C303B0A
:10335000092B07D80A23039901374B43303B9B18AD
:103360000393F2E7397804230A1C9A43682A01D1AF
:103370000137F7E7642926D008D8582900D195E00D
:1033800063291AD0252900D0AFE0ABE0732900D122
:1033900095E00DD8702900D0A7E032680021131DF8
:1033A0003360082301910093116809A8102296E068
:1033B000752971D0782979D097E0336819681A1D7A
:1033C0003260C9B28EE033681A1D1B683260DA17AA
:1033D00098180493012350400593092805DD0A211C
:1033E000FDF762F9059B0133F6E7059B039A9342CB
:1033F00000D20592002C05D0049B002B01DB6B074B
:1034000000D5013CAB0702D5039B002B10D0EB0786
:103410000ED4002C01D100240AE0059BA34207D260
:1034200009A82021FFF7A8FE0C9B013C002BF0DA35
:103430000C9B0793002B58DB049B002B04DA5B42A8
:10344000049309A82D2103E06B0703D52B2109A8BC
:10345000FFF792FE0C9B002B47DB03232B40022B34
:1034600011D1039B002B0ED1002C01D100240AE0C6
:10347000059BA34207D209A83021FFF77DFE0C9BD4
:10348000013C002BF0DA0C9B0593002B2DDB009404
:10349000019509A8049906E03368009401951A1D66
:1034A0001968326009A80A22039B18E03368009467
:1034B0001A1D0195326009A819681022F4E73368D3
:1034C0001A1D32601C682178013400290DD009A82A
:1034D000FFF752FE0C9B0393002BF4DA05E0FFF795
:1034E0006BFE02E009A8FFF747FE791C07E70C987E
:1034F0001FB0F0BD0EB403B503AB02CB01AA01931C
:10350000FFF7CAFE02B008BC03B0184708B5002098
:1035100000F08AFD08BD08B5002001F0F5FB08BDEC
:10352000082110B5164B9A780A4202D09A780A43BD
:103530009A70882200212220124B52019950124A7F
:1035400010708020114A400298501868104A0240BA
:1035500010481A601C58104A2240C024A404224378
:103560001A5080220D4B19721A767F3A19705A70D0
:103570000B4A11700C2299791142FBD110BDC04643
:1035800000D007400070044000E0074044100000F5
:10359000FFFFF3FF04100000FFFFFFF000400640B4
:1035A00000500640154B164810B5191E81420CD02C
:1035B0000022144B9B089B009A4203D084588C50E5
:1035C0000432F9E7104B996001E00F4A9360002341
:1035D0000E4A0F49891A8B4204D0D45C0D48C4545A
:1035E0000133F8E700230C4A0C49891A8B4204D0B6
:1035F0000024D01804700133F8E710BD000000006B
:10360000000000000000000000ED00E0FC71000080
:10361000A873000000FEFF1FACFFFF1FC8020020C0
:1036200000234170436003708360181C704710B51D
:103630004378041C0120FF2B08D000F06DFA63785A
:103640000133DBB2637000F05BFA002010BD002094
:10365000704738B5041C0D1C00F05EFAE168294380
:10366000E16000F04DFA002038BD000000220A4B56
:103670009A641A1C40329A631A1C30329A621A1CDD
:1036800020329A611A1C10329A60044A1360044B6B
:103690009B60DB607047C046A8010020A4010020A9
:1036A000940100200022024B1A60186880B2704713
:1036B0000C007C5038B54378041C0D1C002B0BD03B
:1036C000002500F029FA6378013BDBB263702570B6
:1036D00000F016FA281C28E00220002925D02378C3
:1036E000002B15D0FFF7DEFF6368A268984201D374
:1036F000C01A03E0C01A80235B02C018824213D2B2
:1037000000F00AFA0023237000F0FAF902200CE01E
:103710004B1C09D000F000FA0123237000F0F0F9EF
:10372000FFF7C0FFA5606060032038BD38B5051CF9
:10373000FFF7B8FF041CFFF7B5FFA04201D3001B41
:1037400003E08023001B5B02C0188542F3D238BD22
:1037500008B5012801D100F0DFF908BD08B501283E
:1037600001D100F0CDF908BD10B5FFF77FFF0123AF
:103770000020084A08491360084A094C1060086094
:1037800004212160074C216007490B60074908604C
:10379000136010BD388004500000845000000450B5
:1037A000000004510400045104000C5000000453B4
:1037B00010B5044C206021710020A2602373637354
:1037C00010BDC046F8010020F0B587B06B460290EE
:1037D0001B7A05AC23706B4603911B7B3D4D6370D8
:1037E0002B79029A0420934271D92B7B6B730123AE
:1037F000A37000230193374E0093337B009A371C4C
:1038000093421AD9009BB2689B009B58002B10D0A2
:103810001A79D2070DD51A68201C9968904700289C
:1038200007D06B461B787373039B002B3AD005239C
:103830000193009B0133DBB2DDE7019E002E02D035
:10384000039B012B2FD10120FFF782FF0C20029B4D
:1038500058432B68181800F0A7F86B461B7A012014
:103860006B71FFF77BFF02230025A3703B7BAB420C
:1038700016D9BA68AB009B58002B0ED01A79920764
:103880000BD51A68201C99689047002805D0039B27
:103890007D73002B1AD0062301930135EDB2E5E7C5
:1038A000019814E005260023009FA370013FFFB29A
:1038B000FF2F09D0AA68BB009B58002BF6D01A68CE
:1038C000201C99689047F1E7301C00E0062007B003
:1038D000F0BDC046F8010020014B58797047C04642
:1038E000F801002013B500210378041C0191022B7C
:1038F00007D0032B0BD0012B0ED10279191C1348D2
:1039000001E00279114801AB00F0CEFF08E001A907
:103910000E4801F00BF803E00C4801A900F0A8FFE5
:10392000002812D1A3790A4ADB01DBB21370637855
:10393000084A5B00DBB21370A278074B1A70E2787A
:10394000064B1A706279064B1A7016BD004006408D
:1039500018408653004086500040065001400650F3
:10396000184016501F22802302405B05D2051A43DF
:10397000034943099B005B181A43002313607047F7
:10398000288004401F2280210240D30549051943A5
:10399000430904489B001B1819430123081C93404A
:1039A00003607047288004400022072373B5041C7D
:1039B000104D0093281C131C012101F097F9201CC5
:1039C000FFF790FF0022637A217A0093281C131CD2
:1039D00001F08CF9E379084A9B041360074BA17A44
:1039E0001D68281C00F0BEFF281CE17A00F0C1FF12
:1039F000002076BD0070044000700C59F07000008B
:103A000008B5054800F0F6FE044B1968C9B201314B
:103A1000FCF7BAFD08BDC0460040064044801C5E6D
:103A200008B5054800F0E6FE044B1968C9B201313B
:103A3000FCF7AAFD08BDC0460040064044801C5E5D
:103A400008B5054800F0D6FE044B1968C9B201312B
:103A5000FCF79AFD08BDC04600400640448014585B
:103A600008B5054800F0C6FE044B1968C9B201311B
:103A7000FCF78AFD08BDC04600400640448014584B
:103A80000C4B1B68DBB2022B0DD0032B0ED0002B8E
:103A900001D000200CE08021074A09021268101EA4
:103AA0008842F6D104E0054B186801E0FA20800056
:103AB0007047C04600700C592002002024020020EC
:103AC00008B5FFF7DDFF08BD08B5024B185CFFF72E
:103AD00059FF08BDA270000008B57620FFF752FF1D
:103AE00008BD08B57620FFF73DFF08BD08B5662084
:103AF000FFF748FF08BD08B56620FFF733FF08BD94
:103B0000044A1368002B04D0013B1360002B00D142
:103B100062B670470802002072B6024A1368013389
:103B2000136070470802002010B50B4B0B4A127847
:103B3000002A04D1013B002BF8D103200AE0064CF7
:103B4000074801F069FB012803D0013C002CF7D1A4
:103B5000F3E7002010BDC046EA03000002D0075181
:103B600000E0074010B5064C064801F055FB04285C
:103B700004D0013C002CF7D1032000E0002010BD50
:103B8000EA03000000E00740F7B5071C0E1C151CF7
:103B900001930120002F18D0002916D0FFF7D8FD7F
:103BA0000A4C0021201C102201F0C7FC276026715E
:103BB000002D06D06B461B79A56023736B461B79DD
:103BC00063730120FFF7CAFD0020FEBD0C02002038
:103BD000F0B5B24C8BB002900191237B012063734E
:103BE000FFF7B6FD2379029A934204D80120FFF72C
:103BF000B5FD022050E1029A23689200D6586B4628
:103C00001B7907AC357823726B461B7A2A1C23700C
:103C100002239A4366600392012A01D0052D0AD13E
:103C200001219F4801F04AFA002809D10120FFF73D
:103C300095FD012030E1072D02D999480321F1E7D4
:103C40000123637200240094944F009A3B7B9342BB
:103C50001AD9009BBA689B009B58002B0FD01A7989
:103C6000D2070CD51A6807A899689047002806D093
:103C70006B461B7804247B73019B012B04D1009BB2
:103C80000133DBB20093DFE70120FFF767FD8548D2
:103C900000F0D4FD039B012B1DD10138C0B20228D6
:103CA00011D8FFF7DDFE804B98420CD8FFF7A8FE35
:103CB0007E4FB84207D8FFF7C3FEB84203D8FFF7DC
:103CC000AFFEB84207D9019B012B01D1062407E0C2
:103CD000002C05D1FAE7019B012B52D0002C50D0CB
:103CE0000120FFF735FD002307AE009D7372013DF3
:103CF000EDB2FF2D40D0694BAA009B68D358002B32
:103D0000F5D01A79D207F2D51A68301C9968904715
:103D1000EDE7072205AB1A7000225A70F2789A700C
:103D20003279DA702B1C083B05A9022B03D8737972
:103D30008B71B379CB717378002B00D084E0584835
:103D400001F0F0F9002800D00324002D00D08AE013
:103D5000FFF7EAFE0024002800D09DE00120FFF7D5
:103D6000F7FC6B464D4E1B7A0025B373022307AF59
:103D70007B72337BAB427CD80120FFF7EFFC201C29
:103D80008AE003200A2D00D986E0281CFCF7E8FB16
:103D900006080A1940583339C1282D00002250E086
:103DA00003224EE03E4801F037FA012807D03C4894
:103DB000002101F093F9FFF7B7FE041E6CD1012238
:103DC0003FE0374801F028FA042807D034480221A0
:103DD00001F084F9FFF7C6FE041E5DD1042230E035
:103DE000072205AB1A70063A03E0072205AB1A70EA
:103DF000043A5A7096E7022205AB1A70013A1A711A
:103E000004E00222012105AB1A7019715A7189E789
:103E10000222002705AB1A702148013A1A715F711E
:103E200001F0FAF9012800D17CE71D48391C01F0A6
:103E300055F9FFF779FE041EBC4200D172E72BE072
:103E4000052205AB1A706DE7012D00D877E7B2782F
:103E50000220174B002A02D01A69024301E01A69B6
:103E600082431A616BE7012D00D077E7FFF77AFEF6
:103E700070E7B268AB009B58002B0AD01A79920702
:103E800007D51A68381C99689047002801D0052486
:103E900075730135EDB26CE70BB0F0BD0C0200207C
:103EA00000E007400040064040420F0080841E00B2
:103EB00000ED00E008B5064801F0AEF90023012846
:103EC00003D00133042800D00A33181C08BDC046B3
:103ED00000E00740F7B5FF2403681C4A1D0A25408F
:103EE0001C40AB009F581A4A061C9B58281C019383
:103EF000FFF7EAFD211C0022381C01F095F9019B17
:103F0000A4001C19842332795B05234352001A60F4
:103F1000802372795B0523431A609023B2795B0595
:103F2000234312011A60F3790A4A14431A042260E7
:103F3000002B0AD0084B5A5D002A06D01F231340DD
:103F400001229A40131C054A1360F7BDFC70000063
:103F5000F4700000000018180471000000E100E097
:103F6000F8B5FF24051C0368114A180A20401C40BC
:103F700083009F580F4A9E58FFF7A6FD381C211C4E
:103F8000012201F051F96A68381C211C01F05CF92A
:103F900088232A7AA40034195B05234392001A600F
:103FA00098235B051C436B7A9B012360F8BDC046D8
:103FB000FC700000F470000038B50C1C002802D121
:103FC000002C09D112E003680133F9D0051C083533
:103FD000FFF780FF281CF6E72368013306D0251C75
:103FE000201C0C35FFF7BCFF2C1CF5E738BD00008A
:103FF000FF22030A134002400120904002499B0027
:104000005B5858607047C046FC700000FF22030AEE
:10401000134002400120904002499B005B58986089
:104020007047C046FC70000008B5084B8200D358AA
:1040300094220233520513431B78002B02D000F068
:1040400041FA01E000F096FA08BDC046A8700000F1
:10405000031C80220C33520513431B78002BF7D02E
:104060000171704738B50D1C084B8000C458201CE6
:10407000291C1830FFF71EFB0328F8D0002801D0B8
:1040800004232374207CC0B238BDC0461C0200202B
:10409000F0B589B00290161C82003748059310587D
:1040A0000EAB019035481B781458002007AA1080E9
:1040B000A27C8F0A04920122E274A2745A425341F4
:1040C0001E3FDBB203937B425F41FFB2CDB287421A
:1040D00002D0CBB29C460D0A00216D00EDB28F429A
:1040E00004D1391C002E01D16B46197B0D4307AB5F
:1040F0001D700122002F02D062465A700222A36076
:10410000E2600198291CFFF7A3FF02980F99FFF7BF
:10411000A9FF237C002B0CD1002E0AD0059BA660A2
:10412000E36031780198FFF793FF02980F99FFF74A
:1041300099FF237C002B16D1039B002B13D0002F5B
:1041400001D1002E0FD000230127A3600198E76062
:1041500001F0D2F8391C01982943FFF779FF029842
:104160000F99FFF77FFF0023E3746B46207C1B7CD5
:10417000C0B2A37409B0F0BDA87000001C020020FA
:10418000104A830010B598580F4A9C58E37C002BC6
:1041900005D0237C052B02D0237C042B09D1982247
:1041A000831C5205134300221A7001F0B7F8012353
:1041B0006374A37C002B03D0201C1830FFF737FA60
:1041C00010BDC046A87000001C020020F7B5194BB6
:1041D0008700FB5801250093174BFE58002E26D16F
:1041E0000C1C24220190081C311C01F0A6F9201C93
:1041F000311C1830FFF714FA0198FFF777FC00988C
:1042000001F02AF80C4B019AFC500C4B9A5C1F23CE
:1042100013402A1C9A40131C094A13609C22009BDD
:1042200052050233134380226574351C1A70281C12
:10423000FEBDC046A87000001C020020A470000053
:1042400000E100E0F7B59C220027051C0D4E84001C
:10425000A359520501930C4BE358023313431F70CB
:10426000FFF749FC094B01985A5D1F2313400122B7
:104270009A40131C064A1830D367FFF7E8F9A75194
:10428000F7BDC0461C020020A8700000A47000000A
:1042900004E100E00A4B800070B5C558094BC658D0
:1042A0004B68726993420AD00C1CFFF7C9FB0023CC
:1042B000011C6268281C00F0DDFF6368736170BD3B
:1042C000A87000001C020020F0B587B00FAC334F7F
:1042D000334D267884006559E459677C002F02D15C
:1042E0000320207458E0002E01D11E270E9705935D
:1042F0000023A674E360A360237423606374071C27
:1043000004920391FFF7C6FF90231021AA1C5B05BE
:10431000134319708421EB1C49050B4302211970CA
:1043200098235B05134302934023029A281C1370C1
:1043300000F0E2FF039B381C1988012300930E9BB9
:10434000049A0193059BFFF7A3FE0D9B002B15D04C
:10435000237C002B0FD10C9B281CA3600D9BE360DA
:104360000C9B1978FFF774FE002E13D0381C0E99A1
:10437000FFF778FE0EE0237C042B0BD100230126EF
:10438000029A1370EB785B09334202D0281C00F0CC
:10439000C5FF6674207CC0B207B0F0BD1C020020CF
:1043A000A8700000F0B58BB013AC2478364E374DB2
:1043B000039484006559A459667C002E02D1032021
:1043C00020745FE0039E002E01D11E3612960993E1
:1043D000109B00262360119BA66063606B461B7BCD
:1043E000E660A37426746674079108920490FFF740
:1043F00051FF9023AF1C5B053B4305931023059AA7
:10440000281C13708422EB1C5205134302221A70DD
:1044100098235B053B4306934023069A137000F0F4
:104420006BFF079B089A1988129B009601930498CA
:10443000099BFFF72DFE227CD2B2B24212D1059B1E
:1044400011991A708C235B053B43012900D1082286
:104450001A702B79039B002B12D004981299FFF746
:1044600001FE0DE0237C042B0AD1069B1E70012661
:10447000EB785B09334202D0281C00F04FFF6674D2
:10448000207CC0B20BB0F0BD1C020020A870000060
:104490001FB5069C0094079C0194089C029401247B
:1044A0000394FFF711FF04B010BD1FB5069C0094E4
:1044B000079C0194089C029401240394FFF772FF67
:1044C00004B010BD842138B5244B8200D55849056D
:1044D000EB1C0B4302211970214BD45890226B180E
:1044E00052051A431278E978D2B2890634D594215C
:1044F00049051943097800292ED0012A15D1EB78F6
:10450000134202D0052323740CE0E368013BE3600F
:10451000002B07D0A368281C5A1CA2605978FFF70B
:1045200097FD19E0FFF72CFE16E06268013A626021
:10453000002A06D08C214905012A05D10B43082207
:1045400004E0FFF71DFE02E000220B431A7023680F
:104550005A1C22602A791A7038BDC046A870000023
:104560001C020020842303305B05184302230370E0
:1045700070470000902149050A1CF0B58F4B071CBD
:104580008000C55889B0EB1C0493EB78EE78DBB261
:104590000593F3B20693AB1D1A43944612789826FE
:1045A000D2B20792942252051A4314787605621EFD
:1045B0009441E2B2824C33430459A81C0090084352
:1045C00001921A780178D2B2C9B20391019902908E
:1045D00000292FD0079900290CD010236246281CEF
:1045E0001370FFF7BFFF236BF8B20121002B00D03F
:1045F000DCE0E0E0002A1DD04022281C1A70FFF702
:10460000B1FF231C2C331B78002B02D1009A1643D8
:104610003370236B002B03D0F8B28021626B984774
:10462000E37D002B04D0201C80211830FFF711F807
:104630000A23BFE0069B281C9E1101231E40FFF7A2
:1046400091FF0122059B1B11134219D09023049A5C
:104650005B05134310221A70002E04D0EB785B0721
:10466000DB0F10D11AE0082323702C342278002AA3
:1046700000D0A0E0982300995B050B431A709AE0E4
:10468000002E16D0EAE71023029A1370236B002B3A
:104690006ED0F8B20221626B984769E0029A1370FB
:1046A000236B002B03D0F8B20421626B98472B795F
:1046B00081E0039B012B29D1EB78039A134257D059
:1046C000029B1E702B79231C2C331B78002B09D1E5
:1046D000019B002B06D19823009A5B0513436A4681
:1046E00012791A70236B002B03D0F8B20821626B89
:1046F0009847A37D002B04D0201C08211830FEF71A
:10470000A8FF00236360E360237554E02B79A2685F
:10471000DBB2002A2AD02269137023690133236196
:10472000A368013BA360A368002B44D1019B002B2D
:1047300013D1231C2C331B78002B06D19823009A0D
:104740005B0513436A4612791A70E37D002B04D08F
:10475000201C20211830FEF77CFF002363752361A5
:10476000236BF8B22021002B20D124E0072321E085
:104770006368002B1DD0E3681A782B1C80210C3352
:1047800049050B431B78002BF7D02A71E3680133EE
:10479000E3606368013B63606368002B0BD1E360F7
:1047A0002375236B002B06D01021F8B2626B98475B
:1047B00001E00623237009B0F0BDC046A8700000D8
:1047C0001C02002084235B0503431A7800239A42CD
:1047D00009D0802301305B0518430378012B01D0F9
:1047E000024B00E0024B181C7047C04680841E003C
:1047F00000127A0010B50D4A831D13431B78DBB2FB
:10480000002B10D0012B08D1041CFFF7DBFF084B55
:1048100008341C432378D84006E00020022B03D143
:10482000044B186800E0044810BDC04600000811A1
:104830000000901020020020006CDC020B4A831D57
:1048400013431B78DBB2012B06D0181E0CD00320BB
:10485000022B09D0052007E0802301305B051843B7
:1048600000784342584101307047C04600000811AB
:10487000021C031C9C201833400503438020187041
:104880000020064B134318700548931D03431B7803
:10489000D8B20028F8D1034B0B6070470000081312
:1048A00000000811006CDC02F8B5041C0D1C171C7C
:1048B0001E1CFFF7C3FF012802D1002D04D007E022
:1048C000022805D1012D03D1201C311CFFF7D0FF98
:1048D0008022631C520513431D70842302225B0552
:1048E00023431A70231C0C4A083313437A00D2B2B4
:1048F0001A704022094B23431A70094AA31D13431F
:104900001B78012BF9D1002D01D1064A00E0064A9F
:104910003A4100203260F8BD0000901000000813FA
:104920000000081180841E0000127A000A4B10B5A6
:104930001C681A1C0123002C0CD08024074B034355
:104940001C70074C831D23431B78022BF9D113687D
:104950000B600023181C10BD20020020000008136B
:10496000000008119C23C9015B051843C9B20170FE
:104970007047942349015B051843C9B20170704721
:1049800070B506680C1C301C2049FBF7FDFD1F4963
:10499000051C301CFBF77EFE0E1C081CE1210901E2
:1049A000FBF7F2FDE121E0800901301CFBF772FE0C
:1049B0000E1C081C3C21FBF7E7FD3C212081301C2C
:1049C000FBF768FE6E22124BA1722380FF32238810
:1049D00095420BD9AD1A032201339BB22380B72134
:1049E00013405A1E93414900CA1AF0E709499B0730
:1049F00000D109490123CA5C954201D8638003E0D4
:104A00000133AD1A0D2BF6D1A58070BD8051010088
:104A1000B2070000D3700000C670000030B5114A24
:104A20000188031C8A180020812A19D85A88541E2C
:104A30000B2C15D89C88651E1E2D11D8DD88172DCE
:104A40000ED81D893B2D0BD89B7A3B2B08D88B07A2
:104A500001D0054B00E0054B9B5CA3424041C0B236
:104A600030BDC0464EF8FFFFD3700000C670000096
:104A700070B5124A838804889A186E23FF33634303
:104A80004588D318A2089B180D4A6E00B25A9B188D
:104A9000A20702D1022D00D8013B0B60E1233C228A
:104AA000C4881B015C4303895343827AE3189A1834
:104AB0000868044B4343D3180B6070BD4A05F5FFEB
:104AC000AC70000080510100084B1A6880231B0263
:104AD0009A4209D1A02310305B0518430368002BCC
:104AE00002D10133FF3303607047C046200200202B
:104AF000021C802110B500230124490510320A430D
:104B00001460136090224360520504601C3002431D
:104B10001360882252050243136084225205024327
:104B200008431360036010BD031C90221433520528
:104B3000134300221A604260103201601A6070470D
:104B400003680B6070470000114B820070B5D558A8
:104B50008022104B92051A60041C281CFFF7C8FF26
:104B6000281CFFF7B1FF01201F22011C0A4B0B4E2E
:104B70001B5D345D134099402240C0250B1C9040C2
:104B800007496D004B5148510B60086070BDC0462D
:104B9000E47000003C80845EE1700000E070000082
:104BA00000E100E0F7B50027114B8000C658081C53
:104BB0000D1C0197FFF732FF041EBC4216D001A95D
:104BC000281CFFF755FF381CFEF77AFF011C8020D8
:104BD0000002814206D0FBF7D7FC011C0198FBF7CD
:104BE000D3FC0190301C0199FFF79EFF201CFEBDF5
:104BF000E4700000F7B50025124B8000C4580E1C6D
:104C0000201C01A90195FFF79BFF281CFEF758FF08
:104C1000051C8020000285420ED00B4B291C043459
:104C20001C43FBF7B1FC2768019C291C4443B8B224
:104C3000FBF7AAFC20180190311C01A8FFF7A0FE89
:104C4000F7BDC046E470000000007810F0B5002603
:104C5000184B800085B0C458081C0F1C01920396A5
:104C6000FFF7DCFE051EB54201D100251EE0381C11
:104C700003A9FFF7FDFE301C2768FEF721FF011C8A
:104C800080200002814206D0FBF77EFC011C0398C5
:104C9000FBF77AFC0390039BBB42E6D3A360882317
:104CA0001C345B051C43019B9B002360281C05B042
:104CB000F0BDC046E47000008822044B8000C35859
:104CC00052051C331343890019607047E4700000DB
:104CD0008822054B8000C3585205143313431868CB
:104CE000431E9841C0B27047E47000006B46E0225A
:104CF0001B78D2021B04134009071943014BC0184B
:104D0000016070474410000008B5084B8200D3587A
:104D100090220333520513431B78002B02D000F07E
:104D200015F901E000F07AF908BDC046EC7000000A
:104D300008B50C4B8000C2580B4B0021C3589C2077
:104D4000033340051843117101709420400503435B
:104D50001970137F8B4203D02032101CFEF767FCC2
:104D600008BDC04628020020EC700000F7B5061C04
:104D70001C4B30220C1C8700081C0021FD5800F041
:104D8000DCFB301CFEF7A8FEFEF75AFE2060281C54
:104D900000F0E1FA201C00212030FEF741FCEB1C62
:104DA00001939023019A5B0513431022281C1A706B
:104DB000032100F010FB281C002100F032FB0A4BFD
:104DC000FC500A4B9A5D1F23134001229A40131C8A
:104DD000074A13609823019A5B05134340221A7017
:104DE000F7BDC046EC70000028020020E87000000B
:104DF00000E100E0F8B50D4E84000D4BA759051CED
:104E0000E05800F0A8FA381C2030FEF720FC094BCF
:104E1000281C5A5D1F23134001229A40131C064A86
:104E2000D367FEF75EFE0023A351F8BD28020020E1
:104E3000EC700000E870000004E100E00A4B800024
:104E400070B5C658094B0C1CC358151C301C1A6889
:104E5000096800F087FA28602179301C6279A3790B
:104E600000F0CCFA70BDC046EC70000028020020B3
:104E7000F7B51E4A83009C581D4A9E582279042388
:104E8000002A31D1071C002902D001AAFFF7D6FF62
:104E9000982300214020F21C5B0513431970187001
:104EA00025698D4203D1381CFFF742FF1BE0012327
:104EB000237194235B053343A161197807230029EB
:104EC00012D0A368191E02D019780133A360B17102
:104ED0002369013B2361A3690133A3619C235B0523
:104EE0001A43802313700023181CFEBD28020020E3
:104EF000EC700000F8B5134F134C85002C59ED5998
:104F00000127069E2777A2602661E3606661FFF7AE
:104F1000AFFF061E14D1201C07992030FEF7CAFBF4
:104F20000328F8D000280BD09C210022EB1C490557
:104F3000194322710A709421032649050B431A7004
:104F4000301CF8BDEC7000002802002010B51E4B8C
:104F50008200D3581D4951581A79002A32D05A6913
:104F6000002A11D09C2252050A431278002A0BD045
:104F70008A79DC68D2B2002C03D02270DA68013260
:104F8000DA605A69013A5A611A69002A12D09422E9
:104F900052050A431278002A0CD09A68141E02D0D7
:104FA000147801329A608C711A69013A1A619A690F
:104FB00001329A611A69002A04D15B69002B01D180
:104FC000FFF7B6FE10BDC04628020020EC700000BE
:104FD000104A80008158002208B50F4B0331C35896
:104FE000581CC2779C2040050843DA621A701A8365
:104FF0005A629A621A6302709420400501430A7053
:105000001A1C38321278002A03D0181D0121FEF72D
:1050100020FB08BDEC7000002802002038B5254BAD
:105020008200D35824495258591CC97F00293FD0C7
:10503000D96A002916DB9421490511430978002912
:1050400010D0596A1C7F002905D0DD6A002D02DDD1
:105050000C78013159629471D96A0139D962596B5E
:1050600001315963D96A002905DA9424D11C6405F9
:10507000214300240C70196B002911DD9C21490586
:105080001143097800290BD09279996AD2B200298C
:1050900003D00A709A6A01329A621A6B013A1A6353
:1050A000DA6A002A04DC1B6B002B01DCFFF790FF9F
:1050B00038BDC04628020020EC700000012903D052
:1050C000032909D1842300E094235B051843007869
:1050D000431E9841C0B200E000207047034B0130EE
:1050E00049011843C9B201707047C04600008812D8
:1050F000942302305B0549011843C9B2017070471F
:10510000034B023089011843C9B201707047C04691
:10511000000008138C2302305B05C9001843C9B294
:1051200001707047F7B5384EC21C164337780B78BC
:10513000FFB20122072B65D8041C181C0D1CFBF7BD
:1051400019FA04192A0D192A2A3A00232F48013482
:10515000044323703378012BFCD152E00322012F4A
:1051600050D1402329480134044323703378042B61
:10517000FCD146E00021012B01D00423022130782C
:10518000032298423ED1201CFFF7A8FF0421204AA9
:1051900013698B4333E00227BB4207D100270B7909
:1051A000BB4203D04979201CFFF7AAFF19480134FC
:1051B0000443277019E004231649621C0A43137044
:1051C0006A78A31C0B431A706B78002B06D1AB785E
:1051D000002B03D0E978201CFFF78AFFAB79002B66
:1051E00003D0E979201CFFF795FF04213378084AA2
:1051F000DBB20193019B0133019313690B431361EC
:1052000030BF0022101CFEBD0000301000008812CC
:1052100000ED00E000001010024B0330184300784E
:10522000C0B270470000301014308023012A04D12E
:105230008A401B051843026005E0DB041843012384
:105240008B40D9430160704701238B40002A01D075
:10525000436000E0836070470023C2220370437004
:105260008370C37043718371C3710372427283721E
:10527000C3727047F0B5002789B00393FA23012564
:105280003C1C9B0053430690079102936D4201978B
:105290000123A3400493174B9E1CCA330593049B20
:1052A000318807985943FBF76FF9029B029AC31A9A
:1052B000824200D9131AAB4204D2B21E177801946D
:1052C0001D1E03D0059B04369E42E8D10134032CF9
:1052D00001D0002DDCD1039B002B00D01D603F23AB
:1052E0001F40019B9B011F43069BFFB25F7009B0EB
:1052F000F0BDC04606710000942302305B050343F5
:105300001B78002B04D088235B051843042303E09B
:1053100080231B0518433023037070479422831C9D
:1053200052051A431278011C0220012A12D1802250
:10533000D2041343CF221A708022D2002023C878CF
:10534000034004D0013A002A03D0C046F6E7181CF7
:1053500000E0092070470423C3700023837043706A
:1053600003717047F0B5130B89B00125049308232E
:1053700000266D4203935B190790059106920293F4
:1053800002270024731C191C069879430193FBF72C
:10539000FBF8059B834206D31B1A9D4203D91D1CB3
:1053A00004900394029601347F00092C02D0002D52
:1053B000E8D104E0072E02D0019E002DE0D170223A
:1053C000029B04981B011340039A1343079ADBB214
:1053D000537009B0F0BD8422C31C52051A43012347
:1053E0000B405B00DBB2137090238907C90F5B058C
:1053F000023009011843C9B20170704710B58C24FE
:1054000003306405C9000443C9B2217088219200A9
:1054100049050143D2B20A7080225205104303703D
:1054200010BD8023012202305B0503430A401A703D
:105430008C238907C90F5B05C9001843C9B20170E5
:105440007047011C002008B5021C031C00F03EF947
:1054500008BD0000014B18687047C046A4FFFF1F3D
:10546000084B10B5041C002B02D0002100F08AF973
:10547000054B1868836A002B00D09847201C00F069
:10548000F5F9C04685570000D071000038B5074BCC
:10549000074C1D1CE41AA410002C04D0013CA300EE
:1054A000EB589847F8E701F09BFE38BDF871000013
:1054B000FC7100000E4B70B500251E1C0D4CE41A4B
:1054C000A410A54204D0AB00F35898470135F8E783
:1054D00001F080FE084B00251E1C084CE41AA410A5
:1054E000A54204D0AB00F35898470135F8E770BDEA
:1054F000F4710000F4710000F4710000F871000014
:1055000008B5034B011C186800F066F808BDC046DA
:10551000A4FFFF1F08B5034B011C186800F016F824
:1055200008BDC046A4FFFF1F002310B5934203D05F
:10553000CC5CC4540133F9E710BD031C82189342BC
:1055400002D019700133FAE77047000030B5002926
:105550003ED004390B68002B00DAC9181D4A1368C5
:10556000141C002B02D14B60116031E099420DD226
:1055700008680A189A4203D11368C3180B6053686D
:105580004B60216024E08A4203D8131C5A68002A29
:10559000F9D11D685C198C420BD10968691858183B
:1055A0001960904214D110685268091819605A6045
:1055B0000EE08C4202D90C23036009E008680C1845
:1055C000944203D114685268001908604A60596017
:1055D00030BDC04630020020032370B5CC1C9C4374
:1055E0000834051C0C2C01D20C2405E0002C03DA35
:1055F0000C2300202B6042E08C42F9D3204A136830
:10560000101C191C002913D00A68121B0DD40B2A78
:1056100002D90A608B181FE08B4202D15A680260DF
:105620001BE04A685A600B1C17E00B1C4968E9E74D
:10563000144E3368002B03D1281C00F025F830608D
:10564000281C211C00F020F8031C421CD0D003228F
:10565000C61C964386420AD11C60181C07210B30D9
:105660001A1D8843821A0AD05142995007E0311A14
:10567000281C00F009F8431CBAD0331CECE770BDBD
:10568000300200202C02002038B50023064C051CF7
:10569000081C2360FBF7FAF8431C03D12368002B96
:1056A00000D02B6038BDC046C4020020031C0A781D
:1056B00001311A700133002AF9D170470023C25C0E
:1056C0000133002AFBD1581E70470000F7B52A4D60
:1056D000061C2C680091171C0193002C01D1274C4B
:1056E0002C6063681F2B15DD254B002B02D1012098
:1056F000404240E08C20FFF703FF041EF7D02A68E9
:1057000000230260021C88324360286013609E42BE
:105710000AD128E0002E26D0231C883318680028E0
:1057200010D1174B002BE2D084204000FFF7E8FE99
:105730000028DCD0031C0022FC335A609A60231C32
:1057400088331860012261688A408B00C31880C3C7
:10575000FC304168114341600199D967022E02D1A2
:1057600083681A438260002063685A1C62600233B7
:10577000009A9B001A51FEBDC00200203402002096
:1057800001550000F0B587B005900391344D2C68A9
:10579000002C63D0231C88331E6863685A1E019254
:1057A000304A9B189B00F7180433E3180293019BBF
:1057B000002B3DDB039B002B07D0002E31D03B1C80
:1057C00080331B68039A93422BD16268029B019934
:1057D000013A5B68914201D1616002E000220299C6
:1057E0004A60002B1DD062680492002E07D001226F
:1057F00001998A40311CFC314868104201D1984718
:1058000008E08968114203D105983968984701E09A
:1058100038689847049B62689342B7D12B68A342CB
:10582000B4D1019B043F013B0193029B043BBDE7C4
:105830000D4B002B12D062682368002A0BD1002B7D
:1058400009D02B60002E02D0301CFFF763FE201C15
:10585000FFF760FE9BE7251C1C1C99E707B0F0BD15
:10586000C0020020FFFFFF3F15550000FEE7C046C5
:1058700003000000320000000300000003000000ED
:105880001B5B306D1B5B343B34336D1B5B313B3337
:10589000376D0D53616E69747920636865636B20A1
:1058A0006661696C6564211B5B306D0A001B5B30AF
:1058B0006D1B5B343B34316D1B5B313B33376D0DFE
:1058C000496E76616C696420737570706C792076AE
:1058D0006F6C74616765205B25645D206D56211BCC
:1058E0005B306D0A004D6561737572656D656E7430
:1058F000206E756D6265722C205254432D3E5453B8
:10590000522C205254432D3E5450522C00204D4DC9
:10591000413834353120782C204D4D4138343531E3
:1059200020792C204D4D4138343531207A2C0020FF
:105930005254432D3E5453522C205254432D3E5426
:1059400050522C202320436F6E6669672045727287
:105950006F72730025752C2025642C2025642C0083
:105960002025642C2025642C2025640A000D093094
:105970007825303278202D2D3E205B30782530324E
:105980007820307825303278203078253032785DB4
:105990000A000D09307825303278202D2D3E203038
:1059A00078253032780A000D093078253032782099
:1059B0002D2D3E202D2D2D2D0A000D0A0925642F99
:1059C0002564207375636365737320726174652E3B
:1059D0000A000D0925642F256420737563636573C0
:1059E000736573206D617463686564207265662EEB
:1059F0002076616C7565206F6620307825303278AE
:105A00002E0A000D0925642062616420636F6D6DAC
:105A1000616E64732E0A0A000D0A094144584C3322
:105A2000363220526561642041626F727465642E63
:105A3000204465766963652044697361626C6564BE
:105A4000203A28000D0A4D4D4138343531513A0A7B
:105A50000D000D0A494E413231393A0A0D000D0A46
:105A60000A424D4536383020526561642041626FEC
:105A7000727465642E204465766963652044697399
:105A800061626C6564203A28000D0A09424D583065
:105A90003535616363656C20526561642041626FD6
:105AA000727465642E204465766963652044697369
:105AB00061626C6564203A2820000D0A09424D5845
:105AC0003035356779726F20526561642041626FAD
:105AD000727465642E204465766963652044697339
:105AE00061626C6564203A2820000D0A0920424D4D
:105AF000583035356D616720526561642041626FB1
:105B0000727465642E204465766963652044697308
:105B100061626C6564203A2820000D0A094D4147F6
:105B20003331313020526561642041626F72746597
:105B3000642E204465766963652044697361626CF4
:105B40006564203A2820000D0A094C33474432305E
:105B50004820526561642041626F727465642E2032
:105B60004465766963652044697361626C6564208D
:105B70003A2820000D0A094C50533235482052650E
:105B800061642041626F727465642E204465766999
:105B900063652044697361626C6564203A28200063
:105BA0000D0A09544353333437323520526561644A
:105BB0002041626F727465642E2044657669636566
:105BC0002044697361626C6564203A2820000D0AE4
:105BD0000953493437303520526561642041626F82
:105BE000727465642E204465766963652044697328
:105BF00061626C6564203A2820000D0A094844431C
:105C00003130303020526561642041626F727465BA
:105C1000642E204465766963652044697361626C13
:105C20006564203A2820000D0A0953493730323183
:105C300020526561642041626F727465642E204455
:105C400065766963652044697361626C6564203AB6
:105C50002820000D0A094343533831312052656131
:105C6000642041626F727465642E204465766963B6
:105C7000652044697361626C6564203A2820000DD8
:105C80000A09414D47383833342052656164204158
:105C9000626F727465642E20446576696365204482
:105CA000697361626C6564203A2820000D0A09411D
:105CB000533732363220526561642041626F72740C
:105CC00065642E204465766963652044697361626A
:105CD0006C6564203A2820000D0A0941533732369A
:105CE0003320526561642041626F727465642E20B6
:105CF0004465766963652044697361626C656420FC
:105D00003A2820000D09496E76616C69642077613C
:105D1000727053656E736F72446576696365205B5C
:105D200025645D2070617373656420746F207265F3
:105D300070656174526567697374657252656164F8
:105D4000466F72446576696365416E64416464724E
:105D50006573732E0A000D09506F77657275702098
:105D6000636F6D6D616E64206661696C65642E2081
:105D7000424D583035352064697361626C6564202A
:105D80000A000D09506F776572646F776E20636F3C
:105D90006D6D616E64206162616E646F6E65642E0C
:105DA00020424D583035352064697361626C6564FA
:105DB0000A000D09506F776572646F776E20636F0C
:105DC0006D6D616E64206162616E646F6E65642EDC
:105DD000204C3347443230482064697361626C65FB
:105DE000640A000D09506F776572646F776E2063E7
:105DF0006F6D6D616E64206162616E646F6E65646B
:105E00002E20544353333437323520646973616232
:105E10006C65640A000A0A0A0D426F6F74696E6746
