:1000000000060020310500005905000059050000D8
:1000100000000000000000000000000000000000E0
:100020000000000000000000000000005905000072
:100030000000000000000000590500005905000004
:100040005905000059050000590500005905000038
:100050005905000059050000590500005905000028
:1000600085410000590500008F410000590500003E
:100070005905000059050000590500005905000008
:1000800059050000590500005905000059050000F8
:10009000BD110000D51100005905000059050000F0
:1000A00059050000590500005905000059050000D8
:1000B00059050000590500005905000059050000C8
:10040000FFFFFFFFFFFFFFFFFFFFFFFFFE3DFFFFBF
:1004100008B5054B054803331B1A062B03D9044BBB
:10042000002B00D0984708BDB4FFFF1FB4FFFF1F8B
:10043000000000000648074908B5091A8910CB0FCB
:100440005918491003D0044B002B00D0984708BD21
:10045000B4FFFF1FB4FFFF1F0000000010B5074CE2
:100460002378002B09D1FFF7D3FF054B002B02D0D7
:10047000044800E000BF0123237010BDB4FFFF1F3C
:1004800000000000E87E000008B5094B002B03D0F7
:100490000848094900E000BF08480368002B02D162
:1004A000FFF7C8FF08BD064B002BF9D09847F7E7C8
:1004B00000000000E87E0000B8FFFF1FB0FFFF1F34
:1004C00000000000144B002B00D1124B9D4640222F
:1004D00092029A1A924600218B460F461148124A00
:1004E000121A05F066FE0D4B002B00D098470C4BFE
:1004F000002B00D098470020002104000D000B487D
:1005000005F0DBFD05F012FE2000290001F028FBBC
:1005100005F0E2FD000008000006002000000000D9
:1005200000000000B4FFFF1FD002002005610000A2
:1005300072B606480649074A02600A6003F02CFEBC
:1005400003F06CFE62B6FFF7BDFF000080E100E043
:1005500080E200E0FFFFFFFF004800475905000070
:1005600002B4714649084900095649008E4402BC4C
:100570007047C04602B4714649084900095C490009
:100580008E4402BC7047C046002243088B4274D39D
:1005900003098B425FD3030A8B4244D3030B8B4284
:1005A00028D3030C8B420DD3FF22090212BA030C8D
:1005B0008B4202D31212090265D0030B8B4219D36E
:1005C00000E0090AC30B8B4201D3CB03C01A52418E
:1005D000830B8B4201D38B03C01A5241430B8B42D6
:1005E00001D34B03C01A5241030B8B4201D30B03BF
:1005F000C01A5241C30A8B4201D3CB02C01A5241E6
:10060000830A8B4201D38B02C01A5241430A8B42A8
:1006100001D34B02C01A5241030A8B4201D30B0291
:10062000C01A5241CDD2C3098B4201D3CB01C01AAB
:10063000524183098B4201D38B01C01A52414309B5
:100640008B4201D34B01C01A524103098B4201D3A3
:100650000B01C01A5241C3088B4201D3CB00C01A10
:10066000524183088B4201D38B00C01A5241430888
:100670008B4201D34B00C01A5241411A00D20146AD
:10068000524110467047FFE701B5002000F0FCF82A
:1006900002BDC0460029F7D003B5FFF775FF0EBCB9
:1006A0004243891A1847C04603460B437FD40022B1
:1006B00043088B4274D303098B425FD3030A8B42F6
:1006C00044D3030B8B4228D3030C8B420DD3FF2260
:1006D000090212BA030C8B4202D31212090265D02E
:1006E000030B8B4219D300E0090AC30B8B4201D3E1
:1006F000CB03C01A5241830B8B4201D38B03C01A28
:100700005241430B8B4201D34B03C01A5241030B9E
:100710008B4201D30B03C01A5241C30A8B4201D34F
:10072000CB02C01A5241830A8B4201D38B02C01AFA
:100730005241430A8B4201D34B02C01A5241030A71
:100740008B4201D30B02C01A5241CDD2C3098B4256
:1007500001D3CB01C01A524183098B4201D38B01D3
:10076000C01A524143098B4201D34B01C01A524176
:1007700003098B4201D30B01C01A5241C3088B42BB
:1007800001D3CB00C01A524183088B4201D38B00A6
:10079000C01A524143088B4201D34B00C01A524148
:1007A000411A00D201465241104670475DE0CA0F1F
:1007B00000D04942031000D34042534000229C46DF
:1007C00003098B422DD3030A8B4212D3FC228901E9
:1007D00012BA030A8B420CD3890192118B4208D3BF
:1007E000890192118B4204D389013AD0921100E021
:1007F0008909C3098B4201D3CB01C01A5241830935
:100800008B4201D38B01C01A524143098B4201D361
:100810004B01C01A524103098B4201D30B01C01A8C
:100820005241C3088B4201D3CB00C01A5241830806
:100830008B4201D38B00C01A5241D9D243088B425C
:1008400001D34B00C01A5241411A00D201466346FF
:1008500052415B10104601D34042002B00D5494263
:10086000704763465B1000D3404201B5002000F0A2
:100870000BF802BD0029F8D003B5FFF715FF0EBC39
:100880004243891A1847C0467047C046F8B54A0027
:10089000430244004E02C50F240E281C9B09120E71
:1008A000C90FB7098D4240D0A01A002800DC84E0AF
:1008B000002A1CD1002F5CD15A0704D00F221A4005
:1008C000042A00D004338022D2041A40281C002AB3
:1008D00024D00134FF2C00D17BE09B015B0AE4B201
:1008E0005B02E4055B0A2343C0071843F8BDFF2CF5
:1008F000E2D08022D204174301261B2808DC391CD1
:1009000020223E1CC140101A8640771EBE410E4375
:100910009B1B5A0133D4281C5A07CFD1DB08FF2C6C
:100920001ED05B025B0AE4B2DAE7A11A002957DDA8
:10093000002A3AD0FF2CBFD08022D20417430126D0
:100940001B2972DD9B195A01E5D50134FF2C00D11A
:1009500087E001218A4A194013405B080B43ABE74B
:10096000002B36D08022D20313435B025B0AFF24A4
:10097000B6E7013800283FD1DB1B5A01CBD59B01DC
:100980009E09301C00F0D0FB05388640844223DCF1
:10099000001B1F24321C431C201ADA408640131C03
:1009A000741EA6410024334386E7002F00D183E75D
:1009B0000139002950D1DB19C5E7002820D1621C7C
:1009C000D2B2012A5EDDDE1B720128D5FE1A0D1C93
:1009D000D7E7FF24002383E7694B241A33406BE7F2
:1009E000002958D1621CD1B201293CDDFF2A37D041
:1009F000FB185B08141C5FE7FF2C00D07CE75BE76B
:100A0000002C1ED0FF2A23D08024E404404223433C
:100A10001B285BDD0123FB1A141C0D1CADE7002E07
:100A2000AFD100230020002478E73A1CCA40944646
:100A300020223E1C511A8E406246771EBE4116434C
:100A400080E7002B3ED0C0430028E4D0FF2ADFD14E
:100A50003B1CFF240D1C2FE7FF2C00D06FE72BE77A
:100A6000FF2400235AE7002C5AD1002B7FD0002FFF
:100A700000D121E7DB195A0100D44CE7404A013488
:100A8000134019E7002C15D1002B2FD1002F5DD07A
:100A90003B1C0D1C10E7002C21D1002B53D0C94367
:100AA000002904D0FF2A4BD01B2957DD0123DB1975
:100AB000141C48E7002B22D1002F4AD03B1C0D1CF0
:100AC000FF24F9E63B1C141C0D1CF5E61D1C20241C
:100AD000C540201A8340581E83412B439BE7FF2AC1
:100AE0002ED08024E40449422343DDE7002F00D1C7
:100AF000E2E6DA1B50013CD5FB1A0D1CDCE6FF24B4
:100B0000002F00D1D8E68022DB08D203134204D0A4
:100B1000FE08164201D1331C0D1CDB00FF24CBE67E
:100B2000002B0DD0FF24002F00D1C5E68022DB086A
:100B3000D2031342F1D0FE081642EED1331CECE78B
:100B40003B1CFF24B8E63B1C141CB5E6231C00200C
:100B5000E4E6802300209B04FF24DFE61E1C202403
:100B6000CE40611A8B40591E8B4133439FE73B1C9B
:100B7000A2E6131E00D0CEE600230020CEE6C0463B
:100B8000FFFFFFFBF0B556464D465F464446F0B4C6
:100B900043024500C70F83B08A465C0A2E0EB94651
:100BA00041D0FF2E26D080231B042343DC000023EA
:100BB00098469B467F3E53465B025D0A53465A0069
:100BC000DB0F120E9A4639D0FF2A33D080231B0444
:100BD0002B43DD0000237F3A5146B21A4646794046
:100BE000081C01921E430F2E00D976E07E4AB60003
:100BF0009659B746002C30D108239846063B9B46B1
:100C0000D9E780230021DB03FF245B02E4055B0AB4
:100C1000C90723430B43181C03B03CBC90469946BC
:100C2000A246AB46F0BD002C28D104239846033BD6
:100C30009B46C0E7002D1FD1022302E0002D11D1F9
:100C40000123B21A50464646784001921E430F2EA9
:100C500027D86649B60089598F460C239846093B28
:100C60009B46A8E7281C00F05FFA7622431F5242F9
:100C70009D40121A0023AFE70323ADE7201C00F0CC
:100C800053FA431F9C4076235B421E1A002398466A
:100C90009B4690E70025D1469B465B464846022B83
:100CA0006FD10121FF2401400023AEE77E23019A8A
:100CB0005B429B1A1B2B6DDD01214B461940002422
:100CC0000023A2E78023DB031C4249D18023DB03FE
:100CD00023435B025B0A391C96E763016D01AB425B
:100CE00037D389461A2001215B1B01241E1C4900B1
:100CF0005B00002E01DBAB4201D35B1B21430138BB
:100D00000028F3D1581E83410B431D1C019C7F34E6
:100D1000002CCBDD6B0704D00F232B40042B00D01D
:100D200004352B0104D5019A314B8032141C1D402F
:100D3000FE2C07DD4B460121FF241940002364E708
:100D4000251CAAE701214A46AB015B0AE4B2114027
:100D50005BE7019A8946013A01921B200021C4E712
:100D60001D4207D023435B025B0A391C4CE7002578
:100D70006302ABD58023DB032B435B025B0A514646
:100D800042E7032B25D0012BC0D1012100240140D3
:100D900000233AE7291CD9402B1C019A9E3293402C
:100DA0005D1EAB410B435A0704D00F221A40042AA0
:100DB00000D004335A0105D54B46012101241940C6
:100DC000002322E701214A469B015B0A11400024CF
:100DD0001BE7802301214A46DB032B435B020A40C9
:100DE0005B0A111C10E7C046F8640000386500007B
:100DF000FFFFFFF7F0B55F4656464D464446F0B458
:100E000045024600C40F83B00F1C6D0A360EA34680
:100E100045D0FF2E25D080231B041D4300239A4676
:100E2000ED007F3E01937B025B0A98467800FB0F42
:100E3000000E994640D0FF2838D0802342461B043C
:100E40001343DB00984600237F384A46019F301841
:100E50006240411C1F430F2F69D87D4EBF00F659D9
:100E6000B746002D45D108230193063B9A46DAE7A1
:100E700093465346022B2FD15B46012400251C408C
:100E8000FF236D02DB056D0AE4071D432543281C83
:100E900003B03CBC90469946A246AB46F0BD002D3F
:100EA0002CD104230193033B9A46BCE743465A42A4
:100EB00053410322D31AC8E742460123002AC4D073
:100EC000404600F031F94246431F9A4076235B4288
:100ED000181A90460023B8E7032B00D1ADE0012B90
:100EE00000D08CE05B4654461C40E4B20023002551
:100EF000C7E70C230193093B9A4694E7281C00F0AE
:100F000013F97626431F9D4000237642361A01933B
:100F10009A4688E780250024ED03FF23B1E7454684
:100F2000CB469A46A5E7454693469A46A1E74346EF
:100F30002C041B0C9C46230C444626041C1C360C1B
:100F40002F0C7443351C66467D4373437743EB187F
:100F5000260C9E19B54203D980235B029C46674448
:100F600024043304240C1B199D016C1EA5419B0E07
:100F7000360C2B43BD19AD011D432B0104D50123B4
:100F800068081D400543081C031C7F33002B2CDD23
:100F9000690704D00F212940042900D00435290114
:100FA00003D52C4B1D40031C8033FE2B17DD012481
:100FB000FF231440002564E78020C003054209D0C8
:100FC0004346034206D1454605436D026D0A4C4631
:100FD000FF2356E705436D026D0AFF2351E7012405
:100FE000AD016D0ADBB214404BE77E235B421B1A56
:100FF0001B2B07DD012400231440002541E7081CBA
:101000005A46C1E79E30291C8540D940681E85415B
:101010000D436B0704D00F232B40042B00D0043565
:101020006B0104D5012401231440002529E7012484
:10103000AD016D0A1440002323E78023DB031D4329
:1010400001245B466D0223401C1C6D0AFF2318E738
:1010500078650000FFFFFFF74202510A4200C30F0C
:10106000120E00207E2A0DDD9D2A0CDC802000045B
:101070000143952A0ADC9620821AD1400A1C584264
:101080004240D0187047034A9818FBE7963A9140BF
:101090000A1CF4E7FFFFFF7F70B5041E39D0C50FAF
:1010A00000D04442201C00F03FF89E23261C1B1A4F
:1010B000962B07DC082801DD083884406402640AA6
:1010C000D8B21EE0992B0ADD0522211C121AD1404C
:1010D0000A1C011C1B318E40711E8E4116430528CF
:1010E00001DD421F96400F4C3440720704D00F229E
:1010F0001640042E00D0043462010ED4A401640A08
:10110000D8B26402C005640AED0704432C43201CD6
:1011100070BD002500200024F3E7024B1C409F23F4
:101120001B1AEBE7FFFFFFFB1C2101231B04984266
:1011300001D3000C10391B0A984201D3000A083968
:101140001B09984201D30009043902A2105C40181F
:101150007047C046040302020101010100000000C3
:101160000000000008B50A4B1A68002A01D1094A9C
:101170001A601A6808491018884206D904F0A6FFB8
:101180000C2303600120404201E01860101C08BDE0
:10119000D0FFFF1FD0020020D00200200223807861
:1011A0008342804140427047437A0020013B012B3B
:1011B00003D901200B7801330B70704708B500206C
:1011C00004F0C2FB002803D00020011C04F0B0FB97
:1011D00008BD0000024A1368013313607047C0461F
:1011E0002000002037B5002003F0B2FAC02300250C
:1011F0000D4A9B0013600D4A0D4C13600D4A281CCC
:1012000013600D4B25716571A5711A68FA239B0057
:1012100053430A49236004F0E5FB281C211C01AA62
:1012200004F048FC37BDC046189014541C90145468
:101230001800002000A0145414FEFF1F24000020FA
:1012400010B58024002004F011FC0A4B64001C60DF
:10125000094B07201C60094B1C6003F013FD06209E
:1012600003F010FD201C03F00DFD002003F075FAC3
:1012700010BDC046189014541C90145400A014546F
:1012800008B5002003F06EFA8023054A9B00136026
:10129000044A00201360044903F0D4FD08BDC04691
:1012A0000CA0145410A01454D4FFFF1F08B5002044
:1012B00003F004FE80238220074A5B001360074A84
:1012C0004000136003F0DEFC0420FF3003F0DAFC82
:1012D000002003F04CFA08BD0CA0145410A01454C4
:1012E00008B50023354A36491360364A1360364A3A
:1012F0000133FF331360354A1360354A1360354AB2
:101300001360354A1360354A1360354A1360012271
:1013100008780240081C3349002A01D00B6000E025
:101320000A60314A3149136000220A6030490A607C
:10133000304A1360304A1360304A1360304A1360F9
:10134000304A1360304A13600378DB0703D502206C
:10135000FF3003F089FC092003F094FC0C2003F01B
:1013600091FC052003F08EFC082003F08BFC062086
:10137000FF3003F087FC0E20FF3003F083FC832056
:10138000400003F07FFC0820FF3003F07BFC0C20C2
:10139000FF3003F069FC8220400003F073FC04205E
:1013A000FF3003F06FFC072003F06CFC062003F015
:1013B00069FC8020400003F065FC08BD0C901454CB
:1013C0000CFEFF1F109014541490145418901454D1
:1013D0001C9014542090145424901454309014549D
:1013E00000A0145404A0145408A014540CA01454C5
:1013F00010A0145414A0145418A014541CA0145475
:1014000028A014542CA0145434A0145408B5092056
:1014100003F038FC08BD08B50C2003F033FC08BD10
:1014200008B5384B984259D013D8374B984243D01F
:1014300007D8364B984230D06433984238D0C83BF6
:1014400012E0334B98423ED06433984242D0314B45
:1014500015E0314B98422FD00CD8304B98421CD01D
:101460006433984224D02E4B984242D1052003F099
:1014700009FC15E02B4B984225D006D82A4B984200
:1014800037D1052003F0FEFB20E0C8231B01984262
:1014900020D0264B984221D02BE0052003F0E4FB1E
:1014A000082003F0EFFB0620FF3003F0EBFB24E005
:1014B000052003F0E7FB02E0052003F0D5FB082040
:1014C00003F0D2FBEFE7052003F0CEFB082003F08A
:1014D000D9FB09E0052003F0D5FB02E0052003F06D
:1014E000C3FB082003F0C0FB0620FF3003F0BCFB69
:1014F00003E000200E4902F039FE0E4B186802F09E
:1015000051FF08BDC4090000340800006C0700004A
:10151000FC08000098080000540B00008C0A000032
:10152000280A00001C0C0000B80B0000E40C0000AE
:10153000B865000008FEFF1F08B5FFF771FF09201E
:1015400003F092FB0C2003F09DFB8320400003F08E
:1015500099FB08BD08B5FFF763FF092003F092FB74
:101560000C2003F081FB8320400003F07DFB08BDCD
:10157000AF2108B50B4B021CC3189BB289008B42EC
:1015800002D8FFF7D9FF0BE0074BC3189BB28B4281
:1015900002D8FFF7DFFF03E00020044902F0E6FD78
:1015A00008BDC046F8F8FFFFD8F5FFFFE56500006D
:1015B00008B5FFF72BFFFFF72EFF8320400003F055
:1015C00053FB024B186802F0EDFE08BD08FEFF1F3A
:1015D00010B5041C002901D0FFF782FE0021022073
:1015E00001F0CAFA211C042001F0C6FA10BD08B5AA
:1015F00001200021FFF7ECFF3C200121FFF7E8FF6D
:10160000F6E70000F0B585B00391041C161C00201D
:101610009AB2012101F070FB071C002C1CD01C4960
:10162000002002F093FB1B4C206802F0BBFE1A491D
:10163000002002F08BFB206802F0B4FE1749002066
:1016400002F084FB206802F0ADFE0020144902F095
:101650007DFB206802F0A6FE0025124C124923688B
:101660006268002000922A1C02F080FD039801F0BD
:1016700085FB2268002063680C49009702F076FD24
:10168000002E02DD301C02F08DFE0135E5E7C0467C
:101690001D66000000FEFF1F456600006766000033
:1016A000C876000000D003408C66000098660000F9
:1016B000F0B591B01D1C16AB0C91197817AB0592C3
:1016C0001A7818AB1B78041C0D931CAB1B780EA862
:1016D0000E931DAB1B88089321231B18DB7F0993F6
:1016E0001FAB1B880F9320AB1B780A930B1C9142F6
:1016F00000D9131CDFB2059B002D02D1002B06D1AF
:1017000001E0002B03D00020544902F02FFD08987F
:10171000FFF72EFF211C002002F018FB0023089C7D
:10172000029303930793049300230693069A199B4D
:1017300093426BDB00261A9B9E4264DABB190B9323
:101740002C226B469B18187801210C9B9847002887
:1017500038D1049B01330493089B9C4204D9643C18
:10176000A4B2201CFFF704FF002D16D0099A6B7B52
:10177000D31A5A425341039AD31803930A9B002B5E
:1017800039D0EB7A287B697B00900191DBB2F219AA
:101790003349002002F0EAFC2DE0059B099A1B7AF0
:1017A000D31A5A425341039AD31803930A9B002B2E
:1017B00021D0059BF2191B7A281CDBB2294902F0C3
:1017C000D5FC18E0022810D1002027490B9A02F01E
:1017D000CDFC079B013307930F9B9C420BD26434D3
:1017E000A4B2201CFFF7C4FE05E003384342584171
:1017F000029B1B1802931B9B002B02DD181C02F09E
:10180000D1FD013697E7069B01338EE70E9B002B37
:1018100004D07B1CDFB20D9B9F4285D9049A079BA5
:10182000944612496344002002F0A0FC322002F0EA
:10183000B9FD099B039A00930D49049B002002F017
:1018400095FC322002F0AEFD0A49029A002002F017
:101850008DFC322002F0A6FD11B0F0BDB86500008D
:10186000A5660000CA660000DF660000F2660000A0
:101870000A6700003B670000F0B591B00D9316AB0E
:101880000F1C02CB041C1B780E931AAB1B880F9302
:101890001BAB1D881CAB1E78002811D0101CFFF755
:1018A000EFFC601E132877D8FEF764FE0E45484B08
:1018B0004E765154575A5D60636966766C6F762533
:1018C000394902F043FA6DE0312200230292199A5D
:1018D00000970392169A01930492189A089605921B
:1018E0000D9A099506920F9A304807920E9A304940
:1018F0000A92304A1CE0A0218022C9011202052070
:1019000001F0F2FF052200230292199A2A4803925D
:10191000169A2A490492189A009705920D9A0193F3
:1019200006920F9A089607920E9A09950A92244AEF
:10193000FFF7BEFE2DE00020224928E000202249CA
:1019400025E00020214922E0002021491FE000205D
:1019500020491CE00020204919E000201F4916E022
:1019600000201F4913E000201E4910E000201E49FE
:101970000DE000201D490AE000201D4907E000207D
:101980001C4904E000201C4901E000201B4902F032
:10199000DDF9FFF78BFC05E01949221C002002F05D
:1019A000E5FBF6E711B0F0BD506700007C67000072
:1019B000192D0000080000208A6700003D39000052
:1019C000F8FFFF1F96670000C1670000F267000084
:1019D00022680000526800007F680000AC680000C8
:1019E000D868000006690000326900005F690000E5
:1019F0008B690000B7690000E4690000106A00000C
:101A00003C6A0000031C303B021C181E09280CD93C
:101A1000131C613B052B01D8573A05E0131C413BD1
:101A20000020052B01D8373A101C704770B502F022
:101A3000A8F9051C02F0A5F9FF24061C281C20406B
:101A4000FFF7E0FF051C301C2040FFF7DBFF2D01F6
:101A50002818C0B270BD70B502F093F9041C02F0F2
:101A600090F9061C02F08DF9051C02F08AF9FF239B
:101A7000FA221C401D409200303C544364212A1C31
:101A80001E40303E4E43303A5A394A43A41903406F
:101A9000A218303BD01870BD70B50C1C161C88B055
:101AA0000CAA157806A908800A4A05A805700A4DEF
:101AB00012682D684A6004AA16700090019302957E
:101AC000231C002003F020FB431E9841400008B077
:101AD00070BDC04610FEFF1F18FEFF1FF7B56A4617
:101AE000CB1DDB08DB00D31A02AF9D46051C0C1C86
:101AF000FFF778FBFA23002002AE9B002A1C00941B
:101B00000193011C331C04F031F8041CFFF798FB0F
:101B1000201CBD46441EA0418000F2BD08B5002037
:101B2000014902F013F908BD8E6A000010B5094C96
:101B30000020211C02F00AF9211C002002F006F905
:101B40000549002002F002F90449002002F0FEF8E5
:101B500010BDC046BA6A0000EA6A00001B6B0000B4
:101B600028225423F0B5BBB008AFBA18D41800210E
:101B70000722201C04F01DFB28227C23BA18D5184C
:101B80002822683BBA18D318A422BA181360282256
:101B90001C23BA18D31828226B602423BA18D31830
:101BA0002822EB602C23BA18D31828222B61342367
:101BB000BA18D31828226B613C23BA18D3182822EC
:101BC000AB614423BA18D3182822EB614C23BA180E
:101BD000D31828222B6270239821BA18D318FA4AF6
:101BE00079180A6003221A712C220126BA180020E3
:101BF0009A60BB632670AC6002F0A2FD301C02F05C
:101C00009FFD8022F14B12021A6002F0E9FB0020D6
:101C10000096021C031C011C02F0BAF8EC490020DB
:101C200002F094F8C82002F0BDFBEA49002002F05F
:101C30008DF8C82002F0B6FBE749002002F086F8D4
:101C4000C82002F0AFFBE54A331C0221E44802F051
:101C5000EBFB311C301C02F0F3FB002003F0B0FD65
:101C600028226423BA18D118FC23DB000B80002340
:101C7000CB8000230B81002300208B724E808E804E
:101C800003F0CCFD2C230021F818321C04F091FA4B
:101C90005021FB6F7918FB64A28828200A802A2132
:101CA000A279381841180A70242203218218117071
:101CB00058217B65A288791828200A803221A279D0
:101CC0003818411828200A702C210522381841188C
:101CD0000A704021FB63A28879180A804221A27908
:101CE00079180A703C21022279180A7048217B6415
:101CF000A288791828200A802221A2793818411850
:101D00000A704421042279180A706021FB65A288B8
:101D1000791828200A803A21A279381841182820F9
:101D20000A70342108223818411828200A704021EE
:101D30007B66A2883818411828200A804221A2799F
:101D40003818411828200A703C22092138188218B6
:101D5000282011704822FB66A38838188218282092
:101D600013804A22A379381882182820137044223D
:101D70000A2338188218137000224233C3181A70CD
:101D800028221023BA18D218281C331C02F038FD60
:101D90000021022000F0F0FE9249934802F048FF33
:101DA000FFF79EFA0820FF3002F05EFFC82002F025
:101DB000F9FA0820FF3002F065FFC82002F0F2FABD
:101DC0000820FF3002F050FFC82002F0EBFA082094
:101DD000FF3002F057FFC82002F0E4FA0820FF307D
:101DE00002F042FFC82002F0DDFA0820FF3002F0C6
:101DF00049FF1D207D4900F057FF40207C4901F03C
:101E00006DFDFFF7D5FB01F0BDFC00233B62FB61DC
:101E100080231B027B6200237B610333BB61754916
:101E2000002001F093FF744C744E206802F0BAFA5F
:101E30007349002001F08AFF206802F0B3FA71496B
:101E40003A6AFB69002002F091F9206802F0AAFAD0
:101E50006D4B6E4D6E491A682B6809680020009121
:101E6000796A01916B4902F081F9206802F09AFACF
:101E7000694B6A4A0020D2587369316800916849F9
:101E800002F074F9206802F08DFA664B65491A7801
:101E90005B788979D2B2DBB200910020624902F00E
:101EA00065F9206802F07EFA5E4B60491A7A1B7E63
:101EB0000978D2B2DBB2009100205D4902F056F9F8
:101EC000206802F06FFA5B4B5B491A785B7809690E
:101ED000D2B2DBB200910020584902F047F92068E5
:101EE00002F060FA564B4D499A78564BD2B2CB5815
:101EF000716800200091544902F038F9206802F01E
:101F000051FA524B52491A682C23FB181B780020B7
:101F100002F02CF9206802F045FA4E49002001F049
:101F200015FF206802F03EFA4B49002001F00EFF39
:101F3000206802F037FA4949002001F007FF2068C5
:101F400002F030FA4649002001F000FF206802F05C
:101F500029FA4449002001F0F9FE206802F022FA33
:101F60004149002001F0F2FE206802F01BFA3F49CF
:101F7000002001F0EBFE206802F014FA3C4900203A
:101F800001F0E4FE206802F00DFA3A49002001F069
:101F9000DDFE206802F006FA3749002001F0D6FE87
:101FA000206802F0FFF9FA69BB693449002002F0A9
:101FB000DDF8206802F0F6F93149002001F0C6FE94
:101FC000206802F0EFF95DE0A9110000280200206E
:101FD0004D6B0000686B00006E6B000028FEFF1F59
:101FE00034FFFF1F44FEFF1F34FEFF1F08000020C8
:101FF000F8FFFF1F756B000000FEFF1F00D00340BD
:10200000996B0000CB6B000010FEFF1F14FEFF1F3A
:1020100004FEFF1FFF6B00003C1000000070044036
:10202000376C0000004006406D6C00000050064018
:102030009C6C000000E0074000ED00E0CC6C00006C
:1020400000D0074034100000066D00002000002082
:102050003E6D00006C6D0000766D0000936D000019
:10206000AF6D0000CB6D0000E86D00000F6E00004A
:102070002E6E00004D6E0000786E00009B6E00001A
:10208000CA6E0000D749002001F060FE206802F00F
:1020900089F9D549002001F059FE206802F082F943
:1020A000D249002001F052FE206802F07BF9D049AD
:1020B000002001F04BFE206802F074F9CD490020A9
:1020C00001F044FE206802F06DF9CB49002001F0D8
:1020D0003DFE206802F066F9C849002001F036FE96
:1020E000206802F05FF9C649002001F02FFE206849
:1020F00002F058F9C349002001F028FE206802F0E0
:1021000051F9C149002001F021FE206802F04AF98E
:10211000BE49002001F01AFE206802F043F9BC49D4
:10212000002001F013FE206802F03CF9B9490020BC
:1021300001F00CFE206802F035F9B749002001F0EB
:1021400005FE206802F02EF9B449002001F0FEFDE2
:10215000206802F027F9B249002001F0F7FD20685D
:1021600002F020F9AF49002001F0F0FD206802F0F4
:1021700019F9AD49002001F0E9FD206802F012F9DB
:1021800001F0FFFDFF22061C0240672A00D108E291
:102190005CDC362A01D100F033FC25DC322A00D188
:1021A0006AE30CDC0A2A01D100F099FC312A01D043
:1021B00000F09BFC9D49002001F0D8FF5CE3342A2D
:1021C00000D1E9E301DD00F001FC786AFFF758F87F
:1021D00001217A6A2A2000F06CFD0020944901F068
:1021E000C5FF944B3B619EE3632A00D172E11BDC87
:1021F000612A5ED000DD59E1392A01D000F075FC7A
:10220000FA248D49002001F0A1FD786AFFF738F823
:1022100001217A6A2A2000F04CFD0020874901F054
:10222000A5FFA40000F008FC652A00D163E100DDF1
:102230006CE18349002001F089FDFFF70CFC814B24
:10224000814918601A68002000F051FC6F2A00D103
:102250006DE214DC6B2A00D114E20CDC692A00D197
:10226000ABE100DDB5E17949002001F06FFD01200F
:10227000FFF75CFCD3E56D2A00DD53E208E2742A27
:1022800000D1CCE50ADC722A00D154E200DD58E22C
:102290000220702A00D14FE200F027FC782A00D1FA
:1022A00066E27A2A00D16DE2752A01D000F01DFCA9
:1022B0004FE26749002001F049FD6649002001F026
:1022C00045FD206802F06EF86349002001F03EFDF4
:1022D0006249002001F03AFD6149002001F036FD1D
:1022E000206802F05FF85F49002001F02FFD2068B0
:1022F00002F058F85C49002001F028FD206802F047
:1023000051F85A49002001F021FD206802F04AF8F6
:102310005749002001F01AFD206802F043F85549A2
:10232000002001F013FD206802F03CF85249002023
:1023300001F00CFD206802F035F85049002001F052
:1023400005FD206802F02EF84D49002001F0FEFC4A
:10235000206802F027F84B49002001F0F7FC2068C4
:1023600002F020F84849002001F0F0FC206802F05B
:1023700019F84649002001F0E9FC206802F012F843
:102380004349002001F0E2FC206802F00BF84149CB
:10239000002001F0DBFC206802F004F83E49002038
:1023A00001F0D4FC3D49002001F0D0FC206801F090
:1023B000F9FF3B49002001F0C9FC206801F0F2FF61
:1023C00001F0DFFCFF220240352A03D1354B7B614F
:1023D000012323E56D2A00D087E3334B7B6114236F
:1023E0001CE5C046E66E00000A6F00002E6F00007C
:1023F000486F0000636F0000816F00009E6F000057
:10240000BD6F0000DC6F0000F66F0000217000005F
:1024100041700000617000007E700000BA70000022
:10242000D1700000E870000007710000397C0000E6
:102430007E7C000088130000E47C0000B57C000076
:102440003476000004FEFF1F63760000D2770000A0
:102450001A7100002571000063710000A571000071
:10246000E6710000267200005672000093720000B0
:10247000D2720000107300004D7300008B730000D7
:10248000C873000007740000447400006D740000FD
:10249000AA740000E17400001E7500005B75000066
:1024A0006E75000008000020F8FFFF1FC9490020DA
:1024B00001F04CFCFFF7CFFAC74B18601A68C74B06
:1024C0009A4202D1C64BC44A1360C34B00201A681B
:1024D000C4490CE3C449002001F038FCFFF7BBFA03
:1024E00028602A68BD4B9A4201D1BD4B2B602A68F7
:1024F0000020BE49FBE2BE49002001F027FCFFF7A7
:1025000095FAF861BB490020FA69F0E2BA49002067
:1025100001F01CFCFFF78AFA051CB84C2A1C211C90
:10252000002001F023FEB649002001F00FFCFFF768
:102530007DFA282108237918CE18021C3070211C3E
:10254000002001F013FE992D02D10020AD49C8E210
:1025500028225C23BA18D4189F4B386A1B68258040
:102560006360FFF705F8786AFEF78AFE34223B7F46
:10257000BA181370A44B211C1A6828240123029254
:102580000C223C19A21800960193002002F0BCFD19
:10259000021E03D000209D4901F0E8FDFEF786FEF3
:1025A0003DE49B49002001F0D1FBFFF754FA83B2D0
:1025B0003B621A1C0020974999E29749002001F0DC
:1025C000C5FBFFF748FA83B27B621A1C00209349CF
:1025D0008DE2FA699249002001F0C8FD01F0D1FBBB
:1025E0009049041C002001F0B1FB01F0CAFB8E49A8
:1025F0003861002001F0AAFB01F0C3FB8B49F860B1
:10260000002001F0A3FBFFF726FA8949061C0020F1
:1026100001F09CFBFFF71FFA8649051C002001F022
:1026200095FBFFF718FA8449B860002001F08EFB93
:10263000FFF7FCF9786000957B6A029601937F4969
:10264000BA69FB69002001F091FD231C303B1C1C82
:102650003A69631E9C41303A0092FA680296303A19
:10266000511E8A41039501923A6AE3B204923A8973
:1026700005927A680692B869F9697A6AFFF7FCF8F8
:10268000FFF7CDFB6E49002001F060FBFEF7AFFFC6
:102690006C49002001F05AFB6B49002001F056FB09
:1026A000FFF7C4F928225C23BA18D51828706749A7
:1026B000002001F04BFBFFF7CEF9F6B2041C2B789B
:1026C0006C2E1AD17A6A002000923A6A604901920F
:1026D000221C01F04BFD0025A54201DBFFF79FFB0B
:1026E00028225C23BA18D3181A780023FF200093FD
:1026F0000121FFF7D1F90135EEE73A6A0020009297
:102700005449221C01F032FD0025A54201DBFFF7F0
:1027100086FB28225C23BA18D0180121FFF7DEF9C6
:102720000135F2E7386AFEF723FFFFF778FBFEF783
:102730003FFFFFF774FB0820002100F01DFAFFF7B0
:102740006EFB4049002001F001FBFFF7E7F9FFF7BE
:1027500066FB7B6900204049002B00D1C1E13F4965
:1027600001F0F4FAFFF762F97B691870FFF757FB85
:102770003B49002001F0EAFA194801F013FE00205D
:102780003849AEE13849002001F0E0FA786AFEF7F6
:1027900077FD3649002001F0D9FA01F0F2FA344908
:1027A000051C002001F0D2FAFFF755F986B2314935
:1027B000321C002001F0DAFC206801F0F3FDE9B2E0
:1027C00068394D4269410120C9B2321C7B6AFEF76B
:1027D00019FFC0469E75000010FEFF1F0F27000066
:1027E00010270000CC750000EC7500001A76000080
:1027F0007E760000B4760000CB760000FE76000006
:10280000147700003D77000018FEFF1F637700007B
:1028100084770000B0770000007800003C7800006A
:102820005978000093780000BC780000D57800004B
:10283000147900004079000078790000A97900003F
:10284000E6790000D2770000097A0000287A0000BB
:10285000487A00009A7A0000D87A0000167B0000BF
:102860004E7B00006D7B0000777B0000907B0000BA
:10287000B97B0000017C00009F49002001F076FC3C
:10288000786AFEF7FDFC2A2001217A6A00F011FA2D
:10289000322400250120022100F03EFA974B013C32
:1028A0001A7A5B7A92019B0813438022920153406B
:1028B000934A9B18ED18002CECD1281C3221FDF70F
:1028C000F3FE061C8F49201C321C01F04FFC6B46A6
:1028D000B4B008AC251C3B611833FB600221012019
:1028E00000F01AFA854A0020137A527A9B01920866
:1028F0001A4380239B015A40814B8349D218921B73
:1029000004C501F033FCFB689D42E7D100252A1C79
:10291000201C3221013501F056F8602DF7D13B69BA
:102920009D46FFF77CFA80260221012000F0F4F991
:10293000724DB6012B7A6A7A9B0192081A43704B4A
:102940007240D21893B202210320FB6000F0E4F938
:102950002A7A6C7A9201A4081443694B74400221CC
:102960000520E41800F0D8F92A7A6B7A92019B08C6
:10297000134363495E407618A4B20C23FA5E00202C
:1029800023B20096614901F0F1FB3B69013B3B61D9
:10299000002BC8D1FFF743FA5D49002001F0D6F9BA
:1029A00001F0EFF9FFF72EF88423FB18186001F00F
:1029B000E8F9FFF727F888232822FB1818605C2322
:1029C000BA18D01800F0B4FEFFF729FA786AFEF7BB
:1029D00057FC03217A6A2A2000F06BF9FA240020C0
:1029E0004C4901F0C3FBA4000120022100F094F93E
:1029F000424B013C1A7A5B7A002CF5D1FFF70FFAB3
:102A00000020454901F0B2FB0024201C00F0C9FF62
:102A10008423FB181860201C00F0BAFF88232822AA
:102A2000FB1818605C23BA18D018013400F080FE3F
:102A3000642CEAD1FFF7F3F90221012000F06CF9D0
:102A40002E4B00201A7A5B7A92019B081343802256
:102A5000920153402A4A31499B181A1C013C01F04B
:102A600085FB002CE8D1201C2D49FA2401F07EFBC7
:102A7000A4000221032000F04FF9204B00201A7A15
:102A80005B7A92019B0813438022920153401C4AB7
:102A900022499B181A1C013C01F068FB002CE8D16C
:102AA000201C2049FA2401F061FBA400022105202A
:102AB00000F032F9114B00201A7A5B7A92019B08E0
:102AC00013438022920153400D4A14499B181A1C4B
:102AD000013C01F04BFB002CE8D1FFF7A0F90020EE
:102AE000114901F033F9FFF79AF900200F4901F07D
:102AF0003DFBFFF794F9C046557C0000080000201C
:102B000000E0FFFF6F7C0000777C00008D7C000000
:102B10009B7C0000B57C0000CB7C00000F7D00009A
:102B2000207D0000367D00004C7D00008275000095
:102B30001FB5041C01A9002002F098FE01A86946F7
:102B400002F0D2FD009B68461C1901A9009402F016
:102B500053FD01A90122002002F0B4FE1FBD0000B8
:102B60000022034B1A608022024B1206DA6770477C
:102B700000A01C5804E100E010B50A2308286FD813
:102B80000C1CFDF7F7FC051B283C486264665700E7
:102B900001F0CCFF0523012862D0FFF7E1FF201CE4
:102BA000FFF7C6FF0020011C01F04EFE041C0020B0
:102BB000012101F045FC002C4FD150E001F0B6FF9F
:102BC000062301284CD0FFF7CBFF201CFFF7B0FFF6
:102BD00001200021E8E701F0A9FF082301283FD0E8
:102BE00001F0B6FC002803D00020012101F028FCF0
:102BF0000220002101F028FE00282ED12FE001F054
:102C000095FF072300282BD0FFF7AAFF201CFFF712
:102C10008FFF032005E0FFF7A3FF201CFFF788FFCD
:102C20000420002101F010FE041C01F07FFF0028A9
:102C3000C1D1BDE70820002101F006FE00280CD11B
:102C40000120011C01F0FCFB09E0052002E0062048
:102C500000E00720002101F0F7FD092300E0002338
:102C6000181C10BD10B50C1C0C4B88B01B7806A9A5
:102C70000B800B4B05AA1B6810700A484B6004AB15
:102C80001C7000680093012302900193002002F061
:102C90003BFA431E9841400008B010BD08000020D8
:102CA00010FEFF1F18FEFF1FC223FF3308704B608A
:102CB000704708B518280FD8172818D20F2806D83B
:102CC0000E2814D2031C093B012B13D80FE0031C60
:102CD000113B042B0ED80AE0212804D81F2806D265
:102CE0001D2807D103E0031C233B0E2B02D8FFF75E
:102CF000B9FF00E0032008BD38B5031C0D1C0920F6
:102D0000191CFFF7AFFF291C041C2A20FFF7AAFF9C
:102D10000443E0B238BD0000FF2310B588B005AA17
:102D20001370182804D8092806D206281BD803E0F7
:102D3000031C1D3B142B16D80C4B10701C7806ABD3
:102D40001C800B4C0B482468006807940A4C0191C6
:102D50000290191C00940123002002F0E2F9431EA6
:102D60009841400000E0032008B010BD080000209A
:102D700010FEFF1F18FEFF1F1000002038B50221B3
:102D8000041C0120FFF7C8FF304D2A7A6B7AD2B2BB
:102D9000DBB2002804D02E49002000F0D7FF11E05C
:102DA000002C03D02B4901F0E1F90BE092019B08C4
:102DB0001343802292015A40274B201CD2182749E6
:102DC00001F0D4F902210320FFF7A6FF2A7A697ADD
:102DD000D2B2CBB2002804D01D49002000F0B6FFCB
:102DE00011E0002C03D01B4901F0C0F90BE0920167
:102DF0009B081343802292015A40174B201CD21883
:102E0000164901F0B3F902210520FFF785FF2A7A60
:102E1000697AD2B2CBB2002804D00D49002000F06C
:102E200095FF11E0002C03D00A4901F09FF90BE057
:102E300092019B081343802292015A40064B201CAA
:102E4000D218064901F092F938BDC04608000020AA
:102E50007E7D0000857D000000E0FFFF936600009E
:102E600037B50E24FF34051C201C01F0FDFE0A209E
:102E700001F098FA201C01F005FF0C2001F002FF80
:102E80000123084A002015700093FA239B00019348
:102E9000011C054B02F06AFE051C201C01F0E4FE3B
:102EA000281C3EBD550000205400002008B500201D
:102EB000FFF7D6FF3F20FFF7D3FF0020FFF7D0FF3B
:102EC000002008BD38B5051C0C1C1535EDB22120BD
:102ED000FFF7C6FF281CFFF7C3FF201CFFF7C0FF4A
:102EE0003834281CFFF7BCFFE0B2FFF7B9FFFFF74B
:102EF000DDFF002038BDF8B5061C0C1C351C271C56
:102F00002120FFF7ADFF2A35301CEDB2FFF7A8FFF7
:102F1000201CFFF7A5FF281CFFF7A2FF201CFFF7CE
:102F20009FFFFFF7C3FF2120FFF79AFF281CFFF741
:102F300097FF1C37201CFFB2FFF792FF281CFFF7FA
:102F40008FFF381CFFF78CFFFFF7B0FF2120FFF742
:102F500087FF281CFFF784FF381CFFF781FF301C18
:102F6000FFF77EFF381CFFF77BFFFFF79FFF212055
:102F7000FFF776FF301CFFF773FF3834381CE4B2DC
:102F8000FFF76EFF301CFFF76BFF201CFFF768FF99
:102F9000FFF78CFF2120FFF763FF301CFFF760FF76
:102FA000201CFFF75DFF281CFFF75AFF201CFFF7CE
:102FB00057FFFFF77BFF0020F8BDF8B5071C0C1C7E
:102FC0003D1C261C2120FFF74BFF2A35381CEDB293
:102FD000FFF746FF201CFFF743FF281CFFF740FFC9
:102FE000201CFFF73DFFFFF761FF2120FFF738FFAF
:102FF000281CFFF735FF3836201CF6B2FFF730FFEC
:10300000281CFFF72DFF301CFFF72AFFFFF74EFFAC
:103010002120FFF725FF281CFFF722FF301CFFF7B8
:103020001FFF381CFFF71CFF301CFFF719FF1C3473
:10303000FFF73CFF2120FFF713FFE4B2381CFFF736
:103040000FFF201CFFF70CFF281CFFF709FF201CB7
:10305000FFF706FFFFF72AFF0020F8BD70B50D1C33
:10306000041C2E1C2120FFF7FBFE201CFFF7F8FE9E
:103070002A36281CF6B2FFF7F3FE201CFFF7F0FEFD
:10308000301CFFF7EDFEFFF711FF2120FFF7E8FEF0
:10309000201CFFF7E5FE301CFFF7E2FE201C2A3063
:1030A000C0B2FFF7DDFE1534301CE4B2FFF7D8FEE6
:1030B000FFF7FCFE2120FFF7D3FE201CFFF7D0FE18
:1030C000281C1C30C0B2FFF7CBFE3835201CFFF7A0
:1030D000C7FEE8B2FFF7C4FEFFF7E8FE002070BDB0
:1030E000F8B5061C0C1C351C271C2A35EDB2212016
:1030F000FFF7B6FE281CFFF7B3FE201CFFF7B0FE5B
:10310000301CFFF7ADFE201CFFF7AAFEFFF7CEFE36
:103110002120FFF7A5FE301CFFF7A2FE1C37201C64
:10312000FFB2FFF79DFE301CFFF79AFE381CFFF739
:1031300097FEFFF7BBFE2120FFF792FE301CFFF742
:103140008FFE381CFFF78CFE281CFFF789FE381C09
:10315000FFF786FEFFF7AAFE2120FFF781FE281C5D
:10316000FFF77EFE3834381CE4B2FFF779FE281CE6
:10317000FFF776FE201CFFF773FEFFF797FE212076
:10318000FFF76EFE281CFFF76BFE201CFFF768FEA2
:10319000301CFFF765FE201CFFF762FEFFF786FE7E
:1031A0000020F8BDF8B5061C0C1C351C271C2A3560
:1031B000EDB22120FFF754FE281CFFF751FE201C22
:1031C000FFF74EFE301CFFF74BFE201CFFF748FEBA
:1031D000FFF76CFE2120FFF743FE301CFFF740FE97
:1031E0003837201CFFB2FFF73BFE301CFFF738FEDC
:1031F000381CFFF735FEFFF759FE2120FFF730FEA0
:10320000301CFFF72DFE381CFFF72AFE281CFFF7A5
:1032100027FE381CFFF724FEFFF748FE2120FFF7AA
:103220001FFE281CFFF71CFE1C34381CE4B2FFF7FD
:1032300017FE281CFFF714FE201CFFF711FEFFF7F6
:1032400035FE2120FFF70CFE281CFFF709FE201C8D
:10325000FFF706FE301CFFF703FE201CFFF700FE01
:10326000FFF724FE0020F8BD38B5051C0C1C2120FA
:10327000FFF7F6FD281C2A35EDB2FFF7F1FD201C03
:10328000FFF7EEFD281CFFF7EBFD201CFFF7E8FD24
:10329000FFF70CFE2120FFF7E3FD281CFFF7E0FD00
:1032A000201CFFF7DDFD3834281CFFF7D9FDE0B204
:1032B000FFF7D6FDFFF7FAFD002038BDF8B5061C74
:1032C0000C1C351C271C2120FFF7CAFD2A35301C99
:1032D000EDB2FFF7C5FD201CFFF7C2FD281CFFF76C
:1032E000BFFD201CFFF7BCFDFFF7E0FD2120FFF72D
:1032F000B7FD281CFFF7B4FD3837201CFFB2FFF7DD
:10330000AFFD281CFFF7ACFD381CFFF7A9FDFFF748
:10331000CDFD2120FFF7A4FD281CFFF7A1FD381CDF
:10332000FFF79EFD301CFFF79BFD381CFFF798FD53
:10333000FFF7BCFD2120FFF793FD301CFFF790FD48
:10334000381CFFF78DFD301CFFF78AFD201CFFF7AE
:1033500087FD1C34FFF7AAFD2120FFF781FDE4B2B1
:10336000301CFFF77DFD201CFFF77AFD281CFFF7BE
:1033700077FD201CFFF774FDFFF798FD0020F8BDD6
:10338000F8B5071C0C1C3D1C261C2A35EDB221206B
:10339000FFF766FD281CFFF763FD201CFFF760FDAB
:1033A000381CFFF75DFD201CFFF75AFDFFF77EFD7F
:1033B0002120FFF755FD381CFFF752FD1C36201C5D
:1033C000F6B2FFF74DFD381CFFF74AFD301CFFF742
:1033D00047FDFFF76BFD2120FFF742FD381CFFF78B
:1033E0003FFD301CFFF73CFD281CFFF739FD301C6A
:1033F000FFF736FDFFF75AFD2120FFF731FD281CAE
:10340000FFF72EFD201CFFF72BFD3834281CFFF79B
:1034100027FDE0B2FFF724FDFFF748FD0020F8BDCF
:10342000F8B5061C0F1C351C3C1C2A35EDB22120BA
:10343000FFF716FD281CFFF713FD381CFFF710FDE2
:10344000301CFFF70DFD381CFFF70AFDFFF72EFDBE
:103450002120FFF705FD301CFFF702FD3834381C32
:10346000E4B2FFF7FDFC301CFFF7FAFC201CFFF76D
:10347000F7FCFFF71BFD2120FFF7F2FC301CFFF7E4
:10348000EFFC201CFFF7ECFC281CFFF7E9FC201CDC
:10349000FFF7E6FCFFF70AFD2120FFF7E1FC281CFF
:1034A000FFF7DEFC201CFFF7DBFC281CFFF7D8FC35
:1034B000381CFFF7D5FCFFF7F9FC2120FFF7D0FC03
:1034C000281CFFF7CDFC381CFFF7CAFC301CFFF7A7
:1034D000C7FC201CFFF7C4FCFFF7E8FC0020F8BD88
:1034E00008B52520FFF7BCFC0020FFF7B9FC002041
:1034F000FFF7B6FC5F20FFF7B3FC3F20FFF7B0FCFF
:10350000002008BD08B52520FFF7AAFC0020FFF722
:10351000A7FC0020FFF7A4FC2F20FFF7A1FC3F2011
:10352000FFF79EFC002008BD08B52520FFF798FC9A
:103530003020FFF795FC0020FFF792FC5F20FFF79B
:103540008FFC3F20FFF78CFC002008BD10B5041C49
:10355000FFF7D8FF002C04D10320011CFFF760FF08
:103560003DE0012C04D10320011CFFF7ABFC36E049
:10357000022C04D10320011CFFF7BDFC2FE0032C1B
:1035800004D1201C211CFFF718FD28E0042C04D1D5
:103590000320011CFFF762FD21E0052C04D103206C
:1035A000011CFFF79DFD1AE0062C04D10320011C2D
:1035B000FFF7F8FD13E0072C04D10320011CFFF7EF
:1035C00053FE0CE0082C04D10320011CFFF776FE0B
:1035D00005E0092C03D10320011CFFF7D1FE0020D8
:1035E00010BD10B5041CFFF79FFF002C04D1032170
:1035F0003220FFF715FF3DE0012C04D103213220DA
:10360000FFF760FC36E0022C04D103213220FFF7E3
:1036100072FC2FE0032C04D1211C3220FFF7CDFCDB
:1036200028E0042C04D103213220FFF717FD21E00C
:10363000052C04D103213220FFF752FD1AE0062C9D
:1036400004D103213220FFF7ADFD13E0072C04D194
:1036500003213220FFF708FE0CE0082C04D10321DF
:103660003220FFF72BFE05E0092C03D13220032185
:10367000FFF786FE002010BDF0B585B0071CFFF7F0
:103680002FFF6A466D460024284B03CB03C2161C4D
:1036900003CB03C23B59002B04D1285D315DFFF7FA
:1036A000BFFE3DE0012B04D1285D315DFFF70AFC30
:1036B00036E0022B04D1285D315DFFF71CFC2FE0C2
:1036C000032B04D1285D315DFFF777FC28E0042B44
:1036D00004D1285D315DFFF7C1FC21E0052B04D149
:1036E000285D315DFFF7FCFC1AE0062B04D1285D54
:1036F000315DFFF757FD13E0072B04D1285D315DE5
:10370000FFF7B2FD0CE0082B04D1285D315DFFF717
:10371000D5FD05E0092B03D1285D315DFFF730FEB3
:103720000434082CB6D1002005B0F0BDE8640000D8
:1037300038B5134C03682268051C934206D06268B2
:103740004168914202D0FFF797FF13E0226893424D
:1037500006D168686268904202D0FFF742FF09E034
:103760002268934206D062686968914202D1181CAF
:10377000FFF7ECFE2B68002023606B68636038BDA8
:103780002CFEFF1FC02313B580244F4A9B001360FB
:103790004E4A64001360FDF725FD4D4B201C1C6054
:1037A0004C4B1C604C4B1C6001F05EFA642000F036
:1037B000F9FD201C01F066FA642000F0F3FD201CE6
:1037C00001F052FA642000F0EDFDAE20FFF748FB57
:1037D000A020FFF745FB7220FFF742FBA120FFF777
:1037E0003FFB0020FFF73CFBA220FFF739FB002046
:1037F000FFF736FBA420FFF733FB0024A820FFF7D8
:103800002FFB3F20FFF72CFBAD20FFF729FB8E207D
:10381000FFF726FBB020FFF723FB0B20FFF720FB71
:10382000B120FFF71DFB3120FFF71AFBB320FFF794
:1038300017FBF020FFF714FB8A20FFF711FB642031
:10384000FFF70EFB8B20FFF70BFB7820FFF708FB41
:103850008A20FFF705FB6420FFF702FBBB20FFF780
:10386000FFFA3A20FFF7FCFABE20FFF7F9FA3E20F4
:10387000FFF7F6FA8720FFF7F3FA0E20FFF7F0FACA
:103880008120FFF7EDFA9120FFF7EAFA8220FFF797
:10389000E7FAFF20FFF7E4FA8320FFF7E1FA7D2043
:1038A000FFF7DEFAAF20FFF7DBFA2620FFF7D8FAA2
:1038B0000120FFF7D5FAFFF713FE68460094019444
:1038C000FFF736FF201C16BD20901454249014548A
:1038D00034A014543090145400A014548023DB05F9
:1038E00008704B607047000000B589B005AB0A0A4C
:1038F0001A705970002801D0052816D10C4A06A963
:1039000012780A800B4A12684A6004AA10700A48AA
:10391000006800930223029001930020013B01F014
:10392000F3FB431E9841400000E0032009B000BDB6
:10393000F8FFFF1F10FEFF1F18FEFF1FFF2100B53D
:1039400089B005AA031C11700320052B15D80C495A
:103950001370087806A908800A480B4B00681B689A
:1039600048600A4802930090022001230190002041
:1039700001F0D7FB431E9841400009B000BDC0468E
:10398000F8FFFF1F10FEFF1F18FEFF1F00000020A2
:1039900008B5632800DD63200A21FCF76BFF081CD3
:1039A00008BD10B5041E632C03DC0020092C09DDC2
:1039B00000E06324201C0A21FCF75CFF601A0A2146
:1039C000FCF772FE10BDF0B589B0602900DC80E024
:1039D0000191041C6021101C151CFCF765FE602180
:1039E00004904942281CFCF75FFE013505906021D8
:1039F000281CFCF759FE60210390281CFCF754FE9C
:103A0000019B0025013307930123069000932E1C90
:103A1000009B0199581EFCF747FE049A0290031E72
:103A200001990098934207DAFCF73EFE049B984206
:103A300013DD059BC7181DE0FCF736FE039B98427B
:103A40000BDA2068FDF728FB011C301CFCF71EFF79
:103A5000FE21061C8905281C1DE0029B039A934247
:103A60001CDA00980199FCF71FFE039B984215DDB4
:103A7000029A9F1A20687843FDF70EFB011C301C48
:103A8000FCF704FF0021061C381CFCF70DFEFDF7B7
:103A900003FB011C281CFCF7F9FE051C029B069A7F
:103AA00093420EDD291C301CFDF76CF88521C905F9
:103AB000FDF7A0F9FDF7D0FAC317DB0C1B185B1359
:103AC00010E0009B079A01330093043493429FD186
:103AD000E8E70023914205DD95002A58D3175B0ED5
:103AE0009B18DB11181C09B0F0BD0269C3689A422B
:103AF00003D880681018013800E0501EC01A7047C3
:103B0000F7B58368C668051C40680191141C9F1BAB
:103B10008019974203D902F043FBA4190AE00199E6
:103B20003A1C02F03DFB019BE41BD9196868221C7A
:103B300002F036FBEC60F7BD0023F7B5061C171C3E
:103B4000C568019100933369B468AB4200D81B1972
:103B5000013B5B1B641BBC4200D93C1C9C4200D94E
:103B60001C1C7368221C5819019902F019FB009B58
:103B70002D191B190093019B3F1B1B190193B3685F
:103B8000EB1A5A1E93415B421D40F560002FDAD1BB
:103B90000098FEBD022310B50F4C104A23616361EB
:103BA0000F4BA261E361C823A2640E4A2362E26460
:103BB00000230422A3626362E362A3656365E36595
:103BC0002265E01D084902F0ADFB201C074902F008
:103BD000A9FB2023A37110BD24010020957D0000C6
:103BE0005A000020560000209E7D0000A27D0000AB
:103BF000F0B5294B171C1A7885B0009001910293FB
:103C0000002A01D1FFF7C6FF1823009A002553436D
:103C1000029AD3181A1C503252689C6D0392944237
:103C20001BD91B6D3D1C1B1B9F4200D91D1C182658
:103C3000009B2A1C5E43029B01989E19F36C7F1B1C
:103C4000191902F0ADFA019B64195B190193336DE8
:103C5000E31A5A1E93415B421C40039B1E1BBE424B
:103C600000D93E1C002E0CD01823009A0198534313
:103C7000029AAD19D318D96C321C091902F090FAC6
:103C8000A419002D05D01823009A5343024AD318D3
:103C90009C65281C05B0F0BD2401002010B50B1C4C
:103CA000EFF31084012181F31088191CFFF7A0FFA6
:103CB00084F3108810BD0000F8B51823451C5D433F
:103CC0004343141C134A0E1CD018C76A5519012F00
:103CD0000FD0002F07D0022F17D1221C281CFFF76E
:103CE0002BFF041C14E0281CFFF7FFFEA0420ED39C
:103CF00005E0281CFFF7F9FE844200D9041C281CAB
:103D0000311C221CFFF7FCFE02E0002400E03C1CFA
:103D1000201CF8BD24010020F8B50B4B071C1B78B4
:103D20000E1C151C002B01D1FFF734FFEFF310849C
:103D3000012181F31088381C311C2A1CFFF7BCFFBD
:103D400084F31088F8BDC0462401002038B5051C56
:103D5000081C0C1C02F0EEFA211C021C281CFFF7A8
:103D6000DBFF38BD13B56B46DC1D0020211C012292
:103D7000FFF794FF012801D1207801E001204042A3
:103D800016BD08B5FFF7EEFF0028FBDB08BD0000FD
:103D9000F7B5164C01932378051C0F1C161C002B3D
:103DA00001D1FFF7F7FE23699D421CD2EFF3108289
:103DB000012181F31088002D0CD01823691C594370
:103DC0006B43675061184E600199E3181962002136
:103DD0009962596218235D43089B6419E36282F378
:103DE0001088002001E001204042FEBD2401002097
:103DF000826810B5041C4068531C834205D82068B3
:103E00008154A360E3680133E360A26863689A4267
:103E10000CD120692168FFF77FFFA368984203D087
:103E200001235B42E36001E00023A36010BD0000BA
:103E3000F0B5051C1F1C081C012685B00A9C0091CA
:103E40000192019B984204D30199FCF79DFB013636
:103E5000F7E70296BE4200D2029701230B9A1A405E
:103E6000039218D1002C01D1002414E00B9B2026D2
:103E70009B070DD5002F0BD1103609E0281C311CF3
:103E8000FFF7B6FFEB68013C002B04DB002CEBD006
:103E9000029BA342F2D3EB68002B35DB0126012FF6
:103EA00001D9013F06E00098311CFCF76DFB019B36
:103EB000984208D3019B5E43F1E7301C0199FCF75F
:103EC00063FB061E10D00098311CFCF75DFB331C11
:103ED0004343009AD31A00930C4B195C281CFFF73C
:103EE00087FFEB68002BE8DA039B002B0CD0002C3B
:103EF0000AD0029BA34207D2281C2021FFF778FF9B
:103F0000EB68013C002BF2DA05B0F0BDA97D0000A2
:103F1000F0B59FB00EAB099340230A930023161C03
:103F200006900B930D900C930B784C1C002B04D136
:103F30000C9B0393002B22DC15E1252B16D10025C9
:103F400002314F1E3B782B2B0CD003D8232B27D1CB
:103F5000082308E02D2B03D0302B21D1022302E0CF
:103F6000012300E004231D430131EAE7191C09A8DD
:103F7000FFF73EFF211C0C9B002BD5DAD8E70B9AEC
:103F8000002A03D006980EA9FFF7C6FE0C9B0393E8
:103F90000B9B0493049A039B944663440C93E2E0C6
:103FA00000243A78131C303B092B05D80A235C43C4
:103FB000303C0137A418F4E7002303932E2A0DD1D7
:103FC00001373A78131C303B092B07D80A23039991
:103FD00001374B43303B9B180393F2E739780423B6
:103FE0000A1C9A43682A01D10137F7E7642926D0D1
:103FF00008D8582900D195E063291AD0252900D086
:10400000AFE0ABE0732900D195E00DD8702900D066
:10401000A7E032680021131D33600823019100934B
:10402000116809A8102296E0752971D0782979D0F5
:1040300097E0336819681A1D3260C9B28EE03368A0
:104040001A1D1B683260DA17981804930123504038
:104050000593092805DD0A21FCF726FB059B0133A2
:10406000F6E7059B039A934200D20592002C05D0F7
:10407000049B002B01DB6B0700D5013CAB0702D58D
:10408000039B002B10D0EB070ED4002C01D1002491
:104090000AE0059BA34207D209A82021FFF7A8FE4A
:1040A0000C9B013C002BF0DA0C9B0793002B58DB98
:1040B000049B002B04DA5B42049309A82D2103E042
:1040C0006B0703D52B2109A8FFF792FE0C9B002B51
:1040D00047DB03232B40022B11D1039B002B0ED176
:1040E000002C01D100240AE0059BA34207D209A8B5
:1040F0003021FFF77DFE0C9B013C002BF0DA0C9B7E
:104100000593002B2DDB0094019509A8049906E086
:104110003368009401951A1D1968326009A80A22B3
:10412000039B18E0336800941A1D0195326009A8BA
:1041300019681022F4E733681A1D32601C68217870
:10414000013400290DD009A8FFF752FE0C9B039300
:10415000002BF4DA05E0FFF76BFE02E009A8FFF799
:1041600047FE791C07E70C981FB0F0BD0EB403B5ED
:1041700003AB02CB01AA0193FFF7CAFE02B008BC51
:1041800003B0184708B5002000F08AFD08BD08B547
:10419000002001F0F5FB08BD082110B5164B9A78F8
:1041A0000A4202D09A780A439A708822002122207B
:1041B000124B52019950124A10708020114A40024D
:1041C00098501868104A024010481A601C58104A4B
:1041D0002240C024A40422431A5080220D4B19729D
:1041E0001A767F3A19705A700B4A11700C2299791D
:1041F0001142FBD110BDC04600D007400070044002
:1042000000E0074044100000FFFFF3FF041000002F
:10421000FFFFFFF00040064000500640154B1648D7
:1042200010B5191E81420CD00022144B9B089B0034
:104230009A4203D084588C500432F9E7104B9960AD
:1042400001E00F4A936000230E4A0F49891A8B42FE
:1042500004D0D45C0D48C4540133F8E700230C4A61
:104260000C49891A8B4204D00024D0180470013301
:10427000F8E710BD00000000000000000000000092
:1042800000ED00E0107F0000C480000000FEFF1F72
:10429000B4FFFF1FD0020020002341704360037071
:1042A0008360181C704710B54378041C0120FF2B55
:1042B00008D000F06DFA63780133DBB2637000F070
:1042C0005BFA002010BD0020704738B5041C0D1C9F
:1042D00000F05EFAE1682943E16000F04DFA002049
:1042E00038BD000000220A4B9A641A1C40329A63BF
:1042F0001A1C30329A621A1C20329A611A1C10322F
:104300009A60044A1360044B9B60DB607047C046B0
:10431000B0010020AC0100209C0100200022024BD3
:104320001A60186880B270470C007C5038B543782A
:10433000041C0D1C002B0BD0002500F029FA63781B
:10434000013BDBB26370257000F016FA281C28E0F0
:104350000220002925D02378002B15D0FFF7DEFF9F
:104360006368A268984201D3C01A03E0C01A802390
:104370005B02C018824213D200F00AFA00232370B5
:1043800000F0FAF902200CE04B1C09D000F000FA12
:104390000123237000F0F0F9FFF7C0FFA560606013
:1043A000032038BD38B5051CFFF7B8FF041CFFF724
:1043B000B5FFA04201D3001B03E08023001B5B027A
:1043C000C0188542F3D238BD08B5012801D100F0EC
:1043D000DFF908BD08B5012801D100F0CDF908BD0D
:1043E00010B5FFF77FFF01230020084A084913603A
:1043F000084A094C1060086004212160074C2160C4
:1044000007490B6007490860136010BD38800450ED
:1044100000008450000004500000045104000451C6
:1044200004000C500000045310B5044C20602171AE
:104430000020A2602373637310BDC04600020020F9
:10444000F0B587B06B4602901B7A05AC23706B46C3
:1044500003911B7B3D4D63702B79029A042093429C
:1044600071D92B7B6B730123A37000230193374E0B
:104470000093337B009A371C93421AD9009BB26891
:104480009B009B58002B10D01A79D2070DD51A68C3
:10449000201C99689047002807D06B461B787373DF
:1044A000039B002B3AD005230193009B0133DBB221
:1044B000DDE7019E002E02D0039B012B2FD10120AE
:1044C000FFF782FF0C20029B58432B68181800F05E
:1044D000A7F86B461B7A01206B71FFF77BFF022365
:1044E0000025A3703B7BAB4216D9BA68AB009B5842
:1044F000002B0ED01A7992070BD51A68201C9968E8
:104500009047002805D0039B7D73002B1AD006230B
:1045100001930135EDB2E5E7019814E0052600238B
:10452000009FA370013FFFB2FF2F09D0AA68BB0014
:104530009B58002BF6D01A68201C99689047F1E729
:10454000301C00E0062007B0F0BDC046000200208D
:10455000014B58797047C0460002002013B5002176
:104560000378041C0191022B07D0032B0BD0012BE5
:104570000ED10279191C134801E00279114801ABF0
:1045800000F0CEFF08E001A90E4801F00BF803E0AF
:104590000C4801A900F0A8FF002812D1A3790A4A0B
:1045A000DB01DBB213706378084A5B00DBB2137087
:1045B000A278074B1A70E278064B1A706279064BA4
:1045C0001A7016BD004006401840865300408650C1
:1045D0000040065001400650184016501F2280230C
:1045E00002405B05D2051A43034943099B005B184F
:1045F0001A43002313607047288004401F22802143
:104600000240D30549051943430904489B001B1880
:1046100019430123081C934003607047288004401D
:104620000022072373B5041C104D0093281C131C93
:10463000012101F097F9201CFFF790FF0022637A17
:10464000217A0093281C131C01F08CF9E379084AA5
:104650009B041360074BA17A1D68281C00F0BEFF65
:10466000281CE17A00F0C1FF002076BD00700440F4
:1046700000700C59047E000008B5054800F0F6FEF5
:10468000044B1968C9B20131FBF77EFF08BDC04673
:104690000040064044801C5E08B5054800F0E6FE78
:1046A000044B1968C9B20131FBF76EFF08BDC04663
:1046B0000040064044801C5E08B5054800F0D6FE68
:1046C000044B1968C9B20131FBF75EFF08BDC04653
:1046D000004006404480145808B5054800F0C6FE66
:1046E000044B1968C9B20131FBF74EFF08BDC04643
:1046F00000400640448014580C4B1B68DBB2022B70
:104700000DD0032B0ED0002B01D000200CE0802117
:10471000074A09021268101E8842F6D104E0054BD0
:10472000186801E0FA2080007047C04600700C59FC
:10473000280200202C02002008B5FFF7DDFF08BD8D
:1047400008B5024B185CFFF759FF08BDB97D0000A2
:1047500008B57620FFF752FF08BD08B57620FFF7B1
:104760003DFF08BD08B56620FFF748FF08BD08B546
:104770006620FFF733FF08BD044A1368002B04D0FE
:10478000013B1360002B00D162B67047100200207D
:1047900072B6024A1368013313607047100200209A
:1047A00010B50B4B0B4A1278002A04D1013B002BA9
:1047B000F8D103200AE0064C074801F069FB012804
:1047C00003D0013C002CF7D1F3E7002010BDC04618
:1047D000EA03000002D0075100E0074010B5064C84
:1047E000064801F055FB042804D0013C002CF7D109
:1047F000032000E0002010BDEA03000000E00740B5
:10480000F7B5071C0E1C151C01930120002F18D0B2
:10481000002916D0FFF7D8FD0A4C0021201C1022D9
:1048200001F0C7FC27602671002D06D06B461B796E
:10483000A56023736B461B7963730120FFF7CAFDE4
:104840000020FEBD14020020F0B5B24C8BB00290E7
:104850000191237B01206373FFF7B6FD2379029A50
:10486000934204D80120FFF7B5FD022050E1029ADF
:1048700023689200D6586B461B7907AC35782372B3
:104880006B461B7A2A1C237002239A4366600392AC
:10489000012A01D0052D0AD101219F4801F04AFAD1
:1048A000002809D10120FFF795FD012030E1072DF7
:1048B00002D999480321F1E701236372002400948F
:1048C000944F009A3B7B93421AD9009BBA689B0095
:1048D0009B58002B0FD01A79D2070CD51A6807A85D
:1048E00099689047002806D06B461B7804247B7398
:1048F000019B012B04D1009B0133DBB20093DFE766
:104900000120FFF767FD854800F0D4FD039B012BD4
:104910001DD10138C0B2022811D8FFF7DDFE804B4F
:1049200098420CD8FFF7A8FE7E4FB84207D8FFF791
:10493000C3FEB84203D8FFF7AFFEB84207D9019BC8
:10494000012B01D1062407E0002C05D1FAE7019BD9
:10495000012B52D0002C50D00120FFF735FD002351
:1049600007AE009D7372013DEDB2FF2D40D0694B43
:10497000AA009B68D358002BF5D01A79D207F2D53C
:104980001A68301C99689047EDE7072205AB1A704A
:1049900000225A70F2789A703279DA702B1C083B38
:1049A00005A9022B03D873798B71B379CB71737816
:1049B000002B00D084E0584801F0F0F9002800D026
:1049C0000324002D00D08AE0FFF7EAFE002400282F
:1049D00000D09DE00120FFF7F7FC6B464D4E1B7A9F
:1049E0000025B373022307AF7B72337BAB427CD8C5
:1049F0000120FFF7EFFC201C8AE003200A2D00D9DC
:104A000086E0281CFBF7ACFD06080A19405833392C
:104A1000C1282D00002250E003224EE03E4801F064
:104A200037FA012807D03C48002101F093F9FFF73D
:104A3000B7FE041E6CD101223FE0374801F028FA8E
:104A4000042807D03448022101F084F9FFF7C6FE9C
:104A5000041E5DD1042230E0072205AB1A70063A2D
:104A600003E0072205AB1A70043A5A7096E7022257
:104A700005AB1A70013A1A7104E00222012105AB5C
:104A80001A7019715A7189E70222002705AB1A7052
:104A90002148013A1A715F7101F0FAF9012800D139
:104AA0007CE71D48391C01F055F9FFF779FE041E1B
:104AB000BC4200D172E72BE0052205AB1A706DE70E
:104AC000012D00D877E7B2780220174B002A02D0D8
:104AD0001A69024301E01A6982431A616BE7012DEA
:104AE00000D077E7FFF77AFE70E7B268AB009B581B
:104AF000002B0AD01A79920707D51A68381C9968D2
:104B00009047002801D0052475730135EDB26CE79C
:104B10000BB0F0BD1402002000E00740004006404A
:104B200040420F0080841E0000ED00E008B50648FA
:104B300001F0AEF90023012803D00133042800D08E
:104B40000A33181C08BDC04600E00740F7B5FF2433
:104B500003681C4A1D0A25401C40AB009F581A4A96
:104B6000061C9B58281C0193FFF7EAFD211C00221C
:104B7000381C01F095F9019BA4001C19842332799B
:104B80005B05234352001A60802372795B0523433F
:104B90001A609023B2795B05234312011A60F379FE
:104BA0000A4A14431A042260002B0AD0084B5A5DAB
:104BB000002A06D01F23134001229A40131C054AE5
:104BC0001360F7BD107E0000087E0000000018187A
:104BD000187E000000E100E0F8B5FF24051C036822
:104BE000114A180A20401C4083009F580F4A9E58C3
:104BF000FFF7A6FD381C211C012201F051F96A685B
:104C0000381C211C01F05CF988232A7AA40034198D
:104C10005B05234392001A6098235B051C436B7A63
:104C20009B012360F8BDC046107E0000087E000096
:104C300038B50C1C002802D1002C09D112E0036801
:104C40000133F9D0051C0835FFF780FF281CF6E773
:104C50002368013306D0251C201C0C35FFF7BCFF50
:104C60002C1CF5E738BD0000FF22030A1340024068
:104C70000120904002499B005B5858607047C04635
:104C8000107E0000FF22030A1340024001209040E2
:104C900002499B005B5898607047C046107E000038
:104CA00008B5084B8200D3589422023352051343AF
:104CB0001B78002B02D000F041FA01E000F096FAD8
:104CC00008BDC046BC7D0000031C80220C33520589
:104CD00013431B78002BF7D00171704738B50D1CBA
:104CE000084B8000C458201C291C1830FFF71EFBFD
:104CF0000328F8D0002801D004232374207CC0B2FC
:104D000038BDC04624020020F0B589B00290161CC0
:104D100082003748059310580EAB019035481B7838
:104D20001458002007AA1080A27C8F0A0492012246
:104D3000E274A2745A4253411E3FDBB203937B429A
:104D40005F41FFB2CDB2874202D0CBB29C460D0A82
:104D500000216D00EDB28F4204D1391C002E01D12B
:104D60006B46197B0D4307AB1D700122002F02D04B
:104D700062465A700222A360E2600198291CFFF784
:104D8000A3FF02980F99FFF7A9FF237C002B0CD1FA
:104D9000002E0AD0059BA660E36031780198FFF7EA
:104DA00093FF02980F99FFF799FF237C002B16D1F0
:104DB000039B002B13D0002F01D1002E0FD0002316
:104DC0000127A3600198E76001F0D2F8391C01982F
:104DD0002943FFF779FF02980F99FFF77FFF002320
:104DE000E3746B46207C1B7CC0B2A37409B0F0BD99
:104DF000BC7D000024020020104A830010B59858A2
:104E00000F4A9C58E37C002B05D0237C052B02D055
:104E1000237C042B09D19822831C520513430022C2
:104E20001A7001F0B7F801236374A37C002B03D040
:104E3000201C1830FFF737FA10BDC046BC7D0000BB
:104E400024020020F7B5194B8700FB580125009379
:104E5000174BFE58002E26D10C1C24220190081C52
:104E6000311C01F0A6F9201C311C1830FFF714FA90
:104E70000198FFF777FC009801F02AF80C4B019A93
:104E8000FC500C4B9A5C1F2313402A1C9A40131CA5
:104E9000094A13609C22009B52050233134380226F
:104EA0006574351C1A70281CFEBDC046BC7D000010
:104EB00024020020BB7D000000E100E0F7B59C2249
:104EC0000027051C0D4E8400A359520501930C4B7D
:104ED000E358023313431F70FFF749FC094B019855
:104EE0005A5D1F23134001229A40131C064A1830B2
:104EF000D367FFF7E8F9A751F7BDC04624020020A9
:104F0000BC7D0000BB7D000004E100E00A4B800096
:104F100070B5C558094BC6584B68726993420AD0A0
:104F20000C1CFFF7C9FB0023011C6268281C00F061
:104F3000DDFF6368736170BDBC7D0000240200204A
:104F4000F0B587B00FAC334F334D267884006559E8
:104F5000E459677C002F02D10320207458E0002E12
:104F600001D11E270E9705930023A674E360A3606A
:104F7000237423606374071C04920391FFF7C6FF38
:104F800090231021AA1C5B05134319708421EB1C8C
:104F900049050B430221197098235B0513430293C3
:104FA0004023029A281C137000F0E2FF039B381C78
:104FB0001988012300930E9B049A0193059BFFF728
:104FC000A3FE0D9B002B15D0237C002B0FD10C9B37
:104FD000281CA3600D9BE3600C9B1978FFF774FEFF
:104FE000002E13D0381C0E99FFF778FE0EE0237CBC
:104FF000042B0BD100230126029A1370EB785B0976
:10500000334202D0281C00F0C5FF6674207CC0B279
:1050100007B0F0BD24020020BC7D0000F0B58BB0CD
:1050200013AC2478364E374D039484006559A45947
:10503000667C002E02D1032020745FE0039E002EC8
:1050400001D11E3612960993109B00262360119BF6
:10505000A66063606B461B7BE660A374267466746F
:10506000079108920490FFF751FF9023AF1C5B0556
:105070003B4305931023059A281C13708422EB1CD4
:105080005205134302221A7098235B053B43069393
:105090004023069A137000F06BFF079B089A19884B
:1050A000129B009601930498099BFFF72DFE227C2A
:1050B000D2B2B24212D1059B11991A708C235B05B2
:1050C0003B43012900D108221A702B79039B002B46
:1050D00012D004981299FFF701FE0DE0237C042BF7
:1050E0000AD1069B1E700126EB785B09334202D081
:1050F000281C00F04FFF6674207CC0B20BB0F0BDDE
:1051000024020020BC7D00001FB5069C0094079C73
:105110000194089C029401240394FFF711FF04B04A
:1051200010BD1FB5069C0094079C0194089C029436
:1051300001240394FFF772FF04B010BD842138B539
:10514000244B8200D5584905EB1C0B4302211970F2
:10515000214BD45890226B1852051A431278E978E3
:10516000D2B2890634D5942149051943097800291A
:105170002ED0012A15D1EB78134202D005232374D7
:105180000CE0E368013BE360002B07D0A368281C18
:105190005A1CA2605978FFF797FD19E0FFF72CFE23
:1051A00016E06268013A6260002A06D08C21490547
:1051B000012A05D10B43082204E0FFF71DFE02E09F
:1051C00000220B431A7023685A1C22602A791A7035
:1051D00038BDC046BC7D000024020020842303307B
:1051E0005B051843022303707047000090214905B6
:1051F0000A1CF0B58F4B071C8000C55889B0EB1C0A
:105200000493EB78EE78DBB20593F3B20693AB1D13
:105210001A43944612789826D2B2079294225205E5
:105220001A4314787605621E9441E2B2824C3343ED
:105230000459A81C0090084301921A780178D2B250
:10524000C9B203910199029000292FD00799002932
:105250000CD010236246281C1370FFF7BFFF236B8E
:10526000F8B20121002B00D0DCE0E0E0002A1DD0E4
:105270004022281C1A70FFF7B1FF231C2C331B7827
:10528000002B02D1009A16433370236B002B03D0FE
:10529000F8B28021626B9847E37D002B04D0201C7C
:1052A00080211830FFF711F80A23BFE0069B281C65
:1052B0009E1101231E40FFF791FF0122059B1B1148
:1052C000134219D09023049A5B05134310221A70DD
:1052D000002E04D0EB785B07DB0F10D11AE0082317
:1052E00023702C342278002A00D0A0E09823009963
:1052F0005B050B431A709AE0002E16D0EAE71023E4
:10530000029A1370236B002B6ED0F8B20221626BED
:10531000984769E0029A1370236B002B03D0F8B210
:105320000421626B98472B7981E0039B012B29D1E3
:10533000EB78039A134257D0029B1E702B79231CE3
:105340002C331B78002B09D1019B002B06D198230D
:10535000009A5B0513436A4612791A70236B002B7F
:1053600003D0F8B20821626B9847A37D002B04D0CC
:10537000201C08211830FEF7A8FF00236360E360BB
:10538000237554E02B79A268DBB2002A2AD0226967
:105390001370236901332361A368013BA360A368F1
:1053A000002B44D1019B002B13D1231C2C331B78E1
:1053B000002B06D19823009A5B0513436A461279A5
:1053C0001A70E37D002B04D0201C20211830FEF73A
:1053D0007CFF002363752361236BF8B22021002B2F
:1053E00020D124E0072321E06368002B1DD0E3686F
:1053F0001A782B1C80210C3349050B431B78002B9A
:10540000F7D02A71E3680133E3606368013B6360AE
:105410006368002B0BD1E3602375236B002B06D050
:105420001021F8B2626B984701E00623237009B09F
:10543000F0BDC046BC7D00002402002084235B0533
:1054400003431A7800239A4209D0802301305B0578
:1054500018430378012B01D0024B00E0024B181CCB
:105460007047C04680841E0000127A0010B50D4AB5
:10547000831D13431B78DBB2002B10D0012B08D106
:10548000041CFFF7DBFF084B08341C432378D8408B
:1054900006E00020022B03D1044B186800E004480A
:1054A00010BDC04600000811000090102802002026
:1054B000006CDC020B4A831D13431B78DBB2012B0B
:1054C00006D0181E0CD00320022B09D0052007E0BF
:1054D000802301305B051843007843425841013076
:1054E0007047C04600000811021C031C9C201833A2
:1054F00040050343802018700020064B13431870AA
:105500000548931D03431B78D8B20028F8D1034BFC
:105510000B6070470000081300000811006CDC02EB
:10552000F8B5041C0D1C171C1E1CFFF7C3FF012837
:1055300002D1002D04D007E0022805D1012D03D1AE
:10554000201C311CFFF7D0FF8022631C520513433F
:105550001D70842302225B0523431A70231C0C4A0E
:10556000083313437A00D2B21A704022094B234306
:105570001A70094AA31D13431B78012BF9D1002D82
:1055800001D1064A00E0064A3A4100203260F8BDE7
:1055900000009010000008130000081180841E0015
:1055A00000127A000A4B10B51C681A1C0123002C4B
:1055B0000CD08024074B03431C70074C831D2343EE
:1055C0001B78022BF9D113680B600023181C10BD47
:1055D0002802002000000813000008119C23C901C4
:1055E0005B051843C9B201707047942349015B05FC
:1055F0001843C9B20170704770B506680C1C301CA6
:105600002049FAF7C1FF1F49051C301CFBF742F87F
:105610000E1C081CE1210901FAF7B6FFE121E08028
:105620000901301CFBF736F80E1C081C3C21FAF768
:10563000ABFF3C212081301CFBF72CF86E22124B73
:10564000A1722380FF32238895420BD9AD1A032221
:1056500001339BB22380B72113405A1E9341490066
:10566000CA1AF0E709499B0700D109490123CA5C1E
:10567000954201D8638003E00133AD1A0D2BF6D1BA
:10568000A58070BD80510100B2070000E77D0000D9
:10569000DA7D000030B5114A0188031C8A18002009
:1056A000812A19D85A88541E0B2C15D89C88651E3F
:1056B0001E2D11D8DD88172D0ED81D893B2D0BD836
:1056C0009B7A3B2B08D88B0701D0054B00E0054B9C
:1056D0009B5CA3424041C0B230BDC0464EF8FFFFC4
:1056E000E77D0000DA7D000070B5124A83880488E7
:1056F0009A186E23FF3363434588D318A2089B187A
:105700000D4A6E00B25A9B18A20702D1022D00D892
:10571000013B0B60E1233C22C4881B015C430389ED
:105720005343827AE3189A180868044B4343D3180A
:105730000B6070BD4A05F5FFC07D0000805101007F
:10574000084B1A6880231B029A4209D1A02310300B
:105750005B0518430368002B02D10133FF3303605C
:105760007047C04628020020021C802110B500238B
:105770000124490510320A431460136090224360EB
:10578000520504601C300243136088225205024314
:10579000136084225205024308431360036010BD66
:1057A000031C902214335205134300221A604260F6
:1057B000103201601A60704703680B607047000088
:1057C000114B820070B5D5588022104B92051A609B
:1057D000041C281CFFF7C8FF281CFFF7B1FF01209D
:1057E0001F22011C0A4B0B4E1B5D345D1340994078
:1057F0002240C0250B1C904007496D004B51485179
:105800000B60086070BDC046F87D00003C80845E7F
:10581000F57D0000F47D000000E100E0F7B5002711
:10582000114B8000C658081C0D1C0197FFF732FF72
:10583000041EBC4216D001A9281CFFF755FF381CD6
:10584000FEF77AFF011C80200002814206D0FAF7A1
:105850009BFE011C0198FAF797FE0190301C0199FC
:10586000FFF79EFF201CFEBDF87D0000F7B5002568
:10587000124B8000C4580E1C201C01A90195FFF793
:105880009BFF281CFEF758FF051C80200002854264
:105890000ED00B4B291C04341C43FAF775FE276805
:1058A000019C291C4443B8B2FAF76EFE20180190FF
:1058B000311C01A8FFF7A0FEF7BDC046F87D00002F
:1058C00000007810F0B50026184B800085B0C45851
:1058D000081C0F1C01920396FFF7DCFE051EB54263
:1058E00001D100251EE0381C03A9FFF7FDFE301C86
:1058F0002768FEF721FF011C80200002814206D0AC
:10590000FAF742FE011C0398FAF73EFE0390039B50
:10591000BB42E6D3A36088231C345B051C43019B78
:105920009B002360281C05B0F0BDC046F87D000038
:105930008822044B8000C35852051C33134389004E
:1059400019607047F87D00008822054B8000C3581D
:105950005205143313431868431E9841C0B2704770
:10596000F87D00006B46E0221B78D2021B04134036
:1059700009071943014BC01801607047441000002B
:1059800008B5084B8200D3589022033352051343C5
:105990001B78002B02D000F015F901E000F07AF935
:1059A00008BDC046007E000008B50C4B8000C25800
:1059B0000B4B0021C3589C20033340051843117141
:1059C00001709420400503431970137F8B4203D06C
:1059D0002032101CFEF767FC08BDC04630020020D4
:1059E000007E0000F7B5061C1C4B30220C1C870003
:1059F000081C0021FD5800F0DCFB301CFEF7A8FE5F
:105A0000FEF75AFE2060281C00F0E1FA201C00215D
:105A10002030FEF741FCEB1C01939023019A5B05BB
:105A200013431022281C1A70032100F010FB281CBD
:105A3000002100F032FB0A4BFC500A4B9A5D1F23F9
:105A4000134001229A40131C074A13609823019ABD
:105A50005B05134340221A70F7BDC046007E00006C
:105A600030020020FC7D000000E100E0F8B50D4EA2
:105A700084000D4BA759051CE05800F0A8FA381C0B
:105A80002030FEF720FC094B281C5A5D1F231340D1
:105A900001229A40131C064AD367FEF75EFE0023DC
:105AA000A351F8BD30020020007E0000FC7D000004
:105AB00004E100E00A4B800070B5C658094B0C1C8D
:105AC000C358151C301C1A68096800F087FA286052
:105AD0002179301C6279A37900F0CCFA70BDC04600
:105AE000007E000030020020F7B51E4A83009C585B
:105AF0001D4A9E5822790423002A31D1071C00290F
:105B000002D001AAFFF7D6FF982300214020F21C03
:105B10005B0513431970187025698D4203D1381C39
:105B2000FFF742FF1BE00123237194235B053343FE
:105B3000A16119780723002912D0A368191E02D089
:105B400019780133A360B1712369013B2361A36913
:105B50000133A3619C235B051A4380231370002348
:105B6000181CFEBD30020020007E0000F8B5134F67
:105B7000134C85002C59ED590127069E2777A2600A
:105B80002661E3606661FFF7AFFF061E14D1201C9B
:105B900007992030FEF7CAFB0328F8D000280BD065
:105BA0009C210022EB1C4905194322710A709421A3
:105BB000032649050B431A70301CF8BD007E000017
:105BC0003002002010B51E4B8200D3581D49515899
:105BD0001A79002A32D05A69002A11D09C22520523
:105BE0000A431278002A0BD08A79DC68D2B2002CE2
:105BF00003D02270DA680132DA605A69013A5A61D8
:105C00001A69002A12D0942252050A431278002AF7
:105C10000CD09A68141E02D0147801329A608C71EC
:105C20001A69013A1A619A6901329A611A69002A5D
:105C300004D15B69002B01D1FFF7B6FE10BDC04651
:105C400030020020007E0000104A800081580022AF
:105C500008B50F4B0331C358581CC2779C20400530
:105C60000843DA621A701A835A629A621A630270DF
:105C70009420400501430A701A1C38321278002A19
:105C800003D0181D0121FEF720FB08BD007E000097
:105C90003002002038B5254B8200D3582449525891
:105CA000591CC97F00293FD0D96A002916DB9421ED
:105CB000490511430978002910D0596A1C7F002931
:105CC00005D0DD6A002D02DD0C7801315962947136
:105CD000D96A0139D962596B01315963D96A0029EE
:105CE00005DA9424D11C6405214300240C70196B3F
:105CF000002911DD9C2149051143097800290BD0A9
:105D00009279996AD2B2002903D00A709A6A013254
:105D10009A621A6B013A1A63DA6A002A04DC1B6B76
:105D2000002B01DCFFF790FF38BDC0463002002099
:105D3000007E0000012903D0032909D1842300E05B
:105D400094235B0518430078431E9841C0B200E0DD
:105D500000207047034B013049011843C9B201705C
:105D60007047C04600008812942302305B05490149
:105D70001843C9B201707047034B023089011843C0
:105D8000C9B201707047C046000008138C2302306E
:105D90005B05C9001843C9B201707047F7B5384EAA
:105DA000C21C164337780B78FFB20122072B65D847
:105DB000041C181C0D1CFAF7DDFB04192A0D192A06
:105DC0002A3A00232F480134044323703378012BEF
:105DD000FCD152E00322012F50D140232948013445
:105DE000044323703378042BFCD146E00021012BBF
:105DF00001D0042302213078032298423ED1201C96
:105E0000FFF7A8FF0421204A13698B4333E00227E0
:105E1000BB4207D100270B79BB4203D04979201C34
