S02B00002F686F6D652F646A623234332F4357342F576172702D6669726D776172652F6275696C642F6B736404
S113000000060020310500005905000059050000D4
S113001000000000000000000000000000000000DC
S1130020000000000000000000000000590500006E
S11300300000000000000000590500005905000000
S11300405905000059050000590500005905000034
S11300505905000059050000590500005905000024
S113006031380000590500003B38000059050000F4
S11300705905000059050000590500005905000004
S113008059050000590500005905000059050000F4
S1130090E5080000FD0800005905000059050000AE
S11300A059050000590500005905000059050000D4
S11300B059050000590500005905000059050000C4
S1130400FFFFFFFFFFFFFFFFFFFFFFFFFE3DFFFFBB
S113041008B5054B054803331B1A062B03D9044BB7
S1130420002B00D0984708BDB4FFFF1FB4FFFF1F87
S1130430000000000648074908B5091A8910CB0FC7
S11304405918491003D0044B002B00D0984708BD1D
S1130450B4FFFF1FB4FFFF1F0000000010B5074CDE
S11304602378002B09D1FFF7D3FF054B002B02D0D3
S1130470044800E000BF0123237010BDB4FFFF1F38
S1130480000000000475000008B5094B002B03D0E0
S11304900848094900E000BF08480368002B02D15E
S11304A0FFF7C8FF08BD064B002BF9D09847F7E7C4
S11304B00000000004750000B8FFFF1FB0FFFF1F1D
S11304C000000000144B002B00D1124B9D4640222B
S11304D092029A1A924600218B460F461148124AFC
S11304E0121A05F0BCF90D4B002B00D098470C4BA9
S11304F0002B00D098470020002104000D000B4879
S113050005F031F905F068F92000290000F0BCFE7F
S113051005F038F900000800000600200000000083
S113052000000000B4FFFF1FD0020020B1570000FC
S113053072B606480649074A02600A6003F082F967
S113054003F0C2F962B6FFF7BDFF000080E100E0EE
S113055080E200E0FFFFFFFF00480047590500006C
S113056002B4714649084900095649008E4402BC48
S11305707047C04602B4714649084900095C490005
S11305808E4402BC7047C046002243088B4274D399
S113059003098B425FD3030A8B4244D3030B8B4280
S11305A028D3030C8B420DD3FF22090212BA030C89
S11305B08B4202D31212090265D0030B8B4219D36A
S11305C000E0090AC30B8B4201D3CB03C01A52418A
S11305D0830B8B4201D38B03C01A5241430B8B42D2
S11305E001D34B03C01A5241030B8B4201D30B03BB
S11305F0C01A5241C30A8B4201D3CB02C01A5241E2
S1130600830A8B4201D38B02C01A5241430A8B42A4
S113061001D34B02C01A5241030A8B4201D30B028D
S1130620C01A5241CDD2C3098B4201D3CB01C01AA7
S1130630524183098B4201D38B01C01A52414309B1
S11306408B4201D34B01C01A524103098B4201D39F
S11306500B01C01A5241C3088B4201D3CB00C01A0C
S1130660524183088B4201D38B00C01A5241430884
S11306708B4201D34B00C01A5241411A00D20146A9
S1130680524110467047FFE701B5002000F0FCF826
S113069002BDC0460029F7D003B5FFF775FF0EBCB5
S11306A04243891A1847C04603460B437FD40022AD
S11306B043088B4274D303098B425FD3030A8B42F2
S11306C044D3030B8B4228D3030C8B420DD3FF225C
S11306D0090212BA030C8B4202D31212090265D02A
S11306E0030B8B4219D300E0090AC30B8B4201D3DD
S11306F0CB03C01A5241830B8B4201D38B03C01A24
S11307005241430B8B4201D34B03C01A5241030B9A
S11307108B4201D30B03C01A5241C30A8B4201D34B
S1130720CB02C01A5241830A8B4201D38B02C01AF6
S11307305241430A8B4201D34B02C01A5241030A6D
S11307408B4201D30B02C01A5241CDD2C3098B4252
S113075001D3CB01C01A524183098B4201D38B01CF
S1130760C01A524143098B4201D34B01C01A524172
S113077003098B4201D30B01C01A5241C3088B42B7
S113078001D3CB00C01A524183088B4201D38B00A2
S1130790C01A524143088B4201D34B00C01A524144
S11307A0411A00D201465241104670475DE0CA0F1B
S11307B000D04942031000D34042534000229C46DB
S11307C003098B422DD3030A8B4212D3FC228901E5
S11307D012BA030A8B420CD3890192118B4208D3BB
S11307E0890192118B4204D389013AD0921100E01D
S11307F08909C3098B4201D3CB01C01A5241830931
S11308008B4201D38B01C01A524143098B4201D35D
S11308104B01C01A524103098B4201D30B01C01A88
S11308205241C3088B4201D3CB00C01A5241830802
S11308308B4201D38B00C01A5241D9D243088B4258
S113084001D34B00C01A5241411A00D201466346FB
S113085052415B10104601D34042002B00D549425F
S1130860704763465B1000D3404201B5002000F09E
S11308700BF802BD0029F8D003B5FFF715FF0EBC35
S11308804243891A1847C0467047C04608B50A4B08
S11308901A68002A01D1094A1A601A68084910180E
S11308A0884206D904F068FF0C230360012040420B
S11308B001E01860101C08BDD0FFFF1FD00200200B
S11308C0D002002002238078834280414042704756
S11308D0437A0020013B012B03D901200B7801331B
S11308E00B70704708B5002004F084FB002803D087
S11308F00020011C04F072FB08BD0000024A1368CA
S1130900013313607047C0462000002037B5002033
S113091003F074FAC02300250D4A9B0013600D4AAE
S11309200D4C13600D4A281C13600D4B2571657125
S1130930A5711A68FA239B0053430A49236004F003
S1130940A7FB281C211C01AA04F00AFC37BDC046E1
S1130950189014541C9014541800002000A014542F
S113096014FEFF1F2400002010B58024002004F092
S1130970D3FB0A4B64001C60094B07201C60094B25
S11309801C6003F0D5FC062003F0D2FC201C03F00D
S1130990CFFC002003F037FA10BDC0461890145461
S11309A01C90145400A0145408B5002003F030FA2D
S11309B08023054A9B001360044A00201360044905
S11309C003F096FD08BDC0460CA0145410A01454A6
S11309D0D4FFFF1F08B5002003F0C6FD802382204A
S11309E0074A5B001360074A4000136003F0A0FC51
S11309F00420FF3003F09CFC002003F00EFA08BD35
S1130A000CA0145410A0145408B50023354A3649D8
S1130A101360364A1360364A0133FF331360354A94
S1130A201360354A1360354A1360354A1360354AFA
S1130A301360354A1360012208780240081C3349C8
S1130A40002A01D00B6000E00A60314A314913608A
S1130A5000220A6030490A60304A1360304A136049
S1130A60304A1360304A1360304A1360304A1360CE
S1130A700378DB0703D50220FF3003F04BFC092089
S1130A8003F056FC0C2003F053FC052003F050FC4B
S1130A90082003F04DFC0620FF3003F049FC0E2033
S1130AA0FF3003F045FC8320400003F041FC0820A4
S1130AB0FF3003F03DFC0C20FF3003F02BFC8220C0
S1130AC0400003F035FC0420FF3003F031FC072024
S1130AD003F02EFC062003F02BFC8020400003F0E2
S1130AE027FC08BD0C9014540CFEFF1F10901454E6
S1130AF014901454189014541C90145420901454AA
S1130B00249014543090145400A0145404A0145489
S1130B1008A014540CA0145410A0145414A0145479
S1130B2018A014541CA0145428A014542CA0145419
S1130B3034A0145408B5092003F0FAFB08BD08B525
S1130B400C2003F0F5FB08BD08B5384B984259D08A
S1130B5013D8374B984243D007D8364B984230D0FD
S1130B606433984238D0C83B12E0334B98423ED0AD
S1130B706433984242D0314B15E0314B98422FD028
S1130B800CD8304B98421CD06433984224D02E4B5E
S1130B90984242D1052003F0CBFB15E02B4B984241
S1130BA025D006D82A4B984237D1052003F0C0FB44
S1130BB020E0C8231B01984220D0264B984221D024
S1130BC02BE0052003F0A6FB082003F0B1FB062070
S1130BD0FF3003F0ADFB24E0052003F0A9FB02E0A5
S1130BE0052003F097FB082003F094FBEFE70520B2
S1130BF003F090FB082003F09BFB09E0052003F0C1
S1130C0097FB02E0052003F085FB082003F082FB3C
S1130C100620FF3003F07EFB03E000200E4902F0C3
S1130C20FBFD0E4B186802F013FF08BDC409000059
S1130C30340800006C070000FC080000980800005D
S1130C40540B00008C0A0000280A00001C0C000051
S1130C50B80B0000E40C0000A45B000008FEFF1FBA
S1130C6008B5FFF771FF092003F054FB0C2003F0D3
S1130C705FFB8320400003F05BFB08BD08B5FFF772
S1130C8063FF092003F054FB0C2003F043FB832093
S1130C90400003F03FFB08BDAF2108B50B4B021C1D
S1130CA0C3189BB289008B4202D8FFF7D9FF0BE02F
S1130CB0074BC3189BB28B4202D8FFF7DFFF03E058
S1130CC00020044902F0A8FD08BDC046F8F8FFFF63
S1130CD0D8F5FFFFD15B000008B5FFF72BFFFFF746
S1130CE02EFF8320400003F015FB024B186802F02E
S1130CF0AFFE08BD08FEFF1F10B5041C002901D07B
S1130D00FFF782FE0021022001F006FB211C0420D3
S1130D1001F002FB10BD08B501200021FFF7ECFF34
S1130D203C200121FFF7E8FFF6E70000F0B585B0AD
S1130D300391041C161C00209AB2012101F0ACFBA3
S1130D40071C002C1CD01C49002002F055FB1B4C36
S1130D50206802F07DFE1A49002002F04DFB206855
S1130D6002F076FE1749002002F046FB206802F0EC
S1130D706FFE0020144902F03FFB206802F068FE79
S1130D800025124C124923686268002000922A1C34
S1130D9002F042FD039801F0C1FB22680020636861
S1130DA00C49009702F038FD002E02DD301C02F0E1
S1130DB04FFE0135E5E7C046095C000000FEFF1F59
S1130DC0315C0000535C0000B46C000000D00340B0
S1130DD0785C0000845C0000F0B591B01D1C16AB7B
S1130DE00C91197817AB05921A7818AB1B78041C70
S1130DF00D931CAB1B780EA80E931DAB1B88089398
S1130E0021231B18DB7F09931FAB1B880F9320AB97
S1130E101B780A930B1C914200D9131CDFB2059B6B
S1130E20002D02D1002B06D101E0002B03D00020BD
S1130E30544902F0F1FC0898FFF72EFF211C002012
S1130E4002F0DAFA0023089C0293039307930493B5
S1130E5000230693069A199B93426BDB00261A9B88
S1130E609E4264DABB190B932C226B469B181878AC
S1130E7001210C9B9847002838D1049B013304932B
S1130E80089B9C4204D9643CA4B2201CFFF704FFD5
S1130E90002D16D0099A6B7BD31A5A425341039AF8
S1130EA0D31803930A9B002B39D0EB7A287B697BF8
S1130EB000900191DBB2F2193349002002F0ACFC3E
S1130EC02DE0059B099A1B7AD31A5A425341039A7F
S1130ED0D31803930A9B002B21D0059BF2191B7A8C
S1130EE0281CDBB2294902F097FC18E0022810D133
S1130EF0002027490B9A02F08FFC079B01330793CC
S1130F000F9B9C420BD26434A4B2201CFFF7C4FE96
S1130F1005E0033843425841029B1B1802931B9B74
S1130F20002B02DD181C02F093FD013697E7069BA7
S1130F3001338EE70E9B002B04D07B1CDFB20D9B8C
S1130F409F4285D9049A079B944612496344002022
S1130F5002F062FC322002F07BFD099B039A0093AD
S1130F600D49049B002002F057FC322002F070FD72
S1130F700A49029A002002F04FFC322002F068FD78
S1130F8011B0F0BDA45B0000915C0000B65C0000F1
S1130F90CB5C0000DE5C0000F65C0000275D000016
S1130FA0F0B591B00D9316AB0F1C02CB041C1B784B
S1130FB00E931AAB1B880F931BAB1D881CAB1E78BA
S1130FC0002811D0101CFFF7EFFC601E132877D8FF
S1130FD0FFF7D0FA0E45484B4E765154575A5D6090
S1130FE0636966766C6F7625394902F005FA6DE01F
S1130FF0312200230292199A00970392169A0193C0
S11310000492189A089605920D9A099506920F9AD9
S1131010304807920E9A30490A92304A1CE0A021C7
S11310208022C9011202052002F046F8052200239D
S11310300292199A2A480392169A2A490492189AF3
S1131040009705920D9A019306920F9A08960792BB
S11310500E9A09950A92244AFFF7BEFE2DE000205D
S1131060224928E00020224925E00020214922E0ED
S1131070002021491FE0002020491CE000202049D5
S113108019E000201F4916E000201F4913E000204A
S11310901E4910E000201E490DE000201D490AE011
S11310A000201D4907E000201C4904E000201C49E1
S11310B001E000201B4902F09FF9FFF78BFC05E0DB
S11310C01949221C002002F0A7FBF6E711B0F0BD7D
S11310D03C5D0000685D0000B924000008000020A9
S11310E0765D00000D310000F8FFFF1F825D0000F7
S11310F0AD5D0000DE5D00000E5E00003E5E00009F
S11311006B5E0000985E0000C45E0000F25E0000AA
S11311101E5F00004B5F0000775F0000A35F0000CC
S1131120D05F0000FC5F000028600000031C303B1F
S1131130021C181E09280CD9131C613B052B01D86D
S1131140573A05E0131C413B0020052B01D8373AE0
S1131150101C704770B502F06AF9051C02F067F9BB
S1131160FF24061C281C2040FFF7E0FF051C301C50
S11311702040FFF7DBFF2D012818C0B270BD70B509
S113118002F055F9041C02F052F9061C02F04FF962
S1131190051C02F04CF9FF23FA221C401D4092006A
S11311A0303C544364212A1C1E40303E4E43303AA6
S11311B05A394A43A4190340A218303BD01870BDD1
S11311C070B50C1C161C88B00CAA157806A90880EA
S11311D00A4A05A805700A4D12682D684A6004AAD7
S11311E01670009001930295231C002003F0E2FA8C
S11311F0431E9841400008B070BDC04610FEFF1F5A
S113120018FEFF1FF7B56A46CB1DDB08DB00D31AB7
S113121002AF9D46051C0C1CFFF778FBFA23002047
S113122002AE9B002A1C00940193011C331C03F0A2
S1131230F3FF041CFFF798FB201CBD46441EA0418D
S11312408000F2BD08B50020014902F0D5F808BDC0
S11312507A60000010B5094C0020211C02F0CCF883
S1131260211C002002F0C8F80549002002F0C4F84F
S11312700449002002F0C0F810BDC046A66000007A
S1131280D66000000761000028225423F0B5BBB0EB
S113129008AFBA18D41800210722201C04F0DFFA82
S11312A028227C23BA18D5182822683BBA18D318E8
S11312B0A422BA18136028221C23BA18D31828228F
S11312C06B602423BA18D3182822EB602C23BA1895
S11312D0D31828222B613423BA18D31828226B611F
S11312E03C23BA18D3182822AB614423BA18D31864
S11312F02822EB614C23BA18D31828222B627023BE
S11313009821BA18D318FA4A79180A6003221A7174
S11313102C220126BA1800209A60BB632670AC60A8
S113132002F064FD301C02F061FD8022F14B1202D8
S11313301A6002F0ABFB00200096021C031C011C87
S113134002F07CF8EC49002002F056F8C82002F0C4
S11313507FFBEA49002002F04FF8C82002F078FB36
S1131360E749002002F048F8C82002F071FBE54A82
S1131370331C0221E44802F0ADFB311C301C02F0A6
S1131380B5FB002003F072FD28226423BA18D1189B
S1131390FC23DB000B800023CB8000230B81002384
S11313A000208B724E808E8003F08EFD2C23002152
S11313B0F818321C04F053FA5021FB6F7918FB64BF
S11313C0A28828200A802A21A279381841180A7094
S11313D0242203218218117058217B65A288791870
S11313E028200A803221A2793818411828200A704E
S11313F02C210522381841180A704021FB63A28869
S113140079180A804221A27979180A703C210222B3
S113141079180A7048217B64A288791828200A80E8
S11314202221A279381841180A704421042279181B
S11314300A706021FB65A288791828200A803A2165
S1131440A2793818411828200A7034210822381843
S1131450411828200A7040217B66A2883818411858
S113146028200A804221A2793818411828200A70BD
S11314703C22092138188218282011704822FB6662
S1131480A38838188218282013804A22A379381890
S113149082182820137044220A23381882181370E3
S11314A000224233C3181A7028221023BA18D21803
S11314B0281C331C02F0FAFC0021022000F02CFF4F
S11314C09249934802F00AFFFFF79EFA0820FF3082
S11314D002F020FFC82002F0BBFA0820FF3002F01F
S11314E027FFC82002F0B4FA0820FF3002F012FFF0
S11314F0C82002F0ADFA0820FF3002F019FFC8201E
S113150002F0A6FA0820FF3002F004FFC82002F01F
S11315109FFA0820FF3002F00BFF1D207D4900F0E8
S113152093FF40207C4901F0C1FDFFF7D5FB01F09A
S113153011FD00233B62FB6180231B027B620023BD
S11315407B610333BB617549002001F055FF744C86
S1131550744E206802F07CFA7349002001F04CFFBD
S1131560206802F075FA71493A6AFB69002002F0BA
S113157053F9206802F06CFA6D4B6E4D6E491A688F
S11315802B68096800200091796A01916B4902F087
S113159043F9206802F05CFA694B6A4A0020D25889
S11315A0736931680091684902F036F9206802F0E5
S11315B04FFA664B65491A785B788979D2B2DBB207
S11315C000910020624902F027F9206802F040FAF5
S11315D05E4B60491A7A1B7E0978D2B2DBB2009165
S11315E000205D4902F018F9206802F031FA5B4BE3
S11315F05B491A785B780969D2B2DBB200910020AA
S1131600584902F009F9206802F022FA564B4D4974
S11316109A78564BD2B2CB58716800200091544945
S113162002F0FAF8206802F013FA524B52491A6891
S11316302C23FB181B78002002F0EEF8206802F03F
S113164007FA4E49002001F0D7FE206802F000FAA4
S11316504B49002001F0D0FE206802F0F9F9494915
S1131660002001F0C9FE206802F0F2F9464900208A
S113167001F0C2FE206802F0EBF94449002001F0B9
S1131680BBFE206802F0E4F94149002001F0B4FEF9
S1131690206802F0DDF93F49002001F0ADFE20682A
S11316A002F0D6F93C49002001F0A6FE206802F0C1
S11316B0CFF93A49002001F09FFE206802F0C8F9F2
S11316C03749002001F098FE206802F0C1F9FA6958
S11316D0BB693449002002F09FF8206802F0B8F991
S11316E03149002001F088FE206802F0B1F95DE084
S11316F0D108000028020020396100005461000074
S11317005A61000028FEFF1F34FFFF1F44FEFF1F25
S113171034FEFF1F08000020F8FFFF1F6161000076
S113172000FEFF1F00D0034085610000B761000088
S113173010FEFF1F14FEFF1F04FEFF1FEB610000DD
S11317403C1000000070044023620000004006408A
S113175059620000005006408862000000E0074023
S113176000ED00E0B862000000D007403410000033
S1131770F2620000200000202A6300005863000089
S1131780626300007F6300009B630000B763000096
S1131790D4630000FB6300001A6400003964000095
S11317A06464000087640000B6640000C949002036
S11317B001F022FE206802F04BF9C749002001F035
S11317C01BFE206802F044F9C449002001F014FE15
S11317D0206802F03DF9C249002001F00DFE2068A6
S11317E002F036F9BF49002001F006FE206802F03D
S11317F02FF9BD49002001F0FFFD206802F028F90F
S1131800BA49002001F0F8FD206802F021F9B84936
S1131810002001F0F1FD206802F01AF9B54900201A
S113182001F0EAFD206802F013F9B349002001F049
S1131830E3FD206802F00CF9B049002001F0DCFD62
S1131840206802F005F9AE49002001F0D5FD2068BA
S113185002F0FEF8AB49002001F0CEFD206802F052
S1131860F7F8A949002001F0C7FD206802F0F0F85C
S1131870A649002001F0C0FD206802F0E9F8A4495F
S1131880002001F0B9FD206802F0E2F8A14900202F
S113189001F0B2FD206802F0DBF89F49002001F05E
S11318A0ABFD206802F0D4F801F0C1FDFF22061C54
S11318B00240672A00D15DE200DDDAE0362A01D178
S11318C000F05FFC00DDA2E0322A00D1DAE300DDA3
S11318D089E00A2A01D100F0C3FC312A01D000F0CA
S11318E0C5FC8E49002001F087FD786AFFF75CF89B
S11318F00221002001F00AFC894C8A4D227A617A87
S1131900237A607A120200900020521892B2DBB25D
S11319100192291C021C01F07FFF0221012001F029
S1131920F5FB227A617A1202237A5218607A92B213
S1131930DBB200900192291C0122002001F06CFF0F
S11319400220011C01F0E2FB227A617A1202237A5E
S11319505218607A92B2DBB200900192291C0222E2
S1131960002001F059FF0221032001F0CFFB227A6D
S1131970617A1202237A5218607A92B2DBB2009032
S11319800192291C0322002001F046FF02210420B9
S113199001F0BCFB207A637A0002267AC018637ACD
S11319A080B2009301900A21FEF7EEFDF6B280B2F8
S11319B0331C029004225C49002001F02DFF022117
S11319C0052001F0A3FB227A617A1202237A5218CD
S11319D0607A92B200900192DBB2291C05220020A9
S11319E001F01AFFAFE5342A00D196E300DDAEE33F
S11319F0786AFEF7D9FF01217A6A2A2000F029FDCE
S1131A0000204A4901F008FF494B3B614CE3632A3B
S1131A1000D147E11BDC612A00D197E000DD2DE114
S1131A20392A01D000F022FCFA244249002001F0B6
S1131A30E3FC786AFEF7B8FF01217A6A2A2000F0F5
S1131A4008FD00203C4901F0E7FEA400B5E3652A47
S1131A5000D138E100DD41E13849002001F0CCFC3F
S1131A60FFF78DFB364B374918601A68002000F0E9
S1131A70FFFB6F2A00D143E214DC6B2A00D1EAE1B8
S1131A800CDC692A00D181E100DD8BE12E490020C4
S1131A9001F0B2FC0120FFF7DDFB54E56D2A00DD07
S1131AA029E2DEE1742A00D14DE509DC722A00D175
S1131AB09AE200DD9EE20220702A00D195E2D5E38D
S1131AC0782A00D1ADE27A2A00D1B4E2752A00D096
S1131AD0CCE397E2D2640000F66400001A650000CB
S1131AE0346500004F6500006D6500008A650000E4
S1131AF0A9650000C8650000E26500000D660000ED
S1131B002D6600004D6600006A660000A6660000AF
S1131B10BD660000D4660000F36600002572000074
S1131B20F8FFFF1F43720000637200009A72000006
S1131B308813000000730000D1720000206C0000C4
S1131B4004FEFF1F4F6C0000BE6D0000EE49002034
S1131B5001F052FCED49002001F04EFC206801F038
S1131B6077FFEB49002001F047FCEA49002001F02F
S1131B7043FCE949002001F03FFC206801F068FFC4
S1131B80E649002001F038FC206801F061FFE449D7
S1131B90002001F031FC206801F05AFFE1490020E7
S1131BA001F02AFC206801F053FFDF49002001F016
S1131BB023FC206801F04CFFDC49002001F01CFCF0
S1131BC0206801F045FFDA49002001F015FC206887
S1131BD001F03EFFD749002001F00EFC206801F01F
S1131BE037FFD549002001F007FC206801F030FFE1
S1131BF0D249002001F000FC206801F029FFD049FF
S1131C00002001F0F9FB206801F022FFCD490020FB
S1131C1001F0F2FB206801F01BFFCB49002001F02A
S1131C20EBFB206801F014FFC849002001F0E4FB3D
S1131C30206801F00DFFC649002001F0DDFBC54915
S1131C40002001F0D9FB206801F002FFC249002006
S1131C5001F0D2FB206801F0FBFE01F0E8FBFF225B
S1131C600240352A03D1BD4B7B6101236AE46D2A0E
S1131C7000D0FBE2BA4B7B61142363E4B949002032
S1131C8001F0BAFBFFF77BFAB74B18601A68B74B41
S1131C909A4202D1B64BB44A1360B34B00201A687F
S1131CA0B449E5E2B449002001F0A6FBFFF767FA66
S1131CB028602A68AD4B9A4201D1AD4B2B602A684B
S1131CC00020AE49D4E2AE49002001F095FBFFF7B5
S1131CD041FAF861AB490020FA69C9E2AA49002037
S1131CE001F08AFBFFF736FA051CA84C2A1C211CBC
S1131CF0002001F091FDA649002001F07DFBFFF7D3
S1131D0029FA282108237918CE18021C3070211CC6
S1131D10002001F081FD992D02D100209D49A1E20E
S1131D2028225C23BA18D4188F4B386A1B68258084
S1131D306360FEF7B1FF786AFEF736FE34223B7F1C
S1131D40BA181370944B211C1A6828240123029298
S1131D500C223C19A21800960193002002F02AFDDF
S1131D60021E03D000208D4901F056FDFEF732FE1D
S1131D70FFF7E9FB8A49002001F03EFBFFF7FFF97A
S1131D8083B23B621A1C0020864971E28649002016
S1131D9001F032FBFFF7F3F983B27B621A1C0020D7
S1131DA0824965E2FA698249002001F035FD01F0BB
S1131DB03EFB8049041C002001F01EFB01F037FBB0
S1131DC07D493861002001F017FB01F030FB7B49AD
S1131DD0F860002001F010FBFFF7D1F97849061CE8
S1131DE0002001F009FBFFF7CAF97649051C002021
S1131DF001F002FBFFF7C3F97349B860002001F05A
S1131E00FBFAFFF7A7F9786000957B6A02960193C5
S1131E106E49BA69FB69002001F0FEFC231C303BCB
S1131E201C1C3A69631E9C41303A0092FA6802967F
S1131E30303A511E8A41039501923A6AE3B2049200
S1131E403A8905927A680692B869F9697A6AFFF75D
S1131E50A7F8FFF778FB5E49002001F0CDFAFEF702
S1131E605AFF5C49002001F0C7FA5B49002001F0E9
S1131E70C3FAFFF76FF928225C23BA18D518287023
S1131E805649002001F0B8FAFFF779F9F6B2041CBC
S1131E902B786C2E1AD17A6A002000923A6A504943
S1131EA00192221C01F0B8FC0025A54201DBFFF7DA
S1131EB04AFB28225C23BA18D3181A780023FF207F
S1131EC000930121FFF77CF90135EEE73A6A00201F
S1131ED000924449221C01F09FFC0025A54201DB2D
S1131EE0FFF731FB28225C23BA18D0180121FFF731
S1131EF089F90135F2E7386AFEF7CEFEFFF723FBD6
S1131F00FEF7EAFEFFF71FFB0667000011670000FB
S1131F104F67000091670000D2670000126800005C
S1131F20426800007F680000BE680000FC68000092
S1131F303969000077690000B4690000F3690000A2
S1131F40306A0000596A0000966A0000CD6A0000F9
S1131F500A6B0000476B00005A6B00000800002069
S1131F60F8FFFF1F8A6B000010FEFF1F0F27000001
S1131F7010270000B86B0000D86B0000066C00004E
S1131F806A6C0000A06C0000B76C0000EA6C0000F2
S1131F90006D0000296D000018FEFF1F4F6D00004A
S1131FA0706D00009C6D0000EC6D0000286E000058
S1131FB0456E00007F6E0000A86E0000C16E000038
S1131FC0006F00002C6F0000646F0000956F00002C
S1131FD0D26F0000BE6D0000F56F000014700000A9
S1131FE034700000867000000820002100F094F98D
S1131FF0FFF7A9FAA049002001F0FEF9FFF722F942
S1132000FFF7A1FA7B6900209C49002B00D129E14C
S11320109B4901F0F1F9FFF79DF87B691870FFF710
S113202092FA9849002001F0E7F9974801F010FD71
S11320300020964916E19649002001F0DDF9786AFE
S1132040FEF7B2FC9349002001F0D6F901F0EFF954
S11320509149051C002001F0CFF9FFF790F886B2F2
S11320608E49321C002001F0D7FB206801F0F0FCFF
S1132070E9B268394D4269410120C9B2321C7B6A18
S1132080FEF754FE0020864901F0C6FB00236C468F
S1132090C2B008A89A0083500133402BFAD100F053
S11320A041FFA546FFF74FFA80260221012000F0E8
S11320B003FA7C4DB6012B7A6A7A9B0192081A4383
S11320C0794B7240D21893B202210320FB6000F0D6
S11320D0F3F92A7A6C7A9201A4081443724B74407F
S11320E002210520E41800F0E7F92A7A6B7A9201BC
S11320F09B0813436C495E407618A4B20C23FA5E25
S1132100002023B20096694901F086FB3B69013B3C
S11321103B61002BC8D1FFF716FA6549002001F096
S11321206BF901F084F9FFF701F88423FB181860B8
S113213001F07DF9FEF7FAFF88232822FB181860C6
S11321405C23BA18D01800F0C3FEFFF7FCF9786AD4
S1132150FEF72AFC03217A6A2A2000F07AF9FA248D
S11321600020544901F058FBA4000120022100F092
S1132170A3F94C4B013C1A7A5B7A002CF5D1FFF79A
S1132180E2F900204C4901F047FB0024201C00F038
S1132190F0FF8423FB181860201C00F0E1FF882363
S11321A02822FB1818605C23BA18D018013400F0F8
S11321B08FFE642CEAD1FFF7C6F90221012000F05A
S11321C07BF9384B00201A7A5B7A92019B081343FF
S11321D0802292015340344A38499B181A1C013C0E
S11321E001F01AFB002CE8D1201C3549FA2401F037
S11321F013FBA4000221032000F05EF9294B002008
S11322001A7A5B7A92019B0813438022920153400D
S1132210254A2A499B181A1C013C01F0FDFA002C9E
S1132220E8D1201C2749FA2401F0F6FAA40002217F
S1132230052000F041F91B4B00201A7A5B7A9201C9
S11322409B081343802292015340174A1B499B1851
S11322501A1C013C01F0E0FA002CE8D1FFF773F9F5
S11322600020194901F0C8F8FFF76DF9002017495B
S113227001F0D2FAFFF767F9BE6D0000C4700000E8
S1132280027100003A71000010270000597100002B
S1132290637100007C710000A5710000ED71000005
S11322A08E7200000800002000E0FFFFA972000009
S11322B0B7720000D1720000E77200002B730000B7
S11322C03C73000052730000687300006E6B0000E2
S11322D01FB5041C01A9002002F01EFE01A86946D6
S11322E002F058FD009B68461C1901A9009402F0F5
S11322F0D9FC01A90122002002F03AFE1FBD000012
S11323000022034B1A608022024B1206DA677047E0
S113231000A01C5804E100E010B50A2308286FD877
S11323200C1CFEF727F9051B283C4862646657001D
S113233001F052FF0523012862D0FFF7E1FF201CC2
S1132340FFF7C6FF0020011C01F0D4FD041C00208F
S1132350012101F0CBFB002C4FD150E001F03CFFF8
S1132360062301284CD0FFF7CBFF201CFFF7B0FF5A
S113237001200021E8E701F02FFF082301283FD0C6
S113238001F03CFC002803D00020012101F0AEFB49
S11323900220002101F0AEFD00282ED12FE001F033
S11323A01BFF072300282BD0FFF7AAFF201CFFF7F1
S11323B08FFF032005E0FFF7A3FF201CFFF788FF32
S11323C00420002101F096FD041C01F005FF002803
S11323D0C1D1BDE70820002101F08CFD00280CD1FB
S11323E00120011C01F082FB09E0052002E0062027
S11323F000E00720002101F07DFD092300E0002317
S1132400181C10BD10B50C1C0C4B88B01B7806A909
S11324100B800B4B05AA1B6810700A484B6004AB79
S11324201C7000680093012302900193002002F0C5
S1132430C1F9431E9841400008B010BD08000020B7
S113244010FEFF1F18FEFF1FC223FF3308704B60EE
S1132450704708B518280FD8172818D20F2806D89F
S11324600E2814D2031C093B012B13D80FE0031CC4
S1132470113B042B0ED80AE0212804D81F2806D2C9
S11324801D2807D103E0031C233B0E2B02D8FFF7C2
S1132490B9FF00E0032008BD38B5031C0D1C09205A
S11324A0191CFFF7AFFF291C041C2A20FFF7AAFF01
S11324B00443E0B238BD0000FF2310B588B005AA7C
S11324C01370182804D8092806D206281BD803E05C
S11324D0031C1D3B142B16D80C4B10701C7806AB38
S11324E01C800B4C0B482468006807940A4C01912B
S11324F00290191C00940123002002F068F9431E85
S11325009841400000E0032008B010BD08000020FE
S113251010FEFF1F18FEFF1F1000002038B5022117
S1132520041C0120FFF7C8FF304D2A7A6B7AD2B21F
S1132530DBB2002804D02E49002000F05DFF11E03A
S1132540002C03D02B4901F067F90BE092019B08A2
S11325501343802292015A40274B201CD21827494A
S113256001F05AF902210320FFF7A6FF2A7A697ABB
S1132570D2B2CBB2002804D01D49002000F03CFFA9
S113258011E0002C03D01B4901F046F90BE0920145
S11325909B081343802292015A40174B201CD218E7
S11325A0164901F039F902210520FFF785FF2A7A3F
S11325B0697AD2B2CBB2002804D00D49002000F0D1
S11325C01BFF11E0002C03D00A4901F025F90BE0B0
S11325D092019B081343802292015A40064B201C0F
S11325E0D218064901F018F938BDC0460800002089
S11325F09A730000A173000000E0FFFF7F5C0000FD
S113260037B50E24FF34051C201C01F083FE0A207C
S113261001F01EFA201C01F08BFE0C2001F088FE54
S11326200123084A002015700093FA239B000193AC
S1132630011C054B02F0F0FD051C201C01F06AFE94
S1132640281C3EBD550000205400002008B5002081
S1132650FFF7D6FF3F20FFF7D3FF0020FFF7D0FF9F
S1132660002008BD38B5051C0C1C1535EDB2212021
S1132670FFF7C6FF281CFFF7C3FF201CFFF7C0FFAE
S11326803834281CFFF7BCFFE0B2FFF7B9FFFFF7AF
S1132690DDFF002038BDF8B5061C0C1C351C271CBA
S11326A02120FFF7ADFF2A35301CEDB2FFF7A8FF5C
S11326B0201CFFF7A5FF281CFFF7A2FF201CFFF733
S11326C09FFFFFF7C3FF2120FFF79AFF281CFFF7A6
S11326D097FF1C37201CFFB2FFF792FF281CFFF75F
S11326E08FFF381CFFF78CFFFFF7B0FF2120FFF7A7
S11326F087FF281CFFF784FF381CFFF781FF301C7D
S1132700FFF77EFF381CFFF77BFFFFF79FFF2120B9
S1132710FFF776FF301CFFF773FF3834381CE4B240
S1132720FFF76EFF301CFFF76BFF201CFFF768FFFD
S1132730FFF78CFF2120FFF763FF301CFFF760FFDA
S1132740201CFFF75DFF281CFFF75AFF201CFFF732
S113275057FFFFF77BFF0020F8BDF8B5071C0C1CE2
S11327603D1C261C2120FFF74BFF2A35381CEDB2F7
S1132770FFF746FF201CFFF743FF281CFFF740FF2D
S1132780201CFFF73DFFFFF761FF2120FFF738FF13
S1132790281CFFF735FF3836201CF6B2FFF730FF50
S11327A0281CFFF72DFF301CFFF72AFFFFF74EFF11
S11327B02120FFF725FF281CFFF722FF301CFFF71D
S11327C01FFF381CFFF71CFF301CFFF719FF1C34D8
S11327D0FFF73CFF2120FFF713FFE4B2381CFFF79B
S11327E00FFF201CFFF70CFF281CFFF709FF201C1C
S11327F0FFF706FFFFF72AFF0020F8BD70B50D1C98
S1132800041C2E1C2120FFF7FBFE201CFFF7F8FE02
S11328102A36281CF6B2FFF7F3FE201CFFF7F0FE61
S1132820301CFFF7EDFEFFF711FF2120FFF7E8FE54
S1132830201CFFF7E5FE301CFFF7E2FE201C2A30C7
S1132840C0B2FFF7DDFE1534301CE4B2FFF7D8FE4A
S1132850FFF7FCFE2120FFF7D3FE201CFFF7D0FE7C
S1132860281C1C30C0B2FFF7CBFE3835201CFFF704
S1132870C7FEE8B2FFF7C4FEFFF7E8FE002070BD14
S1132880F8B5061C0C1C351C271C2A35EDB221207A
S1132890FFF7B6FE281CFFF7B3FE201CFFF7B0FEBF
S11328A0301CFFF7ADFE201CFFF7AAFEFFF7CEFE9B
S11328B02120FFF7A5FE301CFFF7A2FE1C37201CC9
S11328C0FFB2FFF79DFE301CFFF79AFE381CFFF79E
S11328D097FEFFF7BBFE2120FFF792FE301CFFF7A7
S11328E08FFE381CFFF78CFE281CFFF789FE381C6E
S11328F0FFF786FEFFF7AAFE2120FFF781FE281CC2
S1132900FFF77EFE3834381CE4B2FFF779FE281C4A
S1132910FFF776FE201CFFF773FEFFF797FE2120DA
S1132920FFF76EFE281CFFF76BFE201CFFF768FE06
S1132930301CFFF765FE201CFFF762FEFFF786FEE2
S11329400020F8BDF8B5061C0C1C351C271C2A35C4
S1132950EDB22120FFF754FE281CFFF751FE201C86
S1132960FFF74EFE301CFFF74BFE201CFFF748FE1E
S1132970FFF76CFE2120FFF743FE301CFFF740FEFB
S11329803837201CFFB2FFF73BFE301CFFF738FE40
S1132990381CFFF735FEFFF759FE2120FFF730FE04
S11329A0301CFFF72DFE381CFFF72AFE281CFFF70A
S11329B027FE381CFFF724FEFFF748FE2120FFF70F
S11329C01FFE281CFFF71CFE1C34381CE4B2FFF762
S11329D017FE281CFFF714FE201CFFF711FEFFF75B
S11329E035FE2120FFF70CFE281CFFF709FE201CF2
S11329F0FFF706FE301CFFF703FE201CFFF700FE66
S1132A00FFF724FE0020F8BD38B5051C0C1C21205E
S1132A10FFF7F6FD281C2A35EDB2FFF7F1FD201C67
S1132A20FFF7EEFD281CFFF7EBFD201CFFF7E8FD88
S1132A30FFF70CFE2120FFF7E3FD281CFFF7E0FD64
S1132A40201CFFF7DDFD3834281CFFF7D9FDE0B268
S1132A50FFF7D6FDFFF7FAFD002038BDF8B5061CD8
S1132A600C1C351C271C2120FFF7CAFD2A35301CFD
S1132A70EDB2FFF7C5FD201CFFF7C2FD281CFFF7D0
S1132A80BFFD201CFFF7BCFDFFF7E0FD2120FFF791
S1132A90B7FD281CFFF7B4FD3837201CFFB2FFF741
S1132AA0AFFD281CFFF7ACFD381CFFF7A9FDFFF7AD
S1132AB0CDFD2120FFF7A4FD281CFFF7A1FD381C44
S1132AC0FFF79EFD301CFFF79BFD381CFFF798FDB8
S1132AD0FFF7BCFD2120FFF793FD301CFFF790FDAD
S1132AE0381CFFF78DFD301CFFF78AFD201CFFF713
S1132AF087FD1C34FFF7AAFD2120FFF781FDE4B216
S1132B00301CFFF77DFD201CFFF77AFD281CFFF722
S1132B1077FD201CFFF774FDFFF798FD0020F8BD3A
S1132B20F8B5071C0C1C3D1C261C2A35EDB22120CF
S1132B30FFF766FD281CFFF763FD201CFFF760FD0F
S1132B40381CFFF75DFD201CFFF75AFDFFF77EFDE3
S1132B502120FFF755FD381CFFF752FD1C36201CC1
S1132B60F6B2FFF74DFD381CFFF74AFD301CFFF7A6
S1132B7047FDFFF76BFD2120FFF742FD381CFFF7EF
S1132B803FFD301CFFF73CFD281CFFF739FD301CCE
S1132B90FFF736FDFFF75AFD2120FFF731FD281C12
S1132BA0FFF72EFD201CFFF72BFD3834281CFFF700
S1132BB027FDE0B2FFF724FDFFF748FD0020F8BD34
S1132BC0F8B5061C0F1C351C3C1C2A35EDB221201F
S1132BD0FFF716FD281CFFF713FD381CFFF710FD47
S1132BE0301CFFF70DFD381CFFF70AFDFFF72EFD23
S1132BF02120FFF705FD301CFFF702FD3834381C97
S1132C00E4B2FFF7FDFC301CFFF7FAFC201CFFF7D1
S1132C10F7FCFFF71BFD2120FFF7F2FC301CFFF748
S1132C20EFFC201CFFF7ECFC281CFFF7E9FC201C40
S1132C30FFF7E6FCFFF70AFD2120FFF7E1FC281C63
S1132C40FFF7DEFC201CFFF7DBFC281CFFF7D8FC99
S1132C50381CFFF7D5FCFFF7F9FC2120FFF7D0FC67
S1132C60281CFFF7CDFC381CFFF7CAFC301CFFF70B
S1132C70C7FC201CFFF7C4FCFFF7E8FC0020F8BDEC
S1132C8008B52520FFF7BCFC0020FFF7B9FC0020A5
S1132C90FFF7B6FC5F20FFF7B3FC3F20FFF7B0FC63
S1132CA0002008BD08B52520FFF7AAFC0020FFF787
S1132CB0A7FC0020FFF7A4FC2F20FFF7A1FC3F2076
S1132CC0FFF79EFC002008BD08B52520FFF798FCFF
S1132CD03020FFF795FC0020FFF792FC5F20FFF700
S1132CE08FFC3F20FFF78CFC002008BD10B5041CAE
S1132CF0FFF7D8FF002C04D10320011CFFF760FF6D
S1132D003DE0012C04D10320011CFFF7ABFC36E0AD
S1132D10022C04D10320011CFFF7BDFC2FE0032C7F
S1132D2004D1201C211CFFF718FD28E0042C04D139
S1132D300320011CFFF762FD21E0052C04D10320D0
S1132D40011CFFF79DFD1AE0062C04D10320011C91
S1132D50FFF7F8FD13E0072C04D10320011CFFF753
S1132D6053FE0CE0082C04D10320011CFFF776FE6F
S1132D7005E0092C03D10320011CFFF7D1FE00203C
S1132D8010BD10B5041CFFF79FFF002C04D10321D4
S1132D903220FFF715FF3DE0012C04D1032132203E
S1132DA0FFF760FC36E0022C04D103213220FFF748
S1132DB072FC2FE0032C04D1211C3220FFF7CDFC40
S1132DC028E0042C04D103213220FFF717FD21E071
S1132DD0052C04D103213220FFF752FD1AE0062C02
S1132DE004D103213220FFF7ADFD13E0072C04D1F9
S1132DF003213220FFF708FE0CE0082C04D1032144
S1132E003220FFF72BFE05E0092C03D132200321E9
S1132E10FFF786FE002010BDF0B585B0071CFFF754
S1132E202FFF6A466D460024284B03CB03C2161CB1
S1132E3003CB03C23B59002B04D1285D315DFFF75E
S1132E40BFFE3DE0012B04D1285D315DFFF70AFC94
S1132E5036E0022B04D1285D315DFFF71CFC2FE026
S1132E60032B04D1285D315DFFF777FC28E0042BA8
S1132E7004D1285D315DFFF7C1FC21E0052B04D1AD
S1132E80285D315DFFF7FCFC1AE0062B04D1285DB8
S1132E90315DFFF757FD13E0072B04D1285D315D49
S1132EA0FFF7B2FD0CE0082B04D1285D315DFFF77C
S1132EB0D5FD05E0092B03D1285D315DFFF730FE18
S1132EC00434082CB6D1002005B0F0BD945B00009A
S1132ED038B5134C03682268051C934206D0626817
S1132EE04168914202D0FFF797FF13E022689342B2
S1132EF006D168686268904202D0FFF742FF09E099
S1132F002268934206D062686968914202D1181C13
S1132F10FFF7ECFE2B68002023606B68636038BD0C
S1132F202CFEFF1F10B5041CFFF7AAFE2120FFF79B
S1132F3067FB0020FFF764FB2078FFF761FB0020AC
S1132F40FFF75EFB2068C0B2FFF75AFBFFF77EFB7A
S1132F50002010BDC02313B580244F4A9B0013608A
S1132F604E4A64001360FDF7D1FC4D4B201C1C60DD
S1132F704C4B1C604C4B1C6001F0CCF9642000F0FD
S1132F8067FD201C01F0D4F9642000F061FD201CD1
S1132F9001F0C0F9642000F05BFDAE20FFF730FBC8
S1132FA0A020FFF72DFB7220FFF72AFBA120FFF7DB
S1132FB027FB0020FFF724FBA220FFF721FB0020C2
S1132FC0FFF71EFBA420FFF71BFB0024A820FFF73C
S1132FD017FB3F20FFF714FBAD20FFF711FB8E20FA
S1132FE0FFF70EFBB020FFF70BFB0B20FFF708FBEE
S1132FF0B120FFF705FB3120FFF702FBB320FFF7F9
S1133000FFFAF020FFF7FCFA8A20FFF7F9FA6420B0
S1133010FFF7F6FA8B20FFF7F3FA7820FFF7F0FAC0
S11330208A20FFF7EDFA6420FFF7EAFABB20FFF7E6
S1133030E7FA3A20FFF7E4FABE20FFF7E1FA3E2070
S1133040FFF7DEFA8720FFF7DBFA0E20FFF7D8FA46
S11330508120FFF7D5FA9120FFF7D2FA8220FFF7FB
S1133060CFFAFF20FFF7CCFA8320FFF7C9FA7D20BF
S1133070FFF7C6FAAF20FFF7C3FA2620FFF7C0FA1E
S11330800120FFF7BDFAFFF7FBFD684600940194A9
S1133090FFF71EFF201C16BD2090145424901454D6
S11330A034A014543090145400A014548023DB052D
S11330B008704B607047000000B589B005AB0A0A80
S11330C01A705970002801D0052816D10C4A06A997
S11330D012780A800B4A12684A6004AA10700A48DF
S11330E0006800930223029001930020013B01F049
S11330F061FB431E9841400000E0032009B000BD7D
S1133100F8FFFF1F10FEFF1F18FEFF1FFF2100B571
S113311089B005AA031C11700320052B15D80C498E
S11331201370087806A908800A480B4B00681B68CE
S113313048600A4802930090022001230190002075
S113314001F045FB431E9841400009B000BDC04654
S1133150F8FFFF1F10FEFF1F18FEFF1F00000020D6
S113316008B5632800DD63200A21FDF783FB081CF2
S113317008BD10B5041E632C03DC0020092C09DDF6
S113318000E06324201C0A21FDF774FB601A0A2165
S1133190FDF78AFA10BD0269C3689A4203D88068B1
S11331A01018013800E0501EC01A7047F7B5836844
S11331B0C668051C40680191141C9F1B8019974226
S11331C003D902F043FBA4190AE001993A1C02F066
S11331D03DFB019BE41BD9196868221C02F036FBF5
S11331E0EC60F7BD0023F7B5061C171CC5680191F8
S11331F000933369B468AB4200D81B19013B5B1BD5
S1133200641BBC4200D93C1C9C4200D91C1C736842
S1133210221C5819019902F019FB009B2D191B1946
S11332200093019B3F1B1B190193B368EB1A5A1EB1
S113323093415B421D40F560002FDAD10098FEBD3A
S1133240022310B50F4C104A236163610F4BA26136
S1133250E361C823A2640E4A2362E26400230422C9
S1133260A3626362E362A3656365E3652265E01DAF
S1133270084902F0ADFB201C074902F0A9FB2023FA
S1133280A37110BD24010020B17300005A00002076
S113329056000020BA730000BE730000F0B5294B3D
S11332A0171C1A7885B0009001910293002A01D16D
S11332B0FFF7C6FF1823009A00255343029AD31838
S11332C01A1C503252689C6D039294421BD91B6D98
S11332D03D1C1B1B9F4200D91D1C1826009B2A1C49
S11332E05E43029B01989E19F36C7F1B191902F02F
S11332F0ADFA019B64195B190193336DE31A5A1EED
S113330093415B421C40039B1E1BBE4200D93E1CE2
S1133310002E0CD01823009A01985343029AAD1939
S1133320D318D96C321C091902F090FAA419002D93
S113333005D01823009A5343024AD3189C65281CCD
S113334005B0F0BD2401002010B50B1CEFF3108470
S1133350012181F31088191CFFF7A0FF84F3108862
S113336010BD0000F8B51823451C5D434343141CED
S1133370134A0E1CD018C76A5519012F0FD0002FFD
S113338007D0022F17D1221C281CFFF72BFF041C87
S113339014E0281CFFF7FFFEA0420ED305E0281C12
S11333A0FFF7F9FE844200D9041C281C311C221C9E
S11333B0FFF7FCFE02E0002400E03C1C201CF8BDEA
S11333C024010020F8B50B4B071C1B780E1C151CA0
S11333D0002B01D1FFF734FFEFF31084012181F3B7
S11333E01088381C311C2A1CFFF7BCFF84F310889A
S11333F0F8BDC0462401002038B5051C081C0C1C6F
S113340002F0EEFA211C021C281CFFF7DBFF38BD7A
S113341013B56B46DC1D0020211C0122FFF794FF2D
S1133420012801D1207801E00120404216BD08B5F1
S1133430FFF7EEFF0028FBDB08BD0000F7B5164CD4
S113344001932378051C0F1C161C002B01D1FFF7D8
S1133450F7FE23699D421CD2EFF31082012181F310
S11334601088002D0CD01823691C59436B436750F6
S113347061184E600199E31819620021996259623A
S113348018235D43089B6419E36282F310880020CB
S113349001E001204042FEBD24010020826810B5F5
S11334A0041C4068531C834205D820688154A360DF
S11334B0E3680133E360A26863689A420CD120692F
S11334C02168FFF77FFFA368984203D001235B4282
S11334D0E36001E00023A36010BD0000F0B5051C0B
S11334E01F1C081C012685B00A9C00910192019BB7
S11334F0984204D30199FDF747F80136F7E702969D
S1133500BE4200D2029701230B9A1A40039218D1AB
S1133510002C01D1002414E00B9B20269B070DD521
S1133520002F0BD1103609E0281C311CFFF7B6FF21
S1133530EB68013C002B04DB002CEBD0029BA34284
S1133540F2D3EB68002B35DB0126012F01D9013FB3
S113355006E00098311CFDF717F8019B984208D348
S1133560019B5E43F1E7301C0199FDF70DF8061E3F
S113357010D00098311CFDF707F8331C4343009A20
S1133580D31A00930C4B195C281CFFF787FFEB68D8
S1133590002BE8DA039B002B0CD0002C0AD0029BF2
S11335A0A34207D2281C2021FFF778FFEB68013CD7
S11335B0002BF2DA05B0F0BDC5730000F0B59FB082
S11335C00EAB099340230A930023161C06900B9319
S11335D00D900C930B784C1C002B04D10C9B039383
S11335E0002B22DC15E1252B16D1002502314F1EBC
S11335F03B782B2B0CD003D8232B27D1082308E0AE
S11336002D2B03D0302B21D1022302E0012300E033
S113361004231D430131EAE7191C09A8FFF73EFF03
S1133620211C0C9B002BD5DAD8E70B9A002A03D077
S113363006980EA9FFF7C6FE0C9B03930B9B0493FD
S1133640049A039B944663440C93E2E000243A7882
S1133650131C303B092B05D80A235C43303C01374B
S1133660A418F4E7002303932E2A0DD101373A78E6
S1133670131C303B092B07D80A23039901374B430A
S1133680303B9B180393F2E7397804230A1C9A43CE
S1133690682A01D10137F7E7642926D008D85829C8
S11336A000D195E063291AD0252900D0AFE0ABE022
S11336B0732900D195E00DD8702900D0A7E03268B5
S11336C00021131D3360082301910093116809A898
S11336D0102296E0752971D0782979D097E0336863
S11336E019681A1D3260C9B28EE033681A1D1B684E
S11336F03260DA179818049301235040059309287F
S113370005DD0A21FCF7D0FF059B0133F6E7059B95
S1133710039A934200D20592002C05D0049B002BFF
S113372001DB6B0700D5013CAB0702D5039B002BE3
S113373010D0EB070ED4002C01D100240AE0059B25
S1133740A34207D209A82021FFF7A8FE0C9B013C45
S1133750002BF0DA0C9B0793002B58DB049B002B07
S113376004DA5B42049309A82D2103E06B0703D517
S11337702B2109A8FFF792FE0C9B002B47DB0323A8
S11337802B40022B11D1039B002B0ED1002C01D115
S113379000240AE0059BA34207D209A83021FFF7C1
S11337A07DFE0C9B013C002BF0DA0C9B0593002B57
S11337B02DDB0094019509A8049906E03368009470
S11337C001951A1D1968326009A80A22039B18E0A2
S11337D0336800941A1D0195326009A819681022F3
S11337E0F4E733681A1D32601C682178013400291B
S11337F00DD009A8FFF752FE0C9B0393002BF4DABB
S113380005E0FFF76BFE02E009A8FFF747FE791C0D
S113381007E70C981FB0F0BD0EB403B503AB02CBA1
S113382001AA0193FFF7CAFE02B008BC03B018470F
S113383008B5002000F08AFD08BD08B5002001F09D
S1133840F5FB08BD082110B5164B9A780A4202D040
S11338509A780A439A70882200212220124B52013E
S11338609950124A10708020114A400298501868EA
S1133870104A024010481A601C58104A2240C024C2
S1133880A40422431A5080220D4B19721A767F3AEF
S113389019705A700B4A11700C2299791142FBD19C
S11338A010BDC04600D007400070044000E007404F
S11338B044100000FFFFF3FF04100000FFFFFFF0BF
S11338C00040064000500640154B164810B5191E1E
S11338D081420CD00022144B9B089B009A4203D0D7
S11338E084588C500432F9E7104B996001E00F4A78
S11338F0936000230E4A0F49891A8B4204D0D45C8A
S11339000D48C4540133F8E700230C4A0C49891AC2
S11339108B4204D00024D01804700133F8E710BDA2
S113392000000000000000000000000000ED00E0C6
S11339302C750000E076000000FEFF1FB4FFFF1F9F
S1133940D002002000234170436003708360181C80
S1133950704710B54378041C0120FF2B08D000F0F9
S11339606DFA63780133DBB2637000F05BFA002018
S113397010BD0020704738B5041C0D1C00F05EFA21
S1133980E1682943E16000F04DFA002038BD0000F1
S113399000220A4B9A641A1C40329A631A1C303271
S11339A09A621A1C20329A611A1C10329A60044AD4
S11339B01360044B9B60DB607047C046B00100207D
S11339C0AC0100209C0100200022024B1A60186800
S11339D080B270470C007C5038B54378041C0D1C31
S11339E0002B0BD0002500F029FA6378013BDBB2F1
S11339F06370257000F016FA281C28E002200029C4
S1133A0025D02378002B15D0FFF7DEFF6368A2686A
S1133A10984201D3C01A03E0C01A80235B02C01885
S1133A20824213D200F00AFA0023237000F0FAF95C
S1133A3002200CE04B1C09D000F000FA0123237093
S1133A4000F0F0F9FFF7C0FFA5606060032038BD07
S1133A5038B5051CFFF7B8FF041CFFF7B5FFA042FB
S1133A6001D3001B03E08023001B5B02C0188542C6
S1133A70F3D238BD08B5012801D100F0DFF908BD43
S1133A8008B5012801D100F0CDF908BD10B5FFF744
S1133A907FFF01230020084A08491360084A094CA3
S1133AA01060086004212160074C216007490B6005
S1133AB007490860136010BD38800450000084502A
S1133AC000000450000004510400045104000C5090
S1133AD00000045310B5044C206021710020A26042
S1133AE02373637310BDC04600020020F0B587B095
S1133AF06B4602901B7A05AC23706B4603911B7BCB
S1133B003D4D63702B79029A0420934271D92B7B2B
S1133B106B730123A37000230193374E0093337B0F
S1133B20009A371C93421AD9009BB2689B009B5899
S1133B30002B10D01A79D2070DD51A68201C996869
S1133B409047002807D06B461B787373039B002BA8
S1133B503AD005230193009B0133DBB2DDE7019EDC
S1133B60002E02D0039B012B2FD10120FFF782FFEF
S1133B700C20029B58432B68181800F0A7F86B46DA
S1133B801B7A01206B71FFF77BFF02230025A370D2
S1133B903B7BAB4216D9BA68AB009B58002B0ED0C6
S1133BA01A7992070BD51A68201C99689047002847
S1133BB005D0039B7D73002B1AD006230193013596
S1133BC0EDB2E5E7019814E005260023009FA370F9
S1133BD0013FFFB2FF2F09D0AA68BB009B58002BFE
S1133BE0F6D01A68201C99689047F1E7301C00E071
S1133BF0062007B0F0BDC04600020020014B5879F2
S1133C007047C0460002002013B500210378041C4D
S1133C100191022B07D0032B0BD0012B0ED102797B
S1133C20191C134801E00279114801AB00F0CEFFE2
S1133C3008E001A90E4801F00BF803E00C4801A9C3
S1133C4000F0A8FF002812D1A3790A4ADB01DBB2F5
S1133C5013706378084A5B00DBB21370A278074BD9
S1133C601A70E278064B1A706279064B1A7016BD08
S1133C7000400640184086530040865000400650DD
S1133C8001400650184016501F22802302405B0555
S1133C90D2051A43034943099B005B181A430023C6
S1133CA013607047288004401F2280210240D305FE
S1133CB049051943430904489B001B181943012370
S1133CC0081C9340036070472880044000220723A7
S1133CD073B5041C104D0093281C131C012101F022
S1133CE097F9201CFFF790FF0022637A217A009352
S1133CF0281C131C01F08CF9E379084A9B04136017
S1133D00074BA17A1D68281C00F0BEFF281CE17A2D
S1133D1000F0C1FF002076BD0070044000700C5913
S1133D202074000008B5054800F0F6FE044B19683D
S1133D30C9B20131FCF728FC08BDC046004006406A
S1133D4044801C5E08B5054800F0E6FE044B196883
S1133D50C9B20131FCF718FC08BDC046004006405A
S1133D6044801C5E08B5054800F0D6FE044B196873
S1133D70C9B20131FCF708FC08BDC046004006404A
S1133D804480145808B5054800F0C6FE044B196871
S1133D90C9B20131FCF7F8FB08BDC046004006403B
S1133DA0448014580C4B1B68DBB2022B0DD0032B40
S1133DB00ED0002B01D000200CE08021074A09021C
S1133DC01268101E8842F6D104E0054B186801E021
S1133DD0FA2080007047C04600700C592802002069
S1133DE02C02002008B5FFF7DDFF08BD08B5024B23
S1133DF0185CFFF759FF08BDD573000008B576209D
S1133E00FFF752FF08BD08B57620FFF73DFF08BD58
S1133E1008B56620FFF748FF08BD08B56620FFF720
S1133E2033FF08BD044A1368002B04D0013B136020
S1133E30002B00D162B670471002002072B6024A0D
S1133E4013680133136070471002002010B50B4B48
S1133E500B4A1278002A04D1013B002BF8D103202D
S1133E600AE0064C074801F069FB012803D0013C35
S1133E70002CF7D1F3E7002010BDC046EA03000090
S1133E8002D0075100E0074010B5064C064801F087
S1133E9055FB042804D0013C002CF7D1032000E09A
S1133EA0002010BDEA03000000E00740F7B5071C3E
S1133EB00E1C151C01930120002F18D0002916D0C8
S1133EC0FFF7D8FD0A4C0021201C102201F0C7FC8A
S1133ED027602671002D06D06B461B79A5602373DD
S1133EE06B461B7963730120FFF7CAFD0020FEBDFA
S1133EF014020020F0B5B24C8BB002900191237BE8
S1133F0001206373FFF7B6FD2379029A934204D824
S1133F100120FFF7B5FD022050E1029A23689200C8
S1133F20D6586B461B7907AC357823726B461B7ADF
S1133F302A1C237002239A4366600392012A01D04B
S1133F40052D0AD101219F4801F04AFA002809D120
S1133F500120FFF795FD012030E1072D02D9994892
S1133F600321F1E70123637200240094944F009A23
S1133F703B7B93421AD9009BBA689B009B58002B49
S1133F800FD01A79D2070CD51A6807A899689047F8
S1133F90002806D06B461B7804247B73019B012BFD
S1133FA004D1009B0133DBB20093DFE70120FFF76C
S1133FB067FD854800F0D4FD039B012B1DD101381A
S1133FC0C0B2022811D8FFF7DDFE804B98420CD80E
S1133FD0FFF7A8FE7E4FB84207D8FFF7C3FEB842EA
S1133FE003D8FFF7AFFEB84207D9019B012B01D1DB
S1133FF0062407E0002C05D1FAE7019B012B52D0DF
S1134000002C50D00120FFF735FD002307AE009DA2
S11340107372013DEDB2FF2D40D0694BAA009B683D
S1134020D358002BF5D01A79D207F2D51A68301C70
S113403099689047EDE7072205AB1A7000225A7081
S1134040F2789A703279DA702B1C083B05A9022B9E
S113405003D873798B71B379CB717378002B00D04B
S113406084E0584801F0F0F9002800D00324002D22
S113407000D08AE0FFF7EAFE0024002800D09DE08B
S11340800120FFF7F7FC6B464D4E1B7A0025B373F6
S1134090022307AF7B72337BAB427CD80120FFF74E
S11340A0EFFC201C8AE003200A2D00D986E0281C9E
S11340B0FCF756FA06080A1940583339C1282D006E
S11340C0002250E003224EE03E4801F037FA012876
S11340D007D03C48002101F093F9FFF7B7FE041E16
S11340E06CD101223FE0374801F028FA042807D0B8
S11340F03448022101F084F9FFF7C6FE041E5DD1A5
S1134100042230E0072205AB1A70063A03E00722C6
S113411005AB1A70043A5A7096E7022205AB1A707E
S1134120013A1A7104E00222012105AB1A701971D7
S11341305A7189E70222002705AB1A702148013A17
S11341401A715F7101F0FAF9012800D17CE71D486A
S1134150391C01F055F9FFF779FE041EBC4200D169
S113416072E72BE0052205AB1A706DE7012D00D82C
S113417077E7B2780220174B002A02D01A6902436B
S113418001E01A6982431A616BE7012D00D077E7D9
S1134190FFF77AFE70E7B268AB009B58002B0AD099
S11341A01A79920707D51A68381C9968904700282D
S11341B001D0052475730135EDB26CE70BB0F0BD89
S11341C01402002000E007400040064040420F0077
S11341D080841E0000ED00E008B5064801F0AEF949
S11341E00023012803D00133042800D00A33181C0B
S11341F008BDC04600E00740F7B5FF2403681C4A29
S11342001D0A25401C40AB009F581A4A061C9B58A7
S1134210281C0193FFF7EAFD211C0022381C01F041
S113422095F9019BA4001C19842332795B0523436F
S113423052001A60802372795B0523431A6090232D
S1134240B2795B05234312011A60F3790A4A1443D5
S11342501A042260002B0AD0084B5A5D002A06D0AB
S11342601F23134001229A40131C054A1360F7BD13
S11342702C7400002474000000001818347400002A
S113428000E100E0F8B5FF24051C0368114A180A90
S113429020401C4083009F580F4A9E58FFF7A6FDFC
S11342A0381C211C012201F051F96A68381C211CB8
S11342B001F05CF988232A7AA40034195B052343AE
S11342C092001A6098235B051C436B7A9B01236060
S11342D0F8BDC0462C7400002474000038B50C1CD2
S11342E0002802D1002C09D112E003680133F9D06F
S11342F0051C0835FFF780FF281CF6E72368013307
S113430006D0251C201C0C35FFF7BCFF2C1CF5E740
S113431038BD0000FF22030A1340024001209040F0
S113432002499B005B5858607047C0462C740000DB
S1134330FF22030A134002400120904002499B00DF
S11343405B5898607047C0462C74000008B5084B51
S11343508200D35894220233520513431B78002B56
S113436002D000F041FA01E000F096FA08BDC04620
S1134370D8730000031C80220C33520513431B78AE
S1134380002BF7D00171704738B50D1C084B800025
S1134390C458201C291C1830FFF71EFB0328F8D032
S11343A0002801D004232374207CC0B238BDC04649
S11343B024020020F0B589B00290161C8200374810
S11343C0059310580EAB019035481B781458002003
S11343D007AA1080A27C8F0A04920122E274A274BC
S11343E05A4253411E3FDBB203937B425F41FFB20B
S11343F0CDB2874202D0CBB29C460D0A00216D009B
S1134400EDB28F4204D1391C002E01D16B46197BC9
S11344100D4307AB1D700122002F02D062465A7073
S11344200222A360E2600198291CFFF7A3FF02980F
S11344300F99FFF7A9FF237C002B0CD1002E0AD083
S1134440059BA660E36031780198FFF793FF02981B
S11344500F99FFF799FF237C002B16D1039B002BA8
S113446013D0002F01D1002E0FD000230127A36009
S11344700198E76001F0D2F8391C01982943FFF74D
S113448079FF02980F99FFF77FFF0023E3746B46CF
S1134490207C1B7CC0B2A37409B0F0BDD8730000AB
S11344A024020020104A830010B598580F4A9C58E3
S11344B0E37C002B05D0237C052B02D0237C042B2A
S11344C009D19822831C5205134300221A7001F06B
S11344D0B7F801236374A37C002B03D0201C18308D
S11344E0FFF737FA10BDC046D8730000240200203D
S11344F0F7B5194B8700FB5801250093174BFE585D
S1134500002E26D10C1C24220190081C311C01F021
S1134510A6F9201C311C1830FFF714FA0198FFF794
S113452077FC009801F02AF80C4B019AFC500C4BD4
S11345309A5C1F2313402A1C9A40131C094A1360D7
S11345409C22009B52050233134380226574351C60
S11345501A70281CFEBDC046D87300002402002037
S1134560D773000000E100E0F7B59C220027051C8A
S11345700D4E8400A359520501930C4BE3580233AA
S113458013431F70FFF749FC094B01985A5D1F2321
S1134590134001229A40131C064A1830D367FFF7D0
S11345A0E8F9A751F7BDC04624020020D8730000E3
S11345B0D773000004E100E00A4B800070B5C558D1
S11345C0094BC6584B68726993420AD00C1CFFF71A
S11345D0C9FB0023011C6268281C00F0DDFF63682E
S11345E0736170BDD873000024020020F0B587B059
S11345F00FAC334F334D267884006559E459677CFA
S1134600002F02D10320207458E0002E01D11E2770
S11346100E9705930023A674E360A36023742360BC
S11346206374071C04920391FFF7C6FF90231021C3
S1134630AA1C5B05134319708421EB1C49050B4329
S11346400221197098235B05134302934023029AB5
S1134650281C137000F0E2FF039B381C1988012307
S113466000930E9B049A0193059BFFF7A3FE0D9BF9
S1134670002B15D0237C002B0FD10C9B281CA3608E
S11346800D9BE3600C9B1978FFF774FE002E13D08A
S1134690381C0E99FFF778FE0EE0237C042B0BD117
S11346A000230126029A1370EB785B09334202D08F
S11346B0281C00F0C5FF6674207CC0B207B0F0BDB2
S11346C024020020D8730000F0B58BB013AC24781A
S11346D0364E374D039484006559A459667C002EE8
S11346E002D1032020745FE0039E002E01D11E3608
S11346F012960993109B00262360119BA6606360A9
S11347006B461B7BE660A37426746674079108925B
S11347100490FFF751FF9023AF1C5B053B430593C7
S11347201023059A281C13708422EB1C5205134392
S113473002221A7098235B053B4306934023069A92
S1134740137000F06BFF079B089A1988129B009660
S113475001930498099BFFF72DFE227CD2B2B2424A
S113476012D1059B11991A708C235B053B430129D7
S113477000D108221A702B79039B002B12D00498C5
S11347801299FFF701FE0DE0237C042B0AD1069B4E
S11347901E700126EB785B09334202D0281C00F01E
S11347A04FFF6674207CC0B20BB0F0BD2402002021
S11347B0D87300001FB5069C0094079C0194089CC4
S11347C0029401240394FFF711FF04B010BD1FB538
S11347D0069C0094079C0194089C02940124039471
S11347E0FFF772FF04B010BD842138B5244B82005A
S11347F0D5584905EB1C0B4302211970214BD458A1
S113480090226B1852051A431278E978D2B28906BD
S113481034D5942149051943097800292ED0012A59
S113482015D1EB78134202D0052323740CE0E3681E
S1134830013BE360002B07D0A368281C5A1CA2602C
S11348405978FFF797FD19E0FFF72CFE16E0626830
S1134850013A6260002A06D08C214905012A05D15B
S11348600B43082204E0FFF71DFE02E000220B4385
S11348701A7023685A1C22602A791A7038BDC046FF
S1134880D873000024020020842303305B051843FE
S11348900223037070470000902149050A1CF0B5FB
S11348A08F4B071C8000C55889B0EB1C0493EB7830
S11348B0EE78DBB20593F3B20693AB1D1A4394462C
S11348C012789826D2B20792942252051A43147889
S11348D07605621E9441E2B2824C33430459A81C0B
S11348E00090084301921A780178D2B2C9B20391B8
S11348F00199029000292FD0079900290CD0102388
S11349006246281C1370FFF7BFFF236BF8B2012126
S1134910002B00D0DCE0E0E0002A1DD04022281C5F
S11349201A70FFF7B1FF231C2C331B78002B02D124
S1134930009A16433370236B002B03D0F8B2802106
S1134940626B9847E37D002B04D0201C8021183033
S1134950FFF711F80A23BFE0069B281C9E110123D0
S11349601E40FFF791FF0122059B1B11134219D032
S11349709023049A5B05134310221A70002E04D06E
S1134980EB785B07DB0F10D11AE0082323702C347B
S11349902278002A00D0A0E0982300995B050B43FD
S11349A01A709AE0002E16D0EAE71023029A1370C8
S11349B0236B002B6ED0F8B20221626B984769E03A
S11349C0029A1370236B002B03D0F8B20421626B9C
S11349D098472B7981E0039B012B29D1EB78039A2B
S11349E0134257D0029B1E702B79231C2C331B7847
S11349F0002B09D1019B002B06D19823009A5B055B
S1134A0013436A4612791A70236B002B03D0F8B251
S1134A100821626B9847A37D002B04D0201C082139
S1134A201830FEF7A8FF00236360E360237554E0A9
S1134A302B79A268DBB2002A2AD022691370236979
S1134A4001332361A368013BA360A368002B44D115
S1134A50019B002B13D1231C2C331B78002B06D174
S1134A609823009A5B0513436A4612791A70E37D12
S1134A70002B04D0201C20211830FEF77CFF0023DB
S1134A8063752361236BF8B22021002B20D124E02D
S1134A90072321E06368002B1DD0E3681A782B1CE0
S1134AA080210C3349050B431B78002BF7D02A7166
S1134AB0E3680133E3606368013B63606368002B70
S1134AC00BD1E3602375236B002B06D01021F8B2C1
S1134AD0626B984701E00623237009B0F0BDC0461D
S1134AE0D87300002402002084235B0503431A7852
S1134AF000239A4209D0802301305B0518430378D0
S1134B00012B01D0024B00E0024B181C7047C04639
S1134B1080841E0000127A0010B50D4A831D1343D1
S1134B201B78DBB2002B10D0012B08D1041CFFF73B
S1134B30DBFF084B08341C432378D84006E00020F0
S1134B40022B03D1044B186800E0044810BDC04692
S1134B50000008110000901028020020006CDC0204
S1134B600B4A831D13431B78DBB2012B06D0181E9E
S1134B700CD00320022B09D0052007E0802301304C
S1134B805B05184300784342584101307047C046E2
S1134B9000000811021C031C9C2018334005034329
S1134BA0802018700020064B134318700548931D8D
S1134BB003431B78D8B20028F8D1034B0B6070472D
S1134BC00000081300000811006CDC02F8B5041C96
S1134BD00D1C171C1E1CFFF7C3FF012802D1002D5A
S1134BE004D007E0022805D1012D03D1201C311C7B
S1134BF0FFF7D0FF8022631C520513431D708423EA
S1134C0002225B0523431A70231C0C4A0833134306
S1134C107A00D2B21A704022094B23431A70094A0F
S1134C20A31D13431B78012BF9D1002D01D1064A92
S1134C3000E0064A3A4100203260F8BD00009010BE
S1134C40000008130000081180841E0000127A007E
S1134C500A4B10B51C681A1C0123002C0CD08024AC
S1134C60074B03431C70074C831D23431B78022B03
S1134C70F9D113680B600023181C10BD2802002012
S1134C8000000813000008119C23C9015B051843A8
S1134C90C9B201707047942349015B051843C9B236
S1134CA00170704770B506680C1C301C2049FBF776
S1134CB06BFC1F49051C301CFBF7ECFC0E1C081C8C
S1134CC0E1210901FBF760FCE121E0800901301CCE
S1134CD0FBF7E0FC0E1C081C3C21FBF755FC3C21B7
S1134CE02081301CFBF7D6FC6E22124BA17223806C
S1134CF0FF32238895420BD9AD1A032201339BB2AC
S1134D002380B72113405A1E93414900CA1AF0E781
S1134D1009499B0700D109490123CA5C954201D87E
S1134D20638003E00133AD1A0D2BF6D1A58070BD6D
S1134D3080510100B207000003740000F673000004
S1134D4030B5114A0188031C8A180020812A19D819
S1134D505A88541E0B2C15D89C88651E1E2D11D8FC
S1134D60DD88172D0ED81D893B2D0BD89B7A3B2B44
S1134D7008D88B0701D0054B00E0054B9B5CA34290
S1134D804041C0B230BDC0464EF8FFFF037400007E
S1134D90F673000070B5124A838804889A186E234B
S1134DA0FF3363434588D318A2089B180D4A6E004D
S1134DB0B25A9B18A20702D1022D00D8013B0B6006
S1134DC0E1233C22C4881B015C4303895343827A58
S1134DD0E3189A180868044B4343D3180B6070BD5A
S1134DE04A05F5FFDC73000080510100084B1A6886
S1134DF080231B029A4209D1A02310305B0518437B
S1134E000368002B02D10133FF3303607047C046AF
S1134E1028020020021C802110B50023012449052A
S1134E2010320A43146013609022436052050460F8
S1134E301C3002431360882252050243136084220B
S1134E405205024308431360036010BD031C902203
S1134E5014335205134300221A6042601032016079
S1134E601A60704703680B6070470000114B8200A2
S1134E7070B5D5588022104B92051A60041C281C6A
S1134E80FFF7C8FF281CFFF7B1FF01201F22011CF8
S1134E900A4B0B4E1B5D345D134099402240C025E4
S1134EA00B1C904007496D004B5148510B60086042
S1134EB070BDC046147400003C80845E1174000010
S1134EC01074000000E100E0F7B50027114B8000EA
S1134ED0C658081C0D1C0197FFF732FF041EBC4284
S1134EE016D001A9281CFFF755FF381CFEF77AFFDE
S1134EF0011C80200002814206D0FBF745FB011C07
S1134F000198FBF741FB0190301C0199FFF79EFFCC
S1134F10201CFEBD14740000F7B50025124B800060
S1134F20C4580E1C201C01A90195FFF79BFF281CE7
S1134F30FEF758FF051C8020000285420ED00B4B63
S1134F40291C04341C43FBF71FFB2768019C291C04
S1134F504443B8B2FBF718FB20180190311C01A898
S1134F60FFF7A0FEF7BDC0461474000000007810DF
S1134F70F0B50026184B800085B0C458081C0F1CDF
S1134F8001920396FFF7DCFE051EB54201D1002510
S1134F901EE0381C03A9FFF7FDFE301C2768FEF74E
S1134FA021FF011C80200002814206D0FBF7ECFAAD
S1134FB0011C0398FBF7E8FA0390039BBB42E6D37A
S1134FC0A36088231C345B051C43019B9B00236066
S1134FD0281C05B0F0BDC046147400008822044BA0
S1134FE08000C35852051C3313438900196070476D
S1134FF0147400008822054B8000C35852051433F2
S113500013431868431E9841C0B2704714740000DB
S11350106B46E0221B78D2021B0413400907194394
S1135020014BC018016070474410000008B5084BDC
S11350308200D35890220333520513431B78002B6C
S113504002D000F015F901E000F07AF908BDC0467D
S11350501C74000008B50C4B8000C2580B4B002197
S1135060C3589C20033340051843117101709420E8
S1135070400503431970137F8B4203D02032101C68
S1135080FEF767FC08BDC046300200201C74000017
S1135090F7B5061C1C4B30220C1C8700081C002191
S11350A0FD5800F0DCFB301CFEF7A8FEFEF75AFEAC
S11350B02060281C00F0E1FA201C00212030FEF7BB
S11350C041FCEB1C01939023019A5B0513431022CE
S11350D0281C1A70032100F010FB281C002100F08A
S11350E032FB0A4BFC500A4B9A5D1F2313400122EA
S11350F09A40131C074A13609823019A5B051343D3
S113510040221A70F7BDC0461C7400003002002013
S11351101874000000E100E0F8B50D4E84000D4B5A
S1135120A759051CE05800F0A8FA381C2030FEF7F7
S113513020FC094B281C5A5D1F23134001229A406E
S1135140131C064AD367FEF75EFE0023A351F8BD85
S1135150300200201C7400001874000004E100E018
S11351600A4B800070B5C658094B0C1CC358151C5B
S1135170301C1A68096800F087FA28602179301C0D
S11351806279A37900F0CCFA70BDC0461C740000AB
S113519030020020F7B51E4A83009C581D4A9E58D1
S11351A022790423002A31D1071C002902D001AA44
S11351B0FFF7D6FF982300214020F21C5B05134320
S11351C01970187025698D4203D1381CFFF742FF0E
S11351D01BE00123237194235B053343A1611978F8
S11351E00723002912D0A368191E02D019780133AD
S11351F0A360B1712369013B2361A3690133A361F6
S11352009C235B051A43802313700023181CFEBDE6
S1135210300200201C740000F8B5134F134C8500B5
S11352202C59ED590127069E2777A2602661E36079
S11352306661FFF7AFFF061E14D1201C07992030CA
S1135240FEF7CAFB0328F8D000280BD09C210022CB
S1135250EB1C4905194322710A7094210326490560
S11352600B431A70301CF8BD1C740000300200207F
S113527010B51E4B8200D3581D4951581A79002A83
S113528032D05A69002A11D09C2252050A4312785E
S1135290002A0BD08A79DC68D2B2002C03D02270A9
S11352A0DA680132DA605A69013A5A611A69002AE5
S11352B012D0942252050A431278002A0CD09A681C
S11352C0141E02D0147801329A608C711A69013A62
S11352D01A619A6901329A611A69002A04D15B69D8
S11352E0002B01D1FFF7B6FE10BDC04630020020EE
S11352F01C740000104A80008158002208B50F4B2E
S11353000331C358581CC2779C2040050843DA6215
S11353101A701A835A629A621A63027094204005C2
S113532001430A701A1C38321278002A03D0181D5F
S11353300121FEF720FB08BD1C7400003002002090
S113534038B5254B8200D35824495258591CC97F7B
S113535000293FD0D96A002916DB9421490511435D
S11353600978002910D0596A1C7F002905D0DD6A0C
S1135370002D02DD0C78013159629471D96A01392A
S1135380D962596B01315963D96A002905DA942429
S1135390D11C6405214300240C70196B002911DD14
S11353A09C2149051143097800290BD09279996A07
S11353B0D2B2002903D00A709A6A01329A621A6B37
S11353C0013A1A63DA6A002A04DC1B6B002B01DC45
S11353D0FFF790FF38BDC046300200201C74000067
S11353E0012903D0032909D1842300E094235B0518
S11353F018430078431E9841C0B200E00020704773
S1135400034B013049011843C9B201707047C046CB
S113541000008812942302305B0549011843C9B285
S113542001707047034B023089011843C9B20170FF
S11354307047C046000008138C2302305B05C90086
S11354401843C9B201707047F7B5384EC21C1643F1
S113545037780B78FFB20122072B65D8041C181C7F
S11354600D1CFBF787F804192A0D192A2A3A002380
S11354702F480134044323703378012BFCD152E0CC
S11354800322012F50D140232948013404432370BF
S11354903378042BFCD146E00021012B01D00423F6
S11354A002213078032298423ED1201CFFF7A8FF46
S11354B00421204A13698B4333E00227BB4207D1FE
S11354C000270B79BB4203D04979201CFFF7AAFFC0
S11354D0194801340443277019E004231649621C57
S11354E00A4313706A78A31C0B431A706B78002B61
S11354F006D1AB78002B03D0E978201CFFF78AFF94
S1135500AB79002B03D0E979201CFFF795FF042128
S11355103378084ADBB20193019B01330193136989
S11355200B43136130BF0022101CFEBD000030107D
S11355300000881200ED00E000001010024B033060
S113554018430078C0B27047000030101430802334
S1135550012A04D18A401B051843026005E0DB04DC
S1135560184301238B40D9430160704701238B40CA
S1135570002A01D0436000E0836070470023C22208
S1135580037043708370C37043718371C37103727A
S113559042728372C3727047F0B5002789B00393D7
S11355A0FA2301253C1C9B00534306900791029368
S11355B06D4201970123A3400493174B9E1CCA33E9
S11355C00593049B318807985943FAF7DDFF029B42
S11355D0029AC31A824200D9131AAB4204D2B21EF1
S11355E0177801941D1E03D0059B04369E42E8D112
S11355F00134032C01D0002DDCD1039B002B00D0FF
S11356001D603F231F40019B9B011F43069BFFB26C
S11356105F7009B0F0BDC0463674000094230230B8
S11356205B0503431B78002B04D088235B051843D8
S1135630042303E080231B051843302303707047C1
S11356409422831C52051A431278011C0220012A59
S113565012D18022D2041343CF221A708022D200A6
S11356602023C878034004D0013A002A03D0C0465E
S1135670F6E7181C00E0092070470423C3700023D8
S11356808370437003717047F0B5130B89B0012523
S11356900493082300266D4203935B190790059138
S11356A00692029302270024731C191C069879435E
S11356B00193FAF769FF059B834206D31B1A9D42A7
S11356C003D91D1C04900394029601347F00092C15
S11356D002D0002DE8D104E0072E02D0019E002D57
S11356E0E0D17022029B04981B011340039A1343D8
S11356F0079ADBB2537009B0F0BD8422C31C520573
S11357001A4301230B405B00DBB21370902389071B
S1135710C90F5B05023009011843C9B20170704713
S113572010B58C2403306405C9000443C9B2217048
S11357308821920049050143D2B20A7080225205A1
S11357401043037010BD8023012202305B05034324
S11357500A401A708C238907C90F5B05C9001843D6
S1135760C9B201707047011C002008B5021C031C5B
S113577000F03EF908BD0000014B18687047C046B0
S1135780ACFFFF1F084B10B5041C002B02D00021F6
S113579000F08AF9054B1868836A002B00D09847FB
S11357A0201C00F0F5F9C046A95A0000007500005D
S11357B038B5074B074C1D1CE41AA410002C04D068
S11357C0013CA300EB589847F8E701F0A1FE38BD6F
S11357D0287500002C7500000E4B70B500251E1CAA
S11357E00D4CE41AA410A54204D0AB00F35898471A
S11357F00135F8E701F086FE084B00251E1C084C15
S1135800E41AA410A54204D0AB00F358984701351C
S1135810F8E770BD247500002475000024750000AD
S11358202875000008B5034B011C186800F066F8E1
S113583008BDC046ACFFFF1F08B5034B011C186828
S113584000F016F808BDC046ACFFFF1F002310B5DA
S1135850934203D0CC5CC4540133F9E710BD031C5C
S11358608218934202D019700133FAE7704700009E
S113587030B500293ED004390B68002B00DAC91872
S11358801D4A1368141C002B02D14B60116031E0D7
S113589099420DD208680A189A4203D11368C318B2
S11358A00B6053684B60216024E08A4203D8131CC8
S11358B05A68002AF9D11D685C198C420BD1096819
S11358C0691858181960904214D110685268091860
S11358D019605A600EE08C4202D90C23036009E07F
S11358E008680C18944203D11468526800190860BF
S11358F04A60596030BDC04638020020032370B5A9
S1135900CC1C9C430834051C0C2C01D20C2405E04F
S1135910002C03DA0C2300202B6042E08C42F9D3E4
S1135920204A1368101C191C002913D00A68121B82
S11359300DD40B2A02D90A608B181FE08B4202D1C6
S11359405A6802601BE04A685A600B1C17E00B1C83
S11359504968E9E7144E3368002B03D1281C00F092
S113596025F83060281C211C00F020F8031C421C80
S1135970D0D00322C61C964386420AD11C60181C50
S113598007210B301A1D8843821A0AD051429950BC
S113599007E0311A281C00F009F8431CBAD0331C64
S11359A0ECE770BD380200203402002038B5002333
S11359B0064C051C081C2360FAF768FF431C03D13E
S11359C02368002B00D02B6038BDC046CC020020D9
S11359D0031C0A7801311A700133002AF9D1704787
S11359E00023C25C0133002AFBD1581E704700001B
S11359F0F7B52A4D061C2C680091171C0193002C46
S1135A0001D1274C2C6063681F2B15DD254B002B1F
S1135A1002D10120404240E08C20FFF703FF041E26
S1135A20F7D02A6800230260021C88324360286091
S1135A3013609E420AD128E0002E26D0231C88330E
S1135A401868002810D1174B002BE2D084204000A6
S1135A50FFF7E8FE0028DCD0031C0022FC335A6068
S1135A609A60231C88331860012261688A408B0085
S1135A70C31880C3FC304168114341600199D96760
S1135A80022E02D183681A438260002063685A1C84
S1135A9062600233009A9B001A51FEBDC8020020C6
S1135AA03C02002025580000F0B587B00590039112
S1135AB0344D2C68002C63D0231C88331E68636823
S1135AC05A1E0192304A9B189B00F7180433E318BE
S1135AD00293019B002B3DDB039B002B07D0002E80
S1135AE031D03B1C80331B68039A93422BD16268EC
S1135AF0029B0199013A5B68914201D1616002E025
S1135B00002202994A60002B1DD062680492002E84
S1135B1007D0012201998A40311CFC3148681042A7
S1135B2001D1984708E08968114203D10598396882
S1135B30984701E038689847049B62689342B7D15C
S1135B402B68A342B4D1019B043F013B0193029B08
S1135B50043BBDE70D4B002B12D062682368002A7A
S1135B600BD1002B09D02B60002E02D0301CFFF784
S1135B7063FE201CFFF760FE9BE7251C1C1C99E7B5
S1135B8007B0F0BDC8020020FFFFFF3F39580000F6
S1135B90FEE7C046030000003200000003000000DE
S1135BA0030000001B5B306D1B5B343B34336D1B07
S1135BB05B313B33376D0D53616E697479206368D3
S1135BC065636B206661696C6564211B5B306D0ADB
S1135BD0001B5B306D1B5B343B34316D1B5B313B15
S1135BE033376D0D496E76616C696420737570701E
S1135BF06C7920766F6C74616765205B25645D2029
S1135C006D56211B5B306D0A004D656173757265BD
S1135C106D656E74206E756D6265722C20525443EE
S1135C202D3E5453522C205254432D3E5450522C4A
S1135C3000204D4D413834353120782C204D4D41D4
S1135C403834353120792C204D4D413834353120CC
S1135C507A2C00205254432D3E5453522C2052543B
S1135C60432D3E5450522C202320436F6E666967A7
S1135C70204572726F72730025752C2025642C20C8
S1135C8025642C002025642C2025642C2025640AFE
S1135C90000D09307825303278202D2D3E205B30E0
S1135CA078253032782030782530327820307825C5
S1135CB03032785D0A000D09307825303278202D95
S1135CC02D3E203078253032780A000D09307825B1
S1135CD0303278202D2D3E202D2D2D2D0A000D0A39
S1135CE00925642F256420737563636573732072BB
S1135CF06174652E0A000D0925642F2564207375CF
S1135D0063636573736573206D6174636865642090
S1135D107265662E2076616C7565206F662030781A
S1135D20253032782E0A000D092564206261642032
S1135D30636F6D6D616E64732E0A0A000D0A09416A
S1135D4044584C33363220526561642041626F728C
S1135D507465642E204465766963652044697361C3
S1135D60626C6564203A28000D0A4D4D4138343583
S1135D7031513A0A0D000D0A494E413231393A0A7D
S1135D800D000D0A0A424D453638302052656164D3
S1135D902041626F727465642E2044657669636580
S1135DA02044697361626C6564203A28000D0A0915
S1135DB0424D58303535616363656C2052656164CA
S1135DC02041626F727465642E2044657669636550
S1135DD02044697361626C6564203A2820000D0ACE
S1135DE009424D583035356779726F2052656164C8
S1135DF02041626F727465642E2044657669636520
S1135E002044697361626C6564203A2820000D0A9D
S1135E100920424D583035356D6167205265616403
S1135E202041626F727465642E20446576696365EF
S1135E302044697361626C6564203A2820000D0A6D
S1135E40094D41473331313020526561642041624C
S1135E506F727465642E20446576696365204469B5
S1135E607361626C6564203A2820000D0A094C3382
S1135E70474432304820526561642041626F727435
S1135E8065642E20446576696365204469736162A4
S1135E906C6564203A2820000D0A094C50533235B1
S1135EA04820526561642041626F727465642E20DB
S1135EB04465766963652044697361626C65642036
S1135EC03A2820000D0A095443533334373235201D
S1135ED0526561642041626F727465642E2044656A
S1135EE0766963652044697361626C6564203A284D
S1135EF020000D0A09534934373035205265616456
S1135F002041626F727465642E204465766963650E
S1135F102044697361626C6564203A2820000D0A8C
S1135F200948444331303030205265616420416275
S1135F306F727465642E20446576696365204469D4
S1135F407361626C6564203A2820000D0A09534984
S1135F503730323120526561642041626F7274655A
S1135F60642E204465766963652044697361626CBC
S1135F706564203A2820000D0A094343533831311F
S1135F8020526561642041626F727465642E2044FE
S1135F9065766963652044697361626C6564203A5F
S1135FA02820000D0A09414D473838333420526502
S1135FB061642041626F727465642E204465766961
S1135FC063652044697361626C6564203A2820002B
S1135FD00D0A09415337323632205265616420413B
S1135FE0626F727465642E2044657669636520442B
S1135FF0697361626C6564203A2820000D0A0941C6
S1136000533732363320526561642041626F7274B3
S113601065642E2044657669636520446973616212
