:1000000000060020310500005905000059050000D8
:1000100000000000000000000000000000000000E0
:100020000000000000000000000000005905000072
:100030000000000000000000590500005905000004
:100040005905000059050000590500005905000038
:100050005905000059050000590500005905000028
:1000600075360000590500007F3600005905000074
:100070005905000059050000590500005905000008
:1000800059050000590500005905000059050000F8
:10009000E5080000FD0800005905000059050000B2
:1000A00059050000590500005905000059050000D8
:1000B00059050000590500005905000059050000C8
:10040000FFFFFFFFFFFFFFFFFFFFFFFFFE3DFFFFBF
:1004100008B5054B054803331B1A062B03D9044BBB
:10042000002B00D0984708BDB4FFFF1FB4FFFF1F8B
:10043000000000000648074908B5091A8910CB0FCB
:100440005918491003D0044B002B00D0984708BD21
:10045000B4FFFF1FB4FFFF1F0000000010B5074CE2
:100460002378002B09D1FFF7D3FF054B002B02D0D7
:10047000044800E000BF0123237010BDB4FFFF1F3C
:10048000000000005472000008B5094B002B03D097
:100490000848094900E000BF08480368002B02D162
:1004A000FFF7C8FF08BD064B002BF9D09847F7E7C8
:1004B0000000000054720000B8FFFF1FB0FFFF1FD4
:1004C00000000000144B002B00D1124B9D4640222F
:1004D00092029A1A924600218B460F461148124A00
:1004E000121A05F0DEF80D4B002B00D098470C4B8C
:1004F000002B00D098470020002104000D000B487D
:1005000005F053F805F08AF82000290000F066FE97
:1005100005F05AF800000800000600200000000066
:1005200000000000B4FFFF1FD0020020F5550000BE
:1005300072B606480649074A02600A6003F0A4F84A
:1005400003F0E4F862B6FFF7BDFF000080E100E0D1
:1005500080E200E0FFFFFFFF004800475905000070
:1005600002B4714649084900095649008E4402BC4C
:100570007047C04602B4714649084900095C490009
:100580008E4402BC7047C046002243088B4274D39D
:1005900003098B425FD3030A8B4244D3030B8B4284
:1005A00028D3030C8B420DD3FF22090212BA030C8D
:1005B0008B4202D31212090265D0030B8B4219D36E
:1005C00000E0090AC30B8B4201D3CB03C01A52418E
:1005D000830B8B4201D38B03C01A5241430B8B42D6
:1005E00001D34B03C01A5241030B8B4201D30B03BF
:1005F000C01A5241C30A8B4201D3CB02C01A5241E6
:10060000830A8B4201D38B02C01A5241430A8B42A8
:1006100001D34B02C01A5241030A8B4201D30B0291
:10062000C01A5241CDD2C3098B4201D3CB01C01AAB
:10063000524183098B4201D38B01C01A52414309B5
:100640008B4201D34B01C01A524103098B4201D3A3
:100650000B01C01A5241C3088B4201D3CB00C01A10
:10066000524183088B4201D38B00C01A5241430888
:100670008B4201D34B00C01A5241411A00D20146AD
:10068000524110467047FFE701B5002000F0FCF82A
:1006900002BDC0460029F7D003B5FFF775FF0EBCB9
:1006A0004243891A1847C04603460B437FD40022B1
:1006B00043088B4274D303098B425FD3030A8B42F6
:1006C00044D3030B8B4228D3030C8B420DD3FF2260
:1006D000090212BA030C8B4202D31212090265D02E
:1006E000030B8B4219D300E0090AC30B8B4201D3E1
:1006F000CB03C01A5241830B8B4201D38B03C01A28
:100700005241430B8B4201D34B03C01A5241030B9E
:100710008B4201D30B03C01A5241C30A8B4201D34F
:10072000CB02C01A5241830A8B4201D38B02C01AFA
:100730005241430A8B4201D34B02C01A5241030A71
:100740008B4201D30B02C01A5241CDD2C3098B4256
:1007500001D3CB01C01A524183098B4201D38B01D3
:10076000C01A524143098B4201D34B01C01A524176
:1007700003098B4201D30B01C01A5241C3088B42BB
:1007800001D3CB00C01A524183088B4201D38B00A6
:10079000C01A524143088B4201D34B00C01A524148
:1007A000411A00D201465241104670475DE0CA0F1F
:1007B00000D04942031000D34042534000229C46DF
:1007C00003098B422DD3030A8B4212D3FC228901E9
:1007D00012BA030A8B420CD3890192118B4208D3BF
:1007E000890192118B4204D389013AD0921100E021
:1007F0008909C3098B4201D3CB01C01A5241830935
:100800008B4201D38B01C01A524143098B4201D361
:100810004B01C01A524103098B4201D30B01C01A8C
:100820005241C3088B4201D3CB00C01A5241830806
:100830008B4201D38B00C01A5241D9D243088B425C
:1008400001D34B00C01A5241411A00D201466346FF
:1008500052415B10104601D34042002B00D5494263
:10086000704763465B1000D3404201B5002000F0A2
:100870000BF802BD0029F8D003B5FFF715FF0EBC39
:100880004243891A1847C0467047C04608B50A4B0C
:100890001A68002A01D1094A1A601A680849101812
:1008A000884206D904F08AFE0C23036001204042EE
:1008B00001E01860101C08BDD0FFFF1FD00200200F
:1008C000D00200200223807883428041404270475A
:1008D000437A0020013B012B03D901200B7801331F
:1008E0000B70704708B5002004F0A6FA002803D06A
:1008F0000020011C04F094FA08BD0000024A1368AD
:10090000013313607047C0462000002037B5002037
:1009100003F096F9C02300250D4A9B0013600D4A91
:100920000D4C13600D4A281C13600D4B2571657129
:10093000A5711A68FA239B0053430A49236004F007
:10094000C9FA281C211C01AA04F02CFB37BDC046A3
:10095000189014541C9014541800002000A0145433
:1009600014FEFF1F2400002010B58024002004F096
:10097000F5FA0A4B64001C60094B07201C60094B08
:100980001C6003F0F7FB062003F0F4FB201C03F0CF
:10099000F1FB002003F059F910BDC0461890145423
:1009A0001C90145400A0145408B5002003F052F910
:1009B0008023054A9B001360044A00201360044909
:1009C00003F0B8FC08BDC0460CA0145410A0145489
:1009D000D4FFFF1F08B5002003F0E8FC802382202D
:1009E000074A5B001360074A4000136003F0C2FB34
:1009F0000420FF3003F0BEFB002003F030F908BDF7
:100A00000CA0145410A0145408B50023354A3649DC
:100A10001360364A1360364A0133FF331360354A98
:100A20001360354A1360354A1360354A1360354AFE
:100A30001360354A1360012208780240081C3349CC
:100A4000002A01D00B6000E00A60314A314913608E
:100A500000220A6030490A60304A1360304A13604D
:100A6000304A1360304A1360304A1360304A1360D2
:100A70000378DB0703D50220FF3003F06DFB09206C
:100A800003F078FB0C2003F075FB052003F072FBEC
:100A9000082003F06FFB0620FF3003F06BFB0E20F5
:100AA000FF3003F067FB8320400003F063FB082066
:100AB000FF3003F05FFB0C20FF3003F04DFB822082
:100AC000400003F057FB0420FF3003F053FB0720E6
:100AD00003F050FB062003F04DFB8020400003F0A4
:100AE00049FB08BD0C9014540CFEFF1F10901454C9
:100AF00014901454189014541C90145420901454AE
:100B0000249014543090145400A0145404A014548D
:100B100008A014540CA0145410A0145414A014547D
:100B200018A014541CA0145428A014542CA014541D
:100B300034A0145408B5092003F01CFB08BD08B507
:100B40000C2003F017FB08BD08B5384B984259D06C
:100B500013D8374B984243D007D8364B984230D001
:100B60006433984238D0C83B12E0334B98423ED0B1
:100B70006433984242D0314B15E0314B98422FD02C
:100B80000CD8304B98421CD06433984224D02E4B62
:100B9000984242D1052003F0EDFA15E02B4B984224
:100BA00025D006D82A4B984237D1052003F0E2FA27
:100BB00020E0C8231B01984220D0264B984221D028
:100BC0002BE0052003F0C8FA082003F0D3FA062032
:100BD000FF3003F0CFFA24E0052003F0CBFA02E067
:100BE000052003F0B9FA082003F0B6FAEFE7052074
:100BF00003F0B2FA082003F0BDFA09E0052003F083
:100C0000B9FA02E0052003F0A7FA082003F0A4FADD
:100C10000620FF3003F0A0FA03E000200E4902F0A6
:100C20001DFD0E4B186802F035FE08BDC40900001A
:100C3000340800006C070000FC0800009808000061
:100C4000540B00008C0A0000280A00001C0C000055
:100C5000B80B0000E40C0000E859000008FEFF1F7C
:100C600008B5FFF771FF092003F076FA0C2003F0B6
:100C700081FA8320400003F07DFA08BD08B5FFF734
:100C800063FF092003F076FA0C2003F065FA832055
:100C9000400003F061FA08BDAF2108B50B4B021C00
:100CA000C3189BB289008B4202D8FFF7D9FF0BE033
:100CB000074BC3189BB28B4202D8FFF7DFFF03E05C
:100CC0000020044902F0CAFC08BDC046F8F8FFFF46
:100CD000D8F5FFFF155A000008B5FFF72BFFFFF707
:100CE0002EFF8320400003F037FA024B186802F011
:100CF000D1FD08BD08FEFF1F10B5041C002901D05E
:100D0000FFF782FE0021022001F070FA211C04206E
:100D100001F06CFA10BD08B501200021FFF7ECFFCF
:100D20003C200121FFF7E8FFF6E70000F0B591B0A5
:100D30001D1C16AB0C91197817AB05921A7818ABDD
:100D40001B78041C0D931CAB1B780EA80E931DABD7
:100D50001B88089321231B18DB7F09931FAB1B887B
:100D60000F9320AB1B780A930B1C914200D9131CE4
:100D7000DFB2059B002D02D1002B06D101E0002B34
:100D800003D00020544902F069FC0898FFF784FF63
:100D9000211C002002F052FA0023089C02930393C6
:100DA0000793049300230693069A199B93426BDBE7
:100DB00000261A9B9E4264DABB190B932C226B46C9
:100DC0009B18187801210C9B9847002838D1049B68
:100DD00001330493089B9C4204D9643CA4B2201CB8
:100DE000FFF75AFF002D16D0099A6B7BD31A5A428F
:100DF0005341039AD31803930A9B002B39D0EB7A03
:100E0000287B697B00900191DBB2F2193349002005
:100E100002F024FC2DE0059B099A1B7AD31A5A4252
:100E20005341039AD31803930A9B002B21D0059BAF
:100E3000F2191B7A281CDBB2294902F00FFC18E0DA
:100E4000022810D1002027490B9A02F007FC079BCB
:100E5000013307930F9B9C420BD26434A4B2201C35
:100E6000FFF71AFF05E0033843425841029B1B1865
:100E700002931B9B002B02DD181C02F00BFD0136B8
:100E800097E7069B01338EE70E9B002B04D07B1C5B
:100E9000DFB20D9B9F4285D9049A079B9446124965
:100EA0006344002002F0DAFB322002F0F3FC099BDD
:100EB000039A00930D49049B002002F0CFFB3220DF
:100EC00002F0E8FC0A49029A002002F0C7FB322037
:100ED00002F0E0FC11B0F0BDE8590000D55A000066
:100EE000FA5A00000F5B0000225B00003A5B000032
:100EF0006B5B0000F0B591B00D9316AB0F1C02CBED
:100F0000041C1B780E931AAB1B880F931BAB1D8818
:100F10001CAB1E78002811D0101CFFF745FD601E89
:100F2000132877D8FFF726FB0E45484B4E765154D1
:100F3000575A5D60636966766C6F7625394902F0B1
:100F40007DF96DE0312200230292199A00970392F5
:100F5000169A01930492189A089605920D9A09958B
:100F600006920F9A304807920E9A30490A92304AF8
:100F70001CE0A0218022C9011202052001F0A6FF79
:100F8000052200230292199A2A480392169A2A49A6
:100F90000492189A009705920D9A019306920F9A5F
:100FA000089607920E9A09950A92244AFFF7BEFE08
:100FB0002DE00020224928E00020224925E00020E1
:100FC000214922E0002021491FE0002020491CE0A7
:100FD0000020204919E000201F4916E000201F4989
:100FE00013E000201E4910E000201E490DE0002003
:100FF0001D490AE000201D4907E000201C4904E0CB
:1010000000201C4901E000201B4902F017F9FFF7FE
:10101000E1FC05E01949221C002002F01FFBF6E765
:1010200011B0F0BD805B0000AC5B00006D230000E0
:1010300008000020BA5B0000212F0000F8FFFF1F0E
:10104000C65B0000F15B0000225C0000525C000007
:10105000825C0000AF5C0000DC5C0000085D00000A
:10106000365D0000625D00008F5D0000BB5D00002A
:10107000E75D0000145E0000405E00006C5E000052
:10108000031C303B021C181E09280CD9131C613BA1
:10109000052B01D8573A05E0131C413B0020052BD6
:1010A00001D8373A101C704770B502F0E2F8051C01
:1010B00002F0DFF8FF24061C281C2040FFF7E0FFA9
:1010C000051C301C2040FFF7DBFF2D012818C0B2A3
:1010D00070BD70B502F0CDF8041C02F0CAF8061C11
:1010E00002F0C7F8051C02F0C4F8FF23FA221C40E6
:1010F0001D409200303C544364212A1C1E40303E67
:101100004E43303A5A394A43A4190340A218303B9F
:10111000D01870BD70B50C1C161C88B00CAA1578C0
:1011200006A908800A4A05A805700A4D12682D68AC
:101130004A6004AA1670009001930295231C0020B7
:1011400003F05AFA431E9841400008B070BDC046F3
:1011500010FEFF1F18FEFF1FF7B56A46CB1DDB0808
:10116000DB00D31A02AF9D46051C0C1CFFF7CEFB1B
:10117000FA23002002AE9B002A1C00940193011C5C
:10118000331C03F06BFF041CFFF7EEFB201CBD4675
:10119000441EA0418000F2BD08B50020014902F0C4
:1011A0004DF808BDBE5E000010B5094C0020211CA2
:1011B00002F044F8211C002002F040F8054900200C
:1011C00002F03CF80449002002F038F810BDC04697
:1011D000EA5E00001A5F00004B5F000028225423E3
:1011E000F0B5E9B008AFBA18D41800210722201CC6
:1011F00004F057FA28227423BA18D5182822603B25
:10120000BA18D3189C22BA18136028221C23BA18C3
:10121000D31828226B602423BA18D3182822EB6035
:101220002C23BA18D31828222B613423BA18D318C8
:1012300028226B613C23BA18D3182822AB614423BF
:10124000BA18D3182822EB614C23BA18D3182822D5
:101250002B6268239021BA18D318FA4A79180A60C9
:1012600003221A712C220126BA1800209A60BB634F
:101270002670AC6002F0DCFC301C02F0D9FC80224D
:10128000F14B12021A6002F023FB00200096021CB0
:10129000031C011C01F0F4FFEC49002001F0CEFF1B
:1012A000C82002F0F7FAEA49002001F0C7FFC82081
:1012B00002F0F0FAE749002001F0C0FFC82002F078
:1012C000E9FAE54A331C0221E44802F025FB311C0F
:1012D000301C02F02DFB002003F0EAFC28225C23E6
:1012E000BA18D118FC23DB000B800023CB8000232D
:1012F0000B81002300208B724E808E8003F006FD50
:101300002C230021F818321C04F0CBF95021FB6F7C
:101310007918FB64A28828200A802A21A27938182B
:1013200041180A70242203218218117058217B650C
:10133000A288791828200A803221A2793818411809
:1013400028200A702C210522381841180A704021E3
:10135000FB63A28879180A804221A27979180A7061
:101360003C21022279180A7048217B64A2887918EE
:1013700028200A802221A279381841180A704421B5
:10138000042279180A706021FB65A2887918282048
:101390000A803A21A2793818411828200A7034218D
:1013A00008223818411828200A7040217B66A2883C
:1013B0003818411828200A804221A279381841188B
:1013C00028200A703C220921381882182820117020
:1013D0004822FB66A38838188218282013804A22E6
:1013E000A379381882182820137044220A23381849
:1013F0008218137000224233C3181A702822102357
:10140000BA18D218281C331C02F072FC00210220EA
:1014100000F0ECFE9249934802F082FEFFF7F4FAE6
:101420000820FF3002F098FEC82002F033FA0820AE
:10143000FF3002F09FFEC82002F02CFA0820FF3097
:1014400002F08AFEC82002F025FA0820FF3002F0E0
:1014500091FEC82002F01EFA0820FF3002F07CFE48
:10146000C82002F017FA0820FF3002F083FE1D208A
:101470007D4900F053FF40207C4901F021FDFFF73A
:101480002BFC01F071FC00233B62FB6180231B02FB
:101490007B6200237B610333BB617549002001F04F
:1014A000CDFE744C744E206802F0F4F973490020AC
:1014B00001F0C4FE206802F0EDF971493A6AFB6957
:1014C000002002F0CBF8206802F0E4F96D4B6E4D7D
:1014D0006E491A682B68096800200091796A0191A9
:1014E0006B4902F0BBF8206802F0D4F9694B6A4AF4
:1014F0000020D258736931680091684902F0AEF853
:10150000206802F0C7F9664B65491A785B788979DB
:10151000D2B2DBB200910020624902F09FF820684D
:1015200002F0B8F95E4B60491A7A1B7E0978D2B294
:10153000DBB2009100205D4902F090F8206802F0D3
:10154000A9F95B4B5B491A785B780969D2B2DBB2C7
:1015500000910020584902F081F8206802F09AF9C1
:10156000564B4D499A78564BD2B2CB5871680020F1
:101570000091544902F072F8206802F08BF9524B46
:1015800052491A682C23FB181B78002002F066F8D9
:10159000206802F07FF94E49002001F04FFE2068DC
:1015A00002F078F94B49002001F048FE206802F073
:1015B00071F94949002001F041FE206802F06AF902
:1015C0004649002001F03AFE206802F063F94449E0
:1015D000002001F033FE206802F05CF94149002050
:1015E00001F02CFE206802F055F93F49002001F07F
:1015F00025FE206802F04EF93C49002001F01EFE55
:10160000206802F047F93A49002001F017FE2068EF
:1016100002F040F93749002001F010FE206802F086
:1016200039F9FA69BB693449002002F017F82068DB
:1016300002F030F93149002001F000FE206802F08C
:1016400029F95DE0D1080000280200207D5F00003C
:10165000985F00009E5F000028FEFF1F34FFFF1F01
:1016600044FEFF1F34FEFF1F08000020F8FFFF1F8D
:10167000A55F000000FEFF1F00D00340C95F00000F
:10168000FB5F000010FEFF1F14FEFF1F04FEFF1F84
:101690002F6000003C1000000070044067600000F4
:1016A000004006409D60000000500640CC600000F5
:1016B00000E0074000ED00E0FC60000000D00740C3
:1016C0003410000036610000200000206E61000030
:1016D0009C610000A6610000C3610000DF610000A2
:1016E000FB610000186200003F6200005E620000C3
:1016F0007D620000A8620000CB620000FA62000078
:10170000E249002001F09AFD206802F0C3F8E049A8
:10171000002001F093FD206802F0BCF8DD490020B4
:1017200001F08CFD206802F0B5F8DB49002001F0E3
:1017300085FD206802F0AEF8D849002001F07EFD5A
:10174000206802F0A7F8D649002001F077FD206854
:1017500002F0A0F8D349002001F070FD206802F0EB
:1017600099F8D149002001F069FD206802F092F853
:10177000CE49002001F062FD206802F08BF8CC49D0
:10178000002001F05BFD206802F084F8C9490020C8
:1017900001F054FD206802F07DF8C749002001F0F7
:1017A0004DFD206802F076F8C449002001F046FDA6
:1017B000206802F06FF8C249002001F03FFD206868
:1017C00002F068F8BF49002001F038FD206802F0FF
:1017D00061F8BD49002001F031FD206802F05AF89F
:1017E000BA49002001F02AFD206802F053F8B849F8
:1017F000002001F023FD206802F04CF801F039FDD3
:10180000FF22061C0240672A00D128E25DDC362A4E
:1018100001D100F039FC26DC322A00D1FEE20CDCDA
:101820000A2A01D100F09CFC312A01D000F09EFC74
:10183000A849002001F012FFF0E2342A01D100F0A3
:10184000F2FB01DD00F006FC786AFFF7ADF801213C
:101850007A6A2A2000F067FD00209F4901F0FEFE11
:101860009E4B3B61A6E3632A00D191E11BDC612A18
:1018700073D000DD78E1392A01D000F077FCFA243A
:101880009749002001F0DAFC786AFFF78DF8012112
:101890007A6A2A2000F047FD0020924901F0DEFE1E
:1018A000A40000F00AFC652A00D182E100DD8BE192
:1018B0008D49002001F0C2FCFFF70BFC8B4B8C49DB
:1018C00018601A68002000F053FC6E2A00D17EE2F6
:1018D00020DC6A2A00D1D7E113DC682A00D1CAE1F2
:1018E000692A01D000F042FC8249002001F0A6FCE8
:1018F000FFF7EFFB83B27B621A1C00207E4900F0E9
:1019000037FC6B2A00D018E27C49002001F096FCDD
:10191000FFF701FA732A00D168E20ADC702A00D1CD
:101920005EE200DA58E20820722A00D159E200F0A3
:101930001DFC752A00D161E200DAAEE5782A01D0FB
:1019400000F014FC6E49002001F078FC6D4801F0B5
:10195000A1FF00206C4900F005FC6C49002001F05B
:101960006DFC6B49002001F069FC206801F092FFDA
:101970006849002001F062FC6749002001F05EFC2C
:101980006649002001F05AFC206801F083FF644999
:10199000002001F053FC206801F07CFF6149002029
:1019A00001F04CFC206801F075FF5F49002001F058
:1019B00045FC206801F06EFF5C49002001F03EFC10
:1019C000206801F067FF5A49002001F037FC2068C9
:1019D00001F060FF5749002001F030FC206801F061
:1019E00059FF5549002001F029FC206801F052FF01
:1019F0005249002001F022FC206801F04BFF5049C1
:101A0000002001F01BFC206801F044FF4D4900203C
:101A100001F014FC206801F03DFF4B49002001F06B
:101A20000DFC206801F036FF4849002001F006FC5B
:101A3000206801F02FFF4649002001F0FFFB2068DD
:101A400001F028FF4349002001F0F8FB4249002043
:101A500001F0F4FB206801F01DFF4049002001F077
:101A6000EDFB206801F016FF01F003FCFF220240AD
:101A7000352A03D13A4B7B6101230DE56D2A00D055
:101A800074E3384B7B61142306E5C04616630000FF
:101A90003A6300005E630000786300009363000017
:101AA000B1630000CE630000ED6300000C64000031
:101AB000266400005164000071640000916400001D
:101AC000AE640000EA6400000165000018650000D3
:101AD00037650000A76F0000FF6F0000881300004B
:101AE0006570000036700000646A000004FEFF1F8D
:101AF000936A0000306C00006C6C0000166E0000F1
:101B00007E6F0000102700009D6F00004A650000F6
:101B10005565000093650000D5650000166600005D
:101B20005666000086660000C3660000026700007B
:101B3000406700007D670000BB670000F867000099
:101B400037680000746800009D680000DA680000D3
:101B5000116900004E6900008B6900009E69000059
:101B600008000020F8FFFF1FEB49002001F066FB92
:101B7000FFF7AFFAE94B18601A68E94B9A4202D1B5
:101B8000E84BE64A1360E54B00201A68E649EFE2AD
:101B9000E649002001F052FBFFF79BFA28602A6813
:101BA000DF4B9A4201D1DF4B2B602A680020E049CD
:101BB000DEE2E049002001F041FBFFF775FAF86131
:101BC000DD490020FA69D3E2DC49002001F036FB50
:101BD000FFF76AFA051CDA4C2A1C211C002001F0D0
:101BE0003DFDD849002001F029FBFFF75DFA2821CF
:101BF00008237918CE18021C3070211C002001F037
:101C00002DFD992D02D10020CF49ABE22822982347
:101C1000BA18D418C14B386A1B6825806360FFF777
:101C20003BF8786AFEF7C0FE34223B7FBA18137087
:101C3000C64B211C1A682824012302920C223C194D
:101C4000A21800960193002002F0D6FC021E03D0D9
:101C50000020BF4901F002FDFEF7BCFE1DE4BD49B6
:101C6000002001F0EBFAFFF734FA83B23B621A1C52
:101C70000020B9497CE2B949002001F0DFFA0120D7
:101C8000FFF792FAFFF709FCFA69B549002001F065
:101C9000E5FC01F0EEFAB349041C002001F0CEFA95
:101CA00001F0E7FAB0493861002001F0C7FA01F00D
:101CB000E0FAAE49F860002001F0C0FAFFF709FA37
:101CC000AB49061C002001F0B9FAFFF702FAA94956
:101CD000051C002001F0B2FAFFF7FBF9A649B86035
:101CE000002001F0ABFAFFF7DFF9786000957B6A1E
:101CF00002960193A149BA69FB69002001F0AEFC8C
:101D0000231C303B1C1C3A69631E9C41303A0092F4
:101D1000FA680296303A511E8A41039501923A6A56
:101D2000E3B204923A8905927A680692B869F96931
:101D30007A6AFFF7DFF8FFF7B0FB8849002001F06F
:101D40007DFA8F49002001F079FAFFF7ADF92822DA
:101D50009823BA18D51828708A49002001F06EFA25
:101D6000FFF7B7F9F6B2041C2B786C2E1AD17A6AF9
:101D7000002000923A6A84490192221C01F06EFC14
:101D80000025A54201DBFFF788FB28229823BA181B
:101D9000D3181A780023FF2000930121FFF7BAF926
:101DA0000135EEE73A6A002000927849221C01F0E2
:101DB00055FC0025A54201DBFFF76FFB2822982385
:101DC000BA18D0180121FFF7C7F90135F2E7386AD0
:101DD000FEF762FFFFF761FBFEF77EFFFFF75DFB9B
:101DE0000220002100F002FAFFF757FB5B490020B8
:101DF00001F024FAFFF7D0F9FFF74FFB7B69002BC6
:101E000002D1181C6249ADE16249002001F016FAC6
:101E1000FFF74AF97B691870FFF73FFB5E49002026
:101E200001F01CFC786AFEF7BFFD2A2001217A6AC6
:101E300000F079FA33240025013C002C10D0012059
:101E4000022100F093FA554B1A7A5B7A92019B08B3
:101E50001343802292015340514A9B18ED18EBE73F
:101E6000281C3221FEF720FC061C4E49201C321C87
:101E700001F0F4FBFA206B46CCB008AD80003B616A
:101E800001F008FD2B1C2C1C2D33FF33FB600221BD
:101E9000012000F06BFA414A0020137A527A9B012C
:101EA00092081A4380239B015A403D4B3E49D21869
:101EB00092B2931B12B22380921B01F0CFFBFB68FE
:101EC00002349C42E3D10020384901F0C7FB0024D2
:101ED000A2B29621281C01F068F8282198237918CD
:101EE0006200CB180134D052602CF1D1002428229A
:101EF0009823BA18D518625F00202D49023401F0EA
:101F0000ADFBC02CF3D1281C602100F009FF3B6918
:101F10009D46FFF7C2FAC046CE69000010FEFF1FC3
:101F20000F27000010270000FC6900001C6A000059
:101F30004A6A0000AE6A0000E46A0000FB6A000022
:101F40002E6B0000446B00006D6B000018FEFF1F3D
:101F5000936B0000B46B0000E06B0000026C0000AB
:101F6000896C0000C36C0000EC6C0000056D000083
:101F7000446D0000706D0000A86D0000D96D000078
:101F8000396E0000586E0000786E0000CA6E0000C6
:101F9000086F0000466F0000C36F000008000020BB
:101FA00000E0FFFFDD6F0000E56F0000EC6F000058
:101FB000F76F000080260221012000F0D7F96E4D56
:101FC000B6012B7A6A7A9B0192081A436B4B7240D6
:101FD000D21893B202210320FB6000F0C7F92A7ADD
:101FE0006C7A9201A4081443644B744002210520CA
:101FF000E41800F0BBF92A7A6B7A92019B0813432C
:102000005E495E407618A4B20C23FA5E002023B22B
:1020100000965B4901F022FB3B69013B3B61002BD1
:10202000C8D1FFF73AFA5749002001F007F901F04B
:1020300020F9FFF725F828229823BA18D418206031
:1020400001F017F9FFF71CF86060201C00F03EFE5D
:10205000FFF723FA786AFEF7A7FC03217A6A2A20A1
:1020600000F061F9FA240020474901F0F7FAA400D2
:102070000120022100F07AF93F4B013C1A7A5B7A89
:10208000002CF5D1FFF709FA0020404901F0E6FAEB
:102090000024201C00F077FF28229823BA18D518B6
:1020A0002860201C00F066FF01346860281C00F0E6
:1020B0000DFE642CEDD1FFF7F0F90221012000F0B4
:1020C00055F92D4B00201A7A5B7A92019B08134335
:1020D000802292015340294A2D499B181A1C013C29
:1020E00001F0BCFA002CE8D1201C2A49FA2401F0A6
:1020F000B5FAA4000221032000F038F91E4B00209D
:102100001A7A5B7A92019B08134380229201534012
:102110001A4A1F499B181A1C013C01F09FFA002C17
:10212000E8D1201C1C49FA2401F098FAA4000221ED
:10213000052000F01BF9104B00201A7A5B7A9201FF
:102140009B0813438022920153400C4A10499B186C
:102150001A1C013C01F082FA002CE8D1FFF79DF92E
:1021600000200E4901F06AF8FFF797F900200C49AA
:1021700001F074FAFFF791F90800002000E0FFFF7A
:102180000E7000001C700000367000004C700000E3
:1021900090700000A1700000B7700000CD700000CA
:1021A000B26900001FB5041C01A9002002F0D6FD91
:1021B00001A8694602F010FD009B68461C1901A9A0
:1021C000009402F091FC01A90122002002F0F2FD2E
:1021D0001FBD00000022034B1A608022024B120632
:1021E000DA67704700A01C5804E100E010B50A232C
:1021F00008286FD80C1CFEF7BDF9051B283C486267
:102200006466570001F00AFF0523012862D0FFF73A
:10221000E1FF201CFFF7C6FF0020011C01F08CFD30
:10222000041C0020012101F083FB002C4FD150E061
:1022300001F0F4FE062301284CD0FFF7CBFF201C51
:10224000FFF7B0FF01200021E8E701F0E7FE0823D7
:1022500001283FD001F0F4FB002803D00020012129
:1022600001F066FB0220002101F066FD00282ED15E
:102270002FE001F0D3FE072300282BD0FFF7AAFFA1
:10228000201CFFF78FFF032005E0FFF7A3FF201CB2
:10229000FFF788FF0420002101F04EFD041C01F02F
:1022A000BDFE0028C1D1BDE70820002101F044FD9A
:1022B00000280CD10120011C01F03AFB09E00520A7
:1022C00002E0062000E00720002101F035FD09238F
:1022D00000E00023181C10BD10B50C1C0C4B88B07E
:1022E0001B7806A90B800B4B05AA1B6810700A48C7
:1022F0004B6004AB1C7000680093012302900193B3
:10230000002002F079F9431E9841400008B010BD4A
:102310000800002010FEFF1F18FEFF1FC223FF331E
:1023200008704B60704708B518280FD8172818D2C6
:102330000F2806D80E2814D2031C093B012B13D8F2
:102340000FE0031C113B042B0ED80AE0212804D80F
:102350001F2806D21D2807D103E0031C233B0E2BA8
:1023600002D8FFF7B9FF00E0032008BDFF2310B536
:1023700088B005AA1370182804D8092806D20628A0
:102380001BD803E0031C1D3B142B16D80C4B1070FC
:102390001C7806AB1C800B4C0B4824680068079423
:1023A0000A4C01910290191C00940123002002F0B4
:1023B00030F9431E9841400000E0032008B010BDF2
:1023C0000800002010FEFF1F18FEFF1F1000002055
:1023D00037B50E24FF34051C201C01F0BDFE0A2079
:1023E00001F058FA201C01F0C5FE0C2001F0C2FEDD
:1023F0000123084A002015700093FA239B000193E3
:10240000011C054B02F02AFE051C201C01F0A4FE55
:10241000281C3EBD550000205400002008B50020B7
:10242000FFF7D6FF3F20FFF7D3FF0020FFF7D0FFD5
:10243000002008BD08B52220FFF7CAFF0020FFF7E3
:10244000C7FF0020FFF7C4FF5F20FFF7C1FF3F2059
:10245000FFF7BEFFFFF7E2FFFFF7E0FF002008BD38
:1024600038B5051C0C1C1535EDB22120FFF7B0FF67
:10247000281CFFF7ADFF201CFFF7AAFF3834281CEB
:10248000FFF7A6FFE0B2FFF7A3FFFFF7C7FF0020AB
:1024900038BDF8B5061C0C1C351C271C2120FFF785
:1024A00097FF2A35301CEDB2FFF792FF201CFFF793
:1024B0008FFF281CFFF78CFF201CFFF789FFFFF719
:1024C000ADFF2120FFF784FF281CFFF781FF1C3799
:1024D000201CFFB2FFF77CFF281CFFF779FF381C98
:1024E000FFF776FFFFF79AFF2120FFF771FF281C07
:1024F000FFF76EFF381CFFF76BFF301CFFF768FF1C
:10250000381CFFF765FFFFF789FF2120FFF760FF09
:10251000301CFFF75DFF3834381CE4B2FFF758FF7A
:10252000301CFFF755FF201CFFF752FFFFF776FF27
:102530002120FFF74DFF301CFFF74AFF201CFFF75B
:1025400047FF281CFFF744FF201CFFF741FFFFF760
:1025500065FF0020F8BDF8B5071C0C1C3D1C261CAF
:102560002120FFF735FF2A35381CEDB2FFF730FF89
:10257000201CFFF72DFF281CFFF72AFF201CFFF768
:1025800027FFFFF74BFF2120FFF722FF281CFFF753
:102590001FFF3836201CF6B2FFF71AFF281CFFF782
:1025A00017FF301CFFF714FFFFF738FF2120FFF75C
:1025B0000FFF281CFFF70CFF301CFFF709FF381C2A
:1025C000FFF706FF301CFFF703FF1C34FFF726FF61
:1025D0002120FFF7FDFEE4B2381CFFF7F9FE201CB6
:1025E000FFF7F6FE281CFFF7F3FE201CFFF7F0FEB6
:1025F000FFF714FF0020F8BD70B50D1C041C2E1C45
:102600002120FFF7E5FE201CFFF7E2FE2A36281CFA
:10261000F6B2FFF7DDFE201CFFF7DAFE301CFFF7F5
:10262000D7FEFFF7FBFE2120FFF7D2FE201CFFF7AD
:10263000CFFE301CFFF7CCFE201C2A30C0B2FFF7C3
:10264000C7FE1534301CE4B2FFF7C2FEFFF7E6FE0A
:102650002120FFF7BDFE201CFFF7BAFE281C1C300E
:10266000C0B2FFF7B5FE3835201CFFF7B1FEE8B267
:10267000FFF7AEFEFFF7D2FE002070BDF8B5061CD6
:102680000C1C351C271C2A35EDB22120FFF7A0FEBB
:10269000281CFFF79DFE201CFFF79AFE301CFFF759
:1026A00097FE201CFFF794FEFFF7B8FE2120FFF7EE
:1026B0008FFE301CFFF78CFE1C37201CFFB2FFF78B
:1026C00087FE301CFFF784FE381CFFF781FEFFF702
:1026D000A5FE2120FFF77CFE301CFFF779FE381C99
:1026E000FFF776FE281CFFF773FE381CFFF770FE1D
:1026F000FFF794FE2120FFF76BFE281CFFF768FE12
:102700003834381CE4B2FFF763FE281CFFF760FE84
:10271000201CFFF75DFEFFF781FE2120FFF758FE2A
:10272000281CFFF755FE201CFFF752FE301CFFF758
:102730004FFE201CFFF74CFEFFF770FE0020F8BD97
:10274000F8B5061C0C1C351C271C2A35EDB22120BF
:10275000FFF73EFE281CFFF73BFE201CFFF738FE6C
:10276000301CFFF735FE201CFFF732FEFFF756FE48
:102770002120FFF72DFE301CFFF72AFE3837201CE2
:10278000FFB2FFF725FE301CFFF722FE381CFFF7D3
:102790001FFEFFF743FE2120FFF71AFE301CFFF754
:1027A00017FE381CFFF714FE281CFFF711FE381C1B
:1027B000FFF70EFEFFF732FE2120FFF709FE281C6F
:1027C000FFF706FE1C34381CE4B2FFF701FE281C9C
:1027D000FFF7FEFD201CFFF7FBFDFFF71FFE21208A
:1027E000FFF7F6FD281CFFF7F3FD201CFFF7F0FDB7
:1027F000301CFFF7EDFD201CFFF7EAFDFFF70EFE92
:102800000020F8BD38B5051C0C1C2120FFF7E0FDA9
:10281000281C2A35EDB2FFF7DBFD201CFFF7D8FDA1
:10282000281CFFF7D5FD201CFFF7D2FDFFF7F6FDB2
:102830002120FFF7CDFD281CFFF7CAFD201CFFF764
:10284000C7FD3834281CFFF7C3FDE0B2FFF7C0FD19
:10285000FFF7E4FD002038BDF8B5061C0C1C351C44
:10286000271C2120FFF7B4FD2A35301CEDB2FFF7FD
:10287000AFFD201CFFF7ACFD281CFFF7A9FD201CB5
:10288000FFF7A6FDFFF7CAFD2120FFF7A1FD281CD9
:10289000FFF79EFD3837201CFFB2FFF799FD281C7B
:1028A000FFF796FD381CFFF793FDFFF7B7FD2120DA
:1028B000FFF78EFD281CFFF78BFD381CFFF788FD06
:1028C000301CFFF785FD381CFFF782FDFFF7A6FDE2
:1028D0002120FFF77DFD301CFFF77AFD381CFFF744
:1028E00077FD301CFFF774FD201CFFF771FD1C34D1
:1028F000FFF794FD2120FFF76BFDE4B2301CFFF7DA
:1029000067FD201CFFF764FD281CFFF761FD201CFC
:10291000FFF75EFDFFF782FD0020F8BDF8B5071C4C
:102920000C1C3D1C261C2A35EDB22120FFF750FD62
:10293000281CFFF74DFD201CFFF74AFD381CFFF750
:1029400047FD201CFFF744FDFFF768FD2120FFF73E
:102950003FFD381CFFF73CFD1C36201CF6B2FFF78C
:1029600037FD381CFFF734FD301CFFF731FDFFF752
:1029700055FD2120FFF72CFD381CFFF729FD301CE9
:10298000FFF726FD281CFFF723FD301CFFF720FD75
:10299000FFF744FD2120FFF71BFD281CFFF718FD62
:1029A000201CFFF715FD3834281CFFF711FDE0B29D
:1029B000FFF70EFDFFF732FD0020F8BDF8B5061C4D
:1029C0000F1C351C3C1C2A35EDB22120FFF700FD01
:1029D000281CFFF7FDFC381CFFF7FAFC301CFFF742
:1029E000F7FC381CFFF7F4FCFFF718FD2120FFF778
:1029F000EFFC301CFFF7ECFC3834381CE4B2FFF776
:102A0000E7FC301CFFF7E4FC201CFFF7E1FCFFF7BC
:102A100005FD2120FFF7DCFC301CFFF7D9FC201C52
:102A2000FFF7D6FC281CFFF7D3FC201CFFF7D0FCD7
:102A3000FFF7F4FC2120FFF7CBFC281CFFF7C8FCB4
:102A4000201CFFF7C5FC281CFFF7C2FC381CFFF751
:102A5000BFFCFFF7E3FC2120FFF7BAFC281CFFF7BF
:102A6000B7FC381CFFF7B4FC301CFFF7B1FC201C8E
:102A7000FFF7AEFCFFF7D2FC0020F8BD08B525201B
:102A8000FFF7A6FC0020FFF7A3FC0020FFF7A0FC47
:102A90005F20FFF79DFC3F20FFF79AFC002008BD58
:102AA00008B52520FFF794FC0020FFF791FC0020DB
:102AB000FFF78EFC2F20FFF78BFC3F20FFF788FCF1
:102AC000002008BD08B52520FFF782FC3020FFF765
:102AD0007FFC0020FFF77CFC5F20FFF779FC3F20A4
:102AE000FFF776FC002008BD10B5041CFFF7D8FFE7
:102AF000002C04D10320011CFFF760FF3DE0012CF6
:102B000004D10320011CFFF7ABFC36E0022C04D1FA
:102B10000320011CFFF7BDFC2FE0032C04D1201C77
:102B2000211CFFF718FD28E0042C04D10320011C10
:102B3000FFF762FD21E0052C04D10320011CFFF703
:102B40009DFD1AE0062C04D10320011CFFF7F8FDBF
:102B500013E0072C04D10320011CFFF753FE0CE007
:102B6000082C04D10320011CFFF776FE05E0092C98
:102B700003D10320011CFFF7D1FE002010BD10B5CA
:102B8000041CFFF79FFF002C04D103213220FFF724
:102B900015FF3DE0012C04D103213220FFF760FC3A
:102BA00036E0022C04D103213220FFF772FC2FE023
:102BB000032C04D1211C3220FFF7CDFC28E0042C8B
:102BC00004D103213220FFF717FD21E0052C04D1A9
:102BD00003213220FFF752FD1AE0062C04D1032115
:102BE0003220FFF7ADFD13E0072C04D10321322082
:102BF000FFF708FE0CE0082C04D103213220FFF778
:102C00002BFE05E0092C03D132200321FFF786FEBD
:102C1000002010BDF0B585B0071CFFF72FFF6A46F6
:102C20006D460024284B03CB03C2161C03CB03C202
:102C30003B59002B04D1285D315DFFF7BFFE3DE01D
:102C4000012B04D1285D315DFFF70AFC36E0022B31
:102C500004D1285D315DFFF71CFC2FE0032B04D16C
:102C6000285D315DFFF777FC28E0042B04D1285D57
:102C7000315DFFF7C1FC21E0052B04D1285D315DFA
:102C8000FFF7FCFC1AE0062B04D1285D315DFFF74D
:102C900057FD13E0072B04D1285D315DFFF7B2FD2E
:102CA0000CE0082B04D1285D315DFFF7D5FD05E070
:102CB000092B03D1285D315DFFF730FE0434082C69
:102CC000B6D1002005B0F0BDD859000038B5134C7E
:102CD00003682268051C934206D0626841689142ED
:102CE00002D0FFF797FF13E02268934206D168688D
:102CF0006268904202D0FFF742FF09E022689342E7
:102D000006D062686968914202D1181CFFF7ECFE98
:102D10002B68002023606B68636038BD2CFEFF1FAA
:102D200038B50C1C051CFFF7A9FE602C03D9FFF772
:102D300081FB012017E000242120FFF749FB201C24
:102D4000FFF746FB2878FFF743FB201C0134FFF711
:102D50003FFBE4B22878FFF73BFB0235FFF75EFB51
:102D6000602CE9D1002038BDC02313B580244F4A20
:102D70009B0013604E4A64001360FDF7C7FD4D4B86
:102D8000201C1C604C4B1C604C4B1C6001F0E4F997
:102D9000642000F07FFD201C01F0ECF9642000F0BD
:102DA00079FD201C01F0D8F9642000F073FDAE20FD
:102DB000FFF70EFBA020FFF70BFB7220FFF708FBCD
:102DC000A120FFF705FB0020FFF702FBA220FFF781
:102DD000FFFA0020FFF7FCFAA420FFF7F9FA00241D
:102DE000A820FFF7F5FA3F20FFF7F2FAAD20FFF732
:102DF000EFFA8E20FFF7ECFAB020FFF7E9FA0B208C
:102E0000FFF7E6FAB120FFF7E3FA3120FFF7E0FA27
:102E1000B320FFF7DDFAF020FFF7DAFA8A20FFF798
:102E2000D7FA6420FFF7D4FA8B20FFF7D1FA782085
:102E3000FFF7CEFA8A20FFF7CBFA6420FFF7C8FA33
:102E4000BB20FFF7C5FA3A20FFF7C2FABE20FFF712
:102E5000BFFA3E20FFF7BCFA8720FFF7B9FA0E2031
:102E6000FFF7B6FA8120FFF7B3FA9120FFF7B0FA27
:102E70008220FFF7ADFAFF20FFF7AAFA8320FFF7C1
:102E8000A7FA7D20FFF7A4FAAF20FFF7A1FA2620CA
:102E9000FFF79EFA0120FFF79BFAFFF7EFFD684668
:102EA00000940194FFF712FF201C16BD20901454CB
:102EB0002490145434A014543090145400A014548A
:102EC0008023DB0508704B607047000000B589B0B7
:102ED00005AB0A0A1A705970002801D0052816D1CE
:102EE0000C4A06A912780A800B4A12684A6004AAA2
:102EF00010700A480068009302230290019300209A
:102F0000013B01F079FB431E9841400000E00320A3
:102F100009B000BDF8FFFF1F10FEFF1F18FEFF1FC6
:102F2000FF2100B589B005AA031C11700320052BF1
:102F300015D80C491370087806A908800A480B4B6D
:102F400000681B6848600A48029300900220012331
:102F50000190002001F05DFB431E9841400009B044
:102F600000BDC046F8FFFF1F10FEFF1F18FEFF1F29
:102F70000000002008B5632800DD63200A21FDF76A
:102F800079FC081C08BD10B5041E632C03DC00206E
:102F9000092C09DD00E06324201C0A21FDF76AFCEE
:102FA000601A0A21FDF780FB10BD10B5602909D910
:102FB0005143041C081C6021FDF776FB00B2400061
:102FC000025F04E00023914205D95200125ED3173C
:102FD0005B0E9B18DB11181C10BD0269C3689A4276
:102FE00003D880681018013800E0501EC01A7047DE
:102FF000F7B58368C668051C40680191141C9F1BC7
:103000008019974203D902F043FBA4190AE0019901
:103010003A1C02F03DFB019BE41BD9196868221C95
:1030200002F036FBEC60F7BD0023F7B5061C171C59
:10303000C568019100933369B468AB4200D81B198D
:10304000013B5B1B641BBC4200D93C1C9C4200D969
:103050001C1C7368221C5819019902F019FB009B73
:103060002D191B190093019B3F1B1B190193B3687A
:10307000EB1A5A1E93415B421D40F560002FDAD1D6
:103080000098FEBD022310B50F4C104A2361636106
:103090000F4BA261E361C823A2640E4A2362E2647B
:1030A00000230422A3626362E362A3656365E365B0
:1030B0002265E01D084902F0ADFB201C074902F023
:1030C000A9FB2023A37110BD24010020FF70000084
:1030D0005A00002056000020087100000C7100000A
:1030E000F0B5294B171C1A7885B000900191029316
:1030F000002A01D1FFF7C6FF1823009A0025534389
:10310000029AD3181A1C503252689C6D0392944252
:103110001BD91B6D3D1C1B1B9F4200D91D1C182673
:10312000009B2A1C5E43029B01989E19F36C7F1B37
:10313000191902F0ADFA019B64195B190193336D03
:10314000E31A5A1E93415B421C40039B1E1BBE4266
:1031500000D93E1C002E0CD01823009A019853432E
:10316000029AAD19D318D96C321C091902F090FAE1
:10317000A419002D05D01823009A5343024AD318EE
:103180009C65281C05B0F0BD2401002010B50B1C67
:10319000EFF31084012181F31088191CFFF7A0FFC1
:1031A00084F3108810BD0000F8B51823451C5D435A
:1031B0004343141C134A0E1CD018C76A5519012F1B
:1031C0000FD0002F07D0022F17D1221C281CFFF789
:1031D0002BFF041C14E0281CFFF7FFFEA0420ED3B7
:1031E00005E0281CFFF7F9FE844200D9041C281CC6
:1031F000311C221CFFF7FCFE02E0002400E03C1C16
:10320000201CF8BD24010020F8B50B4B071C1B78CF
:103210000E1C151C002B01D1FFF734FFEFF31084B7
:10322000012181F31088381C311C2A1CFFF7BCFFD8
:1032300084F31088F8BDC0462401002038B5051C71
:10324000081C0C1C02F0EEFA211C021C281CFFF7C3
:10325000DBFF38BD13B56B46DC1D0020211C0122AD
:10326000FFF794FF012801D1207801E001204042BE
:1032700016BD08B5FFF7EEFF0028FBDB08BD000018
:10328000F7B5164C01932378051C0F1C161C002B58
:1032900001D1FFF7F7FE23699D421CD2EFF31082A4
:1032A000012181F31088002D0CD01823691C59438B
:1032B0006B43675061184E600199E3181962002151
:1032C0009962596218235D43089B6419E36282F393
:1032D0001088002001E001204042FEBD24010020B2
:1032E000826810B5041C4068531C834205D82068CE
:1032F0008154A360E3680133E360A26863689A4283
:103300000CD120692168FFF77FFFA368984203D0A2
:1033100001235B42E36001E00023A36010BD0000D5
:10332000F0B5051C1F1C081C012685B00A9C0091E5
:103330000192019B984204D30199FDF725F90136CA
:10334000F7E70296BE4200D2029701230B9A1A4079
:10335000039218D1002C01D1002414E00B9B2026ED
:103360009B070DD5002F0BD1103609E0281C311C0E
:10337000FFF7B6FFEB68013C002B04DB002CEBD021
:10338000029BA342F2D3EB68002B35DB0126012F11
:1033900001D9013F06E00098311CFDF7F5F8019BCB
:1033A000984208D3019B5E43F1E7301C0199FDF779
:1033B000EBF8061E10D00098311CFDF7E5F8331C21
:1033C0004343009AD31A00930C4B195C281CFFF757
:1033D00087FFEB68002BE8DA039B002B0CD0002C56
:1033E0000AD0029BA34207D2281C2021FFF778FFB6
:1033F000EB68013C002BF2DA05B0F0BD1371000060
:10340000F0B59FB00EAB099340230A930023161C1E
:1034100006900B930D900C930B784C1C002B04D151
:103420000C9B0393002B22DC15E1252B16D10025E4
:1034300002314F1E3B782B2B0CD003D8232B27D1E6
:10344000082308E02D2B03D0302B21D1022302E0EA
:10345000012300E004231D430131EAE7191C09A8F8
:10346000FFF73EFF211C0C9B002BD5DAD8E70B9A07
:10347000002A03D006980EA9FFF7C6FE0C9B039303
:103480000B9B0493049A039B944663440C93E2E0E1
:1034900000243A78131C303B092B05D80A235C43DF
:1034A000303C0137A418F4E7002303932E2A0DD1F2
:1034B00001373A78131C303B092B07D80A230399AC
:1034C00001374B43303B9B180393F2E739780423D1
:1034D0000A1C9A43682A01D10137F7E7642926D0EC
:1034E00008D8582900D195E063291AD0252900D0A1
:1034F000AFE0ABE0732900D195E00DD8702900D082
:10350000A7E032680021131D336008230191009366
:10351000116809A8102296E0752971D0782979D010
:1035200097E0336819681A1D3260C9B28EE03368BB
:103530001A1D1B683260DA17981804930123504053
:103540000593092805DD0A21FDF7AEF8059B013337
:10355000F6E7059B039A934200D20592002C05D012
:10356000049B002B01DB6B0700D5013CAB0702D5A8
:10357000039B002B10D0EB070ED4002C01D10024AC
:103580000AE0059BA34207D209A82021FFF7A8FE65
:103590000C9B013C002BF0DA0C9B0793002B58DBB3
:1035A000049B002B04DA5B42049309A82D2103E05D
:1035B0006B0703D52B2109A8FFF792FE0C9B002B6C
:1035C00047DB03232B40022B11D1039B002B0ED191
:1035D000002C01D100240AE0059BA34207D209A8D0
:1035E0003021FFF77DFE0C9B013C002BF0DA0C9B99
:1035F0000593002B2DDB0094019509A8049906E0A2
:103600003368009401951A1D1968326009A80A22CE
:10361000039B18E0336800941A1D0195326009A8D5
:1036200019681022F4E733681A1D32601C6821788B
:10363000013400290DD009A8FFF752FE0C9B03931B
:10364000002BF4DA05E0FFF76BFE02E009A8FFF7B4
:1036500047FE791C07E70C981FB0F0BD0EB403B508
:1036600003AB02CB01AA0193FFF7CAFE02B008BC6C
:1036700003B0184708B5002000F08AFD08BD08B562
:10368000002001F0F5FB08BD082110B5164B9A7813
:103690000A4202D09A780A439A7088220021222096
:1036A000124B52019950124A10708020114A400268
:1036B00098501868104A024010481A601C58104A66
:1036C0002240C024A40422431A5080220D4B1972B8
:1036D0001A767F3A19705A700B4A11700C22997938
:1036E0001142FBD110BDC04600D00740007004401D
:1036F00000E0074044100000FFFFF3FF041000004B
:10370000FFFFFFF00040064000500640154B1648F2
:1037100010B5191E81420CD00022144B9B089B004F
:103720009A4203D084588C500432F9E7104B9960C8
:1037300001E00F4A936000230E4A0F49891A8B4219
:1037400004D0D45C0D48C4540133F8E700230C4A7C
:103750000C49891A8B4204D00024D018047001331C
:10376000F8E710BD000000000000000000000000AD
:1037700000ED00E07C7200003074000000FEFF1FCE
:10378000B4FFFF1FD002002000234170436003708C
:103790008360181C704710B54378041C0120FF2B70
:1037A00008D000F06DFA63780133DBB2637000F08B
:1037B0005BFA002010BD0020704738B5041C0D1CBA
:1037C00000F05EFAE1682943E16000F04DFA002064
:1037D00038BD000000220A4B9A641A1C40329A63DA
:1037E0001A1C30329A621A1C20329A611A1C10324A
:1037F0009A60044A1360044B9B60DB607047C046CC
:10380000B0010020AC0100209C0100200022024BEE
:103810001A60186880B270470C007C5038B5437845
:10382000041C0D1C002B0BD0002500F029FA637836
:10383000013BDBB26370257000F016FA281C28E00B
:103840000220002925D02378002B15D0FFF7DEFFBA
:103850006368A268984201D3C01A03E0C01A8023AB
:103860005B02C018824213D200F00AFA00232370D0
:1038700000F0FAF902200CE04B1C09D000F000FA2D
:103880000123237000F0F0F9FFF7C0FFA56060602E
:10389000032038BD38B5051CFFF7B8FF041CFFF73F
:1038A000B5FFA04201D3001B03E08023001B5B0295
:1038B000C0188542F3D238BD08B5012801D100F007
:1038C000DFF908BD08B5012801D100F0CDF908BD28
:1038D00010B5FFF77FFF01230020084A0849136055
:1038E000084A094C1060086004212160074C2160DF
:1038F00007490B6007490860136010BD3880045009
:1039000000008450000004500000045104000451E1
:1039100004000C500000045310B5044C20602171C9
:103920000020A2602373637310BDC0460002002014
:10393000F0B587B06B4602901B7A05AC23706B46DE
:1039400003911B7B3D4D63702B79029A04209342B7
:1039500071D92B7B6B730123A37000230193374E26
:103960000093337B009A371C93421AD9009BB268AC
:103970009B009B58002B10D01A79D2070DD51A68DE
:10398000201C99689047002807D06B461B787373FA
:10399000039B002B3AD005230193009B0133DBB23C
:1039A000DDE7019E002E02D0039B012B2FD10120C9
:1039B000FFF782FF0C20029B58432B68181800F079
:1039C000A7F86B461B7A01206B71FFF77BFF022380
:1039D0000025A3703B7BAB4216D9BA68AB009B585D
:1039E000002B0ED01A7992070BD51A68201C996803
:1039F0009047002805D0039B7D73002B1AD0062327
:103A000001930135EDB2E5E7019814E005260023A6
:103A1000009FA370013FFFB2FF2F09D0AA68BB002F
:103A20009B58002BF6D01A68201C99689047F1E744
:103A3000301C00E0062007B0F0BDC04600020020A8
:103A4000014B58797047C0460002002013B5002191
:103A50000378041C0191022B07D0032B0BD0012B00
:103A60000ED10279191C134801E00279114801AB0B
:103A700000F0CEFF08E001A90E4801F00BF803E0CA
:103A80000C4801A900F0A8FF002812D1A3790A4A26
:103A9000DB01DBB213706378084A5B00DBB21370A2
:103AA000A278074B1A70E278064B1A706279064BBF
:103AB0001A7016BD004006401840865300408650DC
:103AC0000040065001400650184016501F22802327
:103AD00002405B05D2051A43034943099B005B186A
:103AE0001A43002313607047288004401F2280215E
:103AF0000240D30549051943430904489B001B189C
:103B000019430123081C9340036070472880044038
:103B10000022072373B5041C104D0093281C131CAE
:103B2000012101F097F9201CFFF790FF0022637A32
:103B3000217A0093281C131C01F08CF9E379084AC0
:103B40009B041360074BA17A1D68281C00F0BEFF80
:103B5000281CE17A00F0C1FF002076BD007004400F
:103B600000700C597071000008B5054800F0F6FEB1
:103B7000044B1968C9B20131FCF706FD08BDC04607
:103B80000040064044801C5E08B5054800F0E6FE93
:103B9000044B1968C9B20131FCF7F6FC08BDC046F8
:103BA0000040064044801C5E08B5054800F0D6FE83
:103BB000044B1968C9B20131FCF7E6FC08BDC046E8
:103BC000004006404480145808B5054800F0C6FE81
:103BD000044B1968C9B20131FCF7D6FC08BDC046D8
:103BE00000400640448014580C4B1B68DBB2022B8B
:103BF0000DD0032B0ED0002B01D000200CE0802133
:103C0000074A09021268101E8842F6D104E0054BEB
:103C1000186801E0FA2080007047C04600700C5917
:103C2000280200202C02002008B5FFF7DDFF08BDA8
:103C300008B5024B185CFFF759FF08BD237100005F
:103C400008B57620FFF752FF08BD08B57620FFF7CC
:103C50003DFF08BD08B56620FFF748FF08BD08B561
:103C60006620FFF733FF08BD044A1368002B04D019
:103C7000013B1360002B00D162B670471002002098
:103C800072B6024A136801331360704710020020B5
:103C900010B50B4B0B4A1278002A04D1013B002BC4
:103CA000F8D103200AE0064C074801F069FB01281F
:103CB00003D0013C002CF7D1F3E7002010BDC04633
:103CC000EA03000002D0075100E0074010B5064C9F
:103CD000064801F055FB042804D0013C002CF7D124
:103CE000032000E0002010BDEA03000000E00740D0
:103CF000F7B5071C0E1C151C01930120002F18D0CE
:103D0000002916D0FFF7D8FD0A4C0021201C1022F4
:103D100001F0C7FC27602671002D06D06B461B7989
:103D2000A56023736B461B7963730120FFF7CAFDFF
:103D30000020FEBD14020020F0B5B24C8BB0029002
:103D40000191237B01206373FFF7B6FD2379029A6B
:103D5000934204D80120FFF7B5FD022050E1029AFA
:103D600023689200D6586B461B7907AC35782372CE
:103D70006B461B7A2A1C237002239A4366600392C7
:103D8000012A01D0052D0AD101219F4801F04AFAEC
:103D9000002809D10120FFF795FD012030E1072D12
:103DA00002D999480321F1E70123637200240094AA
:103DB000944F009A3B7B93421AD9009BBA689B00B0
:103DC0009B58002B0FD01A79D2070CD51A6807A878
:103DD00099689047002806D06B461B7804247B73B3
:103DE000019B012B04D1009B0133DBB20093DFE781
:103DF0000120FFF767FD854800F0D4FD039B012BF0
:103E00001DD10138C0B2022811D8FFF7DDFE804B6A
:103E100098420CD8FFF7A8FE7E4FB84207D8FFF7AC
:103E2000C3FEB84203D8FFF7AFFEB84207D9019BE3
:103E3000012B01D1062407E0002C05D1FAE7019BF4
:103E4000012B52D0002C50D00120FFF735FD00236C
:103E500007AE009D7372013DEDB2FF2D40D0694B5E
:103E6000AA009B68D358002BF5D01A79D207F2D557
:103E70001A68301C99689047EDE7072205AB1A7065
:103E800000225A70F2789A703279DA702B1C083B53
:103E900005A9022B03D873798B71B379CB71737831
:103EA000002B00D084E0584801F0F0F9002800D041
:103EB0000324002D00D08AE0FFF7EAFE002400284A
:103EC00000D09DE00120FFF7F7FC6B464D4E1B7ABA
:103ED0000025B373022307AF7B72337BAB427CD8E0
:103EE0000120FFF7EFFC201C8AE003200A2D00D9F7
:103EF00086E0281CFCF734FB06080A1940583339C1
:103F0000C1282D00002250E003224EE03E4801F07F
:103F100037FA012807D03C48002101F093F9FFF758
:103F2000B7FE041E6CD101223FE0374801F028FAA9
:103F3000042807D03448022101F084F9FFF7C6FEB7
:103F4000041E5DD1042230E0072205AB1A70063A48
:103F500003E0072205AB1A70043A5A7096E7022272
:103F600005AB1A70013A1A7104E00222012105AB77
:103F70001A7019715A7189E70222002705AB1A706D
:103F80002148013A1A715F7101F0FAF9012800D154
:103F90007CE71D48391C01F055F9FFF779FE041E36
:103FA000BC4200D172E72BE0052205AB1A706DE729
:103FB000012D00D877E7B2780220174B002A02D0F3
:103FC0001A69024301E01A6982431A616BE7012D05
:103FD00000D077E7FFF77AFE70E7B268AB009B5836
:103FE000002B0AD01A79920707D51A68381C9968ED
:103FF0009047002801D0052475730135EDB26CE7B8
:104000000BB0F0BD1402002000E007400040064065
:1040100040420F0080841E0000ED00E008B5064815
:1040200001F0AEF90023012803D00133042800D0A9
:104030000A33181C08BDC04600E00740F7B5FF244E
:1040400003681C4A1D0A25401C40AB009F581A4AB1
:10405000061C9B58281C0193FFF7EAFD211C002237
:10406000381C01F095F9019BA4001C1984233279B6
:104070005B05234352001A60802372795B0523435A
:104080001A609023B2795B05234312011A60F37919
:104090000A4A14431A042260002B0AD0084B5A5DC6
:1040A000002A06D01F23134001229A40131C054A00
:1040B0001360F7BD7C7100007471000000001818D7
:1040C0008471000000E100E0F8B5FF24051C0368DE
:1040D000114A180A20401C4083009F580F4A9E58DE
:1040E000FFF7A6FD381C211C012201F051F96A6876
:1040F000381C211C01F05CF988232A7AA4003419A9
:104100005B05234392001A6098235B051C436B7A7E
:104110009B012360F8BDC0467C71000074710000F3
:1041200038B50C1C002802D1002C09D112E003681C
:104130000133F9D0051C0835FFF780FF281CF6E78E
:104140002368013306D0251C201C0C35FFF7BCFF6B
:104150002C1CF5E738BD0000FF22030A1340024083
:104160000120904002499B005B5858607047C04650
:104170007C710000FF22030A13400240012090409E
:1041800002499B005B5898607047C0467C710000F4
:1041900008B5084B8200D3589422023352051343CA
:1041A0001B78002B02D000F041FA01E000F096FAF3
:1041B00008BDC04628710000031C80220C33520544
:1041C00013431B78002BF7D00171704738B50D1CD5
:1041D000084B8000C458201C291C1830FFF71EFB18
:1041E0000328F8D0002801D004232374207CC0B217
:1041F00038BDC04624020020F0B589B00290161CDC
:1042000082003748059310580EAB019035481B7853
:104210001458002007AA1080A27C8F0A0492012261
:10422000E274A2745A4253411E3FDBB203937B42B5
:104230005F41FFB2CDB2874202D0CBB29C460D0A9D
:1042400000216D00EDB28F4204D1391C002E01D146
:104250006B46197B0D4307AB1D700122002F02D066
:1042600062465A700222A360E2600198291CFFF79F
:10427000A3FF02980F99FFF7A9FF237C002B0CD115
:10428000002E0AD0059BA660E36031780198FFF705
:1042900093FF02980F99FFF799FF237C002B16D10B
:1042A000039B002B13D0002F01D1002E0FD0002331
:1042B0000127A3600198E76001F0D2F8391C01984A
:1042C0002943FFF779FF02980F99FFF77FFF00233B
:1042D000E3746B46207C1B7CC0B2A37409B0F0BDB4
:1042E0002871000024020020104A830010B598585D
:1042F0000F4A9C58E37C002B05D0237C052B02D071
:10430000237C042B09D19822831C520513430022DD
:104310001A7001F0B7F801236374A37C002B03D05B
:10432000201C1830FFF737FA10BDC0462871000076
:1043300024020020F7B5194B8700FB580125009394
:10434000174BFE58002E26D10C1C24220190081C6D
:10435000311C01F0A6F9201C311C1830FFF714FAAB
:104360000198FFF777FC009801F02AF80C4B019AAE
:10437000FC500C4B9A5C1F2313402A1C9A40131CC0
:10438000094A13609C22009B52050233134380228A
:104390006574351C1A70281CFEBDC04628710000CB
:1043A000240200202571000000E100E0F7B59C2206
:1043B0000027051C0D4E8400A359520501930C4B98
:1043C000E358023313431F70FFF749FC094B019870
:1043D0005A5D1F23134001229A40131C064A1830CD
:1043E000D367FFF7E8F9A751F7BDC04624020020C4
:1043F000287100002571000004E100E00A4B8000F4
:1044000070B5C558094BC6584B68726993420AD0BB
:104410000C1CFFF7C9FB0023011C6268281C00F07C
:10442000DDFF6368736170BD287100002402002005
:10443000F0B587B00FAC334F334D26788400655903
:10444000E459677C002F02D10320207458E0002E2D
:1044500001D11E270E9705930023A674E360A36085
:10446000237423606374071C04920391FFF7C6FF53
:1044700090231021AA1C5B05134319708421EB1CA7
:1044800049050B430221197098235B0513430293DE
:104490004023029A281C137000F0E2FF039B381C93
:1044A0001988012300930E9B049A0193059BFFF743
:1044B000A3FE0D9B002B15D0237C002B0FD10C9B52
:1044C000281CA3600D9BE3600C9B1978FFF774FE1A
:1044D000002E13D0381C0E99FFF778FE0EE0237CD7
:1044E000042B0BD100230126029A1370EB785B0991
:1044F000334202D0281C00F0C5FF6674207CC0B295
:1045000007B0F0BD2402002028710000F0B58BB088
:1045100013AC2478364E374D039484006559A45962
:10452000667C002E02D1032020745FE0039E002EE3
:1045300001D11E3612960993109B00262360119B11
:10454000A66063606B461B7BE660A374267466748A
:10455000079108920490FFF751FF9023AF1C5B0571
:104560003B4305931023059A281C13708422EB1CEF
:104570005205134302221A7098235B053B430693AE
:104580004023069A137000F06BFF079B089A198866
:10459000129B009601930498099BFFF72DFE227C45
:1045A000D2B2B24212D1059B11991A708C235B05CD
:1045B0003B43012900D108221A702B79039B002B61
:1045C00012D004981299FFF701FE0DE0237C042B12
:1045D0000AD1069B1E700126EB785B09334202D09C
:1045E000281C00F04FFF6674207CC0B20BB0F0BDF9
:1045F00024020020287100001FB5069C0094079C2F
:104600000194089C029401240394FFF711FF04B065
:1046100010BD1FB5069C0094079C0194089C029451
:1046200001240394FFF772FF04B010BD842138B554
:10463000244B8200D5584905EB1C0B43022119700D
:10464000214BD45890226B1852051A431278E978FE
:10465000D2B2890634D59421490519430978002935
:104660002ED0012A15D1EB78134202D005232374F2
:104670000CE0E368013BE360002B07D0A368281C33
:104680005A1CA2605978FFF797FD19E0FFF72CFE3E
:1046900016E06268013A6260002A06D08C21490562
:1046A000012A05D10B43082204E0FFF71DFE02E0BA
:1046B00000220B431A7023685A1C22602A791A7050
:1046C00038BDC04628710000240200208423033036
:1046D0005B051843022303707047000090214905D1
:1046E0000A1CF0B58F4B071C8000C55889B0EB1C25
:1046F0000493EB78EE78DBB20593F3B20693AB1D2F
:104700001A43944612789826D2B207929422520500
:104710001A4314787605621E9441E2B2824C334308
:104720000459A81C0090084301921A780178D2B26B
:10473000C9B203910199029000292FD0079900294D
:104740000CD010236246281C1370FFF7BFFF236BA9
:10475000F8B20121002B00D0DCE0E0E0002A1DD0FF
:104760004022281C1A70FFF7B1FF231C2C331B7842
:10477000002B02D1009A16433370236B002B03D019
:10478000F8B28021626B9847E37D002B04D0201C97
:1047900080211830FFF711F80A23BFE0069B281C80
:1047A0009E1101231E40FFF791FF0122059B1B1163
:1047B000134219D09023049A5B05134310221A70F8
:1047C000002E04D0EB785B07DB0F10D11AE0082332
:1047D00023702C342278002A00D0A0E0982300997E
:1047E0005B050B431A709AE0002E16D0EAE71023FF
:1047F000029A1370236B002B6ED0F8B20221626B09
:10480000984769E0029A1370236B002B03D0F8B22B
:104810000421626B98472B7981E0039B012B29D1FE
:10482000EB78039A134257D0029B1E702B79231CFE
:104830002C331B78002B09D1019B002B06D1982328
:10484000009A5B0513436A4612791A70236B002B9A
:1048500003D0F8B20821626B9847A37D002B04D0E7
:10486000201C08211830FEF7A8FF00236360E360D6
:10487000237554E02B79A268DBB2002A2AD0226982
:104880001370236901332361A368013BA360A3680C
:10489000002B44D1019B002B13D1231C2C331B78FC
:1048A000002B06D19823009A5B0513436A461279C0
:1048B0001A70E37D002B04D0201C20211830FEF755
:1048C0007CFF002363752361236BF8B22021002B4A
:1048D00020D124E0072321E06368002B1DD0E3688A
:1048E0001A782B1C80210C3349050B431B78002BB5
:1048F000F7D02A71E3680133E3606368013B6360CA
:104900006368002B0BD1E3602375236B002B06D06B
:104910001021F8B2626B984701E00623237009B0BA
:10492000F0BDC046287100002402002084235B05EE
:1049300003431A7800239A4209D0802301305B0593
:1049400018430378012B01D0024B00E0024B181CE6
:104950007047C04680841E0000127A0010B50D4AD0
:10496000831D13431B78DBB2002B10D0012B08D121
:10497000041CFFF7DBFF084B08341C432378D840A6
:1049800006E00020022B03D1044B186800E0044825
:1049900010BDC04600000811000090102802002041
:1049A000006CDC020B4A831D13431B78DBB2012B26
:1049B00006D0181E0CD00320022B09D0052007E0DA
:1049C000802301305B051843007843425841013091
:1049D0007047C04600000811021C031C9C201833BD
:1049E00040050343802018700020064B13431870C5
:1049F0000548931D03431B78D8B20028F8D1034B18
:104A00000B6070470000081300000811006CDC0206
:104A1000F8B5041C0D1C171C1E1CFFF7C3FF012852
:104A200002D1002D04D007E0022805D1012D03D1C9
:104A3000201C311CFFF7D0FF8022631C520513435A
:104A40001D70842302225B0523431A70231C0C4A29
:104A5000083313437A00D2B21A704022094B234321
:104A60001A70094AA31D13431B78012BF9D1002D9D
:104A700001D1064A00E0064A3A4100203260F8BD02
:104A800000009010000008130000081180841E0030
:104A900000127A000A4B10B51C681A1C0123002C66
:104AA0000CD08024074B03431C70074C831D234309
:104AB0001B78022BF9D113680B600023181C10BD62
:104AC0002802002000000813000008119C23C901DF
:104AD0005B051843C9B201707047942349015B0517
:104AE0001843C9B20170704770B506680C1C301CC1
:104AF0002049FBF749FD1F49051C301CFBF7CAFD87
:104B00000E1C081CE1210901FBF73EFDE121E080BC
:104B10000901301CFBF7BEFD0E1C081C3C21FBF7F5
:104B200033FD3C212081301CFBF7B4FD6E22124B7B
:104B3000A1722380FF32238895420BD9AD1A03223C
:104B400001339BB22380B72113405A1E9341490081
:104B5000CA1AF0E709499B0700D109490123CA5C39
:104B6000954201D8638003E00133AD1A0D2BF6D1D5
:104B7000A58070BD80510100B20700005371000094
:104B80004671000030B5114A0188031C8A180020C4
:104B9000812A19D85A88541E0B2C15D89C88651E5A
:104BA0001E2D11D8DD88172D0ED81D893B2D0BD851
:104BB0009B7A3B2B08D88B0701D0054B00E0054BB7
:104BC0009B5CA3424041C0B230BDC0464EF8FFFFDF
:104BD000537100004671000070B5124A8388048842
:104BE0009A186E23FF3363434588D318A2089B1895
:104BF0000D4A6E00B25A9B18A20702D1022D00D8AE
:104C0000013B0B60E1233C22C4881B015C43038908
:104C10005343827AE3189A180868044B4343D31825
:104C20000B6070BD4A05F5FF2C710000805101003A
:104C3000084B1A6880231B029A4209D1A023103026
:104C40005B0518430368002B02D10133FF33036077
:104C50007047C04628020020021C802110B50023A6
:104C60000124490510320A43146013609022436006
:104C7000520504601C30024313608822520502432F
:104C8000136084225205024308431360036010BD81
:104C9000031C902214335205134300221A60426011
:104CA000103201601A60704703680B6070470000A3
:104CB000114B820070B5D5588022104B92051A60B6
:104CC000041C281CFFF7C8FF281CFFF7B1FF0120B8
:104CD0001F22011C0A4B0B4E1B5D345D1340994093
:104CE0002240C0250B1C904007496D004B51485194
:104CF0000B60086070BDC046647100003C80845E3B
:104D0000617100006071000000E100E0F7B500276C
:104D1000114B8000C658081C0D1C0197FFF732FF8D
:104D2000041EBC4216D001A9281CFFF755FF381CF1
:104D3000FEF77AFF011C80200002814206D0FBF7BB
:104D400023FC011C0198FBF71FFC0190301C01990A
:104D5000FFF79EFF201CFEBD64710000F7B5002523
:104D6000124B8000C4580E1C201C01A90195FFF7AE
:104D70009BFF281CFEF758FF051C8020000285427F
:104D80000ED00B4B291C04341C43FBF7FDFB27689A
:104D9000019C291C4443B8B2FBF7F6FB2018019094
:104DA000311C01A8FFF7A0FEF7BDC04664710000EA
:104DB00000007810F0B50026184B800085B0C4586C
:104DC000081C0F1C01920396FFF7DCFE051EB5427E
:104DD00001D100251EE0381C03A9FFF7FDFE301CA1
:104DE0002768FEF721FF011C80200002814206D0C7
:104DF000FBF7CAFB011C0398FBF7C6FB0390039B60
:104E0000BB42E6D3A36088231C345B051C43019B93
:104E10009B002360281C05B0F0BDC04664710000F3
:104E20008822044B8000C35852051C331343890069
:104E300019607047647100008822054B8000C358D8
:104E40005205143313431868431E9841C0B270478B
:104E5000647100006B46E0221B78D2021B041340F1
:104E600009071943014BC018016070474410000046
:104E700008B5084B8200D3589022033352051343E0
:104E80001B78002B02D000F015F901E000F07AF950
:104E900008BDC0466C71000008B50C4B8000C258BC
:104EA0000B4B0021C3589C2003334005184311715C
:104EB00001709420400503431970137F8B4203D087
:104EC0002032101CFEF767FC08BDC04630020020EF
:104ED0006C710000F7B5061C1C4B30220C1C8700BF
:104EE000081C0021FD5800F0DCFB301CFEF7A8FE7A
:104EF000FEF75AFE2060281C00F0E1FA201C002179
:104F00002030FEF741FCEB1C01939023019A5B05D6
:104F100013431022281C1A70032100F010FB281CD8
:104F2000002100F032FB0A4BFC500A4B9A5D1F2314
:104F3000134001229A40131C074A13609823019AD8
:104F40005B05134340221A70F7BDC0466C71000028
:104F5000300200206871000000E100E0F8B50D4E5D
:104F600084000D4BA759051CE05800F0A8FA381C26
:104F70002030FEF720FC094B281C5A5D1F231340EC
:104F800001229A40131C064AD367FEF75EFE0023F7
:104F9000A351F8BD300200206C7100006871000060
:104FA00004E100E00A4B800070B5C658094B0C1CA8
:104FB000C358151C301C1A68096800F087FA28606D
:104FC0002179301C6279A37900F0CCFA70BDC0461B
:104FD0006C71000030020020F7B51E4A83009C5817
:104FE0001D4A9E5822790423002A31D1071C00292A
:104FF00002D001AAFFF7D6FF982300214020F21C1F
:105000005B0513431970187025698D4203D1381C54
:10501000FFF742FF1BE00123237194235B05334319
:10502000A16119780723002912D0A368191E02D0A4
:1050300019780133A360B1712369013B2361A3692E
:105040000133A3619C235B051A4380231370002363
:10505000181CFEBD300200206C710000F8B5134F23
:10506000134C85002C59ED590127069E2777A26025
:105070002661E3606661FFF7AFFF061E14D1201CB6
:1050800007992030FEF7CAFB0328F8D000280BD080
:105090009C210022EB1C4905194322710A709421BE
:1050A000032649050B431A70301CF8BD6C710000D3
:1050B0003002002010B51E4B8200D3581D495158B4
:1050C0001A79002A32D05A69002A11D09C2252053E
:1050D0000A431278002A0BD08A79DC68D2B2002CFD
:1050E00003D02270DA680132DA605A69013A5A61F3
:1050F0001A69002A12D0942252050A431278002A13
:105100000CD09A68141E02D0147801329A608C7107
:105110001A69013A1A619A6901329A611A69002A78
:1051200004D15B69002B01D1FFF7B6FE10BDC0466C
:10513000300200206C710000104A8000815800226B
:1051400008B50F4B0331C358581CC2779C2040054B
:105150000843DA621A701A835A629A621A630270FA
:105160009420400501430A701A1C38321278002A34
:1051700003D0181D0121FEF720FB08BD6C71000053
:105180003002002038B5254B8200D35824495258AC
:10519000591CC97F00293FD0D96A002916DB942108
:1051A000490511430978002910D0596A1C7F00294C
:1051B00005D0DD6A002D02DD0C7801315962947151
:1051C000D96A0139D962596B01315963D96A002909
:1051D00005DA9424D11C6405214300240C70196B5A
:1051E000002911DD9C2149051143097800290BD0C4
:1051F0009279996AD2B2002903D00A709A6A013270
:105200009A621A6B013A1A63DA6A002A04DC1B6B91
:10521000002B01DCFFF790FF38BDC04630020020B4
:105220006C710000012903D0032909D1842300E017
:1052300094235B0518430078431E9841C0B200E0F8
:1052400000207047034B013049011843C9B2017077
:105250007047C04600008812942302305B05490164
:105260001843C9B201707047034B023089011843DB
:10527000C9B201707047C046000008138C23023089
:105280005B05C9001843C9B201707047F7B5384EC5
:10529000C21C164337780B78FFB20122072B65D862
:1052A000041C181C0D1CFBF765F904192A0D192A9A
:1052B0002A3A00232F480134044323703378012B0A
:1052C000FCD152E00322012F50D140232948013460
:1052D000044323703378042BFCD146E00021012BDA
:1052E00001D0042302213078032298423ED1201CB1
:1052F000FFF7A8FF0421204A13698B4333E00227FC
:10530000BB4207D100270B79BB4203D04979201C4F
:10531000FFF7AAFF194801340443277019E004235A
:105320001649621C0A4313706A78A31C0B431A7057
:105330006B78002B06D1AB78002B03D0E978201CCA
:10534000FFF78AFFAB79002B03D0E979201CFFF728
:1053500095FF04213378084ADBB20193019B0133A6
:10536000019313690B43136130BF0022101CFEBD73
:10537000000030100000881200ED00E00000101066
:10538000024B033018430078C0B270470000301061
:1053900014308023012A04D18A401B05184302607F
:1053A00005E0DB04184301238B40D94301607047BB
:1053B00001238B40002A01D0436000E083607047E6
:1053C0000023C222037043708370C37043718371E2
:1053D000C371037242728372C3727047F0B50027C3
:1053E00089B00393FA2301253C1C9B00534306908C
:1053F000079102936D4201970123A3400493174B39
:105400009E1CCA330593049B318807985943FBF7C8
:10541000BBF8029B029AC31A824200D9131AAB420C
:1054200004D2B21E177801941D1E03D0059B0436CA
:105430009E42E8D10134032C01D0002DDCD1039B26
:10544000002B00D01D603F231F40019B9B011F4389
:10545000069BFFB25F7009B0F0BDC04686710000C8
:10546000942302305B0503431B78002B04D0882370
:105470005B051843042303E080231B0518433023F6
:10548000037070479422831C52051A431278011C42
:105490000220012A12D18022D2041343CF221A7093
:1054A0008022D2002023C878034004D0013A002A89
:1054B00003D0C046F6E7181C00E00920704704231B
:1054C000C37000238370437003717047F0B5130BF2
:1054D00089B001250493082300266D4203935B19CC
:1054E000079005910692029302270024731C191C51
:1054F000069879430193FBF747F8059B834206D34F
:105500001B1A9D4203D91D1C04900394029601347A
:105510007F00092C02D0002DE8D104E0072E02D034
:10552000019E002DE0D17022029B04981B011340C4
:10553000039A1343079ADBB2537009B0F0BD84227B
:10554000C31C52051A4301230B405B00DBB21370EE
:1055500090238907C90F5B05023009011843C9B2BE
:105560000170704710B58C2403306405C9000443F2
:10557000C9B221708821920049050143D2B20A7054
:10558000802252051043037010BD80230122023097
:105590005B0503430A401A708C238907C90F5B051A
:1055A000C9001843C9B201707047011C002008B53A
:1055B000021C031C00F03EF908BD0000014B1868F6
:1055C0007047C046ACFFFF1F084B10B5041C002BF2
:1055D00002D0002100F08AF9054B1868836A002B7D
:1055E00000D09847201C00F0F5F9C046ED580000A7
:1055F0005072000038B5074B074C1D1CE41AA4106C
:10560000002C04D0013CA300EB589847F8E701F0C8
:1056100027FE38BD787200007C7200000E4B70B51A
:1056200000251E1C0D4CE41AA410A54204D0AB00AA
:10563000F35898470135F8E701F00CFE084B0025B8
:105640001E1C084CE41AA410A54204D0AB00F35869
:1056500098470135F8E770BD74720000747200005D
:10566000747200007872000008B5034B011C1868C2
:1056700000F066F808BDC046ACFFFF1F08B5034B3D
:10568000011C186800F016F808BDC046ACFFFF1FEB
:10569000002310B5934203D0CC5CC4540133F9E726
:1056A00010BD031C8218934202D019700133FAE72F
:1056B0007047000030B500293ED004390B68002B3C
:1056C00000DAC9181D4A1368141C002B02D14B6064
:1056D000116031E099420DD208680A189A4203D14C
:1056E0001368C3180B6053684B60216024E08A4242
:1056F00003D8131C5A68002AF9D11D685C198C4222
:105700000BD10968691858181960904214D11068B3
:105710005268091819605A600EE08C4202D90C23B5
:10572000036009E008680C18944203D114685268B9
:10573000001908604A60596030BDC0463802002038
:10574000032370B5CC1C9C430834051C0C2C01D2DF
:105750000C2405E0002C03DA0C2300202B6042E02F
:105760008C42F9D3204A1368101C191C002913D04D
:105770000A68121B0DD40B2A02D90A608B181FE08D
:105780008B4202D15A6802601BE04A685A600B1CC7
:1057900017E00B1C4968E9E7144E3368002B03D16E
:1057A000281C00F025F83060281C211C00F020F88F
:1057B000031C421CD0D00322C61C964386420AD149
:1057C0001C60181C07210B301A1D8843821A0AD04E
:1057D0005142995007E0311A281C00F009F8431C87
:1057E000BAD0331CECE770BD380200203402002030
:1057F00038B50023064C051C081C2360FBF746F84F
:10580000431C03D12368002B00D02B6038BDC04659
:10581000CC020020031C0A7801311A700133002ADF
:10582000F9D170470023C25C0133002AFBD1581E16
:1058300070470000F7B52A4D061C2C680091171C14
:105840000193002C01D1274C2C6063681F2B15DDC0
:10585000254B002B02D10120404240E08C20FFF775
:1058600003FF041EF7D02A6800230260021C88325E
:105870004360286013609E420AD128E0002E26D0A3
:10588000231C88331868002810D1174B002BE2D056
:1058900084204000FFF7E8FE0028DCD0031C002233
:1058A000FC335A609A60231C8833186001226168B7
:1058B0008A408B00C31880C3FC30416811434160AB
:1058C0000199D967022E02D183681A4382600020B1
:1058D00063685A1C62600233009A9B001A51FEBD35
:1058E000C80200203C02002069560000F0B587B0D5
:1058F00005900391344D2C68002C63D0231C883311
:105900001E6863685A1E0192304A9B189B00F71864
:105910000433E3180293019B002B3DDB039B002B18
:1059200007D0002E31D03B1C80331B68039A934272
:105930002BD16268029B0199013A5B68914201D1C7
:10594000616002E0002202994A60002B1DD062686B
:105950000492002E07D0012201998A40311CFC31AB
:105960004868104201D1984708E08968114203D184
:1059700005983968984701E038689847049B626841
:105980009342B7D12B68A342B4D1019B043F013BA2
:105990000193029B043BBDE70D4B002B12D06268C4
:1059A0002368002A0BD1002B09D02B60002E02D0D7
:1059B000301CFFF763FE201CFFF760FE9BE7251CF1
:1059C0001C1C99E707B0F0BDC8020020FFFFFF3F95
:1059D0007D560000FEE7C0460300000032000000D4
:1059E00003000000030000001B5B306D1B5B343BB9
:1059F00034336D1B5B313B33376D0D53616E69740E
:105A00007920636865636B206661696C6564211B3E
:105A10005B306D0A001B5B306D1B5B343B34316DBA
:105A20001B5B313B33376D0D496E76616C696420C9
:105A3000737570706C7920766F6C74616765205B2C
:105A400025645D206D56211B5B306D0A004D65613C
:105A5000737572656D656E74206E756D6265722CFE
:105A6000205254432D3E5453522C205254432D3E29
:105A70005450522C00204D4D413834353120782C73
:105A8000204D4D413834353120792C204D4D413851
:105A9000343531207A2C00205254432D3E54535239
:105AA0002C205254432D3E5450522C202320436F1F
:105AB0006E666967204572726F72730025752C20BF
:105AC00025642C2025642C002025642C2025642CA2
:105AD0002025640A000D09307825303278202D2DDC
:105AE0003E205B307825303278203078253032788F
:105AF000203078253032785D0A000D093078253065
:105B00003278202D2D3E203078253032780A000D55
:105B100009307825303278202D2D3E202D2D2D2D49
:105B20000A000D0A0925642F2564207375636365D7
:105B3000737320726174652E0A000D0925642F2588
:105B40006420737563636573736573206D6174633B
:105B5000686564207265662E2076616C7565206FBD
:105B600066203078253032782E0A000D0925642011
:105B700062616420636F6D6D616E64732E0A0A004A
:105B80000D0A094144584C33363220526561642075
:105B900041626F727465642E204465766963652086
:105BA00044697361626C6564203A28000D0A4D4DAA
:105BB0004138343531513A0A0D000D0A494E41320F
:105BC00031393A0A0D000D0A0A424D453638302067
:105BD000526561642041626F727465642E20446571
:105BE000766963652044697361626C6564203A2854
:105BF000000D0A09424D58303535616363656C20EC
:105C0000526561642041626F727465642E20446540
:105C1000766963652044697361626C6564203A2823
:105C200020000D0A09424D583035356779726F20D2
:105C3000526561642041626F727465642E20446510
:105C4000766963652044697361626C6564203A28F3
:105C500020000D0A0920424D583035356D6167200E
:105C6000526561642041626F727465642E204465E0
:105C7000766963652044697361626C6564203A28C3
:105C800020000D0A094D4147333131302052656102
:105C9000642041626F727465642E20446576696386
:105CA000652044697361626C6564203A2820000DA8
:105CB0000A094C3347443230482052656164204120
:105CC000626F727465642E20446576696365204452
:105CD000697361626C6564203A2820000D0A094CE2
:105CE000505332354820526561642041626F7274AE
:105CF00065642E204465766963652044697361623A
:105D00006C6564203A2820000D0A0954435333344B
:105D100037323520526561642041626F7274656468
:105D20002E204465766963652044697361626C6501
:105D300064203A2820000D0A0953493437303520B1
:105D4000526561642041626F727465642E204465FF
:105D5000766963652044697361626C6564203A28E2
:105D600020000D0A0948444331303030205265612B
:105D7000642041626F727465642E204465766963A5
:105D8000652044697361626C6564203A2820000DC7
:105D90000A0953493730323120526561642041622B
:105DA0006F727465642E204465766963652044696A
:105DB0007361626C6564203A2820000D0A09434330
:105DC0005338313120526561642041626F727465CD
:105DD000642E204465766963652044697361626C52
:105DE0006564203A2820000D0A09414D47383833B0
:105DF0003420526561642041626F727465642E20A4
:105E00004465766963652044697361626C656420EA
:105E10003A2820000D0A09415337323632205265A4
